:020000040800F2
:10000000005000202D030008710300087103000850
:10001000710300087103000871030008000000006C
:100020000000000000000000000000007103000854
:10003000710300080000000071030008710300084C
:1000400071030008710300087103000871030008C0
:1000500071030008710300087103000871030008B0
:1000600071030008710300087103000871030008A0
:100070007103000871030008710300087103000890
:100080007103000871030008710300087103000880
:100090007103000871030008710300087103000870
:1000A0007103000871030008710300087103000860
:1000B0007103000871030008710300087103000850
:1000C0007103000871030008710300087103000840
:1000D0007103000871030008710300087103000830
:1000E000710300087103000871030008000000009C
:1000F0000000000000000000000000000000000000
:0C01000000000000000000005FF808F1A3
:10010C0010B5054C237833B9044B13B10448AFF345
:10011C0000800123237010BD0000002000000000AF
:10012C00BC03000808B5034B1BB103490348AFF3EC
:10013C00008008BD0000000004000020BC03000883
:10014C0080B400AF194B1B68184A43F4803313601A
:10015C00164B1B68154A43F080731360134B5B6896
:10016C00124A43F480335360104B5B680F4A23F4FC
:10017C00003353600D4B5B680C4A43F4E01353603F
:10018C000A4B5B68094A43F002035360074B5B68F8
:10019C00064A43F480635360044B5B68034A43F4A0
:1001AC004043536000BFBD4680BC70470010024006
:1001BC0080B400AF094B9B68084A43F480039360FA
:1001CC0000BF064B1B6803F00203002BF9D0034B56
:1001DC00DB6C1846BD4680BC704700BF0024014054
:1001EC0080B582B000AFFFF7ABFF494B9B69484A23
:1001FC0043F401739361464B9B69454A43F00103F9
:10020C009361434B9B69424A43F400639361414BB6
:10021C001B68404A23F00F0313603E4B5B683D4A5A
:10022C0023F00F0353603B4B5B683A4A43F00B03DC
:10023C005360394B1B68384A23F006031360364B66
:10024C001B68354A23F008031360334B1B68324A92
:10025C0023F010031360304B1B682F4A23F060030C
:10026C0013602D4B00229A622B4B40F6FF72DA6220
:10027C00294B9B69284A23F003039361264B5B6C43
:10028C00254A43F400435364234B9B69224A43F0B1
:10029C0060039361204B1B6A1F4A43F003031362F4
:1002AC001D4B00225A631C4B1B681B4A43F0010375
:1002BC0013601A4B9B68194A43F001039360174B68
:1002CC009B68164A43F460239360144B9B68134A53
:1002DC0043F480139360114B9B68104A23F0020384
:1002EC0093600E4B0022DA620C4B00221A630B4B0C
:1002FC0000225A63094B9B68084A43F480039360BD
:10030C00FFF756FF7860044A7B685363F8E700BF39
:10031C000010024000080140002C01400024014064
:10032C000B480C490C4A002302E0D458C450043347
:10033C00C4188C42F9D3094A094C002301E013601C
:10034C000432A242FBD300F00FF8FFF749FF7047CD
:10035C000000002000000020DC030008000000204A
:10036C001C000020FEE7000070B500260C4D0D4C63
:10037C00641BA410A64209D100F01AF800260A4DFD
:10038C000A4C641BA410A64205D170BD55F8043B61
:10039C0098470136EEE755F8043B98470136F2E7EB
:1003AC00D4030008D4030008D4030008D8030008C1
:1003BC00F8B500BFF8BC08BC9E467047F8B500BF46
:0803CC00F8BC08BC9E46704716
:0403D40031010008EB
:0403D8000D0100080B
:040000050800032DBF
:00000001FF
