:020000040800F2
:1000000000500020CD020008110300081103000871
:10001000110300081103000811030008000000008C
:1000200000000000000000000000000011030008B4
:100030001103000800000000110300084D01000832
:100040001103000811030008110300081103000840
:100050001103000811030008110300081103000830
:100060001103000811030008110300081103000820
:100070001103000811030008110300081103000810
:100080001103000811030008110300081103000800
:1000900011030008110300081103000811030008F0
:1000A00011030008110300081103000811030008E0
:1000B00011030008110300081103000811030008D0
:1000C00011030008110300081103000811030008C0
:1000D00011030008110300081103000811030008B0
:1000E00011030008110300081103000800000000BC
:1000F0000000000000000000000000000000000000
:0C01000000000000000000005FF808F1A3
:10010C0010B5054C237833B9044B13B10448AFF345
:10011C0000800123237010BD0000002000000000AF
:10012C005C03000808B5034B1BB103490348AFF34C
:10013C00008008BD00000000040000205C030008E3
:10014C0080B400AF064B1B68002B04D0044B1B681B
:10015C00013B034A136000BFBD4680BC704700BF23
:10016C001C00002080B400AF0C4B5B680B4A03F002
:10017C007F435360094B0A4A5A60084B9B68074AF5
:10018C0003F07F439360054B1B68044A43F007035D
:10019C00136000BFBD4680BC704700BF10E000E09C
:1001AC008819010080B483B000AF78600B4B9B685A
:1001BC000A4A03F07F439360084B094A9A60094A44
:1001CC007B68136000BF074B1B68002BFBD100BF83
:1001DC0000BF0C37BD4680BC704700BF10E000E08C
:1001EC00881901001C00002080B400AF194B1B685B
:1001FC00184A43F480331360164B1B68154A43F0BE
:10020C0080731360134B5B68124A43F48033536062
:10021C00104B5B680F4A23F4003353600D4B5B6843
:10022C000C4A43F4E01353600A4B5B68094A43F0F1
:10023C0002035360074B5B68064A43F480635360C8
:10024C00044B5B68034A43F44043536000BFBD4614
:10025C0080BC70470010024080B500AFFFF7C4FFB0
:10026C00FFF780FF144B9B69134A43F0040393611F
:10027C00124B1B68114A23F0FF0313600F4B1B68D2
:10028C000E4A43F0020313600C4B1B680B4A43F0FD
:10029C0020031360094BDB68084A43F00103D36069
:1002AC00064BDB68054A83F00203D3604FF47A7087
:1002BC00FFF778FFF4E700BF001002400008014090
:1002CC000B480C490C4A002302E0D458C4500433A8
:1002DC00C4188C42F9D3094A094C002301E013607D
:1002EC000432A242FBD300F00FF8FFF7B5FF7047C2
:1002FC0000000020000000207C030008000000200B
:10030C0020000020FEE7000070B500260C4D0D4CBF
:10031C00641BA410A64209D100F01AF800260A4D5D
:10032C000A4C641BA410A64205D170BD55F8043BC1
:10033C0098470136EEE755F8043B98470136F2E74B
:10034C0074030008740300087403000878030008A1
:10035C00F8B500BFF8BC08BC9E467047F8B500BFA6
:08036C00F8BC08BC9E46704776
:04037400310100084B
:040378000D0100086B
:04000005080002CD20
:00000001FF
