:020000040800F2
:10000000005000205D020008A1020008A1020008C3
:10001000A1020008A1020008A102000800000000DF
:10002000000000000000000000000000A102000825
:10003000A102000800000000A1020008A1020008BF
:10004000A1020008A1020008A1020008A102000804
:10005000A1020008A1020008A1020008A1020008F4
:10006000A1020008A1020008A1020008A1020008E4
:10007000A1020008A1020008A1020008A1020008D4
:10008000A1020008A1020008A1020008A1020008C4
:10009000A1020008A1020008A1020008A1020008B4
:1000A000A1020008A1020008A1020008A1020008A4
:1000B000A1020008A1020008A1020008A102000894
:1000C000A1020008A1020008A1020008A102000884
:1000D000A1020008A1020008A1020008A102000874
:1000E000A1020008A1020008A1020008000000000F
:1000F0000000000000000000000000000000000000
:0C01000000000000000000005FF808F1A3
:10010C0010B5054C237833B9044B13B10448AFF345
:10011C0000800123237010BD0000002000000000AF
:10012C00EC02000808B5034B1BB103490348AFF3BD
:10013C00008008BD0000000004000020EC02000854
:10014C00424B1A6842F480321A609A6942F00402F7
:10015C009A619A6942F001029A619A6942F40062CA
:10016C009A61A3F584335A6822F0FF025A605A68E8
:10017C0022F47F425A605A6842F00B025A605A6865
:10018C0042F0B0025A605A6842F430625A605A68BF
:10019C0042F430425A6003F510531A6822F00602FA
:1001AC001A601A6822F008021A601A6822F010020B
:1001BC001A601A6822F060021A6001229A62FE220A
:1001CC00DA629A6922F003029A619A6922F4407207
:1001DC009A61DA6922F00302DA61DA6922F4407278
:1001EC00DA615A6C42F400425A649A6942F0600235
:1001FC009A619A6942F4C0429A61DA6942F06002EB
:10020C00DA61DA6942F4C042DA611A6A42F0030236
:10021C001A621A6A42F030021A621A6A42F4407286
:10022C001A621A6A42F440521A6200225A639A63A2
:10023C001422DA631E221A641A6842F001021A6050
:10024C0000225A630132FF2AFBD1F9E70010024069
:10025C000B480C490C4A002302E0D458C450043318
:10026C00C4188C42F9D3094A094C002301E01360ED
:10027C000432A242FBD300F00FF8FFF761FF704786
:10028C0000000020000000200C03000800000020EB
:10029C001C000020FEE7000070B500260C4D0D4C34
:1002AC00641BA410A64209D100F01AF800260A4DCE
:1002BC000A4C641BA410A64205D170BD55F8043B32
:1002CC0098470136EEE755F8043B98470136F2E7BC
:1002DC0004030008040300080403000808030008D2
:1002EC00F8B500BFF8BC08BC9E467047F8B500BF17
:0802FC00F8BC08BC9E467047E7
:0403040031010008BB
:040308000D010008DB
:040000050800025D90
:00000001FF
