:020000040800F2
:100000000050002099020008DD020008DD0200080F
:10001000DD020008DD020008DD020008000000002B
:10002000000000000000000000000000DD020008E9
:10003000DD02000800000000DD020008DD0200080B
:10004000DD020008DD020008DD020008DD02000814
:10005000DD020008DD020008DD020008DD02000804
:10006000DD020008DD020008DD020008DD020008F4
:10007000DD020008DD020008DD020008DD020008E4
:10008000DD020008DD020008DD020008DD020008D4
:10009000DD020008DD020008DD020008DD020008C4
:1000A000DD020008DD020008DD020008DD020008B4
:1000B000DD020008DD020008DD020008DD020008A4
:1000C000DD020008DD020008DD020008DD02000894
:1000D000DD020008DD020008DD020008DD02000884
:1000E000DD020008DD020008DD020008000000005B
:1000F0000000000000000000000000000000000000
:0C01000000000000000000005FF808F1A3
:10010C0010B5054C237833B9044B13B10448AFF345
:10011C0000800123237010BD0000002000000000AF
:10012C002803000808B5034B1BB103490348AFF380
:10013C00008008BD00000000040000202803000817
:10014C000C4B1A6842F480321A605A6842F48032BE
:10015C005A605A6822F400325A605A6842F4E0122B
:10016C005A605A6842F002025A605A6842F480623D
:10017C005A6070470010024008B5FFF7E1FF424B90
:10018C00FE219A6942F004029A619A6942F00102D6
:10019C009A619A6942F400629A61A3F584335A68B1
:1001AC0022F0FF025A605A6822F47F425A605A6861
:1001BC0042F00B025A605A6842F0B0025A605A6818
:1001CC0042F430625A605A6842F430425A6003F585
:1001DC0010531A6822F006021A601A6822F00802FC
:1001EC001A601A6822F010021A601A6822F0600273
:1001FC001A6000229A62D962996921F0030199610F
:10020C00996921F440719961D96921F00301D9618F
:10021C00D96921F44071D961596C41F40041596498
:10022C00996941F060019961996941F4C041996102
:10023C00D96941F06001D961D96941F4C041D961F2
:10024C00196A41F001011962196A41F01001196231
:10025C00196A41F480711962196A41F4805119626A
:10026C005A639A63DA63FF221A641A6842F0010235
:10027C001A6000225A630132B2F5FA7FFAD15A633E
:10028C00013AFCD1F5E700BF001002400B480C49C5
:10029C000C4A002302E0D458C4500433C4188C42D6
:1002AC00F9D3094A094C002301E013600432A2423D
:1002BC00FBD300F00FF8FFF75FFF70470000002042
:1002CC000000002048030008000000201C00002053
:1002DC00FEE7000070B500260C4D0D4C641BA410FD
:1002EC00A64209D100F01AF800260A4D0A4C641BEC
:1002FC00A410A64205D170BD55F8043B98470136B1
:10030C00EEE755F8043B98470136F2E74003000846
:10031C00400300084003000844030008F8B500BF80
:10032C00F8BC08BC9E467047F8B500BFF8BC08BCCA
:04033C009E46704722
:04034000310100087F
:040344000D0100089F
:040000050800029954
:00000001FF
