:020000040800F2
:10000000005000204D0300089103000891030008F0
:10001000910300089103000891030008000000000C
:100020000000000000000000000000009103000834
:100030009103000800000000910300084D01000832
:100040009103000891030008910300089103000840
:100050009103000891030008910300089103000830
:100060009103000891030008910300089103000820
:100070009103000891030008910300089103000810
:100080009103000891030008910300089103000800
:1000900091030008910300089103000891030008F0
:1000A00091030008910300089103000891030008E0
:1000B00091030008910300089103000891030008D0
:1000C00091030008910300089103000891030008C0
:1000D00091030008910300089103000891030008B0
:1000E000910300089103000891030008000000003C
:1000F0000000000000000000000000000000000000
:0C01000000000000000000005FF808F1A3
:10010C0010B5054C237833B9044B13B10448AFF345
:10011C0000800123237010BD0000002000000000AF
:10012C00DC03000808B5034B1BB103490348AFF3CC
:10013C00008008BD0000000004000020DC03000863
:10014C00034B1A6812B11A68013A1A60704700BF63
:10015C001C0000204FF0E0235A6902F07F425A61E4
:10016C00054A5A619A6902F07F429A611A6942F013
:10017C0007021A61704700BF881901004FF0E02395
:10018C009A6902F07F429A61034A9A61034B1860A4
:10019C001A68002AFCD17047881901001C00002045
:1001AC000C4B1A6842F480321A605A6842F480325E
:1001BC005A605A6822F400325A605A6842F4E012CB
:1001CC005A605A6842F002025A605A6842F48062DD
:1001DC005A6070470010024070B5FFF7E1FFFFF75F
:1001EC00B9FF554B55499A6941F2707542F00402BA
:1001FC009A619A6942F001029A619A6942F400622A
:10020C009A61A3F584335A6822F0FF025A605A6847
:10021C0022F47F425A605A6842F00B025A605A68C4
:10022C0042F0B0025A605A6842F430625A605A681E
:10023C0042F430425A600B6823F006030B600B68E3
:10024C0023F008030B600B6823F010030B600B68A2
:10025C0023F060030B6003238B6241F26F73CB625C
:10026C008B6923F003038B618B6923F440738B61DF
:10027C00CB6923F00303CB61CB6923F44073CB61CF
:10028C004B6C43F400434B648B6943F060038B610C
:10029C008B6943F4C0438B61CB6943F06003CB6142
:1002AC00CB6943F4C043CB610B6A43F001030B628F
:1002BC000B6A43F010030B620B6A43F480730B62FE
:1002CC000B6A43F480530B6200234B638B63CB6349
:1002DC000B640B6843F001030B604FF4E1640120E5
:1002EC00CC630444FFF74AFFAC42F8D140F20776E6
:1002FC00CC630120013CFFF741FFB442F8D100234D
:10030C006420CB63FFF73AFF4FF4E16401200C64E7
:10031C000444FFF733FFAC42F8D140F207760C648B
:10032C000120013CFFF72AFFB442F8D100236420DE
:10033C000B64FFF723FFD0E700100240002C0140B4
:10034C000B480C490C4A002302E0D458C450043327
:10035C00C4188C42F9D3094A094C002301E01360FC
:10036C000432A242FBD300F00FF8FFF735FF7047C1
:10037C000000002000000020FC030008000000200A
:10038C0020000020FEE7000070B500260C4D0D4C3F
:10039C00641BA410A64209D100F01AF800260A4DDD
:1003AC000A4C641BA410A64205D170BD55F8043B41
:1003BC0098470136EEE755F8043B98470136F2E7CB
:1003CC00F4030008F4030008F4030008F803000821
:1003DC00F8B500BFF8BC08BC9E467047F8B500BF26
:0803EC00F8BC08BC9E467047F6
:0403F40031010008CB
:0403F8000D010008EB
:040000050800034D9F
:00000001FF
