:020000040800F2
:1000000000000220F52A0008FD290008FF29000849
:10001000012A0008032A0008052A00080000000041
:10002000000000000000000000000000072A000897
:10003000092A0008000000000B2A00080D2A000809
:10004000452B0008452B0008452B0008452B0008D0
:10005000452B0008452B0008452B0008452B0008C0
:10006000112A0008452B0008452B0008452B0008E5
:10007000452B0008452B0008452B0008452B0008A0
:10008000452B0008452B0008452B0008452B000890
:10009000452B0008452B0008452B0008452B000880
:1000A000452B0008452B0008452B0008452B000870
:1000B000452B0008452B0008452B0008452B000860
:1000C000452B0008452B0008452B0008452B000850
:1000D000452B0008452B0008452B0008452B000840
:1000E000172A0008452B0008452B0008452B00085F
:1000F000452B0008452B0008452B0008452B000820
:10010000452B0008452B0008452B0008452B00080F
:10011000452B0008452B0008452B0008452B0008FF
:10012000452B0008452B0008452B0008452B0008EF
:10013000452B0008452B0008452B0008452B0008DF
:10014000452B0008452B0008452B0008452B0008CF
:10015000452B0008452B0008452B0008452B0008BF
:10016000452B0008452B0008452B0008452B0008AF
:10017000452B0008452B0008452B0008452B00089F
:10018000452B0008452B0008452B0008452B00088F
:10019000452B000800000000452B0008452B0008F7
:1001A000452B0008452B0008452B0008452B00086F
:1001B000452B0008452B0008452B0008452B00085F
:1001C000452B0008452B0008452B0008452B00084F
:0801D000452B0008452B000837
:1001E00010B5054C237833B9044B13B10448AFF371
:1001F00000800123237010BDE001002000000000FA
:10020000B089000808B5034B1BB103490348AFF39D
:10021000008008BD00000000E4010020B089000853
:1002200001F0FF01102A2BDB10F0070F08D010F8A7
:10023000013B013A8B422DD010F0070F42B3F6D1AB
:10024000F0B441EA012141EA014122F007047FF0C4
:1002500000070023F0E80256083C85EA010586EA1B
:10026000010685FA47F5A3FA87F586FA47F6A5FA57
:1002700087F68EB9EED1F0BC01F0FF0102F0070263
:1002800032B110F8013B013A83EA010313B1F8D10E
:100290000020704701387047002D06BF35460338EF
:1002A000073815F0010F07D1013015F4807F02BF28
:1002B000013015F4C03F0130F0BC0138704700BF79
:1002C000034613F8012B002AFBD1181A0138704796
:1002D00081F0004102E000BF83F0004330B54FEAF7
:1002E00041044FEA430594EA050F08BF90EA020F64
:1002F0001FBF54EA000C55EA020C7FEA645C7FEAF7
:10030000655C00F0E2804FEA5454D4EB5555B8BF19
:100310006D420CDD2C4480EA020281EA030382EA8A
:10032000000083EA010180EA020281EA0303362D1C
:1003300088BF30BD11F0004F4FEA01314FF4801CEF
:100340004CEA113102D0404261EB410113F0004F01
:100350004FEA03334CEA133302D0524263EB4303B8
:1003600094EA050F00F0A780A4F10104D5F1200E56
:100370000DDB02FA0EFC22FA05F2801841F10001B1
:1003800003FA0EF2801843FA05F359410EE0A5F185
:1003900020050EF1200E012A03FA0EFC28BF4CF0B6
:1003A000020C43FA05F3C01851EBE37101F000456C
:1003B00007D54FF0000EDCF1000C7EEB00006EEB79
:1003C0000101B1F5801F1BD3B1F5001F0CD3490803
:1003D0005FEA30004FEA3C0C04F101044FEA44525A
:1003E00012F5800F80F09A80BCF1004F08BF5FEAE1
:1003F000500C50F1000041EB045141EA050130BDC1
:100400005FEA4C0C404141EB0101013C28BFB1F5D2
:10041000801FE9D291F0000F04BF01460020B1FA1D
:1004200081F308BF2033A3F10B03B3F120020CDAF0
:100430000C3208DD02F1140CC2F10C0201FA0CF0CE
:1004400021FA02F10CE002F11402D8BFC2F1200C33
:1004500001FA02F120FA0CFCDCBF41EA0C019040E9
:10046000E41AA2BF01EB0451294330BD6FEA040432
:100470001F3C1CDA0C340EDC04F11404C4F120021D
:1004800020FA04F001FA02F340EA030021FA04F32F
:1004900045EA030130BDC4F10C04C4F1200220FA86
:1004A00002F001FA04F340EA0300294630BD21FAC4
:1004B00004F0294630BD94F0000F83F4801306BF8A
:1004C00081F480110134013D4EE77FEA645C18BF7E
:1004D0007FEA655C29D094EA050F08BF90EA020F15
:1004E00005D054EA000C04BF1946104630BD91EA0D
:1004F000030F1EBF0021002030BD5FEA545C05D110
:100500004000494128BF41F0004130BD14F580044E
:100510003CBF01F5801130BD01F0004545F0FE41C2
:1005200041F470014FF0000030BD7FEA645C1ABFF7
:10053000194610467FEA655C1CBF0B46024650EA2E
:10054000013406BF52EA033591EA030F41F400215A
:1005500030BD00BF90F0000F04BF0021704730B5E0
:100560004FF4806404F132044FF000054FF00001B5
:1005700050E700BF90F0000F04BF0021704730B576
:100580004FF4806404F1320410F0004548BF40424B
:100590004FF000013EE700BF42004FEAE2014FEAA0
:1005A00031014FEA02701FBF12F07F4393F07F4F7B
:1005B00081F06051704732F07F4208BF704793F07E
:1005C0007F4F04BF41F40021704730B54FF4607491
:1005D00001F0004521F000411CE700BF50EA010294
:1005E00008BF704730B54FF000050AE050EA01023D
:1005F00008BF704730B511F0004502D5404261EBAD
:1006000041014FF4806404F132045FEA915C3FF4ED
:10061000D8AE4FF003025FEADC0C18BF03325FEA8A
:10062000DC0C18BF033202EBDC02C2F1200300FA3B
:1006300003FC20FA02F001FA03FE40EA0E0021FA60
:1006400002F11444BDE600BF70B54FF0FF0C4CF44E
:10065000E06C1CEA11541DBF1CEA135594EA0C0F00
:1006600095EA0C0F00F0DEF82C4481EA030621EA3B
:100670004C5123EA4C5350EA013518BF52EA033576
:1006800041F4801143F4801338D0A0FB02CE4FF028
:100690000005E1FB02E506F00042E0FB03E54FF058
:1006A0000006E1FB03569CF0000F18BF4EF0010E50
:1006B000A4F1FF04B6F5007F64F5407404D25FEA4C
:1006C0004E0E6D4146EB060642EAC62141EA5551FF
:1006D0004FEAC52040EA5E504FEACE2EB4F1FD0C41
:1006E00088BFBCF5E06F1ED8BEF1004F08BF5FEABF
:1006F000500E50F1000041EB045170BD06F0004671
:1007000046EA010140EA020081EA0301B4EB5C041D
:10071000C2BFD4EB0C0541EA045170BD41F4801115
:100720004FF0000E013C00F3AB8014F1360FDEBF3A
:10073000002001F0004170BDC4F10004203C35DA16
:100740000C341BDC04F11404C4F1200500FA05F399
:1007500020FA04F001FA05F240EA020001F000423A
:1007600021F0004110EBD37021FA04F642EB0601B0
:100770005EEA430E08BF20EAD37070BDC4F10C04DA
:10078000C4F1200500FA04F320FA05F001FA04F29E
:1007900040EA020001F0004110EBD37041F100018A
:1007A0005EEA430E08BF20EAD37070BDC4F1200595
:1007B00000FA05F24EEA020E20FA04F301FA05F2FD
:1007C00043EA020321FA04F001F0004121FA04F2A5
:1007D00020EA020000EBD3705EEA430E08BF20EA75
:1007E000D37070BD94F0000F0FD101F000464000AF
:1007F00041EB010111F4801F08BF013CF7D041EA31
:10080000060195F0000F18BF704703F00046520034
:1008100043EB030313F4801F08BF013DF7D043EA05
:100820000603704794EA0C0F0CEA135518BF95EABB
:100830000C0F0CD050EA410618BF52EA4306D1D142
:1008400081EA030101F000414FF0000070BD50EA61
:10085000410606BF1046194652EA430619D094EAEB
:100860000C0F02D150EA013613D195EA0C0F05D1D5
:1008700052EA03361CBF104619460AD181EA030129
:1008800001F0004141F0FE4141F470014FF00000E1
:1008900070BD41F0FE4141F4780170BD70B54FF07C
:1008A000FF0C4CF4E06C1CEA11541DBF1CEA1355FC
:1008B00094EA0C0F95EA0C0F00F0A7F8A4EB0504DE
:1008C00081EA030E52EA03354FEA013100F08880D5
:1008D0004FEA03334FF0805545EA131343EA12639E
:1008E0004FEA022245EA111545EA10654FEA002653
:1008F0000EF000419D4208BF964244F1FD0404F50C
:10090000407402D25B084FEA3202B61A65EB030567
:100910005B084FEA32024FF480104FF4002CB6EB24
:10092000020E75EB030E22BFB61A754640EA0C00A4
:100930005B084FEA3202B6EB020E75EB030E22BFE4
:10094000B61A754640EA5C005B084FEA3202B6EB25
:10095000020E75EB030E22BFB61A754640EA9C00E4
:100960005B084FEA3202B6EB020E75EB030E22BFB4
:10097000B61A754640EADC0055EA060E18D04FEA72
:10098000051545EA16754FEA06164FEAC30343EA12
:1009900052734FEAC2025FEA1C1CC0D111F4801FDF
:1009A0000BD141EA00014FF000004FF0004CB6E7D8
:1009B00011F4801F04BF01430020B4F1FD0C88BF77
:1009C000BCF5E06F3FF6AFAEB5EB030C04BFB6EB82
:1009D000020C5FEA500C50F1000041EB045170BD75
:1009E0000EF0004E4EEA113114EB5C04C2BFD4EBA2
:1009F0000C0541EA045170BD41F480114FF0000E26
:100A0000013C90E645EA060E8DE60CEA135594EAA1
:100A10000C0F08BF95EA0C0F3FF43BAF94EA0C0FA4
:100A20000AD150EA01347FF434AF95EA0C0F7FF419
:100A300025AF104619462CE795EA0C0F06D152EA6D
:100A400003353FF4FDAE1046194622E750EA410651
:100A500018BF52EA43067FF4C5AE50EA41047FF462
:100A60000DAF52EA43057FF4EBAE12E74FF0FF3CC7
:100A700006E000BF4FF0010C02E000BF4FF0010C98
:100A80004DF804CD4FEA410C7FEA6C5C4FEA430C11
:100A900018BF7FEA6C5C1BD001B050EA410C0CBF60
:100AA00052EA430C91EA030F02BF90EA020F0020C2
:100AB000704710F1000F91EA030F58BF994208BF29
:100AC00090422CBFD8176FEAE37040F001007047E6
:100AD0004FEA410C7FEA6C5C02D150EA013C07D13D
:100AE0004FEA430C7FEA6C5CD6D152EA033CD3D088
:100AF0005DF8040B704700BF8446104662468C4682
:100B00001946634600E000BF01B5FFF7B7FF0028B4
:100B100048BF10F1000F01BD4DF808EDFFF7F4FFDD
:100B20000CBF012000205DF808FB00BF4DF808ED68
:100B3000FFF7EAFF34BF012000205DF808FB00BF8B
:100B40004DF808EDFFF7E0FF94BF012000205DF8AD
:100B500008FB00BF4DF808EDFFF7CEFF94BF012062
:100B600000205DF808FB00BF4DF808EDFFF7C4FF5B
:100B700034BF012000205DF808FB00BF4FEA410CA4
:100B80007FEA6C5C02D150EA013C0AD14FEA430C87
:100B90007FEA6C5C02D152EA033C02D14FF00000C4
:100BA00070474FF0010070474FEA410212F5001202
:100BB00015D211D56FF47873B3EB625212D94FEAA4
:100BC000C12343F0004343EA505311F0004F23FA8E
:100BD00002F018BF404270474FF00000704750EAE3
:100BE000013005D111F0004008BF6FF000407047A0
:100BF0004FF00000704700BF4FEA4102B2F1E043FE
:100C000024BFB3F5001CDCF1FE5C0DD901F0004CF3
:100C10004FEAC0024CEA5070B2F1004F40EB830043
:100C200008BF20F00100704711F0804F21D113F16F
:100C30003872BCBF01F00040704741F480114FEAA8
:100C40005252C2F11802C2F1200C10FA0CF320FA31
:100C500002F018BF40F001004FEAC1234FEAD3234E
:100C600003FA0CFC40EA0C0023FA02F34FEA4303B8
:100C7000CCE77FEA625307D150EA01331EBF4FF041
:100C8000FE4040F44000704701F0004040F0FE405C
:100C900040F40000704700BF53B94AB9002908BFAB
:100CA00000281CBF4FF0FF314FF0FF3000F088B933
:100CB000ADF1080C6DE904CE00F006F8DDF804E0B3
:100CC000DDE9022304B070472DE9F047089D8E4608
:100CD00004468846002B4AD18A42174662D9B2FAA6
:100CE00082F64EB1C6F1200301FA06F820FA03F3AA
:100CF000B74043EA0808B4404FEA174E1FFA87FC92
:100D0000B8FBFEF1230C0EFB118843EA084301FBFC
:100D10000CF29A4209D9FB1801F1FF3080F0EA8009
:100D20009A4240F2E78002393B449A1AA3B2B2FBDE
:100D3000FEF00EFB102243EA024300FB0CFC9C4534
:100D400009D9FB1800F1FF3280F0D6809C4540F2B3
:100D5000D3803B44023840EA0140A3EB0C0300215E
:100D60001DB1F3400022C5E90032BDE8F0878B4297
:100D700005D90DB1C5E9000100210846F5E7B3FA30
:100D800083F1002946D1734502D3824200F20581E6
:100D9000841A6EEB030201209046002DE5D0C5E9D0
:100DA0000048E2E7002A00F09080B2FA82F6002EB6
:100DB00040F0A4808A1A030C4FEA174E80B2BCB2EE
:100DC0000121B2FBFEFC0EFB1C2243EA024304FBA2
:100DD0000CF29A4207D9FB180CF1FF3802D29A4262
:100DE00000F2E080C4469B1AB3FBFEF20EFB123306
:100DF00040EA034302FB04F49C4207D9FB1802F1CA
:100E0000FF3002D29C4200F2CA8002461B1B42EA1B
:100E10000C40A5E7C1F120068B4022FA06F71F43DC
:100E20000EFA01F420FA06F32EFA06FE4FEA1749ED
:100E3000234300FA01F81FFA87FCBEFBF9F01C0CF3
:100E400009FB10EE44EA0E4400FB0CFEA64502FA34
:100E500001F209D93C1900F1FF3A80F09C80A645C7
:100E600040F2998002383C44A4EB0E041FFA83FE42
:100E7000B4FBF9F309FB13444EEA044403FB0CFCF6
:100E8000A44508D93C1903F1FF3E80F08280A445B7
:100E90007FD9023B3C4443EA0040A4EB0C04A0FB96
:100EA00002EC64457346E14662D35FD05DB1B8EBB6
:100EB000030264EB090404FA06F622FA01F31E4366
:100EC000CC40C5E9006400214FE7B1FBF2FC010C06
:100ED00041EA0E4180B240EA01423B4638463C4678
:100EE000B846BE462026B1FBF7F1A2EB080241EA64
:100EF0000C4166E7014618E710462CE7C6F12002D0
:100F00002EFA02F3B740B14020FA02F24FEA174E30
:100F10000A43B3FBFEF8BCB20EFB1833110C41EAD6
:100F2000034108FB04F9B04089454FEA104380B201
:100F30003ED9791808F1FF3C01D289451FD8A1EBB1
:100F40000901B1FBFEF909FB04F80EFB191192B27D
:100F500042EA0142424529D2BA1809F1FF31C4D20E
:100F60004245C2D2A9F102013A44BEE7F0459DD202
:100F7000BEEB02036CEB070C0138E14696E7A7EBEA
:100F800009094944A8F1020CB1FBFEF909FB04F878
:100F9000DBE773467FE7504666E70846FDE63B44DD
:100FA000023A33E7ACF1020C3B441CE749469CE7AC
:100FB000A1EB0901C446B1FBFEF909FB04F8C4E743
:100FC000704700BF0000000070B5064620250024D1
:100FD000304600F019F8013D0444F9D16011A0F544
:100FE0000060FFF7C7FA06A3D3E90023FFF756FC1A
:100FF000FFF702FE00EE100A70BD00BFAFF30080E5
:10100000713D0AD7A3F0424010B5044602F04EF8F5
:101010000A21204602F0C8F820460921BDE8104008
:1010200002F03EB910B5044602F040F80A2120460D
:1010300002F0BAF8204640F20F11BDE8104002F06D
:101040002FB9826901238B40134383617047826902
:10105000103101238B4013438361704782B0084BEA
:101060000190019A1B680749B3FBF1F353430193C5
:10107000019B5A1E0192002BFAD102B0704700BFAB
:101080000800002080969800036922B10B420CBF33
:101090000120002070470B4214BF01200020704740
:1010A0002DE9FF4105460E46174600240DF10408C0
:1010B0003A4631462846FFF7E7FF48F8240042F257
:1010C00010700134FFF7CAFF032CF1D1DDE90103F1
:1010D0001844039B18440228D4BF0020012004B008
:1010E000BDE8F08102480122102102F043BD00BF9B
:1010F00000080048012210214FF0904002F03ABD54
:10110000024608B1FFF7EEBF0148102102F032BDE0
:1011100000080048024608B1FFF7ECBF10214FF06D
:10112000904002F027BD000013B5044604F01F04F0
:101130000020FFF7E5FF8DF804400A4C01A9642365
:101140000122204603F0E9FF642301220DF105018D
:10115000204604F0DAF99DF80540FFF7C3FF20466A
:1011600002B010BD9002002073B5044604F01F04C5
:1011700000200D461646FFF7C3FF8DF80440084CCB
:1011800001A964230122204603F0C7FF64233246ED
:101190002946204604F0B9F9FFF7A4FF02B070BD5C
:1011A0009002002037B5044600200D4644F020048C
:1011B000FFF7A6FF6423022201A905488DF8044029
:1011C0008DF8055003F0A9FFFFF78CFF03B030BD89
:1011D0009002002073B5044644F0200400200D4620
:1011E0001646FFF78DFF8DF80440084C01A96423D3
:1011F0000122204603F091FF64233246294620460F
:1012000003F08BFFFFF76EFF02B070BD900200206D
:1012100073B50F4B0F4E1D7804468D424FF0000002
:1012200028BF0D46FFF76CFF61238DF807300DF1E5
:10123000070164230122304603F06FFF64232A462E
:101240002146304604F061F9FFF74CFF02B070BD53
:10125000F402002090020020FF21E120FFF7A2BF4E
:10126000FF21E220FFF79EBF0720FFF75DBF0000D0
:1012700008B50020FFF758FF40F00301C9B2002075
:10128000FFF790FF0849D1E90032134303D005224C
:101290000A20FFF79FFFFFF7DFFFFFF7E1FFBDE841
:1012A0000840FFF727BF00BFF802002013B504462F
:1012B000CDE90023E8B91946124B1046C3E90001F5
:1012C000114B185D05226946FFF784FF0F4B197813
:1012D0000F4B185DFFF766FF0220FFF725FF012384
:1012E000A34040EA0301C9B20220FFF75BFF02B04E
:1012F00010BD0628FBD8044B012C185CE0D001225D
:101300006946E1E7F80200204F910008F40200204E
:10131000499100087F28014628BF7F210520FFF75B
:1013200041BF0000024B202828BF202018707047C2
:10133000F40200206020FFF7F7BE10B5FFF768FF4A
:101340001720FFF7F1FE0446FFF78AFFFFF7F2FFD1
:1013500004F0010010BD08B51D20FFF7E5FE00F008
:10136000FB011D20FFF71EFFBDE8084000211C20E7
:10137000FFF718BF00207047014600B13F21012050
:10138000FFF710BF10B504460620FFF7CDFE042C72
:1013900000F0F90107D8022C0DD8012C08D0022C3E
:1013A00001D141F00401BDE810400620FFF7FABE6C
:1013B00041F00201F7E741F00601F4E738B50546D0
:1013C0000620FFF7B1FE022D00F0D7040CD144F047
:1013D000200421460620FFF7E5FE0620FFF7A4FEC5
:1013E000031B5842584138BD012D08BF44F0080482
:1013F000EFE710B504460020FFF796FE00F0F3017A
:101400002CB1012C0CBF41F0080141F00C01BDE8EA
:1014100010400020FFF7C6BE08B50020FFF784FE8D
:1014200040F00201BDE80840C9B20020FFF7BABE93
:1014300008B50020FFF778FEBDE8084000F0FD0188
:101440000020FFF7AFBE70B50546FFF70DFF00F0B7
:101450004003002B044614BF012600260DD015B111
:10146000C0F342032B7040210720FFF79BFEA30629
:1014700003D520210720FFF795FE304670BD0020E0
:10148000FFF7E1BF70210720FFF78CBE07B50020F2
:10149000FFF736FE47F25033ADF8043002226423E2
:1014A00001A9044803F039FEFFF71CFE03B05DF804
:1014B00004FB00BF9002002010B5A0B0BC4907A8F3
:1014C00005F0B1FA07A8FEF7FBFE0A2382B207A9CE
:1014D000B84804F0C7FA0020FFF726FE040740F1E1
:1014E000328240074CBFB449B44907A805F09BFAC3
:1014F00007A8FEF7E5FE0A2382B207A9AD4804F06B
:10150000B1FA0120FFF710FEC0F340130393C0F3BC
:1015100000130293C0F3C0030193C0F3800300F0F3
:101520000102A7490093C0F3400307A805F002F9A0
:1015300007A8FEF7C5FE0A2382B207A99D4804F05A
:1015400091FA0220FFF7F0FDC0F340130393C0F3BC
:1015500000130293C0F3C0030193C0F3800300F0B3
:10156000010298490093C0F3400307A805F0E2F890
:1015700007A8FEF7A5FE0A2382B207A98D4804F04A
:1015800071FA0320FFF7D0FD00F003028E4902320A
:1015900007A805F0CFF807A8FEF792FE0A2382B24B
:1015A00007A9844804F05EFA0520FFF7BDFD8749CE
:1015B00000F07F0207A805F0BDF807A8FEF780FE3F
:1015C00007A982B20A237B4804F04CFA0620FFF7F1
:1015D000ABFD01074CBF7E497E49044607A805F0D4
:1015E00022FA07A8FEF76CFE0A2382B207A9714807
:1015F00004F038FA14F0060FC4F3410340F0A5815B
:10160000754907A805F00FFA07A8FEF759FE0A2347
:1016100082B207A9674804F025FA05A905220A2025
:10162000FFF7A2FD9DF8143002939DF81530019349
:101630009DF816309DF818206849009307A89DF87A
:10164000173005F077F807A8FEF73AFE0A2382B2B2
:1016500007A9584804F006FA05A905220B20FFF750
:1016600083FD9DF8143002939DF8153001939DF889
:1016700016309DF818205A49009307A89DF8173096
:1016800005F058F807A8FEF71BFE0A2382B207A947
:10169000484804F0E7F905A901220C20FFF764FD92
:1016A0009DF814204F4907A805F044F807A8FEF755
:1016B00007FE0A2382B207A93E4804F0D3F905A920
:1016C00001220D20FFF750FD9DF81420464907A880
:1016D00005F030F807A8FEF7F3FD0A2382B207A948
:1016E000344804F0BFF905A901220E20FFF73CFDA4
:1016F0009DF814203D4907A805F01CF807A8FEF73F
:10170000DFFD0A2382B207A92A4804F0ABF905A934
:1017100001220F20FFF728FD9DF81420344907A867
:1017200005F008F807A8FEF7CBFD0A2382B207A947
:10173000204804F097F905A905221020FFF714FDB1
:101740009DF8143002939DF8153001939DF81630E2
:101750009DF818202749009307A89DF8173004F03A
:10176000E9FF07A8FEF7ACFD0A2382B207A91148DA
:1017700004F078F91120FFF7D7FC1F4900F03F0271
:1017800007A804F0D7FF07A8FEF79AFD0A2382B244
:1017900007A9084804F066F91220FFF7C5FC1749AD
:1017A00000F03F0207A804F0C5FF07A828E000BF2B
:1017B000C8890008FC010020FB890008178A00087E
:1017C000468A00088A8A0008D38A0008EC8A000842
:1017D000FF8A0008168B00082D8B00087A8B000802
:1017E000AA8B0008DA8B0008028C00082A8C0008FB
:1017F000528C00087A8C0008A48C0008BD8C00086C
:10180000FEF75EFD0A2382B207A9544804F02AF9C4
:101810001320FFF789FC524900F03F0207A804F0AB
:1018200089FF07A8FEF74CFD0A2382B207A94B489F
:1018300004F018F91420FFF777FC4A4900F03F0242
:1018400007A804F077FF07A8FEF73AFD0A2382B243
:1018500007A9424804F006F91520FFF765FC424944
:1018600000F03F0207A804F065FF07A8FEF728FD77
:101870000A2382B207A9394804F0F4F81620FFF7CA
:1018800053FC3A4900F03F0207A804F053FF07A8B1
:10189000FEF716FD07A982B20A23304804F0E2F8E9
:1018A0001C20FFF741FCC0F340130393C0F3001367
:1018B0000293C0F3C0030193C0F3800300F0010260
:1018C0002B490093C0F3400307A804F033FF07A897
:1018D000FEF7F6FC07A982B20A23204804F0C2F8FA
:1018E0001D20FFF721FC42074CBF22492249044634
:1018F00007A805F098F807A8FEF7E2FC07A90A2355
:1019000082B2164804F0AEF8A3074CBF1B491C492D
:1019100007A805F088F807A8FEF7D2FC0A2382B2D0
:1019200007A90E4804F09EF8164907A805F07BF8B1
:1019300007A8FEF7C5FC0A2382B207A9074804F0EE
:1019400091F820B010BD1049CFE5012B01D10F490E
:1019500057E6022B0CBF0E490E4952E6FC0100204F
:10196000D68C0008EF8C0008088D0008218D000837
:101970003A8D0008848D00089A8D0008B18D00080A
:10198000CB8D0008C8890008328A0008418B000806
:10199000558B0008688B000884B037B506AC84E826
:1019A0000F0064222146534805F045F8FFF79AFBE3
:1019B0000020FFF7AFFB052001F0C6F90821002049
:1019C000FFF7F0FB3F210120FFF7ECFB0321022092
:1019D000FFF7E8FB03210846FFF7E4FB032104209F
:1019E000FFF7E0FB02210520FFF7DCFB0F210620BB
:1019F000FFF7D8FB0E210720FFF7D4FB00210820BA
:101A0000FFF7D0FB00210920FFF7CCFB4FF0E735B3
:101A1000E724694605220A2000958DF80440FFF767
:101A2000D9FB4FF0C233052200936946C2230B2035
:101A30008DF80430FFF7CEFBC3210C20FFF7B2FB7B
:101A4000C4210D20FFF7AEFBC5210E20FFF7AAFB36
:101A5000C6210F20FFF7A6FB05226946102000953E
:101A60008DF80440FFF7B6FB00211120FFF79AFB29
:101A700000211220FFF796FB00211320FFF792FBB5
:101A800000211420FFF78EFB00211520FFF78AFBB1
:101A900000211620FFF786FBFFF7F8FC00211C2031
:101AA000FFF780FB00211D20FFF77CFBFFF704FD03
:101AB000FF210420FFF776FB0320FFF763FC0120E2
:101AC000FFF77CFC0220FFF794FCFFF744FC0A4B75
:101AD00020221A70FFF7D6FC4C20FFF71BFCFFF703
:101AE000BBFBFFF7BDFBFFF7A3FC03B0BDE8304035
:101AF00004B0704790020020F402002030B51F4D62
:101B00001F4C9FB0294605A804F08DFF05A8FEF7DD
:101B1000D7FB05A982B20A23204603F0A3FF0720C2
:101B2000FFF702FB10F0060F00F00103029314BF51
:101B3000012300230193C0F30013C0F38012114965
:101B40000093C0F3401305A804F0F4FD05A8FEF7C8
:101B5000B7FB0A2382B205A9204603F083FF29467A
:101B600005A804F060FF05A8FEF7AAFB0A2382B2CD
:101B700005A9204603F076FF1FB030BDE68D0008B2
:101B8000FC010020048E000830B5194D194C9BB0A3
:101B9000294601A804F047FF01A8FEF791FB01A91F
:101BA00082B20A23204603F05DFF0020FFF7BCFA53
:101BB000114900F00103C0F3400201A804F0BAFD8E
:101BC00001A8FEF77DFB0A2382B201A9204603F09B
:101BD00049FF294601A804F026FF01A8FEF770FB83
:101BE0000A2382B201A9204603F03CFF1BB030BD9E
:101BF000E68D0008FC0100205B8E000830B51C4D0E
:101C00001C4C9DB0294603A804F00DFF03A8FEF765
:101C100057FB03A982B20A23204603F023FF1720B3
:101C2000FFF782FA00F001030193C0F34003C0F311
:101C3000401211490093C0F3001303A804F07AFD89
:101C400003A8FEF73DFB0A2382B203A9204603F056
:101C500009FF294603A804F0E6FE03A8FEF730FBBF
:101C60000A2382B203A9204603F0FCFE1DB030BD5A
:101C7000E68D0008FC010020878E000800000000AF
:101C800008B5FFF7CFF9000BFEF764FC0AA3D3E910
:101C90000023FEF7D9FCFEF7AFFFFEF77DFC08A39B
:101CA000D3E90023FEF7FAFDFEF7A6FF00EE100AC7
:101CB00008BD00BFAFF300806666666666660A40D0
:101CC00017D9CEF753E3B53FF8B53549354C364D06
:101CD0003648374E374F002351F82320C82A07D9FA
:101CE00051F823C02268624422602A6801322A60C7
:101CF00050F82320C82A07D950F823C0326862441C
:101D000032603A6801323A6001330A2BE4D1284D3F
:101D1000284B28681B68B0FBF3F0FEF71BFC1AA3E6
:101D2000D3E90023FEF790FC234B244C0022FEF75E
:101D30008BFC17A3D3E90023FEF786FCFEF75CFFBC
:101D4000194B206028681B68B0FBF3F0FEF702FC1B
:101D50000DA3D3E90023FEF777FC174B0022FEF713
:101D600073FC0DA3D3E90023FEF76EFCFEF744FFDE
:101D7000134B1860D4ED007A93ED007A114B67EEA7
:101D8000877AC3ED007AF8BD0000000000C8A940C2
:101D90000000000054E3B53F000000A09999A93F5E
:101DA0003C030020100300200C030020140300203B
:101DB00008030020040300200000303F74030020CB
:101DC000700300206C030020042810B51ED1134CB2
:101DD0000C212046FFF7B1FA114B1A680AB92268A4
:101DE0001A601B6822689A4210D10E4B1A680A2AA0
:101DF0000DD819680C4AA06842F821000B4A1968EE
:101E0000606842F821001A6801321A6010BD002291
:101E1000BDE810401A60FFF757BF00BF7C030020E9
:101E200078030020000300203C030020140300205E
:101E30000128354B354A57D13548086000204860A5
:101E40003448886034480068186034481060D3ED26
:101E5000007A92ED007A324B91ED016AD1ED025A8F
:101E6000304A37EE677AD1ED007A83ED007A67EE7B
:101E7000277A2D4BC3ED007A2C4BD3ED006A77EE19
:101E8000266AC3ED006A66EE866A294BC3ED006AD6
:101E9000284B93ED006A83ED007A37EE466A77EEC1
:101EA000A67A26EE256A82ED006A77EE867A224AC5
:101EB000C2ED007AFDEEE77A204A17EE903A1188DB
:101EC0000B449BB243F2E0218B421AD87F2B98BF80
:101ED000002313801A4A13802BB11A4AC3F54B53BF
:101EE00012682033D36170470028B0D116480860CB
:101EF000002048601548886015480068186015483B
:101F0000A4E743F26023E4E7B003002000000020D0
:101F10000000A0400000A0416C0300200000254309
:101F20008C03002090030020980300209C030020D5
:101F300094030020A003002088030020B4030020A5
:101F4000040000201C040020000034430000FA4379
:101F50007003002000008C4210B5134C96B004F1C1
:101F600010015422684604F066FD94E80F00FFF764
:101F700013FD0220FFF722FA0220FFF73AFA6F2042
:101F8000FFF7C8F90C20FFF7CDF90020FFF7F4F9AF
:101F9000FFF742FA4FF480620023002016B0BDE83C
:101FA0001040FFF783B900BFB803002010B5184CEC
:101FB00023685861C3F89400C3F814024008A0F1E4
:101FC0008002DA614FF480315862C3F89C00C3F894
:101FD0001C02204602F0DDF94021204602F0C3F940
:101FE0008021204602F0BFF94FF48011204602F014
:101FF000D0F90121204602F0B6F90221204602F074
:10200000B2F920464FF40031BDE8104002F0C1B9EA
:102010001C0400200D4B0E4910B51C6846F2C0632D
:102020006361C4F89430C4F8143243F260336362DD
:102030000020C4F89C30C4F81C32FFF7F9FE054BB1
:102040001B88C3F54B532033E36110BD1C040020F3
:10205000A40300200400002008B572B60248002145
:10206000FEF7EFFFFEE700BF0004004810B594B094
:102070003822002106A804F057FC1422002101A8F0
:1020800004F052FC002002F099F940224FF48071D4
:102090000223CDE909120424552206A8CDE90D3307
:1020A000CDE90F42CDE911330693139302F0E6F91F
:1020B00008B1FFF7D1FFCDE903000F2203230590FC
:1020C000214601A8CDE9012302F01AFC0028F0D135
:1020D00014B010BD2DE9F04F2DED048BCFB000F002
:1020E00011FEFFF7C3FF1422002136A804F01CFCE8
:1020F0004F4BDFF84C81DA6C42F00402DA64DA6CA0
:1021000002F004020192019ADA6C42F02002DA64D1
:10211000DA6C02F020020292029ADA6C42F00102BA
:10212000DA64DA6C02F001020392039ADA6C42F08C
:102130000202DA64DB6C03F0020304930022102134
:102140004FF09040049B01F015FD3A480022102109
:1021500001F010FD002238484FF46041002401F0E6
:1021600009FD01264FF0100936A94FF09040CDE946
:102170003696CDE9384401F033FC2E4836A9CDE936
:102180003696CDE93844042701F02AFC4FF40413B5
:102190002948389436A9CDE9367301F021FC4FF473
:1021A00000632548389636A9CDE936344FF0020A47
:1021B00001F016FC4FF480531F48CDF8E0A036A97B
:1021C000CDE9363401F00CFC4FF460431A4836A9CF
:1021D000CDE93636CDE9384401F002FC22463146DD
:1021E000082001F081FB082001F0B0FB13484FF4F8
:1021F0008273C0E900834FF4E063C0E903344FF019
:1022000020084FF40073C0E906384FF0080B07238D
:10221000C0E90844C0E90B34846044618462C0F8BA
:1022200034B002F00CFF054660B1FFF715FF00BFA8
:10223000001002400008004800040048B8030020D5
:1022400000300140CD4C0A90CDE9080001463C2207
:1022500027A804F069FB4FF0A04E4FF4403320460E
:10226000C4E900E3C4E90255C4E90456A761A583A3
:10227000266284F8245084F83850E56384F840508E
:1022800000F07EFD0028D0D1089008A9204601F07A
:1022900081FA0028C9D1DFF800C32C900923CDE9C9
:1022A00027C3CDE931007F23ADF8C0008DF8C2000F
:1022B0008DF8CC0027A92046CDE92A372997CDF8FB
:1022C000BCA001F007F80028AFD1AD4D40F20F13CC
:1022D000204627A9CDE9275300F0FCFF044600283B
:1022E000A3D101464A460BA804F01EFB60222146FA
:1022F00036A804F019FB1C2221460FA8CDE905449D
:10230000079404F011FB242221461EA804F00CFBC4
:102310009C4D4246214616A804F006FB9A4BAC6041
:102320002846C5E9003801F0CDFC00287FF47DAFD8
:102330000C21284601F01CFD00287FF476AF0A210D
:10234000284601F041FD00287FF46FAF46F25F732D
:10235000CDE90B300BAA06212846CDE90D6B01F023
:1023600054FD00287FF461AFCDE93600CDE9380097
:10237000CDE93A60CDE93C00CDE93E00CDE9400031
:10238000CDE942004D9036AA0621284601F06EFDA7
:1023900000287FF44AAF80230593012205AB062174
:1023A000284601F023FF00287FF43FAF4FF6EF737C
:1023B0000593062105AB0222284601F017FF0146CE
:1023C00000287FF432AF46F25F730B930BAA102301
:1023D00028460E9301F019FD014600287FF425AF31
:1023E0000F90129015900FAA284601F075FE014635
:1023F00000287FF41AAF4FF0805341934FF480735D
:10240000CDE94730CDE93600CDE9440046902023A0
:102410004FF08070CDE94A0336AA28464C9101F06E
:1024200025FD00287FF401AF41904890402304210E
:1024300036AA28464B9301F019FD014600287FF487
:10244000F4AE4FF47A530593012205AB284601F010
:10245000CDFE014600287FF4E8AE4FF440624F23E2
:10246000CDE91E23CDE92000CDE92203CDE92400EA
:1024700026901EAA284601F071FE00287FF4D5AEF2
:102480002F2304211EAA28461F93239301F066FEE2
:10249000014600287FF4C9AE0423CDE91733CDE906
:1024A0001900CDE91B0016901D9016AB012228469D
:1024B00001F040FF00287FF4B8AE082318930421F0
:1024C00016AB4FF48072284601F034FF0146002815
:1024D0007FF4ABAECDE9170016AB0222284601F01F
:1024E00029FF00287FF4A1AE16AB4FF4007204213F
:1024F000284601F01FFF00287FF497AE47F6FF4300
:102500000E900BAA042128460B9301F07EFC0028B4
:102510007FF48BAE0FAA0421284601F0DDFD0028D0
:102520007FF483AE05AB01220421284601F05EFE54
:10253000044600287FF479AE284600F0F1F92146E0
:102540001248FEF77EFD124804F084F841F288300C
:10255000FEF784FDFFF700FDFEF77EFEFFF714FB9C
:10256000FFF7CCFAFFF74AFBFEF704FF4FF47A704F
:10257000FEF774FD074804F0D5F80FE018050020B9
:10258000040060081C0400200068014000040048AA
:10259000DC8E0008F78E00080200300446F2A060CE
:1025A000FFF704FD0121204600F0CEFA91494FF4D7
:1025B000E1332046C1E900348C608C8100F02AFBB5
:1025C00000287FF432AE8C4F8C4C72B63846FEF742
:1025D000FBFCDFF868828A4E88ED000A3846FFF778
:1025E0004FFBD8ED007A86ED000AB3EE037AF4EEE5
:1025F000C77AF1EE10FA4FF00001204607DCB1EE89
:10260000047AF4EEC77AF1EE10FA40F1DD80FEF7BD
:1026100018FDD6ED007AB3EE047AF4EEC77AF1EE47
:1026200010FA4FF00001204607DCB2EE047AF4EE17
:10263000C77AF1EE10FA40F1CA80FEF702FD0022DF
:1026400011462046FEF72CFD00228046114620460A
:10265000FEF726FD064662B6DFF8E491FEF708FEB7
:102660004FF47A7000F070FBFEF709FFD9F8001004
:10267000644803F0EFFFD9F80810634803F0EAFF5D
:10268000D9F80410614803F0E5FFB8F1000F0AD152
:102690002B681A6842F006021A601A681A601A68F3
:1026A00042F004021A60002E00F0A080DFF894814E
:1026B00057489FED589A03F0CDFF98ED007AD8ED7A
:1026C000007AB4EEC97AF1EE10FAF7EE009A04DC63
:1026D000F4EE697AF1EE10FA18D54F4803F0BAFF1C
:1026E00000212046FEF7ADFC46F2A060FFF75EFC3D
:1026F0002B6843F2D022DA6100212046FEF7A7FCC6
:102700004648FEF7ABFC464803F0A4FF454E9FED5C
:10271000468A96ED007AD6ED007AB4EEC87AF1EEEC
:1027200010FAF2EE0E8A04DCF4EE687AF1EE10FA9A
:1027300010D53E4803F08EFF00212046FEF781FCB5
:1027400000212046FEF783FC3448FEF787FC34481E
:1027500003F080FF98ED006AD8ED006A96ED007AEC
:10276000D6ED007AB4EEE96AF1EE10FAF4EEC96A39
:10277000CCBF01230023F1EE10FAB4EEE87A03F0A7
:10278000010358BF0023F1EE10FA03F00103D8BF94
:102790000023FBB1F4EE487AF1EE10FA1AD5244882
:1027A00003F058FF46F2C060FFF700FC72B6FFF777
:1027B00031FC62B64FF40041204601F0E0F94FF4DD
:1027C000FA7000F0C1FA00E7FEF741FC21E7FEF7DE
:1027D0003EFC34E7174803F03DFF46F2A060FFF7E8
:1027E000E5FB00212046FEF72CFCEEE6124B1E60B6
:1027F000EBE600BF84050020180500200004004817
:1028000064030020FD8E00080F8F0008208F000851
:10281000318F000800009642458F0008008793031F
:102820007C8F00087403002000000C42838F000896
:10283000BA8F0008CB8F00087803002068030020BF
:102840007C030020700300200B4B1A6E42F0010243
:1028500082B01A661A6E02F001020092009A9A6D16
:1028600042F080529A659B6D03F080530193019B67
:1028700002B001F0FBBD00BF0010024010B59CB0DB
:1028800004461422002102A804F04EF8542200212C
:1028900007A804F049F82368B3F1A04F28D14FF4FA
:1028A0000043079307A84FF00053189302F040F934
:1028B00008B1FFF7D1FB0F4BDA6C42F40052DA6437
:1028C000DA6C02F400520092009ADA6C42F00102D3
:1028D000DA64DB6C03F001030193019B0323CDE970
:1028E000023302A900234FF09040049301F078F8DE
:1028F0001CB010BD001002400268084B9A4282B022
:102900000AD103F528431A6E42F080621A661B6EE4
:1029100003F080630193019B02B07047006801409F
:1029200070B5044688B01422002103A803F0FCFF10
:102930002268184B9A422BD103F528431648DA6CCB
:1029400042F00402DA64DA6C02F004020192019AA5
:10295000DA6C42F00102DA64DB6C03F001030293EB
:102960004FF440760225032403A9029BCDE90365B9
:10297000CDE9064401F034F80023CDE9053403A97C
:102980000D234FF09040CDE90365079301F028F83F
:1029900008B070BD006801400008004810B504464A
:1029A00088B01422002103A803F0BEFF2268124B56
:1029B0009A421ED103F5604303A91A6E42F4805275
:1029C0001A661A6E02F480520192019ADA6C42F091
:1029D0000102DA64DB6C03F001030293029BE02244
:1029E0000223CDE903234FF090400523079300F025
:1029F000F7FF08B010BD00BF00300140FEE7FEE762
:102A0000FEE7FEE7FEE770477047704700F08AB9BF
:102A1000042001F0BDB8002000F0D8B801207047B4
:102A200008B503F0D3FF162303604FF0FF3008BD55
:102A300008B503F0CBFF16230360FEE770B50D4623
:102A400014460E46731B9C4201DC204670BDAFF35A
:102A5000008006F8010BF5E730B5104600234FF073
:102A60006042834200DB30BDD2F8804EE50707D5D7
:102A7000D2F8004EE40703D5CC5C156815B114708C
:102A80000133EEE700BFF8E74FF0FF3070474FF437
:102A900000534B60002070470120704700207047B2
:102AA0000B4A116810B5034609B90A49116010684C
:102AB00009490A4C0344091B8B4206D903F086FFDF
:102AC0000C2303604FF0FF3010BD1360FCE700BF24
:102AD0009405002088070020000002200004000068
:102AE000034AD2F8883043F47003C2F88830704744
:102AF00000ED00E00D488546FFF7F2FF0C480D4958
:102B00000D4A002302E0D458C4500433C4188C4248
:102B1000F9D30A4A0A4C002301E013600432A242AE
:102B2000FBD303F059FFFFF7D5FAFEE700000220C0
:102B300000000020DC0100209C930008E001002040
:102B400084070020FEE7000030B51B4BDA6C42F032
:102B5000040287B0DA64DB6C03F004030093009B8B
:102B60004FF4005301930223CDE90333054639B9ED
:102B70000291124801A900F033FF002007B030BDD8
:102B80000F4C0E484FF4881301A904EBC5040293BF
:102B900000F026FF0B49204600F004FF0A4A0021FE
:102BA000204600F0F5FE00220F21282000F09CFEB8
:102BB000282000F0CBFEE0E70010024000080048AB
:102BC0002C0600200D000006DF2B0008024B03EB53
:102BD000C00000F0EDBE00BF2C060020704708B515
:102BE0000020FFF7FBFF08BD094A02600A68426047
:102BF0000C2242614A8902614A6882600A89C26085
:102C00008A8982614FF40042C26102F0DBBF00BFDB
:102C100000800040F0B5012889B004460D4643D835
:102C2000234BDA6C42F00102DA64DA6C02F0010242
:102C30000092009ADA6C42F00102DA64DA6C02F077
:102C400001020192019ADA6D42F00102DA65DB6D50
:102C500003F0010302930C270226029B069604232D
:102C6000CDE903360DEB070101234FF090400593AA
:102C7000079700F0B5FE08230DEB07014FF09040D9
:102C8000CDE903360797644200F0AAFE094804F034
:102C9000940429462044FFF7A7FF002814BF6FF0D3
:102CA0000300002009B0F0BD6FF00100FAE700BF9B
:102CB000001002409805002038B50F4B1A680546F1
:102CC0000AB9012038BD4FF47A73B3FBF2F30B4A13
:102CD0001068B0FBF3F000F047FE04460028F0D186
:102CE0000F2DEED8024629464FF0FF3000F0FCFDD4
:102CF000034B20461D60E5E70C0000200800002083
:102D00001000002010B5032000F0DCFD0020FFF7CC
:102D1000D3FF044618B9FFF797FD204610BD0124E4
:102D2000FBE70000034A0449136809680B44136079
:102D3000704700BF340600200C000020014B1868CB
:102D4000704700BF3406002038B50446FFF7F6FF91
:102D5000631C1CBF054B1B68054618BFE418FFF732
:102D6000EDFF431BA342FAD338BD00BF0C00002087
:102D7000806800F0010070478068C0F380007047F1
:102D800037B5002301930446002800F0F480C56D98
:102D900025B9FFF773FD256684F8585023689A68B3
:102DA000950041BF9A6822F0204222F03F029A60CB
:102DB0009A68D00040F19F809A68D10000F1B280FB
:102DC000E26D42F01002E265226E42F001022266DC
:102DD00001211846FFF7D0FFE26D02F01002024316
:102DE00040F0C580E26D22F4817242F00202E26599
:102DF0001846FFF7BDFF88B9B3F1A04F03D05F4A73
:102E0000934240F091804FF0A040FFF7B1FF02469F
:102E10005A48FFF7ADFF024300F09C80E568E26B83
:102E200094F824002A43A5682A43657F012842EAD2
:102E3000453242EA004202BFA06A00F1FF3042EA96
:102E40004042E06A20B1256B00F4787028430243C9
:102E5000DD684B4828401043D8601A69606B22F047
:102E6000406202431A619A6812072CD4D86894F819
:102E70003820257F520020F4804042EA853220F03D
:102E8000020002432569DA603E481A69002D63D0CA
:102E900042F480321A61D3F8C02002402A43C3F8BA
:102EA000C02094F84020012A5DD1D4E91125186989
:102EB0002A436FF38A000243E06C0243206D024311
:102EC00042F001021A616269012A05BF186B226A89
:102ED0001A6B02F1FF3206BF20F00F00024322F00E
:102EE0000F021A63E36D23F0030343F00103E3656C
:102EF000084603B030BD9A68234922F0104222F000
:102F00003F0242F080529A60204A1268B2FBF1F20E
:102F1000013252000192019A002A3FF44DAF019A0A
:102F2000013AF7E7002154E71948FFF721FF02466D
:102F30001848FFF71DFF02431748FFF719FF024328
:102F40007FF46CAF15488268656822F47C122A43CE
:102F5000826063E71248F6E722F480321A61D3F800
:102F6000C02002409BE71A6922F00102AAE7E36D44
:102F700043F01003E3650121BAE700BF00010050F0
:102F80000740F0FF00C0FFFF400D030008000020D5
:102F900000040050000500500006005000070050DB
:102FA0000003005073B502680446002310460193E5
:102FB000FFF7DEFE10B1002002B070BD9168264B15
:102FC000194209D0E36D43F01003E365236E43F02B
:102FD000010323660120EFE7936823F0004323F009
:102FE0003F0343F00103B2F1A04F936023D01B488D
:102FF0001B4B1C49824218BF0B469B6819021CD40C
:10300000FFF79CFE184E054622681368DB07D2D4F2
:103010001046FFF7ADFE20B99368334043F001033B
:103020009360FFF78BFE401B0228EDD923681B68D5
:10303000DA07E9D4C6E70A4BDFE70C4B1A680C4BFA
:10304000B2FBF3F20C2302FB03330193019B002B31
:10305000D6D0019B013BF8E73F0000800001005003
:103060000003005000070050C0FFFF7F0800002051
:10307000400D030030B5CC0D04F004041430C1F34E
:103080000451035907258D4023EA05038A40134361
:10309000035130BD806800F0010070478068C0F3C4
:1030A000800070478068C0F3C000704738B503687F
:1030B000B3F1A04F044618D03848394A3949834201
:1030C00018BF0A4618469568FFF7ECFF002862D142
:1030D000DA68DB6C13F4C07F09D1002A07DBE36DEB
:1030E00043F02003E365012038BD2D4AEAE794F858
:1030F0005830012B4FD0012384F858302046FFF779
:1031000051FF002843D1E36D2449DB0549BF236EFD
:10311000206623F008032366E36D23F4405323F075
:10312000010343F48053E36523688B4205F01F02DB
:103130001CD001F580618B421BD1A1F580711AB9B9
:10314000E56D25F48015E56560251D608B424FF027
:10315000000584F858500ED0C12121FA02F2D1079F
:1031600009D4E36D43F48013E365BDE74FF0A0415C
:10317000E5E71946E4E7DA689201B5D49A6822F0E7
:10318000004222F03F0242F008029A60ACE70023BE
:1031900084F85830A8E70220A6E700BF00010050DD
:1031A00000030050000700500268B2F1A04F2DE963
:1031B000F04104460D4649D03448354B35498242EA
:1031C00018BF0B469F68A369082B14BF2026402612
:1031D000FFF7B4FD804623681A68324238D02B4A84
:1031E000D96CD868934201F4C07148D002F580626E
:1031F000934247D1284D07F01F07C12222FA07F753
:10320000FF073FD4EA68E56D45F40055E56529B14F
:10321000224900F44060114001430FD119684D0666
:103220000CD590020AD4E16D21F48051E165E16D85
:10323000C9055EBFE16D41F00101E165402E23D17A
:10324000520401D460221A60002016E0104BB9E746
:103250006A1CC1D0FFF772FDA0EB0800A84201D89C
:10326000002DB8D123681B683340B4D1E26D84F8D7
:10327000583042F00402E2650320BDE8F0814FF0CF
:10328000A045B8E7DA68BEE72022DCE7000100507D
:10329000000300500007005000040050002000020E
:1032A00040F21522914203680DD040F21B32914248
:1032B00006D040F20F12914208D0D3F88000704738
:1032C000D3F88C007047D3F888007047D3F8840097
:1032D00070470000F7B590F858300022012B0746E0
:1032E0000D46019200F04E82012380F85830436968
:1032F0004968046813B1286A012846D1092916D102
:103300002B68AA6A5B0C03F4785322B1E96A02F0D5
:103310007C020A431343E26C22F07B4222F46F02E8
:1033200022F43F4222F0FF021A43E2647B66204609
:10333000FFF7B8FE78B995F8263095F825205B059B
:10334000002A49D195F82410E26843EA015322F497
:1033500040121343E3602046FFF7A0FE03462046D9
:10336000FFF7A0FE034340F03381AB6A95F8256078
:1033700013B1EB6A002B31D1012EE36840F0BF801E
:1033800043F00073E36000262FE0BB6E4BB9C7E942
:103390001930AB6A421E23B103F07C031343EA6A7F
:1033A0001A432B68786E01F01F01C3F384638B40CE
:1033B000B96E034301391343B9667B660029B6D160
:1033C000E26C22F07B4222F46F0222F43F4222F0B0
:1033D000FF021343E364AAE7E268B8E7012E40F076
:1033E0008D80FB6D43F02003FB6595F83030012B99
:1033F00005BFD5E90D31226923690B4303BF22F4D0
:10340000FF72134343F0020323F002032361AA680F
:103410002968B2F1004F75D100222046FFF72AFE3D
:10342000636943F000436361D5F810C06969E068DF
:103430002B68BCF1040F04F160026AD0C0F3C10034
:10344000400052F82CE08140B64803F0F8430EEA01
:103450000000184341EA000343F0004342F82C30D7
:103460002969A86952F8213023F08073034342F898
:103470002130297F286901F1FF3C52F82030DCF12E
:10348000000141EB0C0123F0007343EA416342F871
:1034900020302046FFF7FEFD002840F0CD80D5F813
:1034A0000CC02B68A04AD4F8B0100CF0180EC3F36F
:1034B000120022FA0EF21A4021EA00010A43C4F86F
:1034C000B0209A4A944540F0B780002840F08280AE
:1034D0009A0E013202F01F01012009294FEA82628F
:1034E00001FA00F340F29C80884002F0F84219444F
:1034F00002431E39090541F0007397E0E36823F0A9
:1035000000733FE72046FFF7B5FD636923F00043F2
:1035100089E7216E216EC3F31200C1F38461002894
:1035200039D1C3F38463994202BF236E23F0004371
:103530002366636E2B68616EC3F31200C1F384616E
:1035400000282FD1C3F38463994202BF636E23F036
:103550000043636693682B689168C3F31200C1F35C
:10356000846130BBC3F38463994202BF936823F044
:1035700000439360D3682B68D168C3F31200C1F392
:103580008461E8B9C3F38463994282D1D36823F09C
:103590000043D3607DE793FAA3F3002BC9D0B3FABD
:1035A00083F3C0E793FAA3F3002BD3D0B3FA83F3EA
:1035B000CAE793FAA3F3002BDCD0B3FA83F3D3E783
:1035C00093FAA3F3002B3FF464AFB3FA83F3DBE782
:1035D00000265EE793FAA3F232B1B2FA82F2013228
:1035E00002F01F02092A5ED893FAA3F1B1FA81F121
:1035F0000131890601F0F84193FAA3F0B0FA80F0A6
:10360000013000F01F00012282400A4393FAA3F325
:10361000B3FA83F3013303F01F0303EB430304E026
:1036200002F0F842884002430B441B0543EA0201C2
:103630002046AA68FFF71EFD2A683D4B1A422CD08F
:10364000B4F1A04F4ED03B483B4B3C49844218BF9D
:103650000B463B489B68824203F0E07102D0394838
:10366000824246D1180218D4B4F1A04F3CD0364B58
:103670009C4212D1314A936823F0E0730B4343F428
:1036800000039360314B324A1B68B3FBF2F30C2208
:10369000534318330193019B43BB002387F85830F1
:1036A000304603B0F0BD93FAA3F1B1FA81F10131D4
:1036B000890601F0F84193FAA3F0B0FA80F00130E6
:1036C00000F01F00012282400A4393FAA3F3B3FAE9
:1036D00083F3013303F01F0303216FF01D0011FB7F
:1036E000030107E7144BB4E7134AC4E7019B013B0E
:1036F000D0E7184882422FD1DA01CED4B4F1A04FDE
:103700000DD00C480C4A0D4B844218BF1A469368E2
:1037100023F0E0730B4343F080739360BDE7064AE8
:10372000F5E700BF00F0FF03FFFF070000007F4048
:103730000000088000010050000300500007005006
:10374000000021C31000C0900006005008000020B7
:10375000400D0300000052C70B4882429DD15B021E
:103760009BD40A4B9C4298D0094A03F50073B4F1EC
:10377000A04F08BF1A46936823F0E0730B4343F44D
:103780008003CAE702268BE7000084CB00010050CB
:1037900000070050F0B590F85820012A9DB003466C
:1037A00000F082801C6800220120B4F1A04F189222
:1037B00083F8580019920AD03C4DAC4234D0D96DF0
:1037C00041F02001D96583F858201DB0F0BD38487C
:1037D000FFF764FC02462046FFF760FC10435DD112
:1037E000344A35480D68B4F1A04F18BF02468DB376
:1037F000966893F83870486826F4604640EA473087
:103800003043B4F1A04F906010D12046FFF742FC46
:1038100004462748FFF73EFC04430CBF012000206C
:1038200070B900200022CEE72448D1E71F48FFF7F7
:1038300031FC04462148FFF72DFC04432048E9E70A
:103840009068896820F47160294320F00F000143DB
:103850009160E6E79168B4F1A04F21F46041916076
:1038600012D12046FFF716FC01461148FFF712FC63
:1038700001430CBF012100210029D2D0916821F41D
:10388000716121F00F01E3E70848FFF703FC0146EF
:103890000A48FFF7FFFB01430948E7E7DA6D42F00A
:1038A0002002DA650120BDE702208EE70004005007
:1038B00000010050000300500007005000050050B8
:1038C000000600500749CA6822F4E06203021204AD
:1038D00003F4E063120C134343F0BF6343F400337B
:1038E000CB60704700ED00E0164B30B5DC68C4F3E8
:1038F0000224C4F10703251D042B28BF0423062D31
:103900004FF0FF358CBF033C002405FA03F321EA96
:103910000303A54022EA0502A340002843EA02036C
:10392000ACBF00F16040084A4FEA0313B8BF00F093
:103930000F00DBB2AABF00F56140135480F80033DA
:1039400030BD00BF00ED00E014ED00E0002807DB13
:10395000044A4109012300F01F00834042F821304E
:10396000704700BF00E100E00138B0F1807F0BD26A
:103970004FF0E023054A5861F02182F8231000201F
:10398000072298611A6170470120704700ED00E03E
:103990000029034618BF002208465A600CBF08469B
:1039A0000120704710B1016000207047012070476E
:1039B0000368012203F01F01C3F300438A405B0147
:1039C000064910B45C58144205D05A50436813B1EC
:1039D0005DF8044B18475DF8044B70471404014030
:1039E0002DE9F74FDFF888915F4C00230A6832FA1F
:1039F00003F502D103B0BDE8F08F012505FA03F805
:103A000018EA020200F0A4804E68032706F00305BE
:103A10004FEA430E07FA0EFC6F1E012F6FEA0C0CE3
:103A200034D8876807EA0C0ACF6807FA0EF747EA26
:103A30000A078760476827EA0808C6F300179F400F
:103A400047EA08074760C76807EA0C088F6807FA63
:103A50000EF747EA0807022DC76019D14FEAD308CD
:103A600000EB880803F0070AD8F820704FEA8A0AAA
:103A70004FF00F0B0BFA0AFB27EA0B0B0F6907FA43
:103A80000AF747EA0B07C8F8207001E0032DDAD1E6
:103A9000076805FA0EF507EA0C073D4316F4403FA8
:103AA000056055D0D9F8605045F00105C9F860505F
:103AB000D9F8605023F0030707F1804705F00105AE
:103AC00007F58037019503F0030C019DBD684FEAAF
:103AD0008C0C4FF00F0E0EFA0CFEB0F1904F25EA51
:103AE0000E0E37D0214DA84236D005F58065A8428C
:103AF00034D005F58065A84232D005F58065A8422E
:103B000030D005F58065A84214BF0625052505FAC5
:103B10000CF545EA0E05BD60A568D74316F4801F75
:103B20000CBF3D401543A560E56816F4001F0CBFAF
:103B30003D401543E560656816F4003F0CBF3D400D
:103B4000154365602568F60354BF3D401543256065
:103B500001334BE70025DAE70125D8E70225D6E750
:103B60000325D4E70425D2E70004014000040048FF
:103B7000001002400AB18161704781627047436959
:103B800001EA030221EA030141EA0241816170472F
:103B9000044A5169014208B502D05061FEF714F998
:103BA00008BD00BF000401400068F0B5CC0100EB87
:103BB000C111402AD1F8E450D1F8B87035D02BD8D3
:103BC000012A32D0023A1E2A09D8012101FA02F252
:103BD00021490A4237D144F204010A4225D1002189
:103BE000FE228A4025EA020CDD681A681E692A4313
:103BF0005D6932432A439D692A438A40082E42EA7E
:103C00000C0205D117F0022F02BFDB698B401A436B
:103C10002044C0F8E420F0BDB2F5007F13D00CD8EA
:103C2000802A10D0B2F5807FD9D102195968C2F824
:103C3000BC109968C2F8C010D1E7B2F5806FF4D01B
:103C4000B2F5006FCBD102195968C2F8C410996857
:103C5000C2F8C8101021C3E74100004006290CD863
:103C6000DFE801F00C12181E242A04000268D2F8C2
:103C7000843343F00103C2F8843370470268D2F8FA
:103C8000843343F00203F6E70268D2F8843343F04A
:103C90000403F0E70268D2F8843343F00803EAE74C
:103CA0000268D2F8843343F01003E4E70268D2F8E4
:103CB000843343F02003DEE70268D2F8843343F014
:103CC0004003D8E713B5044600284CD0022380F8FF
:103CD000DD300023C0E93833C0E93A33C0E93C3372
:103CE000C0F8F8308368DA071AD501681F4B99428B
:103CF0000AD103F528431A6E42F080621A661B6EE1
:103D000003F080630193019B0A68236922F47042E7
:103D100003F440431A43636903F4405313430B60B5
:103D20002046FEF7E9FDA3689B0708D52168E368F4
:103D30000A6803F4407322F4407213430B600123BA
:103D400084F8DD30002384F8DC3004F1C402A3627F
:103D50002363C4E90633C4E908331C349442F6D122
:103D6000002002B010BD0120FBE700BF0068014049
:103D700090F8DC30012B02464FF0020023D00123E3
:103D800082F8DC30136882F8DD00481C17BFD3F8D6
:103D9000CC03D3F8CC1340F00200C3F8CC031DBF12
:103DA000D3F8CC0320F00C00014321F00201C3F84A
:103DB000CC13D3F8CC1341F00101C3F8CC13012389
:103DC00082F8DD300020704770B504460D46FEF7DE
:103DD000B5FF06462268D2F88833DB0306D50123F7
:103DE000002084F8DD3084F8DC000AE0691CF2D0A1
:103DF000FEF7A4FF801BA84204D9072384F8DD3016
:103E0000032070BD002DE5D1F7E7F0B590F8DD3067
:103E1000022B0546D8B217D0022385F8DD300629DB
:103E2000D2E90237D2E900062C680ED1226822F0CE
:103E30000702134323F018033B4323606061A6612C
:103E4000012385F8DD300020F0BD04EBC114D4F867
:103E5000802022F00702134323F018033B43C4F8E9
:103E60008030C4F89400C4F89860E9E72DE9F84F71
:103E700090F8DD30022B06461446D8B269D096F889
:103E8000DC30012B4FF0020063D0012386F8DC30D8
:103E900086F8DD000629D2E907BAD2E90998356823
:103EA000D2F814E063D12868D5F8A02320F02000D0
:103EB00040EA0E00BEF1200F20F0C00302D0A76937
:103EC000022F48D143F0200323F4006343EA0B039D
:103ED00023F4806343EA0A0323F0C06343EA09033F
:103EE00023F00063E06A43EA080323F0404343EA17
:103EF0008003606B23F000530343206B2B6022F49C
:103F000080320243C5F8A0231C2303FB016322680F
:103F10001A6262685A62A2689A62E268DA62226988
:103F20001A633046FFF79AFE06290CD0E36A53B9AC
:103F300005EBC115E26DD5F8803023F4007343EA38
:103F40004223C5F880300123002086F8DD3086F852
:103F5000DC00BDE8F88F032F02D143F04003B3E744
:103F6000042F0CBF43F0800320F0E003ACE705EB27
:103F7000C11CBEF1200FDCF8803023F07043CCF878
:103F80008030DCF88070DCF8E800DCF8E420D5F85C
:103F9000A03327F0200747EA0E0704D0D4F818E032
:103FA000BEF1020F56D127F4C07747F0200727F45F
:103FB000006E4EEA0B0E2EF4806E4EEA0A0E2EF0C4
:103FC000C06E4EEA090E2EF0006EE76A4EEA080E49
:103FD0002EF0704E4EEA070E676B2EF4003EB7F1DE
:103FE000005F08BF4EF4003E2EF04008D4F838E0E1
:103FF000A76D48EA0E0828F4802848EA070828F048
:10400000FC78276D28F4803848EA0708E76B67F3E7
:104010000500276C20F000403843676C22F4807262
:104020003A43A76C27F48059B9F5606F02D1BEF10D
:10403000400F02D122F4F0523A43E76CD4F854E036
:1040400022F48042174305291BD8DFE801F0152729
:104050002D33393FBEF1030F04D127F4807747F0A9
:104060008007A4E7BEF1040F06BF27F0800747F4DE
:10407000807727F4D0779AE7226B23F4003343EA62
:10408000420305EBC112CCF88080C2F8E800C2F808
:10409000E470C2F8D4E0C5F8A03335E7226B23F40E
:1040A000802343EA8203ECE7226B23F4002343EAF4
:1040B000C203E6E7226B23F4801343EA0213E0E72E
:1040C000226B23F4001343EA4213DAE7226B23F452
:1040D000800343EA8213D4E770B590F8DD30022BF9
:1040E0000446D8B238D094F8DC30012B4FF00200EF
:1040F00032D084F8DD002068166800EBC113CD01D2
:10410000D3F8EC3023F0100343EA0613566823F487
:1041100080133343D66823F480333343966823F403
:10412000003333439669012E09D11669526923F091
:104130000403334323F00203134343F001032844F1
:10414000C0F8EC302046FFF789FD012384F8DD300C
:10415000002384F8DC30184670BD000030B590F8BC
:10416000DD30022B0446D8B23BD094F8DC30012B72
:104170004FF0020035D084F8DD001368556903F470
:10418000E0505368C3F308031843936803F40073C3
:104190001843136903F480431843D36803F40043BE
:1041A0000343906900F000700343106A00F0804000
:1041B0000343D0690B4A00F000400343206800EB42
:1041C000C11102EA0542D1F8B8001343064A024081
:1041D0001343C1F8B8300020012384F8DD3084F89F
:1041E000DC0030BD0000FF010020003C30B590F83D
:1041F000DD50022D0446E8B225D094F8DC000128F9
:104200004FF002001FD00125062984F8DC5084F805
:10421000DD0002F1FF322AD1072A21D8DFE802F0BF
:10422000041420182020201C22681B68D36194F8F5
:10423000DD30072B1FBF0123002084F8DD3084F818
:10424000DC0008BF012030BD22681B685362EEE726
:1042500022681B689362EAE722681B68D362E6E77C
:10426000072384F8DD30002384F8DC30DFE7072AF9
:10427000F6D801A050F822F099420008A7420008A1
:1042800061420008E94200086142000861420008FA
:1042900061420008F742000822681B6802EBC11265
:1042A000C2F89C30C3E72268186802EBC1115A6853
:1042B000C1F8A4008AB1D1F8800020F44050C1F8C0
:1042C0008000D1F880001043B2F5005FC1F8800093
:1042D00024D19B68C1F89C30A9E7D1F8803023F441
:1042E0004053C1F88030A2E722681B6802EBC1127C
:1042F000C2F8A8309BE72268186802EBC1115A681F
:10430000C1F8AC008AB1D1F8800020F44040C1F877
:104310008000D1F8800040EA8200D5E7B2F5405F26
:1043200085D19B68C1F8A83081E7D1F8803023F4AB
:104330004043D6E770B590F8DD60022E0546F4B232
:104340000FD090F8DC40012C4FF0020409D080F827
:10435000DD40FFF729FC0024012385F8DD3085F8D6
:10436000DC40204670BD90F8DC20012A03464FF067
:1043700002000DD083F8DD001868D0F894231143B3
:10438000C0F894130122002083F8DD2083F8DC00BC
:10439000704790F8DC20012A03464FF002000BD052
:1043A00083F8DD00186802681143016001220020D3
:1043B00083F8DD2083F8DC0070470000284B1A6882
:1043C00018BB02F4C062B2F5806FD3F8802022F4EB
:1043D0008072C3F8802040D11A6822F4C06242F48F
:1043E00000721A601F4A126832214A431E49B2FB0A
:1043F000F1F201325969490500D522B95B695805C6
:104400002BD503207047013AF4E7B0F5007F1FD1A8
:1044100002F4C062B2F5806FD3F8802042F480725B
:10442000C3F8802019D11A6822F4C06242F40072E5
:104430001A600C4A126832214A430B49B2FBF1F26E
:10444000013259694905D9D5002AD7D0013AF8E790
:1044500022F4C06242F480621A600020704700BFFC
:10446000007000400800002040420F00024A93689C
:1044700043F4804393607047007000402DE9F3419E
:10448000044618B9012002B0BDE8F0810368D907DD
:1044900014D423689A0758D42368190700F1A1801F
:1044A00023685A0700F1C88023689A0600F12F811B
:1044B000E369002B40F05C810020E4E79F4DAB688E
:1044C000EA6803F00C030C2B0AD102F00303032B60
:1044D00008D12B689B03DCD56368002BD9D1D1E7C9
:1044E000082BF5E76368B3F5803F10D12B6843F4E0
:1044F00080332B60FEF722FC06462B689F03C8D44E
:10450000FEF71CFC801B6428F7D90320BBE7B3F53A
:10451000A02F04D12B6843F480232B60E6E72A68A0
:1045200022F480322A602A6822F480222A60002B3A
:10453000E0D1FEF703FC06462B689903A9D5FEF7E8
:10454000FDFB801B6428F7D9DFE77C4DAB68EA6888
:1045500003F00C030C2B17D102F00303022B15D12F
:104560002B685A0502D5E368002B8BD06B68226953
:1045700023F0FE4343EA02636B60714B1868FEF759
:104580009BFB002888D07DE7042BE8E7E368BBB1FC
:104590002B6843F480732B60FEF7D0FB06462B6834
:1045A0005B0507D56B68226923F0FE4343EA02638B
:1045B0006B6071E7FEF7C2FB801B0228EFD9A4E70E
:1045C0002B6823F480732B60FEF7B8FB06462B683C
:1045D0005F057FF561AFFEF7B1FB801B0228F6D9BE
:1045E00093E76369554D9BB1D5F8943043F00103CF
:1045F000C5F89430FEF7A2FB0646D5F894309B0729
:104600003FF54EAFFEF79AFB801B0228F5D97CE7F9
:10461000D5F8943023F00103C5F89430FEF78EFBF3
:104620000646D5F894309F077FF53AAFFEF786FB34
:10463000801B0228F5D968E7404DAB6DD80027D420
:10464000AB6D43F08053AB65AB6D03F080530193CA
:10465000019B01273B4E3368D9051BD5A368012B6D
:1046600029D1D5F8903043F00103C5F89030FEF71A
:1046700065FB41F288380646D5F890309B0740D557
:10468000002F3FF411AFAB6D23F08053AB650BE708
:104690000027DFE7336843F480733360FEF74EFB97
:1046A00080463368DA05D9D4FEF748FBA0EB080052
:1046B0000228F6D929E7052B06D1D5F8903043F02A
:1046C0000403C5F89030CCE7D5F8902022F0010221
:1046D000C5F89020D5F8902022F00402C5F890206B
:1046E000002BC4D1FEF72AFB41F288380646D5F8E4
:1046F00090309907C4D5FEF721FB801B4045F6D9C1
:1047000003E7FEF71BFB801B4045B5D9FDE6A36917
:104710000A4DCBB1D5F8983043F00103C5F8983075
:10472000FEF70CFB0646D5F898309B073FF5C0AE68
:10473000FEF704FB801B0228F5D9E6E600100240D4
:104740001000002000700040D5F8983023F00103DD
:10475000C5F89830FEF7F2FA0646D5F898309F076C
:104760007FF5A6AEFEF7EAFA801B0228F5D9CCE663
:10477000454DAA6802F00C020C2A51D0022B2B687E
:1047800023F080732B603AD1FEF7D8FA06462B68E7
:1047900099012ED4EA683D4B1340226A1343A26A62
:1047A00043EA0223E26A43EAC263626A013A43EAE5
:1047B0000213226B5208013A43EA4253626B5208D9
:1047C000013A43EA4263EB602B6843F080732B604D
:1047D000EB6843F08073EB60FEF7B0FA04462B6899
:1047E0009A013FF569AEFEF7A9FA001B0228F6D937
:1047F0008BE6FEF7A3FA801B0228C8D985E6FEF7F0
:104800009DFA04462B689B0104D4EA68204B1340B0
:10481000EB6051E6FEF792FA001B0228F2D974E62B
:10482000012B3FF42FAEEB68226A03F003019142A3
:104830007FF428AE616A03F0F0020139B2EB011F88
:104840007FF420AEA16A03F4FE42B2EB012F7FF4A5
:1048500019AEE16A03F07842B2EBC16F7FF412AE99
:10486000226B520803F4C001013AB1EB425F7FF4BE
:1048700009AE626B5208013A03F0C063B3EB426FBA
:1048800014BF01200020FEE5001002400C809F01B3
:10489000FCFFEEFE174B9A6802F00C02042A23D0AC
:1048A0009A6802F00C02082A20D09A6802F00C02E2
:1048B0000C2A1DD1D968DA68D868DB6801F00301D9
:1048C000C3F341630329C2F30312C0F3062003F1CB
:1048D00001030CBF084909495B000132B1FBF2F248
:1048E0005043B0FBF3F070470448704702487047EC
:1048F000002070470010024000366E010024F400D2
:104900002DE9F8430E46054610B90120BDE8F883AD
:104910006D4A136803F00F038B4245D3296811F0E9
:1049200001084CD12A68910740F1A780674B12F02B
:10493000040F1EBF996841F4E0619960120741BFFE
:104940009A6822F47C5242F4E0629A609A68A968FC
:1049500022F0F0020A439A605B4C236803F00F03D5
:10496000B34200F293802A68584C12F0040F40F0D2
:10497000A380130706D5A3682A6923F4605343EA8A
:10498000C203A360FFF786FFA368514AC3F3031372
:10499000D35C03F01F03D8404E4B18604E4B186891
:1049A000BDE8F843FEF788B9136823F00F030B4303
:1049B0001360136803F00F038B42A6D1AEE76F6854
:1049C000424C032F236849D19B019ED5E368E268DE
:1049D00003F00303032BE3680CBF40484048C2F3D5
:1049E0000312C3F306230132B0FBF2F25343E26831
:1049F000C2F3416201325200B3FBF2F3394A9342EF
:104A00001AD84FF00008A36823F003033B43A360C8
:104A1000FEF794F941F288390746A3686A6803F003
:104A20000C03B3EB820F3FF47DAFFEF787F9C01B99
:104A30004845F2D9032069E7A36813F0F00F04D0CA
:104A40008807DED5AB68002BDBD1A36823F0F00329
:104A500043F08003A3604FF08008D4E7022F09D110
:104A600013F4003F3FF451AFFFF714FF1D4B984282
:104A7000C7D9EAE713F4806FF4E7B8F1800F01BFFC
:104A8000124A936823F0F003936065E7236823F0EC
:104A90000F0333432360FEF751F941F2883807468C
:104AA000236803F00F03B3423FF45DAFFEF746F90E
:104AB000C01B4045F4D9BDE7A368E96823F4E0636F
:104AC0000B43A36055E700BF0020024000100240E6
:104AD0005E910008080000201000002000366E01E2
:104AE0000024F40000B4C404054B064A9B68C3F3D9
:104AF0000223D35C044A106803F01F03D8407047B8
:104B0000001002405691000808000020054B064A9C
:104B10009B68C3F3C223D35C044A106803F01F03ED
:104B2000D84070470010024056910008080000204D
:104B30002DE9F3410446006810F400205AD0254DB9
:104B4000AB6DD80044D4AB6D43F08053AB65AB6D17
:104B500003F080530193019B01261F4F3B6843F4F0
:104B600080733B60FEF7EAF880463B68D90535D58F
:104B7000D5F89030226D13F440731FD09A421DD0A7
:104B8000D5F89020D5F8903043F48033C5F89030B4
:104B9000D5F8903022F4407123F48033D207C5F861
:104BA0009030C5F8901009D5FEF7C8F841F2883862
:104BB0000746D5F890309B0740F12981D5F8903011
:104BC000226D23F440731343C5F8903000200CE0AD
:104BD0000026C2E70010024000700040FEF7AEF869
:104BE000A0EB08000228C0D903201EB1AB6D23F052
:104BF0008053AB652368DD0708D588496568D1F81F
:104C0000882022F003022A43C1F88820990708D59A
:104C10008249A568D1F8882022F00C022A43C1F805
:104C200088205A0708D57D49E568D1F8882022F008
:104C300030022A43C1F888201F0708D57749256923
:104C4000D1F8882022F0C0022A43C1F88820DE066D
:104C500008D572496569D1F8882022F440722A4348
:104C6000C1F888209D0608D56C49A569D1F888202F
:104C700022F440622A43C1F88820590608D56749C2
:104C8000E569D1F8882022F440522A43C1F88820EF
:104C90001A0608D56149256AD1F8882022F44042D5
:104CA0002A43C1F88820DF0508D55C49656AD1F838
:104CB000882022F440322A43C1F888209E0308D578
:104CC0005649A56AD1F89C2022F003022A43C1F874
:104CD0009C209D0508D55149E56AD1F8882022F429
:104CE00040222A43C1F8882059050FD54B49256B2E
:104CF000D1F8882022F440122A43C1F88820B5F563
:104D0000801F02BFCA6842F48012CA601A050FD51C
:104D10004249656BD1F8882022F440022A43C1F849
:104D20008820B5F5800F02BFCA6842F48012CA60BD
:104D3000DF040FD53949A56BD1F8882022F04072E5
:104D40002A43C1F88820B5F1807F02BFCA6842F4C7
:104D50008012CA609E040FD53049E56BD1F88820D7
:104D600022F040622A43C1F88820B5F1006F02BFEB
:104D7000CA6842F48012CA605D040FD52749256CC9
:104D8000D1F8882022F040622A43C1F88820B5F18A
:104D9000006F02BFCA6842F48012CA6019040FD5BE
:104DA0001E49656CD1F8882022F040522A43C1F890
:104DB0008820B5F1805F02BFCA6842F48032CA60C1
:104DC000DA030FD51549A56CD1F8882022F04042AE
:104DD0002A43C1F88820B5F1804F02BFCA6842F467
:104DE0008032CA605B030FD50C4AE16CD2F89C306C
:104DF00023F440130B43B1F5001FC2F89C3003D1DC
:104E0000D36843F48013D36002B0BDE8F081FDF7AE
:104E100095FFC01B40457FF6CCAEE5E60010024092
:104E2000F7B50E4614460546FDF788FF3444241AAC
:104E3000FDF784FF224B1B68C3F3CB336343074664
:104E400001932A68906810F080002DD0731CF9D06F
:104E5000FDF774FFC01BA04228D32B685A6822F0CC
:104E6000E0025A606A68B2F5827F0AD1AA68B2F598
:104E7000004F02D0B2F5806F03D11A6822F04002D1
:104E80001A60AA6AB2F5005F07D11A6822F40052CC
:104E90001A601A6842F400521A60012385F85D30E6
:104EA000002385F85C30032003B0F0BD019A019B1C
:104EB000002A03F1FF33019308BF1446C1E700BF86
:104EC000080000202DE9F7431C46002317468DF803
:104ED000033005460E46FDF731FF3C44241AFDF72A
:104EE0002DFF294BD5F800901B68232253431B0D3F
:104EF0006343804601932A689068304038D0B6F505
:104F0000C06F01BF99F80C30DBB28DF803309DF80B
:104F100003307B1CF0D0FDF711FFA0EB0800A0428E
:104F200029D32B685A6822F0E0025A606A68B2F509
:104F3000827F0AD1AA68B2F5004F02D0B2F5806F25
:104F400003D11A6822F040021A60AA6AB2F5005F23
:104F500007D11A6822F400521A601A6842F400520B
:104F60001A60012385F85D30002385F85C3003204A
:104F700003B0BDE8F083019A019B002A03F1FF33DF
:104F8000019308BF1446B6E708000020F8B543684F
:104F9000B3F5827F04460E4617460BD18368B3F5FE
:104FA000004F02D0B3F5806F04D12268136823F05C
:104FB000400313603A4631462046FFF731FF05466D
:104FC00028B1236E43F020032366032513E06368B2
:104FD000B3F5827F0FD1A368B3F5004F02D0B3F5CC
:104FE000806F08D13B4632464FF4C0612046FFF740
:104FF00069FF0028E5D12846F8BD70B513460D4677
:1050000016460A464FF4C0510446FFF75BFF28B12D
:10501000236E43F020032366032070BD32462946E9
:105020002046FFF7FDFE0028F2D133462A464FF412
:10503000C0612046FFF746FF0028EED0E8E770B5D4
:105040000446002867D0436A002B5DD14268B2F560
:10505000827F00D0C3610023A36294F85D3003F027
:10506000FF0223B984F85C202046FDF797FC2268F4
:10507000E068022384F85D301368B0F5E06F23F038
:10508000400313604FF0000342D91D46B0F5706F26
:1050900018BFA362A6686368A16906F4044603F416
:1050A00082733343266906F002063343666906F0CD
:1050B0000106334301F400763343E66906F038060F
:1050C0003343266A06F080063343A66A06F4005688
:1050D00033431360666B636A06F0080603F010033F
:1050E00000F470603343090C034301F004010B43E7
:1050F0002B435360D36923F40063D3610020012361
:10510000206684F85D3070BD0023C0E90433A2E757
:105110004FF48055BCE70120F5E72DE9F3471F4622
:1051200090F85C30012B04460D46904600F0BC80A0
:10513000012380F85C30FDF701FE94F85D30012B0F
:1051400082465FFA83F940F0AC80002D69D0B8F157
:10515000000F66D0032384F85D3000232366C4E982
:105160001333A4F83E802364A4F84430A4F84630F6
:10517000A3682668A563B3F5004FA4F83C8007D167
:10518000336823F040033360336843F48043336073
:10519000336862685B065EBF336843F04003336088
:1051A000E368B3F5E06F43D912B1B8F1010F07D14D
:1051B00035F8023BF360A563E38F013B9BB2E387C5
:1051C000E38F9BB2B3B9524639462046FFF715FF2D
:1051D000002863D1A36833B901932368DA68019288
:1051E0009B680193019B236EDBB9012284F85D204B
:1051F000994616E0226893689D0705D5A36B33F89E
:10520000021BD160A363D7E7FDF798FDA0EB0A006E
:10521000B842D5D3781CD3D0012384F85D304FF049
:105220000309002384F85C30484602B0BDE8F087EB
:1052300012B1B8F1010F13D1E38F9BB2012B06D944
:1052400035F8023BF360A563E38F023B06E02B7861
:105250003373A36B0133A363E38F013B9BB2E387FB
:10526000E38F9BB2002BAED02268936899070CD5D0
:10527000E18FA36B89B2012904D933F8021BD160F5
:10528000A363E1E71B781373E3E7FDF757FDA0EB9A
:105290000A00B842E4D37B1CE2D0BDE7202323669A
:1052A00098E74FF00209BCE74FF00209BCE72DE98F
:1052B000F8431E4690F85C30089F012B04460D46CB
:1052C000914600F02081012380F85C30FDF736FD27
:1052D00094F85D206368012A8046D1B20AD0B3F504
:1052E000827F40F00E81A268002A40F00A810429E2
:1052F00040F007812DB90120002384F85C30BDE81F
:10530000F883B9F1000FF6D0002EF4D094F85D20A8
:10531000E0682168C4F84090042A1CBF052284F884
:105320005D2000222266B0F5E06FA4F84660E687B3
:10533000C4E91322A4F844604A68A563A68701D88B
:10534000012E2ED022F480524A600A6852065EBFB7
:105350000A6842F040020A60B0F5E06F57D90BB11D
:10536000012E07D135F8023BCB60E38FA563013BEB
:105370009BB2E3870125E38F9BB2ABB9B4F846300B
:105380009BB28BB9424639462046FFF736FE0028CD
:1053900040F0B380236E002BADD1012384F85D3043
:1053A000AAE742F48052CFE721688B689E070DD5AB
:1053B000E38F9BB253B145B1A36B33F8022BCA60A4
:1053C000A363E38F013B9BB2E38700258A6812F059
:1053D00001020FD0B4F846309BB25BB1236CC968B0
:1053E00023F8021B2364B4F84630013B9BB2A4F8B7
:1053F00046301546FDF7A2FCA0EB0800B842BAD330
:10540000781CB8D0012384F85D30032074E70BB119
:10541000012E0BD1E38F9BB2012B52D935F8023B01
:10542000CB60E38FA563023B9BB2E3870125E38F4B
:105430009BB223B9B4F846309BB2002BA2D02268AD
:105440009368990711D5E38F9BB273B165B1E18F72
:10545000A36B89B201293CD933F8021BD160A36345
:10546000E38F023B9BB2E38700252268916811F02D
:1054700001011DD0B4F846309BB2CBB1B4F8460060
:10548000236C80B201282CD9D06823F8020B236446
:10549000B4F84630023B9BB2A4F84630B4F846302C
:1054A0009BB2012B9EBF536843F4805353600D465B
:1054B000FDF744FCA0EB0800B842B8D37B1CB6D083
:1054C000A0E72B780B73A36B0133A363E38F013B3E
:1054D000AAE71B781373A36B0133A363E38F013B2C
:1054E000C0E7127B1A70236C01332364B4F8463092
:1054F000013B9BB2A4F84630D9E720232366012064
:1055000048E70220F8E60220F9E62DE9F3471F46B6
:1055100090F85D30012B04468A469046DEB240F09A
:10552000A7804368B3F5827F0ED1836863B90423F3
:1055300080F85D30134600970A46FFF7B8FE06462E
:10554000304602B0BDE8F08794F85C30012B00F0E3
:105550009180012384F85C30FDF7F0FB8146BAF1BD
:10556000000F75D0B8F1000F72D00025042384F825
:105570005D30C4E913552566A563A4F84680A58768
:10558000E5872568E2686B68C4F840A0B2F5E06F73
:105590008CBF23F4805343F48053A4F844806B60A1
:1055A000A368B3F5004F07D12B6823F040032B60AD
:1055B0002B6823F480432B602B685B065EBF2B684F
:1055C00043F040032B60B2F5E06F23D9B4F84630C6
:1055D0009BB223B323689A68D2073DD5DA68236C5F
:1055E00023F8022B2364B4F84630013B9BB2A4F8A5
:1055F0004630EBE723689A68D0071DD5226C1B7BE9
:105600001370236C01332364B4F84630013B9BB222
:10561000A4F84630B4F846309BB2002BEAD14A4693
:1056200039462046FFF7B2FCF8B9236E83B9012250
:1056300084F85D201E460BE0FDF780FBA0EB09001F
:10564000B842E7D3791CE5D0012384F85D30032606
:10565000002384F85C3073E7FDF770FBA0EB0900D2
:10566000B842B3D37B1CB1D0EEE720232366DCE73E
:105670000226EDE7022663E710B5026852E8003F14
:1056800023F4907342E8003102680029F5D10F4CF1
:1056900002F1080353E8003F234002F1080C4CE8F4
:1056A00000310029F4D1C36E012B07D152E8003F2D
:1056B00023F0100342E800310029F7D12023C0F87D
:1056C0008C300023C366436710BD00BFFEFFFFEFB1
:1056D0007047000038B50446C0692169A268236894
:1056E0000A4361691D680A438549024329400A4308
:1056F0001A605A68E16822F440520A435A60814AAB
:10570000A16993421CBF226A11439A6822F06E423B
:1057100022F430620A439A60DA6A616A22F00F0268
:105720000A43DA62784A934230D1784BD3F8883012
:1057300003F00303022B00F0DA80032B00F0CA8091
:10574000012B00F0CE80B0F5004F40F0D580FFF780
:10575000DDF9002877D061686D4B626A33F812205A
:10576000B0FBF2F24B0803EB42034FF6EF72B3FBD0
:10577000F1F3A3F11001914220D823F00F02216828
:1057800092B2C3F342031343CB605CE0614A93429D
:1057900016D15E4BD3F8883003F00C03082B00F0D1
:1057A000A68008D8002B40F09C80B0F5004F7AD13D
:1057B000FFF79AF9CDE70C2B00F08C80012043E035
:1057C000554A93420AD1514BD3F8883003F0300345
:1057D000202B00F08C80E5D9302BEDE74F4A934227
:1057E00009D14A4BD3F8883003F0C003802B7ED018
:1057F000D8D9C02BE0E74A4A93420BD1434BD3F8A8
:10580000883003F44073B3F5007F70D0CAD9B3F584
:10581000407FD1E73B4A9342D0D13C4BD3F888300C
:1058200003F44063B3F5006F15D003D843B9FFF715
:105830005BF907E0B3F5406FC0D14FF400400BE0D7
:10584000FFF728F840B900204FF00113A3660023AA
:10585000C4E91D3338BD334865682D4B626A05EBDA
:10586000450133F81220B0FBF2F39942A6D8B3EB0E
:10587000053FA3D800231946FBF70EFA090241EAB7
:1058800010616B080002C0182A464FF0000341F176
:105890000001FBF701FA244BA0F540729A428DD823
:1058A0002368D860CFE7FFF71FF90028CBD06368E3
:1058B000616A174A32F81120B0FBF2F000EB530096
:1058C000B0FBF3F04FF6EF73A0F11002E6E7FEF73E
:1058D000E1FFEAE7B0F5004F3FF43DAF4FF4004081
:1058E000E5E7B0F5004FF2D1FEF7D4FF31E7B0F5B0
:1058F000004F0C48DBD12EE7FFF708F9D5E700BFD2
:10590000F369FFCF008000400038014000100240E2
:105910006E9100080044004000480040004C0040E8
:10592000005000400024F400FFFC0F00836A1A07B7
:1059300010B506D50168846B4A6822F40042224300
:105940004A60DC0706D50168C46A4A6822F400325E
:1059500022434A60990706D50168046B4A6822F41D
:10596000803222434A605A0706D50168446B4A6870
:1059700022F4802222434A60DC0606D50168C46B0B
:105980008A6822F4805222438A60990606D501680B
:10599000046C8A6822F4005222438A605A060FD5AA
:1059A0000168446C4A6822F480122243B4F5801FD7
:1059B0004A6005D14A68846C22F4C00222434A60DE
:1059C0001B0606D50268C16C536823F400230B4301
:1059D000536010BD2DE9F843DDF8209004460D46D4
:1059E000174698462268D36935EA03030CBF0123A2
:1059F0000023BB4201D0002022E0B9F1FF3FF2D0EA
:105A0000FDF79CF9A0EB0800484529D8B9F1000F33
:105A100026D021680B685A07E4D5802DE2D0402DAE
:105A2000E0D0CE6916F008060CD0082520460D629D
:105A3000FFF722FE0023C4F8905084F88430012040
:105A4000BDE8F883CB691B05CCD54FF400630B622E
:105A50002046FFF711FE2023C4F8903084F88460BC
:105A60000320EDE72DE9F7439846D0F88830202B46
:105A700004460E46174646D1002946D0002A44D097
:105A800021230025C0F89050C0F88830FDF756F962
:105A9000A368A4F85470B3F5805F8146A4F85670EB
:105AA00003D123690BB935461E46B4F85620CDF80C
:105AB000008092B24B4642B940212046FFF78AFF50
:105AC000202348B9C4F8883009E00022802120460C
:105AD000FFF780FF30B12023C4F88830032003B0E3
