:020000040800F2
:10000000000002208D230008AD220008AF22000866
:10001000B1220008B3220008B52200080000000049
:10002000000000000000000000000000B7220008EF
:10003000B922000800000000BB220008BD22000811
:10004000DD230008DD230008DD230008DD23000890
:10005000DD230008DD230008DD230008DD23000880
:10006000C1220008DD230008DD230008DD2300088D
:10007000DD230008DD230008DD230008DD23000860
:10008000DD230008DD230008DD230008DD23000850
:10009000DD230008DD230008DD230008DD23000840
:1000A000DD230008DD230008DD230008DD23000830
:1000B000DD230008DD230008DD230008DD23000820
:1000C000DD230008DD230008DD230008DD23000810
:1000D000DD230008DD230008DD230008DD23000800
:1000E000DD230008DD230008DD230008DD230008F0
:1000F000DD230008DD230008DD230008DD230008E0
:10010000DD230008DD230008DD230008DD230008CF
:10011000DD230008DD230008DD230008DD230008BF
:10012000DD230008DD230008DD230008DD230008AF
:10013000DD230008DD230008DD230008DD2300089F
:10014000DD230008DD230008DD230008DD2300088F
:10015000DD230008DD230008DD230008DD2300087F
:10016000DD230008DD230008DD230008DD2300086F
:10017000DD230008DD230008DD230008DD2300085F
:10018000DD230008DD230008DD230008DD2300084F
:10019000DD23000800000000DD230008DD23000847
:1001A000DD230008DD230008DD230008DD2300082F
:1001B000DD230008DD230008DD230008DD2300081F
:1001C000DD230008DD230008DD230008DD2300080F
:0801D000DD230008DD23000817
:1001E00010B5054C237833B9044B13B10448AFF371
:1001F00000800123237010BDF001002000000000EA
:10020000207E000808B5034B1BB103490348AFF338
:10021000008008BD00000000F4010020207E0008DE
:1002200001F0FF01102A2BDB10F0070F08D010F8A7
:10023000013B013A8B422DD010F0070F42B3F6D1AB
:10024000F0B441EA012141EA014122F007047FF0C4
:1002500000070023F0E80256083C85EA010586EA1B
:10026000010685FA47F5A3FA87F586FA47F6A5FA57
:1002700087F68EB9EED1F0BC01F0FF0102F0070263
:1002800032B110F8013B013A83EA010313B1F8D10E
:100290000020704701387047002D06BF35460338EF
:1002A000073815F0010F07D1013015F4807F02BF28
:1002B000013015F4C03F0130F0BC0138704700BF79
:1002C000034613F8012B002AFBD1181A0138704796
:1002D00081F0004102E000BF83F0004330B54FEAF7
:1002E00041044FEA430594EA050F08BF90EA020F64
:1002F0001FBF54EA000C55EA020C7FEA645C7FEAF7
:10030000655C00F0E2804FEA5454D4EB5555B8BF19
:100310006D420CDD2C4480EA020281EA030382EA8A
:10032000000083EA010180EA020281EA0303362D1C
:1003300088BF30BD11F0004F4FEA01314FF4801CEF
:100340004CEA113102D0404261EB410113F0004F01
:100350004FEA03334CEA133302D0524263EB4303B8
:1003600094EA050F00F0A780A4F10104D5F1200E56
:100370000DDB02FA0EFC22FA05F2801841F10001B1
:1003800003FA0EF2801843FA05F359410EE0A5F185
:1003900020050EF1200E012A03FA0EFC28BF4CF0B6
:1003A000020C43FA05F3C01851EBE37101F000456C
:1003B00007D54FF0000EDCF1000C7EEB00006EEB79
:1003C0000101B1F5801F1BD3B1F5001F0CD3490803
:1003D0005FEA30004FEA3C0C04F101044FEA44525A
:1003E00012F5800F80F09A80BCF1004F08BF5FEAE1
:1003F000500C50F1000041EB045141EA050130BDC1
:100400005FEA4C0C404141EB0101013C28BFB1F5D2
:10041000801FE9D291F0000F04BF01460020B1FA1D
:1004200081F308BF2033A3F10B03B3F120020CDAF0
:100430000C3208DD02F1140CC2F10C0201FA0CF0CE
:1004400021FA02F10CE002F11402D8BFC2F1200C33
:1004500001FA02F120FA0CFCDCBF41EA0C019040E9
:10046000E41AA2BF01EB0451294330BD6FEA040432
:100470001F3C1CDA0C340EDC04F11404C4F120021D
:1004800020FA04F001FA02F340EA030021FA04F32F
:1004900045EA030130BDC4F10C04C4F1200220FA86
:1004A00002F001FA04F340EA0300294630BD21FAC4
:1004B00004F0294630BD94F0000F83F4801306BF8A
:1004C00081F480110134013D4EE77FEA645C18BF7E
:1004D0007FEA655C29D094EA050F08BF90EA020F15
:1004E00005D054EA000C04BF1946104630BD91EA0D
:1004F000030F1EBF0021002030BD5FEA545C05D110
:100500004000494128BF41F0004130BD14F580044E
:100510003CBF01F5801130BD01F0004545F0FE41C2
:1005200041F470014FF0000030BD7FEA645C1ABFF7
:10053000194610467FEA655C1CBF0B46024650EA2E
:10054000013406BF52EA033591EA030F41F400215A
:1005500030BD00BF90F0000F04BF0021704730B5E0
:100560004FF4806404F132044FF000054FF00001B5
:1005700050E700BF90F0000F04BF0021704730B576
:100580004FF4806404F1320410F0004548BF40424B
:100590004FF000013EE700BF42004FEAE2014FEAA0
:1005A00031014FEA02701FBF12F07F4393F07F4F7B
:1005B00081F06051704732F07F4208BF704793F07E
:1005C0007F4F04BF41F40021704730B54FF4607491
:1005D00001F0004521F000411CE700BF50EA010294
:1005E00008BF704730B54FF000050AE050EA01023D
:1005F00008BF704730B511F0004502D5404261EBAD
:1006000041014FF4806404F132045FEA915C3FF4ED
:10061000D8AE4FF003025FEADC0C18BF03325FEA8A
:10062000DC0C18BF033202EBDC02C2F1200300FA3B
:1006300003FC20FA02F001FA03FE40EA0E0021FA60
:1006400002F11444BDE600BF70B54FF0FF0C4CF44E
:10065000E06C1CEA11541DBF1CEA135594EA0C0F00
:1006600095EA0C0F00F0DEF82C4481EA030621EA3B
:100670004C5123EA4C5350EA013518BF52EA033576
:1006800041F4801143F4801338D0A0FB02CE4FF028
:100690000005E1FB02E506F00042E0FB03E54FF058
:1006A0000006E1FB03569CF0000F18BF4EF0010E50
:1006B000A4F1FF04B6F5007F64F5407404D25FEA4C
:1006C0004E0E6D4146EB060642EAC62141EA5551FF
:1006D0004FEAC52040EA5E504FEACE2EB4F1FD0C41
:1006E00088BFBCF5E06F1ED8BEF1004F08BF5FEABF
:1006F000500E50F1000041EB045170BD06F0004671
:1007000046EA010140EA020081EA0301B4EB5C041D
:10071000C2BFD4EB0C0541EA045170BD41F4801115
:100720004FF0000E013C00F3AB8014F1360FDEBF3A
:10073000002001F0004170BDC4F10004203C35DA16
:100740000C341BDC04F11404C4F1200500FA05F399
:1007500020FA04F001FA05F240EA020001F000423A
:1007600021F0004110EBD37021FA04F642EB0601B0
:100770005EEA430E08BF20EAD37070BDC4F10C04DA
:10078000C4F1200500FA04F320FA05F001FA04F29E
:1007900040EA020001F0004110EBD37041F100018A
:1007A0005EEA430E08BF20EAD37070BDC4F1200595
:1007B00000FA05F24EEA020E20FA04F301FA05F2FD
:1007C00043EA020321FA04F001F0004121FA04F2A5
:1007D00020EA020000EBD3705EEA430E08BF20EA75
:1007E000D37070BD94F0000F0FD101F000464000AF
:1007F00041EB010111F4801F08BF013CF7D041EA31
:10080000060195F0000F18BF704703F00046520034
:1008100043EB030313F4801F08BF013DF7D043EA05
:100820000603704794EA0C0F0CEA135518BF95EABB
:100830000C0F0CD050EA410618BF52EA4306D1D142
:1008400081EA030101F000414FF0000070BD50EA61
:10085000410606BF1046194652EA430619D094EAEB
:100860000C0F02D150EA013613D195EA0C0F05D1D5
:1008700052EA03361CBF104619460AD181EA030129
:1008800001F0004141F0FE4141F470014FF00000E1
:1008900070BD41F0FE4141F4780170BD70B54FF07C
:1008A000FF0C4CF4E06C1CEA11541DBF1CEA1355FC
:1008B00094EA0C0F95EA0C0F00F0A7F8A4EB0504DE
:1008C00081EA030E52EA03354FEA013100F08880D5
:1008D0004FEA03334FF0805545EA131343EA12639E
:1008E0004FEA022245EA111545EA10654FEA002653
:1008F0000EF000419D4208BF964244F1FD0404F50C
:10090000407402D25B084FEA3202B61A65EB030567
:100910005B084FEA32024FF480104FF4002CB6EB24
:10092000020E75EB030E22BFB61A754640EA0C00A4
:100930005B084FEA3202B6EB020E75EB030E22BFE4
:10094000B61A754640EA5C005B084FEA3202B6EB25
:10095000020E75EB030E22BFB61A754640EA9C00E4
:100960005B084FEA3202B6EB020E75EB030E22BFB4
:10097000B61A754640EADC0055EA060E18D04FEA72
:10098000051545EA16754FEA06164FEAC30343EA12
:1009900052734FEAC2025FEA1C1CC0D111F4801FDF
:1009A0000BD141EA00014FF000004FF0004CB6E7D8
:1009B00011F4801F04BF01430020B4F1FD0C88BF77
:1009C000BCF5E06F3FF6AFAEB5EB030C04BFB6EB82
:1009D000020C5FEA500C50F1000041EB045170BD75
:1009E0000EF0004E4EEA113114EB5C04C2BFD4EBA2
:1009F0000C0541EA045170BD41F480114FF0000E26
:100A0000013C90E645EA060E8DE60CEA135594EAA1
:100A10000C0F08BF95EA0C0F3FF43BAF94EA0C0FA4
:100A20000AD150EA01347FF434AF95EA0C0F7FF419
:100A300025AF104619462CE795EA0C0F06D152EA6D
:100A400003353FF4FDAE1046194622E750EA410651
:100A500018BF52EA43067FF4C5AE50EA41047FF462
:100A60000DAF52EA43057FF4EBAE12E74FF0FF3CC7
:100A700006E000BF4FF0010C02E000BF4FF0010C98
:100A80004DF804CD4FEA410C7FEA6C5C4FEA430C11
:100A900018BF7FEA6C5C1BD001B050EA410C0CBF60
:100AA00052EA430C91EA030F02BF90EA020F0020C2
:100AB000704710F1000F91EA030F58BF994208BF29
:100AC00090422CBFD8176FEAE37040F001007047E6
:100AD0004FEA410C7FEA6C5C02D150EA013C07D13D
:100AE0004FEA430C7FEA6C5CD6D152EA033CD3D088
:100AF0005DF8040B704700BF8446104662468C4682
:100B00001946634600E000BF01B5FFF7B7FF0028B4
:100B100048BF10F1000F01BD4DF808EDFFF7F4FFDD
:100B20000CBF012000205DF808FB00BF4DF808ED68
:100B3000FFF7EAFF34BF012000205DF808FB00BF8B
:100B40004DF808EDFFF7E0FF94BF012000205DF8AD
:100B500008FB00BF4DF808EDFFF7CEFF94BF012062
:100B600000205DF808FB00BF4DF808EDFFF7C4FF5B
:100B700034BF012000205DF808FB00BF4FEA410CA4
:100B80007FEA6C5C02D150EA013C0AD14FEA430C87
:100B90007FEA6C5C02D152EA033C02D14FF00000C4
:100BA00070474FF0010070474FEA410212F5001202
:100BB00015D211D56FF47873B3EB625212D94FEAA4
:100BC000C12343F0004343EA505311F0004F23FA8E
:100BD00002F018BF404270474FF00000704750EAE3
:100BE000013005D111F0004008BF6FF000407047A0
:100BF0004FF00000704700BF53B94AB9002908BF41
:100C000000281CBF4FF0FF314FF0FF3000F088B9D3
:100C1000ADF1080C6DE904CE00F006F8DDF804E053
:100C2000DDE9022304B070472DE9F047089D8E46A8
:100C300004468846002B4AD18A42174662D9B2FA46
:100C400082F64EB1C6F1200301FA06F820FA03F34A
:100C5000B74043EA0808B4404FEA174E1FFA87FC32
:100C6000B8FBFEF1230C0EFB118843EA084301FB9D
:100C70000CF29A4209D9FB1801F1FF3080F0EA80AA
:100C80009A4240F2E78002393B449A1AA3B2B2FB7F
:100C9000FEF00EFB102243EA024300FB0CFC9C45D5
:100CA00009D9FB1800F1FF3280F0D6809C4540F254
:100CB000D3803B44023840EA0140A3EB0C030021FF
:100CC0001DB1F3400022C5E90032BDE8F0878B4238
:100CD00005D90DB1C5E9000100210846F5E7B3FAD1
:100CE00083F1002946D1734502D3824200F2058187
:100CF000841A6EEB030201209046002DE5D0C5E971
:100D00000048E2E7002A00F09080B2FA82F6002E56
:100D100040F0A4808A1A030C4FEA174E80B2BCB28E
:100D20000121B2FBFEFC0EFB1C2243EA024304FB42
:100D30000CF29A4207D9FB180CF1FF3802D29A4202
:100D400000F2E080C4469B1AB3FBFEF20EFB1233A6
:100D500040EA034302FB04F49C4207D9FB1802F16A
:100D6000FF3002D29C4200F2CA8002461B1B42EABC
:100D70000C40A5E7C1F120068B4022FA06F71F437D
:100D80000EFA01F420FA06F32EFA06FE4FEA17498E
:100D9000234300FA01F81FFA87FCBEFBF9F01C0C94
:100DA00009FB10EE44EA0E4400FB0CFEA64502FAD5
:100DB00001F209D93C1900F1FF3A80F09C80A64568
:100DC00040F2998002383C44A4EB0E041FFA83FEE3
:100DD000B4FBF9F309FB13444EEA044403FB0CFC97
:100DE000A44508D93C1903F1FF3E80F08280A44558
:100DF0007FD9023B3C4443EA0040A4EB0C04A0FB37
:100E000002EC64457346E14662D35FD05DB1B8EB56
:100E1000030264EB090404FA06F622FA01F31E4306
:100E2000CC40C5E9006400214FE7B1FBF2FC010CA6
:100E300041EA0E4180B240EA01423B4638463C4618
:100E4000B846BE462026B1FBF7F1A2EB080241EA04
:100E50000C4166E7014618E710462CE7C6F1200270
:100E60002EFA02F3B740B14020FA02F24FEA174ED1
:100E70000A43B3FBFEF8BCB20EFB1833110C41EA77
:100E8000034108FB04F9B04089454FEA104380B2A2
:100E90003ED9791808F1FF3C01D289451FD8A1EB52
:100EA0000901B1FBFEF909FB04F80EFB191192B21E
:100EB00042EA0142424529D2BA1809F1FF31C4D2AF
:100EC0004245C2D2A9F102013A44BEE7F0459DD2A3
:100ED000BEEB02036CEB070C0138E14696E7A7EB8B
:100EE00009094944A8F1020CB1FBFEF909FB04F819
:100EF000DBE773467FE7504666E70846FDE63B447E
:100F0000023A33E7ACF1020C3B441CE749469CE74C
:100F1000A1EB0901C446B1FBFEF909FB04F8C4E7E3
:100F2000704700BF012202F015B8000082B0084BE4
:100F30000190019A1B680749B3FBF1F353430193F6
:100F4000019B5A1E0192002BFAD102B0704700BFDC
:100F5000180000208096980002480122102101F01C
:100F6000F9BF00BF00080048012210214FF0904057
:100F700001F0F0BF024608B1FFF7EEBF01481021B3
:100F800001F0E8BF00080048024608B1FFF7ECBFD7
:100F900010214FF0904001F0DDBF000013B5044672
:100FA00004F01F040020FFF7E5FF8DF804400A4C11
:100FB00001A964230122204603F06DFA6423012273
:100FC0000DF10501204603F05EFC9DF80540FFF79A
:100FD000C3FF204602B010BDA002002073B5044636
:100FE00004F01F0400200D461646FFF7C3FF8DF8DE
:100FF0000440084C01A964230122204603F04BFA67
:10100000642332462946204603F03DFCFFF7A4FF47
:1010100002B070BDA002002037B5044600200D4686
:1010200044F02004FFF7A6FF6423022201A905482B
:101030008DF804408DF8055003F02DFAFFF78CFF72
:1010400003B030BDA002002073B5044644F0200474
:1010500000200D461646FFF78DFF8DF80440084C22
:1010600001A964230122204603F015FA64233246C5
:101070002946204603F00FFAFFF76EFF02B070BD5D
:10108000A002002073B50F4B0F4E1D7804468D4211
:101090004FF0000028BF0D46FFF76CFF61238DF86D
:1010A00007300DF1070164230122304603F0F3F904
:1010B00064232A462146304603F0E5FBFFF74CFF48
:1010C00002B070BD04030020A0020020FF21E12037
:1010D000FFF7A2BFFF21E220FFF79EBF13B5044632
:1010E000CDE90023E8B91946124B1046C3E90001C7
:1010F000114B185D05226946FFF7A6FF0F4B1978C3
:101100000F4B185DFFF788FF0220FFF747FF012311
:10111000A34040EA0301C9B20220FFF77DFF02B0FD
:1011200010BD0628FBD8044B012C185CE0D001222E
:101130006946E1E708030020198400080403002041
:10114000138400087F28014628BF7F210520FFF770
:1011500063BF0000024B202828BF20201870704772
:10116000040300206020FFF719BF10B5FFF78AFFC6
:101170001720FFF713FF0446FFF7ACFFFFF7F2FF5E
:1011800004F0010010BD08B51D20FFF707FF00F0B7
:10119000FB011D20FFF740FFBDE8084000211C2097
:1011A000FFF73ABF014600B13F210120FFF734BFEE
:1011B00010B504460620FFF7F1FE042C00F0F901FB
:1011C00007D8022C0DD8012C08D0022C01D141F0F7
:1011D0000401BDE810400620FFF71EBF41F00201E8
:1011E000F7E741F00601F4E738B505460620FFF7BA
:1011F000D5FE022D00F0D7040CD144F02004214686
:101200000620FFF709FF0620FFF7C8FE031B584220
:10121000584138BD012D08BF44F00804EFE710B570
:1012200004460020FFF7BAFE00F0F3012CB1012CB8
:101230000CBF41F0080141F00C01BDE81040002056
:10124000FFF7EABE08B50020FFF7A8FE40F0020154
:10125000BDE80840C9B20020FFF7DEBE08B5002097
:10126000FFF79CFEBDE8084000F0FD010020FFF7FD
:10127000D3BE70210720FFF7CFBE000007B50020C6
:10128000FFF778FE47F25033ADF8043002226423B2
:1012900001A9044803F0FFF8FFF75EFE03B05DF814
:1012A00004FB00BFA002002010B5A0B0BC4907A8F5
:1012B00004F0F1FD07A8FFF703F80A2382B207A99B
:1012C000B84803F08BFD0020FFF768FE040740F1EB
:1012D000328240074CBFB449B44907A804F0DBFD93
:1012E00007A8FEF7EDFF0A2382B207A9AD4803F075
:1012F00075FD0120FFF752FEC0F340130393C0F3C6
:1013000000130293C0F3C0030193C0F3800300F005
:101310000102A7490093C0F3400307A804F042FC70
:1013200007A8FEF7CDFF0A2382B207A99D4803F064
:1013300055FD0220FFF732FEC0F340130393C0F3C4
:1013400000130293C0F3C0030193C0F3800300F0C5
:10135000010298490093C0F3400307A804F022FC5F
:1013600007A8FEF7ADFF0A2382B207A98D4803F054
:1013700035FD0320FFF712FE00F003028E49023212
:1013800007A804F00FFC07A8FEF79AFF0A2382B211
:1013900007A9844803F022FD0520FFF7FFFD8749D8
:1013A00000F07F0207A804F0FDFB07A8FEF788FF06
:1013B00007A982B20A237B4803F010FD0620FFF73D
:1013C000EDFD01074CBF7E497E49044607A804F0A5
:1013D00062FD07A8FEF774FF0A2382B207A97148CD
:1013E00003F0FCFC14F0060FC4F3410340F0A581A8
:1013F000754907A804F04FFD07A8FEF761FF0A230F
:1014000082B207A9674803F0E9FC05A905220A2072
:10141000FFF7E4FD9DF8143002939DF81530019319
:101420009DF816309DF818206849009307A89DF88C
:10143000173004F0B7FB07A8FEF742FF0A2382B279
:1014400007A9584803F0CAFC05A905220B20FFF79D
:10145000C5FD9DF8143002939DF8153001939DF859
:1014600016309DF818205A49009307A89DF81730A8
:1014700004F098FB07A8FEF723FF0A2382B207A90E
:10148000484803F0ABFC05A901220C20FFF7A6FD9C
:101490009DF814204F4907A804F084FB07A8FEF725
:1014A0000FFF0A2382B207A93E4803F097FC05A963
:1014B00001220D20FFF792FD9DF81420464907A850
:1014C00004F070FB07A8FEF7FBFE0A2382B207A90F
:1014D000344803F083FC05A901220E20FFF77EFDAE
:1014E0009DF814203D4907A804F05CFB07A8FEF70F
:1014F000E7FE0A2382B207A92A4803F06FFC05A978
:1015000001220F20FFF76AFD9DF81420344907A837
:1015100004F048FB07A8FEF7D3FE0A2382B207A90E
:10152000204803F05BFC05A905221020FFF756FDBB
:101530009DF8143002939DF8153001939DF81630F4
:101540009DF818202749009307A89DF8173004F04C
:1015500029FB07A8FEF7B4FE0A2382B207A91148A7
:1015600003F03CFC1120FFF719FD1F4900F03F027A
:1015700007A804F017FB07A8FEF7A2FE0A2382B211
:1015800007A9084803F02AFC1220FFF707FD1749B6
:1015900000F03F0207A804F005FB07A828E000BF01
:1015A000387E00080C0200206B7E0008877E000851
:1015B000B67E0008FA7E0008437F00085C7F0008C2
:1015C0006F7F0008867F00089D7F0008EA7F000883
:1015D0001A8000084A800008728000089A8000087B
:1015E000C2800008EA800008148100082D810008EC
:1015F000FEF766FE0A2382B207A9544803F0EEFB09
:101600001320FFF7CBFC524900F03F0207A804F07B
:10161000C9FA07A8FEF754FE0A2382B207A94B486D
:1016200003F0DCFB1420FFF7B9FC4A4900F03F024D
:1016300007A804F0B7FA07A8FEF742FE0A2382B211
:1016400007A9424803F0CAFB1520FFF7A7FC42494F
:1016500000F03F0207A804F0A5FA07A8FEF730FE45
:101660000A2382B207A9394803F0B8FB1620FFF716
:1016700095FC3A4900F03F0207A804F093FA07A846
:10168000FEF71EFE07A982B20A23304803F0A6FB2C
:101690001C20FFF783FCC0F340130393C0F3001337
:1016A0000293C0F3C0030193C0F3800300F0010272
:1016B0002B490093C0F3400307A804F073FA07A86E
:1016C000FEF7FEFD07A982B20A23204803F086FB3D
:1016D0001D20FFF763FC42074CBF22492249044604
:1016E00007A804F0D8FB07A8FEF7EAFD07A90A231C
:1016F00082B2164803F072FBA3074CBF1B491C497A
:1017000007A804F0C8FB07A8FEF7DAFD0A2382B297
:1017100007A90E4803F062FB164907A804F0BBFBBB
:1017200007A8FEF7CDFD0A2382B207A9074803F0F8
:1017300055FB20B010BD1049CFE5012B01D10F4959
:1017400057E6022B0CBF0E490E4952E60C02002050
:10175000468100085F8100087881000891810008B7
:10176000AA810008F48100080A820008218200088A
:101770003B820008387E0008A27E0008B17F000886
:10178000C57F0008D87F000884B037B506AC84E870
:101790000F0064222146534804F085FBFFF7DCFB71
:1017A0000020FFF7F1FB052000F062FE0821002079
:1017B000FFF732FC3F210120FFF72EFC032102201E
:1017C000FFF72AFC03210846FFF726FC032104202B
:1017D000FFF722FC02210520FFF71EFC0F21062047
:1017E000FFF71AFC0E210720FFF716FC0021082046
:1017F000FFF712FC00210920FFF70EFC4FF0E73540
:10180000E724694605220A2000958DF80440FFF779
:101810001BFC4FF0C233052200936946C2230B2004
:101820008DF80430FFF710FCC3210C20FFF7F4FB08
:10183000C4210D20FFF7F0FBC5210E20FFF7ECFBC4
:10184000C6210F20FFF7E8FB05226946102000950E
:101850008DF80440FFF7F8FB00211120FFF7DCFBB7
:1018600000211220FFF7D8FB00211320FFF7D4FB43
:1018700000211420FFF7D0FB00211520FFF7CCFB3F
:1018800000211620FFF7C8FBFFF7F8FC00211C2001
:10189000FFF7C2FB00211D20FFF7BEFBFFF704FD91
:1018A000FF210420FFF7B8FB0320FFF781FC012094
:1018B000FFF79AFC0220FFF7B2FCFFF764FC0A4B2B
:1018C00020221A70FFF7D5FC4C20FFF73BFCFFF7F6
:1018D000FDFBFFF7FFFBFFF7C1FC03B0BDE83040A5
:1018E00004B07047A00200200403002007B54FF6A3
:1018F000FF730190012201A9024803F06FFA03B0BF
:101900005DF804FB7803002091FBF2F14B1E00EB25
:101910008100002BA0F1040200DC704750F8081C85
:1019200040F8041C013B1046F3E700000021F0B52D
:10193000244D254E0C460A4608460B4655F82170A4
:10194000C82F84BF55F82170DB1956F8217088BF65
:101950000130C82F88BF56F8217001F1010184BF02
:10196000D21901340A29E9D118497CB1B2FBF4F249
:101970004FF4A5746243120B07EE902A9FED147A80
:10198000F8EEE77A67EE877AC1ED007A114A78B10E
:10199000B3FBF0F34FF4A57043431B0B07EE903AF3
:1019A0009FED0D7AF8EEE77A67EE877AC2ED007A5E
:1019B000D1ED007A92ED007A084B67EE877AC3ED9D
:1019C000007AF0BD380300201003002068030020D7
:1019D000A01AAF3D64030020CDCC4C3D6003002035
:1019E000042838B538D11D4C10212046FFF7BDFB27
:1019F0002068002830D01A4962680D68194B25B953
:101A0000012A02D11D6805B91A600D68154305D178
:101A10001D68012D02BF02251D6008601D68012D93
:101A200003D1012A04BF00251D600B68984213D121
:101A300092B90D48A3680360E3680C4C0422282186
:101A40002360FFF761FF204604222821FFF75CFF97
:101A5000BDE83840FFF76ABF38BD00BF0000002076
:101A6000700300206C0300203803002010030020C6
:101A700010B5134C96B004F110015422684604F0DE
:101A800012FA94E80F00FFF77FFE0220FFF7ACFB8D
:101A90000220FFF7C4FB6F20FFF754FB1020FFF775
:101AA00059FB0020FFF77EFBFFF7CCFB4FF4806271
:101AB0000023002016B0BDE81040FFF70FBB00BFA9
:101AC0000C04002008B572B602484FF48041FFF7BD
:101AD00029FAFEE70004004810B594B0382200212E
:101AE00006A804F059F91422002101A804F054F9C1
:101AF000002001F021FE40224FF480710223CDE945
:101B000009120424552206A8CDE90D33CDE90F4270
:101B1000CDE911330693139301F06EFE08B1FFF780
:101B2000D1FFCDE903000F2203230590214601A830
:101B3000CDE9012302F0A2F80028F0D114B010BDC5
:101B40002DE9F04FCFB000F071FCFFF7C5FF142274
:101B5000002136A804F020F9494BDA6C42F0040267
:101B6000DA64DA6C02F004020192019ADA6C42F053
:101B70002002DA64DA6C02F020020292029ADA6C35
:101B800042F00102DA64DA6C02F001020392039A75
:101B9000DA6C42F00202DA64DB6C03F002030493B5
:101BA000002210214FF09040049B01F0D3F93548FA
:101BB0000022102101F0CEF9002233484FF4604199
:101BC000002401F0C7F90126102736A94FF09040F4
:101BD000CDE93676CDE9384401F0F2F8294836A946
:101BE000CDE93676CDE938444FF0040801F0E8F845
:101BF0004FF404132448389436A9CDE9368301F014
:101C0000DFF84FF4C0532048389636A9CDE9363472
:101C100001F0D6F84FF460431B4836A9CDE93636BB
:101C2000CDE9384401F0CCF822463146082001F0D5
:101C300073F8082001F0A2F81448154984604FF4A5
:101C40008273C0E900134FF4E063C0E903344FF03E
:101C500020094FF400734FF0070A4FF0080BC0E95A
:101C60000639C0E90844C0E90BA444618462C0F8A5
:101C700034B002F0A2FB054660B1FFF723FF00BFBE
:101C80000010024000080048000400480C04002036
:101C900000300140CE4C0A90CDE908003C220146BC
:101CA00027A804F079F84FF0A0424FF440332046C3
:101CB000C4E90023C4E90255C4E90456C4F81880F5
:101CC000A583266284F8245084F83850E56384F8AC
:101CD000405000F0E9FB0028CFD1089008A9204629
:101CE00000F070FF0028C8D1DFF8F8E22C9009233B
:101CF000CDE927E37F23CDE92A38CDE9310002235E
:101D0000ADF8C0008DF8C2008DF8CC0027A92046A0
:101D1000CDF8A4A02F9300F0F5FC0028ADD1DFF89A
:101D2000C8C240F20F13204627A9CDE927C300F00F
:101D3000E9FC04460028A0D101463A460BA804F06D
:101D40002BF86022214636A804F026F81C222146F2
:101D50000FA8CDE90544079404F01EF8242221467B
:101D60001EA804F019F89B4D4A46214616A804F017
:101D700013F8994BAC602846C5E9003401F08AF9A4
:101D800000287FF47AAF0C21284601F0D9F9002809
:101D90007FF473AF0A21284601F0FEF900287FF492
:101DA0006CAF46F25F73CDE90B300BAA06212846D3
:101DB000CDE90D6B01F011FA00287FF45EAFCDE99B
:101DC0003600CDE93800CDE93A60CDE93C00CDE9F7
:101DD0003E00CDE94000CDE942004D9036AA0621F3
:101DE000284601F02BFA00287FF447AF80230593A3
:101DF000012205AB0621284601F0E0FB00287FF414
:101E00003CAF4FF47A530593062105AB02222846D6
:101E100001F0D4FB014600287FF42FAF10230BAA5A
:101E200028460E9301F0D9F9014600287FF425AF2A
:101E30000F90129015900FAA284601F035FB01462D
:101E400000287FF41AAF4FF48073CDE94730CDE915
:101E50003600CDE9440046904FF0807720234C9027
:101E600036AA2846CDE94A7301F0E8F900287FF444
:101E700004AF48904023042136AA28464B9301F032
:101E8000DDF9014600287FF4F8AE4FF6EF730593B5
:101E9000012205AB284601F091FB014600287FF4A2
:101EA000ECAE4F23CDE92000CDE92203CDE924009B
:101EB0004FF4406626901EAA2846CDE91E6301F025
:101EC00035FB00287FF4D9AE4FF400732093042132
:101ED0004FF000731EAA2846249301F027FB014609
:101EE00000287FF4CAAE082316900420CDE917031A
:101EF000012216AB2846CDE91911CDE91B111D9120
:101F000001F000FC00287FF4B8AE0421022416ABD7
:101F10004FF480722846169401F0F4FB0146002825
:101F20007FF4ABAECDE91600189016AB22462846DA
:101F300001F0E8FB00287FF4A0AE16AB4FF400726E
:101F400004212846169401F0DDFB00287FF495AEAD
:101F500047F6FF430BAA042128460B9301F03DF9F5
:101F600000287FF48AAE0FAA0421284601F09CFACB
:101F700000287FF482AE284605AB0122042101F03F
:101F80001DFB054600287FF478AE1248134C00F084
:101F9000DFF8134A25614FF4E133C4E900232046FA
:101FA0000C23C4E90255C4E90535C4E90755C4E961
:101FB000095502F0C3FF014600287FF45EAE2046BB
:101FC00003F029F8014600287FF457AE0EE000BF69
:101FD0006C05002070040020006801407803002098
:101FE000004400400200300404006008204603F072
:101FF00032F800287FF441AE204602F0F1FF0028BD
:102000007FF43BAE4FF400511348FEF78BFF1348AB
:1020100003F058FD41F28830FEF788FFFFF728FDF6
:102020004FF47A7000F024FA0D4803F0B3FD10224B
:1020300011460C4803F046FD0B4803F0ABFD72B6A9
:102040000A4B43F2E0221B88B3FBF2F3084A136009
:10205000084B00221A60FFDE000400485682000888
:102060007182000878820008938200081400002022
:1020700074030020100000200B4B1A6E42F0010286
:1020800082B01A661A6E02F001020092009A9A6DEE
:1020900042F080529A659B6D03F080530193019B3F
:1020A00002B001F0A1BB00BF0010024010B59CB00F
:1020B00004461422002102A803F06EFE54220021DF
:1020C00007A803F069FE2368B3F1A04F28D14FF4AD
:1020D0000043079307A84FF00053189301F0E6FE62
:1020E00008B1FFF7EFFC0F4BDA6C42F40052DA64F0
:1020F000DA6C02F400520092009ADA6C42F00102AB
:10210000DA64DB6C03F001030193019B0323CDE947
:10211000023302A900234FF09040049300F050FED8
:102120001CB010BD001002400268084B9A4282B0F9
:102130000AD103F528431A6E42F080621A661B6EBC
:1021400003F080630193019B02B070470068014077
:1021500070B5044688B01422002103A803F01CFEC9
:102160002268184B9A422BD103F528431648DA6CA3
:1021700042F00402DA64DA6C02F004020192019A7D
:10218000DA6C42F00102DA64DB6C03F001030293C3
:102190004FF440760225032403A9029BCDE9036591
:1021A000CDE9064400F00CFE0023CDE9053403A977
:1021B0000D234FF09040CDE90365079300F000FE3A
:1021C00008B070BD006801400008004810B5044622
:1021D00088B01422002103A803F0DEFD2268124B10
:1021E0009A421ED103F5604303A91A6E42F480524D
:1021F0001A661A6E02F480520192019ADA6C42F069
:102200000102DA64DB6C03F001030293029BE0221B
:102210000223CDE903234FF090400523079300F0FC
:10222000CFFD08B010BD00BF0030014010B59CB01C
:1022300004461422002102A803F0AEFD542200211E
:1022400007A803F0A9FD2268164B9A4228D1022361
:1022500007A8079301F02AFE08B1FFF733FC124BE1
:102260009A6D42F400329A659A6D02F4003200923F
:10227000009ADA6C42F00102DA64DB6C03F00103CD
:102280000193019B0C220223CDE902230023CDE917
:10229000043302A907234FF09040069300F090FD0D
:1022A0001CB010BD0044004000100240FEE7FEE7F5
:1022B000FEE7FEE7FEE770477047704700F0C6B8DC
:1022C000042000F04DBE0120704708B503F0B6FDB4
:1022D000162303604FF0FF3008BD08B503F0AEFDD4
:1022E00016230360FEE770B50D4614460E46731BB9
:1022F0009C4201DC204670BDAFF3008006F8010B64
:10230000F5E770B50D4614460E46731B9C4201DC82
:10231000204670BD16F8010BFFF7E8FAF5E74FF01D
:10232000FF3070474FF400534B600020704701208E
:1023300070470020704700000B4A116810B5034633
:1023400009B90A491160106809490A4C0344091B7C
:102350008B4206D903F072FD0C2303604FF0FF306F
:1023600010BD1360FCE700BFD80500203007002037
:102370000000022000040000034AD2F8883043F431
:102380007003C2F88830704700ED00E00D488546C4
:10239000FFF7F2FF0C480D490D4A002302E0D45824
:1023A000C4500433C4188C42F9D30A4A0A4C00239F
:1023B00001E013600432A242FBD303F045FDFFF7B6
:1023C000BFFBFEE70000022000000020EC0100201F
:1023D00074860008F00100202C070020FEE70000B2
:1023E00038B50F4B1A6805460AB9012038BD4FF4BD
:1023F0007A73B3FBF2F30B4A1068B0FBF3F000F012
:10240000CBFC04460028F0D10F2DEED80246294619
:102410004FF0FF3000F080FC034B20461D60E5E7E5
:102420001C000020180000202000002010B5032010
:1024300000F060FC0020FFF7D3FF044618B9FFF757
:102440001BFE204610BD0124FBE70000034A04499F
:10245000136809680B441360704700BFDC05002057
:102460001C000020014B1868704700BFDC050020ED
:1024700038B50446FFF7F6FF631C1CBF054B1B680D
:10248000054618BFE418FFF7EDFF431BA342FAD33C
:1024900038BD00BF1C000020806800F001007047BC
:1024A0008068C0F38000704737B50023019304466D
:1024B000002800F0F480C56D25B9FFF7F7FD25660B
:1024C00084F8585023689A68950041BF9A6822F0B2
:1024D000204222F03F029A609A68D00040F19F802B
:1024E0009A68D10000F1B280E26D42F01002E2651C
:1024F000226E42F00102226601211846FFF7D0FF4A
:10250000E26D02F01002024340F0C580E26D22F459
:10251000817242F00202E2651846FFF7BDFF88B9FA
:10252000B3F1A04F03D05F4A934240F091804FF047
:10253000A040FFF7B1FF02465A48FFF7ADFF024344
:1025400000F09C80E568E26B94F824002A43A568BB
:102550002A43657F012842EA453242EA004202BF2F
:10256000A06A00F1FF3042EA4042E06A20B1256BE8
:1025700000F4787028430243DD684B48284010433C
:10258000D8601A69606B22F0406202431A619A684F
:1025900012072CD4D86894F83820257F520020F4F4
:1025A000804042EA853220F0020002432569DA6069
:1025B0003E481A69002D63D042F480321A61D3F884
:1025C000C02002402A43C3F8C02094F84020012ACA
:1025D0005DD1D4E9112518692A436FF38A000243BB
:1025E000E06C0243206D024342F001021A6162690D
:1025F000012A05BF186B226A1A6B02F1FF3206BF6F
:1026000020F00F00024322F00F021A63E36D23F063
:10261000030343F00103E365084603B030BD9A6845
:10262000234922F0104222F03F0242F080529A6089
:10263000204A1268B2FBF1F2013252000192019A73
:10264000002A3FF44DAF019A013AF7E7002154E721
:102650001948FFF721FF02461848FFF71DFF024304
:102660001748FFF719FF02437FF46CAF15488268E3
:10267000656822F47C122A43826063E71248F6E719
:1026800022F480321A61D3F8C02002409BE71A6915
:1026900022F00102AAE7E36D43F01003E365012194
:1026A000BAE700BF000100500740F0FF00C0FFFF85
:1026B000400D0300180000200004005000050050E9
:1026C00000060050000700500003005030B5CC0D4C
:1026D00004F004041430C1F30451035907258D405C
:1026E00023EA05038A401343035130BD806800F09C
:1026F000010070478068C0F3800070478068C0F3B5
:10270000C0007047F7B590F858300022012B0746FB
:102710000D46019200F04E82012380F85830436943
:102720004968046813B1286A012846D1092916D1DD
:102730002B68AA6A5B0C03F4785322B1E96A02F0B1
:102740007C020A431343E26C22F07B4222F46F02C4
:1027500022F43F4222F0FF021A43E2647B662046E5
:10276000FFF7CCFF78B995F8263095F825205B0562
:10277000002A49D195F82410E26843EA015322F473
:1027800040121343E3602046FFF7B4FF03462046A0
:10279000FFF7B4FF034340F03381AB6A95F825603F
:1027A00013B1EB6A002B31D1012EE36840F0BF80FA
:1027B00043F00073E36000262FE0BB6E4BB9C7E91E
:1027C0001930AB6A421E23B103F07C031343EA6A5B
:1027D0001A432B68786E01F01F01C3F384638B40AA
:1027E000B96E034301391343B9667B660029B6D13C
:1027F000E26C22F07B4222F46F0222F43F4222F08C
:10280000FF021343E364AAE7E268B8E7012E40F051
:102810008D80FB6D43F02003FB6595F83030012B74
:1028200005BFD5E90D31226923690B4303BF22F4AB
:10283000FF72134343F0020323F002032361AA68EB
:102840002968B2F1004F75D100222046FFF73EFF04
:10285000636943F000436361D5F810C06969E068BB
:102860002B68BCF1040F04F160026AD0C0F3C10010
:10287000400052F82CE08140B64803F0F8430EEADD
:102880000000184341EA000343F0004342F82C30B3
:102890002969A86952F8213023F08073034342F874
:1028A0002130297F286901F1FF3C52F82030DCF10A
:1028B000000141EB0C0123F0007343EA416342F84D
:1028C00020302046FFF712FF002840F0CD80D5F8D9
:1028D0000CC02B68A04AD4F8B0100CF0180EC3F34B
:1028E000120022FA0EF21A4021EA00010A43C4F84B
:1028F000B0209A4A944540F0B780002840F082808A
:102900009A0E013202F01F01012009294FEA82626A
:1029100001FA00F340F29C80884002F0F84219442A
:1029200002431E39090541F0007397E0E36823F084
:1029300000733FE72046FFF7C9FE636923F00043B9
:1029400089E7216E216EC3F31200C1F38461002870
:1029500039D1C3F38463994202BF236E23F000434D
:102960002366636E2B68616EC3F31200C1F384614A
:1029700000282FD1C3F38463994202BF636E23F012
:102980000043636693682B689168C3F31200C1F338
:10299000846130BBC3F38463994202BF936823F020
:1029A00000439360D3682B68D168C3F31200C1F36E
:1029B0008461E8B9C3F38463994282D1D36823F078
:1029C0000043D3607DE793FAA3F3002BC9D0B3FA99
:1029D00083F3C0E793FAA3F3002BD3D0B3FA83F3C6
:1029E000CAE793FAA3F3002BDCD0B3FA83F3D3E75F
:1029F00093FAA3F3002B3FF464AFB3FA83F3DBE75E
:102A000000265EE793FAA3F232B1B2FA82F2013203
:102A100002F01F02092A5ED893FAA3F1B1FA81F1FC
:102A20000131890601F0F84193FAA3F0B0FA80F081
:102A3000013000F01F00012282400A4393FAA3F301
:102A4000B3FA83F3013303F01F0303EB430304E002
:102A500002F0F842884002430B441B0543EA02019E
:102A60002046AA68FFF732FE2A683D4B1A422CD056
:102A7000B4F1A04F4ED03B483B4B3C49844218BF79
:102A80000B463B489B68824203F0E07102D0394814
:102A9000824246D1180218D4B4F1A04F3CD0364B34
:102AA0009C4212D1314A936823F0E0730B4343F404
:102AB00000039360314B324A1B68B3FBF2F30C22E4
:102AC000534318330193019B43BB002387F85830CD
:102AD000304603B0F0BD93FAA3F1B1FA81F10131B0
:102AE000890601F0F84193FAA3F0B0FA80F00130C2
:102AF00000F01F00012282400A4393FAA3F3B3FAC5
:102B000083F3013303F01F0303216FF01D0011FB5A
:102B1000030107E7144BB4E7134AC4E7019B013BE9
:102B2000D0E7184882422FD1DA01CED4B4F1A04FB9
:102B30000DD00C480C4A0D4B844218BF1A469368BE
:102B400023F0E0730B4343F080739360BDE7064AC4
:102B5000F5E700BF00F0FF03FFFF070000007F4024
:102B600000000880000100500003005000070050E2
:102B7000000021C31000C090000600501800002083
:102B8000400D0300000052C70B4882429DD15B02FA
:102B90009BD40A4B9C4298D0094A03F50073B4F1C8
:102BA000A04F08BF1A46936823F0E0730B4343F429
:102BB0008003CAE702268BE7000084CB00010050A7
:102BC00000070050F0B590F85820012A9DB0034648
:102BD00000F082801C6800220120B4F1A04F1892FE
:102BE00083F8580019920AD03C4DAC4234D0D96DCC
:102BF00041F02001D96583F858201DB0F0BD384858
:102C0000FFF778FD02462046FFF774FD10435DD1C3
:102C1000344A35480D68B4F1A04F18BF02468DB351
:102C2000966893F83870486826F4604640EA473062
:102C30003043B4F1A04F906010D12046FFF756FD0D
:102C400004462748FFF752FD04430CBF0120002033
:102C500070B900200022CEE72448D1E71F48FFF7D3
:102C600045FD04462148FFF741FD04432048E9E7BC
:102C70009068896820F47160294320F00F000143B7
:102C80009160E6E79168B4F1A04F21F46041916052
:102C900012D12046FFF72AFD01461148FFF726FD15
:102CA00001430CBF012100210029D2D0916821F4F9
:102CB000716121F00F01E3E70848FFF717FD0146B6
:102CC0000A48FFF713FD01430948E7E7DA6D42F0D0
:102CD0002002DA650120BDE702208EE700040050E3
:102CE0000001005000030050000700500005005094
:102CF000000600500749CA6822F4E0620302120489
:102D000003F4E063120C134343F0BF6343F4003356
:102D1000CB60704700ED00E0164B30B5DC68C4F3C3
:102D20000224C4F10703251D042B28BF0423062D0C
:102D30004FF0FF358CBF033C002405FA03F321EA72
:102D40000303A54022EA0502A340002843EA020348
:102D5000ACBF00F16040084A4FEA0313B8BF00F06F
:102D60000F00DBB2AABF00F56140135480F80033B6
:102D700030BD00BF00ED00E014ED00E0002807DBEF
:102D8000044A4109012300F01F00834042F821302A
:102D9000704700BF00E100E00138B0F1807F0BD246
:102DA0004FF0E023054A5861F02182F823100020FB
:102DB000072298611A6170470120704700ED00E01A
:102DC0002DE9F74FDFF888915F4C00230A6832FA4B
:102DD00003F502D103B0BDE8F08F012505FA03F831
:102DE00018EA020200F0A4804E68032706F00305EB
:102DF0004FEA430E07FA0EFC6F1E012F6FEA0C0C10
:102E000034D8876807EA0C0ACF6807FA0EF747EA52
:102E10000A078760476827EA0808C6F300179F403B
:102E200047EA08074760C76807EA0C088F6807FA8F
:102E30000EF747EA0807022DC76019D14FEAD308F9
:102E400000EB880803F0070AD8F820704FEA8A0AD6
:102E50004FF00F0B0BFA0AFB27EA0B0B0F6907FA6F
:102E60000AF747EA0B07C8F8207001E0032DDAD112
:102E7000076805FA0EF507EA0C073D4316F4403FD4
:102E8000056055D0D9F8605045F00105C9F860508B
:102E9000D9F8605023F0030707F1804705F00105DA
:102EA00007F58037019503F0030C019DBD684FEADB
:102EB0008C0C4FF00F0E0EFA0CFEB0F1904F25EA7D
:102EC0000E0E37D0214DA84236D005F58065A842B8
:102ED00034D005F58065A84232D005F58065A8425A
:102EE00030D005F58065A84214BF0625052505FAF2
:102EF0000CF545EA0E05BD60A568D74316F4801FA2
:102F00000CBF3D401543A560E56816F4001F0CBFDB
:102F10003D401543E560656816F4003F0CBF3D4039
:102F2000154365602568F60354BF3D401543256091
:102F300001334BE70025DAE70125D8E70225D6E77C
:102F40000325D4E70425D2E700040140000400482B
:102F5000001002400AB18161704781627047000031
:102F6000044A5169014208B502D05061FEF738FDAC
:102F700008BD00BF000401400068F0B5CC0100EBC3
:102F8000C111402AD1F8E450D1F8B87035D02BD80F
:102F9000012A32D0023A1E2A09D8012101FA02F28E
:102FA00021490A4237D144F204010A4225D10021C5
:102FB000FE228A4025EA020CDD681A681E692A434F
:102FC0005D6932432A439D692A438A40082E42EABA
:102FD0000C0205D117F0022F02BFDB698B401A43A8
:102FE0002044C0F8E420F0BDB2F5007F13D00CD827
:102FF000802A10D0B2F5807FD9D102195968C2F861
:10300000BC109968C2F8C010D1E7B2F5806FF4D057
:10301000B2F5006FCBD102195968C2F8C410996893
:10302000C2F8C8101021C3E74100004006290CD89F
:10303000DFE801F00C12181E242A04000268D2F8FE
:10304000843343F00103C2F8843370470268D2F836
:10305000843343F00203F6E70268D2F8843343F086
:103060000403F0E70268D2F8843343F00803EAE788
:103070000268D2F8843343F01003E4E70268D2F820
:10308000843343F02003DEE70268D2F8843343F050
:103090004003D8E713B5044600284CD0022380F83B
:1030A000DD300023C0E93833C0E93A33C0E93C33AE
:1030B000C0F8F8308368DA071AD501681F4B9942C7
:1030C0000AD103F528431A6E42F080621A661B6E1D
:1030D00003F080630193019B0A68236922F4704224
:1030E00003F440431A43636903F4405313430B60F2
:1030F0002046FFF719F8A3689B0708D52168E36805
:103100000A6803F4407322F4407213430B600123F6
:1031100084F8DD30002384F8DC3004F1C402A362BB
:103120002363C4E90633C4E908331C349442F6D15E
:10313000002002B010BD0120FBE700BF0068014085
:1031400090F8DC30012B02464FF0020023D001231F
:1031500082F8DC30136882F8DD00481C17BFD3F812
:10316000CC03D3F8CC1340F00200C3F8CC031DBF4E
:10317000D3F8CC0320F00C00014321F00201C3F886
:10318000CC13D3F8CC1341F00101C3F8CC130123C5
:1031900082F8DD300020704770B504460D46FFF719
:1031A00061F906462268D2F88833DB0306D501238D
:1031B000002084F8DD3084F8DC000AE0691CF2D0DD
:1031C000FFF750F9801BA84204D9072384F8DD30AB
:1031D000032070BD002DE5D1F7E7F0B590F8DD30A4
:1031E000022B0546D8B217D0022385F8DD30062918
:1031F000D2E90237D2E900062C680ED1226822F00B
:103200000702134323F018033B4323606061A66168
:10321000012385F8DD300020F0BD04EBC114D4F8A3
:10322000802022F00702134323F018033B43C4F825
:103230008030C4F89400C4F89860E9E72DE9F84FAD
:1032400090F8DD30022B06461446D8B269D096F8C5
:10325000DC30012B4FF0020063D0012386F8DC3014
:1032600086F8DD000629D2E907BAD2E9099835685F
:10327000D2F814E063D12868D5F8A02320F020000C
:1032800040EA0E00BEF1200F20F0C00302D0A76973
:10329000022F48D143F0200323F4006343EA0B03D9
:1032A00023F4806343EA0A0323F0C06343EA09037B
:1032B00023F00063E06A43EA080323F0404343EA53
:1032C0008003606B23F000530343206B2B6022F4D8
:1032D00080320243C5F8A0231C2303FB016322684C
:1032E0001A6262685A62A2689A62E268DA622269C5
:1032F0001A633046FFF79AFE06290CD0E36A53B9E9
:1033000005EBC115E26DD5F8803023F4007343EA74
:103310004223C5F880300123002086F8DD3086F88E
:10332000DC00BDE8F88F032F02D143F04003B3E780
:10333000042F0CBF43F0800320F0E003ACE705EB63
:10334000C11CBEF1200FDCF8803023F07043CCF8B4
:103350008030DCF88070DCF8E800DCF8E420D5F898
:10336000A03327F0200747EA0E0704D0D4F818E06E
:10337000BEF1020F56D127F4C07747F0200727F49B
:10338000006E4EEA0B0E2EF4806E4EEA0A0E2EF000
:10339000C06E4EEA090E2EF0006EE76A4EEA080E85
:1033A0002EF0704E4EEA070E676B2EF4003EB7F11A
:1033B000005F08BF4EF4003E2EF04008D4F838E01D
:1033C000A76D48EA0E0828F4802848EA070828F084
:1033D000FC78276D28F4803848EA0708E76B67F324
:1033E0000500276C20F000403843676C22F480729F
:1033F0003A43A76C27F48059B9F5606F02D1BEF14A
:10340000400F02D122F4F0523A43E76CD4F854E072
:1034100022F48042174305291BD8DFE801F0152765
:103420002D33393FBEF1030F04D127F4807747F0E5
:103430008007A4E7BEF1040F06BF27F0800747F41A
:10344000807727F4D0779AE7226B23F4003343EA9E
:10345000420305EBC112CCF88080C2F8E800C2F844
:10346000E470C2F8D4E0C5F8A03335E7226B23F44A
:10347000802343EA8203ECE7226B23F4002343EA30
:10348000C203E6E7226B23F4801343EA0213E0E76A
:10349000226B23F4001343EA4213DAE7226B23F48E
:1034A000800343EA8213D4E770B590F8DD30022B35
:1034B0000446D8B238D094F8DC30012B4FF002002B
:1034C00032D084F8DD002068166800EBC113CD010E
:1034D000D3F8EC3023F0100343EA0613566823F4C4
:1034E00080133343D66823F480333343966823F440
:1034F000003333439669012E09D11669526923F0CE
:103500000403334323F00203134343F0010328442D
:10351000C0F8EC302046FFF789FD012384F8DD3048
:10352000002384F8DC30184670BD000030B590F8F8
:10353000DD30022B0446D8B23BD094F8DC30012BAE
:103540004FF0020035D084F8DD001368556903F4AC
:10355000E0505368C3F308031843936803F40073FF
:103560001843136903F480431843D36803F40043FA
:103570000343906900F000700343106A00F080403C
:103580000343D0690B4A00F000400343206800EB7E
:10359000C11102EA0542D1F8B8001343064A0240BD
:1035A0001343C1F8B8300020012384F8DD3084F8DB
:1035B000DC0030BD0000FF010020003C30B590F879
:1035C000DD50022D0446E8B225D094F8DC00012835
:1035D0004FF002001FD00125062984F8DC5084F842
:1035E000DD0002F1FF322AD1072A21D8DFE802F0FC
:1035F000041420182020201C22681B68D36194F832
:10360000DD30072B1FBF0123002084F8DD3084F854
:10361000DC0008BF012030BD22681B685362EEE762
:1036200022681B689362EAE722681B68D362E6E7B8
:10363000072384F8DD30002384F8DC30DFE7072A35
:10364000F6D801A050F822F0693600087736000855
:1036500031360008B9360008313600083136000826
:1036600031360008C736000822681B6802EBC11219
:10367000C2F89C30C3E72268186802EBC1115A688F
:10368000C1F8A4008AB1D1F8800020F44050C1F8FC
:103690008000D1F880001043B2F5005FC1F88000CF
:1036A00024D19B68C1F89C30A9E7D1F8803023F47D
:1036B0004053C1F88030A2E722681B6802EBC112B8
:1036C000C2F8A8309BE72268186802EBC1115A685B
:1036D000C1F8AC008AB1D1F8800020F44040C1F8B4
:1036E0008000D1F8800040EA8200D5E7B2F5405F63
:1036F00085D19B68C1F8A83081E7D1F8803023F4E8
:103700004043D6E770B590F8DD60022E0546F4B26E
:103710000FD090F8DC40012C4FF0020409D080F863
:10372000DD40FFF729FC0024012385F8DD3085F812
:10373000DC40204670BD0000284B1A6818BB02F41C
:10374000C062B2F5806FD3F8802022F48072C3F893
:10375000802040D11A6822F4C06242F400721A60DC
:103760001F4A126832214A431E49B2FBF1F201326C
:103770005969490500D522B95B6958052BD5032045
:103780007047013AF4E7B0F5007F1FD102F4C06240
:10379000B2F5806FD3F8802042F48072C3F88020A5
:1037A00019D11A6822F4C06242F400721A600C4AFD
:1037B000126832214A430B49B2FBF1F201325969D6
:1037C0004905D9D5002AD7D0013AF8E722F4C062DA
:1037D00042F480621A600020704700BF0070004011
:1037E0001800002040420F00024A936843F48043CF
:1037F00093607047007000402DE9F341044618B90A
:10380000012002B0BDE8F0810368D90714D4236811
:103810009A0758D42368190700F1A18023685A0732
:1038200000F1C88023689A0600F12F81E369002B1C
:1038300040F05C810020E4E79F4DAB68EA6803F04C
:103840000C030C2B0AD102F00303032B08D12B68C5
:103850009B03DCD56368002BD9D1D1E7082BF5E7B2
:103860006368B3F5803F10D12B6843F480332B603D
:10387000FEF7F8FD06462B689F03C8D4FEF7F2FD5D
:10388000801B6428F7D90320BBE7B3F5A02F04D130
:103890002B6843F480232B60E6E72A6822F4803209
:1038A0002A602A6822F480222A60002BE0D1FEF7E9
:1038B000D9FD06462B689903A9D5FEF7D3FD801BD9
:1038C0006428F7D9DFE77C4DAB68EA6803F00C03A6
:1038D0000C2B17D102F00303022B15D12B685A05CC
:1038E00002D5E368002B8BD06B68226923F0FE437E
:1038F00043EA02636B60714B1868FEF771FD0028A4
:1039000088D07DE7042BE8E7E368BBB12B6843F47C
:1039100080732B60FEF7A6FD06462B685B0507D576
:103920006B68226923F0FE4343EA02636B6071E730
:10393000FEF798FD801B0228EFD9A4E72B6823F43B
:1039400080732B60FEF78EFD06462B685F057FF5C2
:1039500061AFFEF787FD801B0228F6D993E7636904
:10396000554D9BB1D5F8943043F00103C5F8943020
:10397000FEF778FD0646D5F894309B073FF54EAF2D
:10398000FEF770FD801B0228F5D97CE7D5F894304E
:1039900023F00103C5F89430FEF764FD0646D5F820
:1039A00094309F077FF53AAFFEF75CFD801B02283D
:1039B000F5D968E7404DAB6DD80027D4AB6D43F027
:1039C0008053AB65AB6D03F080530193019B0127DE
:1039D0003B4E3368D9051BD5A368012B29D1D5F8F7
:1039E000903043F00103C5F89030FEF73BFD41F203
:1039F00088380646D5F890309B0740D5002F3FF415
:103A000011AFAB6D23F08053AB650BE70027DFE709
:103A1000336843F480733360FEF724FD80463368D7
:103A2000DA05D9D4FEF71EFDA0EB08000228F6D96E
:103A300029E7052B06D1D5F8903043F00403C5F8EB
:103A40009030CCE7D5F8902022F00102C5F8902004
:103A5000D5F8902022F00402C5F89020002BC4D1A4
:103A6000FEF700FD41F288380646D5F890309907F8
:103A7000C4D5FEF7F7FC801B4045F6D903E7FEF7F7
:103A8000F1FC801B4045B5D9FDE6A3690A4DCBB1D9
:103A9000D5F8983043F00103C5F89830FEF7E2FC02
:103AA0000646D5F898309B073FF5C0AEFEF7DAFC26
:103AB000801B0228F5D9E6E6001002402000002015
:103AC00000700040D5F8983023F00103C5F8983015
:103AD000FEF7C8FC0646D5F898309F077FF5A6AEDE
:103AE000FEF7C0FC801B0228F5D9CCE6454DAA683C
:103AF00002F00C020C2A51D0022B2B6823F08073A9
:103B00002B603AD1FEF7AEFC06462B6899012ED405
:103B1000EA683D4B1340226A1343A26A43EA022338
:103B2000E26A43EAC263626A013A43EA0213226B21
:103B30005208013A43EA4253626B5208013A43EA9F
:103B40004263EB602B6843F080732B60EB6843F0BB
:103B50008073EB60FEF786FC04462B689A013FF504
:103B600069AEFEF77FFC001B0228F6D98BE6FEF754
:103B700079FC801B0228C8D985E6FEF773FC044651
:103B80002B689B0104D4EA68204B1340EB6051E69C
:103B9000FEF768FC001B0228F2D974E6012B3FF403
:103BA0002FAEEB68226A03F0030191427FF428AE46
:103BB000616A03F0F0020139B2EB011F7FF420AE1D
:103BC000A16A03F4FE42B2EB012F7FF419AEE16A61
:103BD00003F07842B2EBC16F7FF412AE226B520851
:103BE00003F4C001013AB1EB425F7FF409AE626BAE
:103BF0005208013A03F0C063B3EB426F14BF0120D7
:103C00000020FEE5001002400C809F01FCFFEEFE4C
:103C1000174B9A6802F00C02042A23D09A6802F02B
:103C20000C02082A20D09A6802F00C020C2A1DD13E
:103C3000D968DA68D868DB6801F00301C3F341632F
:103C40000329C2F30312C0F3062003F101030CBFE2
:103C5000084909495B000132B1FBF2F25043B0FB65
:103C6000F3F07047044870470248704700207047DF
:103C70000010024000366E010024F4002DE9F843E4
:103C80000E46054610B90120BDE8F8836D4A136859
:103C900003F00F038B4245D3296811F001084CD182
:103CA0002A68910740F1A780674B12F0040F1EBFEE
:103CB000996841F4E0619960120741BF9A6822F463
:103CC0007C5242F4E0629A609A68A96822F0F0029D
:103CD0000A439A605B4C236803F00F03B34200F27F
:103CE00093802A68584C12F0040F40F0A380130709
:103CF00006D5A3682A6923F4605343EAC203A3608C
:103D0000FFF786FFA368514AC3F30313D35C03F0A4
:103D10001F03D8404E4B18604E4B1868BDE8F8435F
:103D2000FEF75EBB136823F00F030B4313601368A9
:103D300003F00F038B42A6D1AEE76F68424C032F0E
:103D4000236849D19B019ED5E368E26803F0030331
:103D5000032BE3680CBF40484048C2F30312C3F38F
:103D600006230132B0FBF2F25343E268C2F3416230
:103D700001325200B3FBF2F3394A93421AD84FF0A2
:103D80000008A36823F003033B43A360FEF76AFB2C
:103D900041F288390746A3686A6803F00C03B3EB65
:103DA000820F3FF47DAFFEF75DFBC01B4845F2D9A3
:103DB000032069E7A36813F0F00F04D08807DED56D
:103DC000AB68002BDBD1A36823F0F00343F0800342
:103DD000A3604FF08008D4E7022F09D113F4003F0D
:103DE0003FF451AFFFF714FF1D4B9842C7D9EAE7E4
:103DF00013F4806FF4E7B8F1800F01BF124A9368A3
:103E000023F0F003936065E7236823F00F03334347
:103E10002360FEF727FB41F288380746236803F04A
:103E20000F03B3423FF45DAFFEF71CFBC01B4045E0
:103E3000F4D9BDE7A368E96823F4E0630B43A3600A
:103E400055E700BF0020024000100240288400080F
:103E5000180000202000002000366E010024F4002D
:103E600000B4C404054B064A9B68C3F30223D35C29
:103E7000044A106803F01F03D84070470010024046
:103E80002084000818000020054B064A9B68C3F3F5
:103E9000C223D35C044A106803F01F03D840704764
:103EA0000010024020840008180000202DE9F34192
:103EB0000446006810F400205AD0254DAB6DD800A0
:103EC00044D4AB6D43F08053AB65AB6D03F08053CE
:103ED0000193019B01261F4F3B6843F480733B60B5
:103EE000FEF7C0FA80463B68D90535D5D5F8903045
:103EF000226D13F440731FD09A421DD0D5F8902044
:103F0000D5F8903043F48033C5F89030D5F8903030
:103F100022F4407123F48033D207C5F89030C5F8FD
:103F2000901009D5FEF79EFA41F288380746D5F879
:103F300090309B0740F12981D5F89030226D23F411
:103F400040731343C5F8903000200CE00026C2E710
:103F50000010024000700040FEF784FAA0EB080059
:103F60000228C0D903201EB1AB6D23F08053AB658E
:103F70002368DD0708D588496568D1F8882022F0D4
:103F800003022A43C1F88820990708D58249A56809
:103F9000D1F8882022F00C022A43C1F888205A0761
:103FA00008D57D49E568D1F8882022F030022A43FF
:103FB000C1F888201F0708D577492569D1F88820DE
:103FC00022F0C0022A43C1F88820DE0608D57249D3
:103FD0006569D1F8882022F440722A43C1F888200C
:103FE0009D0608D56C49A569D1F8882022F4406265
:103FF0002A43C1F88820590608D56749E569D1F8F0
:10400000882022F440522A43C1F888201A0608D595
:104010006149256AD1F8882022F440422A43C1F838
:104020008820DF0508D55C49656AD1F8882022F42C
:1040300040322A43C1F888209E0308D55649A56A14
:10404000D1F89C2022F003022A43C1F89C209D0550
:1040500008D55149E56AD1F8882022F440222A4344
:10406000C1F8882059050FD54B49256BD1F8882018
:1040700022F440122A43C1F88820B5F5801F02BF00
:10408000CA6842F48012CA601A050FD54249656BAE
:10409000D1F8882022F440022A43C1F88820B5F5DF
:1040A000800F02BFCA6842F48012CA60DF040FD5D5
:1040B0003949A56BD1F8882022F040722A43C1F813
:1040C0008820B5F1807F02BFCA6842F48012CA60BE
:1040D0009E040FD53049E56BD1F8882022F040626C
:1040E0002A43C1F88820B5F1006F02BFCA6842F4C4
:1040F0008012CA605D040FD52749256CD1F888204D
:1041000022F040622A43C1F88820B5F1006F02BF57
:10411000CA6842F48012CA6019040FD51E49656C42
:10412000D1F8882022F040522A43C1F88820B5F106
:10413000805F02BFCA6842F48032CA60DA030FD5DA
:104140001549A56CD1F8882022F040422A43C1F8D5
:104150008820B5F1804F02BFCA6842F48032CA603D
:104160005B030FD50C4AE16CD2F89C3023F440136A
:104170000B43B1F5001FC2F89C3003D1D36843F460
:104180008013D36002B0BDE8F081FEF76BF9C01B6D
:1041900040457FF6CCAEE5E600100240F7B50E468E
:1041A00014460546FEF75EF93444241AFEF75AF920
:1041B000224B1B68C3F3CB336343074601932A6842
:1041C000906810F080002DD0731CF9D0FEF74AF9EA
:1041D000C01BA04228D32B685A6822F0E0025A6024
:1041E0006A68B2F5827F0AD1AA68B2F5004F02D0A0
:1041F000B2F5806F03D11A6822F040021A60AA6AF1
:10420000B2F5005F07D11A6822F400521A601A68EA
:1042100042F400521A60012385F85D30002385F8CE
:104220005C30032003B0F0BD019A019B002A03F12A
:10423000FF33019308BF1446C1E700BF18000020F8
:104240002DE9F7431C46002317468DF80330054639
:104250000E46FEF707F93C44241AFEF703F9294BF2
:10426000D5F800901B68232253431B0D63438046FF
:1042700001932A689068304038D0B6F5C06F01BF0E
:1042800099F80C30DBB28DF803309DF803307B1CBD
:10429000F0D0FEF7E7F8A0EB0800A04229D32B6886
:1042A0005A6822F0E0025A606A68B2F5827F0AD149
:1042B000AA68B2F5004F02D0B2F5806F03D11A6838
:1042C00022F040021A60AA6AB2F5005F07D11A68AC
:1042D00022F400521A601A6842F400521A60012354
:1042E00085F85D30002385F85C30032003B0BDE81D
:1042F000F083019A019B002A03F1FF33019308BF69
:104300001446B6E718000020F8B54368B3F5827F7D
:1043100004460E4617460BD18368B3F5004F02D012
:10432000B3F5806F04D12268136823F04003136053
:104330003A4631462046FFF731FF054628B1236E45
:1043400043F020032366032513E06368B3F5827FFF
:104350000FD1A368B3F5004F02D0B3F5806F08D139
:104360003B4632464FF4C0612046FFF769FF002804
:10437000E5D12846F8BD70B513460D4616460A46E7
:104380004FF4C0510446FFF75BFF28B1236E43F0A2
:1043900020032366032070BD324629462046FFF7DE
:1043A000FDFE0028F2D133462A464FF4C061204674
:1043B000FFF746FF0028EED0E8E770B50446002876
:1043C00067D0436A002B5DD14268B2F5827F00D08E
:1043D000C3610023A36294F85D3003F0FF0223B9A8
:1043E00084F85C202046FDF7F1FE2268E068022395
:1043F00084F85D301368B0F5E06F23F0400313607C
:104400004FF0000342D91D46B0F5706F18BFA3628C
:10441000A6686368A16906F4044603F48273334313
:10442000266906F002063343666906F00106334347
:1044300001F400763343E66906F038063343266A12
:1044400006F080063343A66A06F400563343136031
:10445000666B636A06F0080603F0100300F47060F0
:104460003343090C034301F004010B432B43536016
:10447000D36923F40063D36100200123206684F80C
:104480005D3070BD0023C0E90433A2E74FF48055CE
:10449000BCE70120F5E72DE9F3471F4690F85C30B3
:1044A000012B04460D46904600F0BC80012380F8A5
:1044B0005C30FDF7D7FF94F85D30012B82465FFA40
:1044C00083F940F0AC80002D69D0B8F1000F66D0C0
:1044D000032384F85D3000232366C4E91333A4F872
:1044E0003E802364A4F84430A4F84630A3682668CC
:1044F000A563B3F5004FA4F83C8007D1336823F0DF
:1045000040033360336843F4804333603368626848
:104510005B065EBF336843F040033360E368B3F586
:10452000E06F43D912B1B8F1010F07D135F8023B62
:10453000F360A563E38F013B9BB2E387E38F9BB2FC
:10454000B3B9524639462046FFF715FF002863D11C
:10455000A36833B901932368DA6801929B680193D9
:10456000019B236EDBB9012284F85D20994616E099
:10457000226893689D0705D5A36B33F8021BD160B1
:10458000A363D7E7FDF76EFFA0EB0A00B842D5D3CF
:10459000781CD3D0012384F85D304FF00309002349
:1045A00084F85C30484602B0BDE8F08712B1B8F13B
:1045B000010F13D1E38F9BB2012B06D935F8023BD3
:1045C000F360A563E38F023B06E02B783373A36BA4
:1045D0000133A363E38F013B9BB2E387E38F9BB27D
:1045E000002BAED02268936899070CD5E18FA36B9E
:1045F00089B2012904D933F8021BD160A363E1E732
:104600001B781373E3E7FDF72DFFA0EB0A00B84218
:10461000E4D37B1CE2D0BDE72023236698E74FF06C
:104620000209BCE74FF00209BCE72DE9F8431E463A
:1046300090F85C30089F012B04460D46914600F02F
:104640002081012380F85C30FDF70CFF94F85D2099
:104650006368012A8046D1B20AD0B3F5827F40F068
:104660000E81A268002A40F00A81042940F00781E7
:104670002DB90120002384F85C30BDE8F883B9F13E
:10468000000FF6D0002EF4D094F85D20E068216889
:10469000C4F84090042A1CBF052284F85D20002243
:1046A0002266B0F5E06FA4F84660E687C4E91322FD
:1046B000A4F844604A68A563A68701D8012E2ED0CD
:1046C00022F480524A600A6852065EBF0A6842F0CD
:1046D00040020A60B0F5E06F57D90BB1012E07D147
:1046E00035F8023BCB60E38FA563013B9BB2E387C8
:1046F0000125E38F9BB2ABB9B4F846309BB28BB9BE
:10470000424639462046FFF736FE002840F0B38087
:10471000236E002BADD1012384F85D30AAE742F46B
:104720008052CFE721688B689E070DD5E38F9BB23F
:1047300053B145B1A36B33F8022BCA60A363E38F77
:10474000013B9BB2E38700258A6812F001020FD07B
:10475000B4F846309BB25BB1236CC96823F8021BE6
:104760002364B4F84630013B9BB2A4F846301546AA
:10477000FDF778FEA0EB0800B842BAD3781CB8D099
:10478000012384F85D30032074E70BB1012E0BD1B7
:10479000E38F9BB2012B52D935F8023BCB60E38FFC
:1047A000A563023B9BB2E3870125E38F9BB223B94C
:1047B000B4F846309BB2002BA2D0226893689907C8
:1047C00011D5E38F9BB273B165B1E18FA36B89B251
:1047D00001293CD933F8021BD160A363E38F023B6C
:1047E0009BB2E38700252268916811F001011DD07A
:1047F000B4F846309BB2CBB1B4F84600236C80B21B
:1048000001282CD9D06823F8020B2364B4F8463071
:10481000023B9BB2A4F84630B4F846309BB2012B61
:104820009EBF536843F4805353600D46FDF71AFE54
:10483000A0EB0800B842B8D37B1CB6D0A0E72B7819
:104840000B73A36B0133A363E38F013BAAE71B78D0
:104850001373A36B0133A363E38F013BC0E7127BA8
:104860001A70236C01332364B4F84630013B9BB2C9
:10487000A4F84630D9E720232366012048E7022028
:10488000F8E60220F9E62DE9F3471F4690F85D307F
:10489000012B04468A469046DEB240F0A78043686A
:1048A000B3F5827F0ED1836863B9042380F85D304D
:1048B000134600970A46FFF7B8FE0646304602B098
:1048C000BDE8F08794F85C30012B00F09180012363
:1048D00084F85C30FDF7C6FD8146BAF1000F75D053
:1048E000B8F1000F72D00025042384F85D30C4E9CC
:1048F00013552566A563A4F84680A587E587256836
:10490000E2686B68C4F840A0B2F5E06F8CBF23F496
:10491000805343F48053A4F844806B60A368B3F5DC
:10492000004F07D12B6823F040032B602B6823F442
:1049300080432B602B685B065EBF2B6843F040030F
:104940002B60B2F5E06F23D9B4F846309BB223B3A5
:1049500023689A68D2073DD5DA68236C23F8022BC6
:104960002364B4F84630013B9BB2A4F84630EBE731
:1049700023689A68D0071DD5226C1B7B1370236CAB
:1049800001332364B4F84630013B9BB2A4F84630AF
:10499000B4F846309BB2002BEAD14A46394620464D
:1049A000FFF7B2FCF8B9236E83B9012284F85D20C9
:1049B0001E460BE0FDF756FDA0EB0900B842E7D319
:1049C000791CE5D0012384F85D300326002384F8A8
:1049D0005C3073E7FDF746FDA0EB0900B842B3D3A6
:1049E0007B1CB1D0EEE720232366DCE70226EDE74F
:1049F000022663E710B5026852E8003F23F4907383
:104A000042E8003102680029F5D10F4C02F1080399
:104A100053E8003F234002F1080C4CE80031002924
:104A2000F4D1C36E012B07D152E8003F23F01003ED
:104A300042E800310029F7D12023C0F88C30002350
:104A4000C366436710BD00BFFEFFFFEF38B50446E5
:104A5000C0692169A26823680A4361691D680A4325
:104A60008549024329400A431A605A68E16822F4E2
:104A700040520A435A60814AA16993421CBF226A8C
:104A800011439A6822F06E4222F430620A439A601F
:104A9000DA6A616A22F00F020A43DA62784A9342C4
:104AA00030D1784BD3F8883003F00303022B00F0A9
:104AB000DA80032B00F0CA80012B00F0CE80B0F525
:104AC000004F40F0D580FFF7DFF9002877D061680C
:104AD0006D4B626A33F81220B0FBF2F24B0803EB25
:104AE00042034FF6EF72B3FBF1F3A3F110019142D1
:104AF00020D823F00F02216892B2C3F3420313437C
:104B0000CB605CE0614A934216D15E4BD3F88830AB
:104B100003F00C03082B00F0A68008D8002B40F00F
:104B20009C80B0F5004F7AD1FFF79CF9CDE70C2BB4
:104B300000F08C80012043E0554A93420AD1514B4A
:104B4000D3F8883003F03003202B00F08C80E5D9B7
:104B5000302BEDE74F4A934209D14A4BD3F88830C6
:104B600003F0C003802B7ED0D8D9C02BE0E74A4A9F
:104B700093420BD1434BD3F8883003F44073B3F521
:104B8000007F70D0CAD9B3F5407FD1E73B4A93424A
:104B9000D0D13C4BD3F8883003F44063B3F5006FB9
:104BA00015D003D843B9FFF75DF907E0B3F5406FBF
:104BB000C0D14FF400400BE0FFF72AF840B90020C5
:104BC0004FF00113A3660023C4E91D3338BD3348F9
:104BD00065682D4B626A05EB450133F81220B0FB86
:104BE000F2F39942A6D8B3EB053FA3D800231946A8
:104BF000FCF702F8090241EA10616B080002C018D4
:104C00002A464FF0000341F10001FBF7F5FF244B6A
:104C1000A0F540729A428DD82368D860CFE7FFF79D
:104C200021F90028CBD06368616A174A32F8112055
:104C3000B0FBF2F000EB5300B0FBF3F04FF6EF7374
:104C4000A0F11002E6E7FEF7E3FFEAE7B0F5004F58
:104C50003FF43DAF4FF40040E5E7B0F5004FF2D12F
:104C6000FEF7D6FF31E7B0F5004F0C48DBD12EE759
:104C7000FFF70AF9D5E700BFF369FFCF00800040D6
:104C80000038014000100240388400080044004011
:104C900000480040004C0040005000400024F40058
:104CA000FFFC0F00836A1A0710B506D50168846BF4
:104CB0004A6822F4004222434A60DC0706D50168B4
:104CC000C46A4A6822F4003222434A60990706D532
:104CD0000168046B4A6822F4803222434A605A0712
:104CE00006D50168446B4A6822F4802222434A6058
:104CF000DC0606D50168C46B8A6822F48052224320
:104D00008A60990606D50168046C8A6822F400520C
:104D100022438A605A060FD50168446C4A6822F41F
:104D200080122243B4F5801F4A6005D14A68846C22
:104D300022F4C00222434A601B0606D50268C16CF9
:104D4000536823F400230B43536010BD2DE9F8434F
:104D5000DDF8209004460D46174698462268D36930
:104D600035EA03030CBF01230023BB4201D000201E
:104D700022E0B9F1FF3FF2D0FDF774FBA0EB080091
:104D8000484529D8B9F1000F26D021680B685A0789
:104D9000E4D5802DE2D0402DE0D0CE6916F0080693
:104DA0000CD0082520460D62FFF724FE0023C4F82E
:104DB000905084F884300120BDE8F883CB691B054E
:104DC000CCD54FF400630B622046FFF713FE20237F
:104DD000C4F8903084F884600320EDE72DE9F743B0
:104DE0009846D0F88830202B04460E46174646D108
:104DF000002946D0002A44D021230025C0F8905035
:104E0000C0F88830FDF72EFBA368A4F85470B3F502
:104E1000805F8146A4F8567003D123690BB93546EB
:104E20001E46B4F85620CDF8008092B24B4642B9E7
:104E300040212046FFF78AFF202348B9C4F8883074
:104E400009E0002280212046FFF780FF30B12023B7
:104E5000C4F88830032003B0BDE8F08322685EB94F
:104E600035F8023BC3F308039362B4F85620013AC5
:104E700092B2A4F85620D4E716F8013BF4E70220DA
:104E8000E9E70120E7E773B504460026C0F8906023
:104E9000FDF7E8FA23681B681A0705461CD56FF072
:104EA0007E430093324603464FF400112046FFF73D
:104EB0004DFF88B1226852E8003F23F0800342E8AA
:104EC00000310029F6D12023C4F8883003200023C4
:104ED00084F8843002B070BD23681B685B0724D55A
:104EE0006FF07E43009300222B464FF48001204652
:104EF000FFF72CFFC8B1226852E8003F23F49073FB
:104F000042E8003122680029F5D102F1080353E894
:104F1000003F23F0010302F1080040E800310029BE
:104F2000F3D12023C4F88C30D0E720230020C4F82C
:104F30008830C4F88C30E0662067C8E710B50446B6
:104F400050B3D0F888301BB980F88430FDF76EF983
:104F500022682423C4F88830136823F00103136007
:104F6000A36A13B12046FFF79DFE2046FFF76EFDB2
:104F7000012811D023685A6822F490425A609A6836
:104F800022F02A029A601A6842F0010220461A6052
:104F9000BDE81040FFF777BF012010BD436E30B56C
:104FA0002BB90123A0F86A30A0F8683030BD03683F
:104FB000094D9A689968094C490FC2F342626B5CCB
:104FC000615CDB00B3FBF1F3A0F86A30AB5CA25C80
:104FD000DB00B3FBF2F3E7E75884000850840008D5
:104FE00090F88430012B14D002682423C0F8883054
:104FF0001168136823F00103136021F000510023AE
:10500000436611602022C0F8882080F8843018465A
:1050100070470220704770B590F88430012B044629
:1050200017D005682423C0F888302E682B6823F039
:1050300001032B60AB6823F060431943A960FFF7BD
:10504000ADFF20232E60C0F88830002084F8840053
:1050500070BD0220FCE770B590F88430012B044647
:1050600017D005682423C0F888302E682B6823F0F9
:1050700001032B60AB6823F060631943A960FFF75D
:105080008DFF20232E60C0F88830002084F8840033
:1050900070BD0220FCE72DE9FF4757EC106B002F95
:1050A0000C4619463B46BBBF07F100431F46002391
:1050B0002D230B700D9BDDF830A0914623F02008C6
:1050C000BCBF32461646B8F1460F05D0B8F1450FC1
:1050D00000D10134022100E0032103AB019302ABB4
:1050E000009347EC106B5346224600F075FFB8F171
:1050F000470F054619D119F0010F0ED000EB040936
:105100000022002330463946FBF706FD08B1CDF8F2
:105110000C903022039B4B451ED3039B0E9A5B1BC6
:105120002846136004B0BDE8F087B8F1460F00EBE5
:105130000409E5D10378302B0AD100220023304640
:105140003946FBF7E9FC18B9C4F10104CAF800407C
:10515000DAF800309944D3E7591C03911A70D9E763
:10516000F7B50029BABF49422D232B230929027024
:10517000437029DD0DF107031D460A271A46B1FBCE
:10518000F7F607FB1614303402F8014C0C46632C7A
:1051900003F1FF333146F1DC3031941E03F8011C7A
:1051A000411C2346AB420AD30DF109039B1AAC42C2
:1051B00088BF002302330344181A03B0F0BD13F86C
:1051C000016B01F8016FEDE7302330318370C1705E
:1051D000031DF1E72DE9F04F8DB00C46DDF8588046
:1051E00016461F46054600F0DFFD03680493184687
:1051F000FBF766F800230A93D8F8003005900733D0
:1052000023F0070303F1080294F818A0D4F800B0C3
:10521000C8F80020D3E9008929F000430793CDF8AE
:105220001880C4E91289DDE906019C4B4FF0FF327A
:10523000FBF7A4FC70BBDDE90601984B4FF0FF3291
:10524000FBF77EFC30BB0022002340464946FBF7BB
:105250006DFC10B12D2384F84330914A914BBAF183
:10526000470F8CBF90469846032323612BF004031D
:1052700023604FF00009009733460BAA21462846C9
:1052800000F0D2F9013040F08D804FF0FF300DB0CA
:10529000BDE8F08F42464B4640464946FBF76EFC60
:1052A00040B14B46002BBCBF2D2384F843307E4ACF
:1052B0007E4BD4E763680AF0DF0206925A1C3BD1AA
:1052C000062363604BF480620023226003930AABE1
:1052D000CDE901A309AB0093616849EC108B0DF196
:1052E00023032846FFF7D7FE069B0999472B8046E4
:1052F00029D1C81C02DB6368994241DDAAF1020A88
:105300005FFA8AFA0139524604F150000991FFF719
:1053100027FF0A9A1318012A8146236102DC2268BA
:10532000D20701D5013323619DF82330002BA2D091
:105330002D2384F843309EE7069A472AC2D1002BDA
:10534000C0D10123BDE7BAF1650FDBD9BAF1660F11
:1053500018D1002963680BDD216113B92268D007D9
:1053600002D501330B442361A1654FF00009DBE74F
:1053700013B92268D20701D50233F4E70123F2E71B
:105380004FF0670A0A9B994205DB23682161D80721
:10539000EAD54B1CE7E70029D4BFC1F10202012284
:1053A0001344E0E723685A0507D42369424631468F
:1053B0002846B84701302BD167E7BAF1650F40F2B4
:1053C000DD80D4E9120100220023FBF7A5FB0028B1
:1053D00033D0374A012331462846B84701303FF4DD
:1053E00054AFDDE90938434502DB2368D8070FD500
:1053F000DDE9042331462846B84701303FF445AF84
:105400004FF0000908F1FF3804F11A0AC84509DC19
:1054100023689B0700F10381E0680B9B9842B8BFAB
:10542000184634E70123524631462846B847013032
:105430003FF42BAF09F10109E8E7099B002B39DCA8
:105440001B4A012331462846B84701303FF41DAFBF
:10545000DDE9093959EA030302D12368D907D7D511
:10546000DDE9042331462846B84701303FF40DAF4B
:105470004FF0000A04F11A0B099B5B42534501DC13
:105480004B4693E701235A4631462846B847013038
:105490003FF4FBAE0AF1010AEEE700BFFFFFEF7F2A
:1054A000A8820008A4820008B0820008AC8200082C
:1054B000B4820008A36DDDF828A05345A8BF534669
:1054C000002B994636DC4FF0000B29EAE97904F10C
:1054D0001A02A36D0693A3EB09035B4531DC099B1C
:1054E0009A453ADC2368DA0737D4099BAAEB03090B
:1054F000069BAAEB03039945A8BF9946B9F1000F93
:1055000033DC4FF0000829EAE97904F11A0B099B12
:10551000AAEB0303A3EB090343457FF779AF01230C
:105520005A4631462846B84701303FF4AEAE08F13E
:105530000108ECE7424631462846B8470130C2D15F
:10554000A3E60123314628460692B84701303FF4CE
:105550009CAE069A0BF1010BBBE7DDE90423314653
:105560002846B8470130C0D18FE6069A4B464244E0
:1055700031462846B8470130C3D186E6DDF828A079
:10558000BAF1010F01DCDB0736D501234246314673
:105590002846B84701303FF478AEDDE904233146B0
:1055A0002846B84701303FF470AED4E9120100221A
:1055B00000230AF1FF3AFBF7AFFAC0B9534608F1EE
:1055C000010231462846B84701300CD15DE601237F
:1055D0005A4631462846B84701303FF456AE08F1E6
:1055E0000108D045F3DB4B4604F15002DFE64FF0F3
:1055F000000804F11A0BF4E701234246E1E7012316
:105600004A4631462846B84701303FF43EAE08F1DD
:105610000108E3680B995B1A4345F0DCFCE64FF0A8
:10562000000804F11909F4E72DE9F04716469846F9
:105630008A680B69DDF820909342B8BF1346336047
:1056400091F8432007460C460AB1013333602368C2
:10565000990642BF336802333360256815F00605AA
:1056600006D104F1190AE36832689B1AAB4226DCC2
:1056700094F843302268003B18BF012392062BD4D4
:1056800004F1430241463846C84701301ED0236822
:10569000226903F00603042B02BFE5683368ED1AA4
:1056A000A3680CBF25EAE57500259342C4BF9B1A89
:1056B000ED1800261A34B5421AD1002008E0012363
:1056C000524641463846C847013003D14FF0FF30BB
:1056D000BDE8F0870135C6E7E1185A1C302081F893
:1056E0004300224494F8451082F843100233C7E780
:1056F0000123224641463846C8470130E6D00136EC
:10570000D9E700002DE9FF470F7E0C9E782F9146C8
:1057100080460C469A4601F1430207D8622F0AD808
:10572000002F00F0D180582F00F0B88004F142061D
:1057300084F842703AE0A7F16303152BF6D801A173
:1057400051F823F09D570008B15700082D57000865
:105750002D5700082D5700082D570008B157000895
:105760002D5700082D5700082D5700082D57000809
:10577000AF580008DB570008695800082D5700088B
:105780002D570008D15800082D570008DB57000896
:105790002D5700082D5700087158000833681A1D4E
:1057A0001B68326004F1420684F8423001239CE019
:1057B00033682068191D3160060601D51D6803E0B5
:1057C0004506FBD5B3F90050002D03DA2D236D42B9
:1057D00084F8433058480A2311E0216833680806EA
:1057E00053F8045B02D4490648BFADB26F2F52484C
:1057F000336014BF0A230823002184F8431066682D
:10580000A660002E05DB21682E4321F004012160F3
:105810004BD01646B5FBF3F103FB1157C75D06F8F5
:10582000017D2F46BB420D46F4D9082B0BD12368CE
:10583000DF0708D5236961689942DEBF302306F887
:10584000013C06F1FF36921B2261CDF800A04B46C9
:1058500003AA21464046FFF7E7FE01304AD14FF048
:10586000FF3004B0BDE8F087236843F020032360D5
:105870003248782784F84570236831681F0651F84C
:10588000045B02D45F0648BFADB23160D90744BFA4
:1058900043F0200323601DB11023ADE72648E9E75C
:1058A000236823F020032360F6E71646BDE733683C
:1058B00025686169181D30602E061B6801D51960C6
:1058C00002E06806FBD51980002323611646BCE779
:1058D00033681A1D32601E68626800213046FAF78C
:1058E0009FFC08B1801B606063682361002384F81B
:1058F0004330AAE72369324649464046D047013043
:10590000ADD023689B0713D4E068039B9842B8BFCF
:105910001846A6E70123324649464046D0470130A3
:105920009DD00135E36803995B1AAB42F2DCEBE7EB
:10593000002504F11906F5E7B6820008C7820008C1
:10594000002310B50446C0E90033C0E90433836086
:1059500081814366C2818361194608225C3000F070
:105960001BFA0D4B63620D4BA3620D4BE3620D4BB3
:1059700023630D4B24629C4206D003F168029442DB
:1059800002D0D0339C4205D104F15800BDE810404C
:1059900000F07EBA10BD00BFE95B00080B5C000898
:1059A000435C0008675C0008E0050020024A0349E8
:1059B000034800F069B800BF24000020A97A00085D
:1059C0003400002041680C4B994210B5044601D0C8
:1059D00002F06AF8A168094B994202D0204602F011
:1059E00063F8E168064B994204D02046BDE81040B8
:1059F00002F05AB810BD00BFE005002048060020A4
:105A0000B006002010B50B4B0B4C0C4A1A60204618
:105A100000220421FFF794FF04F16800012209210C
:105A2000FFF78EFF04F1D0000222BDE810401221E2
:105A3000FFF786BF18070020E0050020AD590008D9
:105A4000014800F026BA00BF21070020014800F0FD
:105A500021BA00BF2107002010B50446FFF7F0FF70
:105A6000236A1BB1BDE81040FFF7F0BF044B23626F
:105A7000044B1B68002BF5D1FFF7C4FFF2E700BF12
:105A8000C5590008180700202DE9F8430746884645
:105A900014460026D4E90195B9F1010905D5246819
:105AA000002CF7D13046BDE8F883AB89012B07D92C
:105AB000B5F90E30013303D029463846C0470643B6
:105AC0006835E9E70FB407B5064904AB086853F831
:105AD000042B8168019301F04BFE03B05DF804EBE9
