:020000040800F2
:100000000050002091010008D5010008D50100082A
:10001000D5010008D5010008D50100080000000046
:10002000000000000000000000000000D5010008F2
:10003000D501000800000000D5010008D501000826
:10004000D5010008D5010008D5010008D501000838
:10005000D5010008D5010008D5010008D501000828
:10006000D5010008D5010008D5010008D501000818
:10007000D5010008D5010008D5010008D501000808
:10008000D5010008D5010008D5010008D5010008F8
:10009000D5010008D5010008D5010008D5010008E8
:1000A000D5010008D5010008D5010008D5010008D8
:1000B000D5010008D5010008D5010008D5010008C8
:1000C000D5010008D5010008D5010008D5010008B8
:1000D000D5010008D5010008D5010008D5010008A8
:1000E000D5010008D5010008D50100080000000076
:1000F0000000000000000000000000000000000000
:0C01000000000000000000005FF808F1A3
:10010C0010B5054C237833B9044B13B10448AFF345
:10011C0000800123237010BD0000002000000000AF
:10012C002002000808B5034B1BB103490348AFF389
:10013C00008008BD00000000040000202002000820
:10014C000F4B1A6842F480321A609A6942F004022A
:10015C009A61A3F584331A6822F0FF021A601A68B8
:10016C0042F002021A601A6842F020021A60DA6841
:10017C0042F00102DA60DA6882F00202FAE700BFAC
:10018C00001002400B480C490C4A002302E0D458E2
:10019C00C4500433C4188C42F9D3094A094C0023C7
:1001AC0001E013600432A242FBD300F00FF8FFF71A
:1001BC00C7FF70470000002000000020400200082C
:1001CC00000000201C000020FEE7000070B5002697
:1001DC000C4D0D4C641BA410A64209D100F01AF86A
:1001EC0000260A4D0A4C641BA410A64205D170BD12
:1001FC0055F8043B98470136EEE755F8043B984711
:10020C000136F2E73802000838020008380200080C
:10021C003C020008F8B500BFF8BC08BC9E4670470D
:0C022C00F8B500BFF8BC08BC9E46704747
:040238003101000888
:04023C000D010008A8
:04000005080001915D
:00000001FF
