:020000040800F2
:10000000005000209D030008E1030008E103000800
:10001000E1030008E1030008E1030008000000001C
:10002000000000000000000000000000E1030008E4
:10003000E103000800000000E1030008E1030008FC
:10004000E1030008E1030008E1030008E103000800
:10005000E1030008E1030008E1030008E1030008F0
:10006000E1030008E1030008E1030008E1030008E0
:10007000E1030008E1030008E1030008E1030008D0
:10008000E1030008E1030008E1030008E1030008C0
:10009000E1030008E1030008E1030008E1030008B0
:1000A000E1030008E1030008E1030008E1030008A0
:1000B000E1030008E1030008E1030008E103000890
:1000C000E1030008E1030008E1030008E103000880
:1000D000E1030008E1030008E1030008E103000870
:1000E000E1030008E1030008E1030008000000004C
:1000F0000000000000000000000000000000000000
:0C01000000000000000000005FF808F1A3
:10010C0010B5054C237833B9044B13B10448AFF345
:10011C0000800123237010BD0000002000000000AF
:10012C002C04000808B5034B1BB103490348AFF37B
:10013C00008008BD00000000040000202C04000812
:10014C0080B483B000AF00237B6002E07B68013396
:10015C007B607B68044A9342F8D900BF00BF0C3720
:10016C00BD4680BC704700BF7F841E0080B400AFCA
:10017C00164B1B68154A43F480331360134B1B68F2
:10018C00124A43F080731360104B5B680F4A43F4C0
:10019C00803353600D4B5B680C4A23F4003353607F
:1001AC000A4B5B68094A43F4E0135360074B5B68E6
:1001BC00064A43F002035360044B5B68034A43F462
:1001CC008063536000BFBD4680BC70470010024086
:1001DC0080B582B000AFFFF7C9FF6A4B9B69694AD3
:1001EC0043F004039361674B9B69664A43F0010338
:1001FC009361644B9B69634A43F400639361624B64
:10020C005B68614A23F0FF0353605F4B5B685E4A97
:10021C0023F47F4353605C4B5B685B4A43F00B03F6
:10022C005360594B5B68584A43F0B0035360564BCC
:10023C005B68554A43F430635360534B5B68524AD6
:10024C0043F430435360514B1B68504A23F0060370
:10025C0013604E4B1B684D4A23F0080313604B4B45
:10026C001B684A4A23F010031360484B1B68474A2B
:10027C0023F060031360454B03229A62434B40F218
:10028C00F312DA62414B9B69404A23F003039361FA
:10029C003E4B9B693D4A23F4407393613B4BDB69B6
:1002AC003A4A23F00303D361384BDB69374A23F412
:1002BC004073D361354B5B6C344A43F40043536455
:1002CC00324B9B69314A43F0600393612F4B9B691E
:1002DC002E4A43F4C04393612C4BDB692B4A43F009
:1002EC006003D361294BDB69284A43F4C043D361D3
:1002FC00264B1B6A254A43F003031362234B1B6AEC
:10030C00224A43F030031362204B1B6A1F4A43F40A
:10031C00407313621D4B1B6A1C4A43F44053136217
:10032C001A4B00225A63194B00229A63174B002276
:10033C00DA63164BFF221A64144B1B68134A43F002
:10034C000103136000237B6007E0104A7B68536352
:10035C00FFF7F6FE7B6801337B607B68B3F5FA7FB1
:10036C00F3D34FF4FA733B6007E0084A3B685363DE
:10037C00FFF7E6FE3B68013B3B603B68002BF4D18A
:10038C00E0E700BF0010024000080140002C0140D3
:10039C000B480C490C4A002302E0D458C4500433D7
:1003AC00C4188C42F9D3094A094C002301E01360AC
:1003BC000432A242FBD300F00FF8FFF709FF70479D
:1003CC0000000020000000204C0400080000002069
:1003DC001C000020FEE7000070B500260C4D0D4CF3
:1003EC00641BA410A64209D100F01AF800260A4D8D
:1003FC000A4C641BA410A64205D170BD55F8043BF1
:10040C0098470136EEE755F8043B98470136F2E77A
:10041C00440400084404000844040008480400088C
:10042C00F8B500BFF8BC08BC9E467047F8B500BFD5
:08043C00F8BC08BC9E467047A5
:04044400310100087A
:040448000D0100089A
:040000050800039D4F
:00000001FF
