:020000040800F2
:1000000000500020310700088D0500089505000804
:100010009D050008A5050008AD05000800000000CA
:10002000000000000000000000000000B50500080E
:10003000C105000800000000CD050008D905000832
:100040007907000879070008790700087907000890
:100050007907000879070008790700087907000880
:100060007907000879070008790700087907000870
:100070007907000879070008790700087907000860
:100080007907000879070008790700087907000850
:100090007907000879070008790700087907000840
:1000A0007907000879070008790700087907000830
:1000B0007907000879070008790700087907000820
:1000C0007907000879070008790700087907000810
:1000D0007907000879070008790700087907000800
:1000E0007907000879070008790700080000000078
:1000F0000000000000000000000000000000000000
:0C01000000000000000000005FF808F1A3
:10010C0010B5054C237833B9044B13B10448AFF345
:10011C0000800123237010BD680000200000000047
:10012C009831000808B5034B1BB103490348AFF3E2
:10013C00008008BD000000006C0000209831000811
:10014C0080B483B000AF78604FF06043D3F8803E4A
:10015C0003F00103002B13D04FF06043D3F8003EA3
:10016C0003F00103002B0BD000E000BF4FF0604305
:10017C001B68002BF9D04FF060437A68D2B21A702A
:10018C007B6818460C37BD4680BC704780B582B082
:10019C0000AF78607B681846FFF7D2FF7B68184683
:1001AC000837BD4680BD000080B58AB004AF00F0B2
:1001BC00DFFA00F059F800F01DF900F0B1F826480C
:1001CC0000F0D0FC244800F07BFD0A21224800F00E
:1001DC00FDFD0121204800F0F1FE78611E4800F081
:1001EC006FFD0A211C4800F0F1FD02211A4800F0B5
:1001FC00E5FE3861184800F063FD0A21164800F04E
:10020C00E5FD0321144800F0D9FEF86040211348A5
:10021C0001F004FB0346BB608021104801F0FEFA9C
:10022C0003467B604FF400610D4801F0F7FA03467A
:10023C003B60FB6802933B6901937B6900933B68CD
:10024C007A68B968074802F02BF94FF4FA7000F09D
:10025C00F1FA00BFB6E700BF84000020000801409F
:10026C00000C0140B031000880B594B000AF07F12C
:10027C00280328220021184602F067F907F114031D
:10028C0000221A605A609A60DA601A613B1D0022E3
:10029C001A605A609A60DA600123BB624FF48033B3
:1002AC00FB6200233B630123BB6302237B644FF49B
:1002BC008033BB644FF4E013FB6407F1280318464A
:1002CC0001F0C4FA0346002B01D000F0E5F80F232F
:1002DC007B610223BB610023FB614FF480633B62B3
:1002EC0000237B6207F114030221184601F030FD54
:1002FC000346002B01D000F0CFF802237B604FF4B3
:10030C000043FB603B1D184601F09CFE0346002B8E
:10031C0001D000F0C1F800BF5037BD4680BD0000D1
:10032C0080B588B000AF3B1D00221A605A609A60FD
:10033C00DA601A615A619A612C4B2D4A1A602B4B68
:10034C004FF480729A60294B00221A73274B0022BB
:10035C001A75264B4FF46022DA61244B00225A6046
:10036C00224B01221A61214800F088FA0346002B27
:10037C0001D000F091F800237B600123BB600323C4
:10038C007B610323FB604FF4E043FB6100237B762E
:10039C0000233B7600233B613B1D1946134800F0BC
:1003AC003BFE0346002B01D000F076F801237B6066
:1003BC000223BB603B1D19460C4800F02DFE034682
:1003CC00002B01D000F068F804237B600323BB6092
:1003DC003B1D1946054800F01FFE0346002B01D0BB
:1003EC0000F05AF800BF2037BD4680BD84000020C5
:1003FC000024014080B588B000AF07F11003002243
:10040C001A605A609A60DA60204B9B691F4A43F06D
:10041C00200393611D4B9B6903F02003FB60FB6879
:10042C001A4B9B69194A43F004039361174B9B6960
:10043C0003F00403BB60BB68144B9B69134A43F085
:10044C0008039361114B9B6903F008037B607B6885
:10045C00C0233B6100237B610223BB6107F11003C6
:10046C0019460B4801F056F84FF400633B6100232A
:10047C007B610223BB6107F110031946054801F0AB
:10048C0049F800BF2037BD4680BD00BF00100240B8
:10049C0000080140000C014080B400AF72B600BFF0
:1004AC0000BFFDE780B485B000AF154B9B69144AC3
:1004BC0043F001039361124B9B6903F00103BB6092
:1004CC00BB680F4BDB690E4A43F08053D3610C4B76
:1004DC00DB6903F080537B607B680A4B5B68FB60D5
:1004EC00FB6823F0E063FB60FB6843F00073FB6088
:1004FC00044AFB68536000BF1437BD4680BC70478C
:10050C00001002400000014080B588B000AF786058
:10051C0007F1100300221A605A609A60DA607B6857
:10052C001B68144A934221D1134B9B69124A43F422
:10053C0000739361104B9B6903F40073FB60FB68C1
:10054C000D4B9B690C4A43F0040393610A4B9B6966
:10055C0003F00403BB60BB6813233B6103237B6183
:10056C0007F110031946054800F0D4FF00BF2037EF
:10057C00BD4680BD0024014000100240000801402F
:10058C0080B400AF00BFFDE780B400AF00BFFDE753
:10059C0080B400AF00BFFDE780B400AF00BFFDE743
:1005AC0080B400AF00BFFDE780B400AF00BFBD4614
:1005BC0080BC704780B400AF00BFBD4680BC7047A4
:1005CC0080B400AF00BFBD4680BC704780B500AFA3
:1005DC0000F014F900BF80BD80B586B000AFF860A4
:1005EC00B9607A6000237B610AE0AFF300800146BA
:1005FC00BB685A1CBA60CAB21A707B6901337B6142
:10060C007A697B689A42F0DB7B6818461837BD46DE
:10061C0080BD80B586B000AFF860B9607A60002309
:10062C007B6109E0BB685A1CBA601B781846FFF75F
:10063C00ADFD7B6901337B617A697B689A42F1DBA2
:10064C007B6818461837BD4680BD80B483B000AFB8
:10065C0078604FF0FF3318460C37BD4680BC7047AE
:10066C0080B483B000AF786039603B684FF40052BF
:10067C005A60002318460C37BD4680BC704780B4C6
:10068C0083B000AF7860012318460C37BD4680BCA0
:10069C00704780B485B000AFF860B9607A60002311
:1006AC0018461437BD4680BC7047000080B586B034
:1006BC0000AF7860144A154BD31A7B617B693B61A0
:1006CC00134B1B68002B02D1114B124A1A60104BB2
:1006DC001A687B6813443A699A4207D201F084FF86
:1006EC0003460C221A604FF0FF3309E0084B1B68DD
:1006FC00FB60074B1A687B681344054A1360FB6860
:10070C0018461837BD4680BD00500020000400007C
:10071C00B40000200802002080B400AF00BFBD462A
:10072C0080BC7047FFF7F8FF0B480C490C4A0023BC
:10073C0002E0D458C4500433C4188C42F9D3094A8B
:10074C00094C002301E013600432A242FBD301F0F8
:10075C0051FFFFF729FD70470000002068000020C2
:10076C00903200086800002008020020FEE700001C
:10077C0080B500AF084B1B68074A43F010031360A9
:10078C00032000F093FE0F2000F008F8FFF78AFE1C
:10079C000023184680BD00BF0020024080B582B007
:1007AC0000AF7860124B1A68124B1B7819464FF445
:1007BC007A73B3FBF1F3B2FBF3F3184600F09DFE32
:1007CC000346002B01D001230EE07B680F2B0AD8C7
:1007DC00002279684FF0FF3000F073FE064A7B6808
:1007EC001360002300E0012318460837BD4680BD86
:1007FC0000000020080000200400002080B400AF9E
:10080C00054B1B781A46054B1B681344034A1360AF
:10081C0000BFBD4680BC704708000020B800002017
:10082C0080B400AF024B1B681846BD4680BC7047B5
:10083C00B800002080B584B000AF7860FFF7F0FFFF
:10084C00B8607B68FB60FB68B3F1FF3F05D00A4BD7
:10085C001B781A46FB681344FB6000BFFFF7E0FFF0
:10086C000246BB68D31AFA689A42F7D800BF00BF99
:10087C001037BD4680BD00BF0800002080B586B093
:10088C0000AF78600023FB7500233B610023BB6045
:10089C000023FB607B68002B01D10123BEE07B6849
:1008AC009B68002B7B689B6A002B09D17B6800221C
:1008BC00DA627B68002283F824207868FFF724FE34
:1008CC00786800F00DF90346FB757B689B6A03F0B2
:1008DC001003002B40F09980FB7D002B40F095809D
:1008EC007B689B6A23F4885323F0020343F00202D3
:1008FC007B689A627B685A687B68DB691A437B6801
:10090C001B7B5B001343BA681343BB607B689B681B
:10091C00B3F5807F03D07B689B68012B02D14FF429
:10092C00807300E000233A6913433B617B681B7DB5
:10093C00012B19D17B681B7B002B09D17B689B6930
:10094C00013B5A033B69134343F400633B610BE0E7
:10095C007B689B6A43F020027B689A627B68DB6A47
:10096C0043F001027B68DA627B681B685B6823F4E6
:10097C0069417B681B683A690A435A607B681B684B
:10098C009A68284B13407A681268B9680B439360D5
:10099C007B689B68B3F5807F03D07B689B68012BD9
:1009AC0004D17B681B69013B1B05FB607B681B68E2
:1009BC00DB6A23F470017B681B68FA680A43DA620D
:1009CC007B681B689A68184B1340BA689A420BD123
:1009DC007B680022DA627B689B6A23F0030343F096
:1009EC0001027B689A6218E07B689B6A23F0120311
:1009FC0043F010027B689A627B68DB6A43F0010269
:100A0C007B68DA620123FB7507E07B689B6A43F025
:100A1C0010027B689A620123FB75FB7D1846183720
:100A2C00BD4680BDFDF7E1FFFE0E1FFF80B584B013
:100A3C0000AF78600023FB600023BB607B681B6801
:100A4C009B6803F00103012B40D07B681B689A68FC
:100A5C007B681B6842F001029A601F4B1B681F4A9F
:100A6C00A2FB03239B0CBB6002E0BB68013BBB6099
:100A7C00BB68002BF9D1FFF7D3FEF8601FE0FFF73E
:100A8C00CFFE0246FB68D31A022B18D97B681B6871
:100A9C009B6803F00103012B11D07B689B6A43F028
:100AAC0010027B689A627B68DB6A43F001027B6808
:100ABC00DA627B68002283F82420012307E07B683C
:100ACC001B689B6803F00103012BD8D10023184647
:100ADC001037BD4680BD00BF0000002083DE1B43E5
:100AEC0080B584B000AF78600023FB607B681B6826
:100AFC009B6803F00103012B2ED17B681B689A685D
:100B0C007B681B6822F001029A60FFF789FEF8608F
:100B1C001BE0FFF785FE0246FB68D31A022B14D9A3
:100B2C007B681B689B6803F00103012B0DD17B686C
:100B3C009B6A43F010027B689A627B68DB6A43F025
:100B4C0001027B68DA62012307E07B681B689B6803
:100B5C0003F00103012BDCD0002318461037BD46EF
:100B6C0080BD000090B587B000AF78600023FB75A6
:100B7C000023FB607B6893F82430012B01D1022306
:100B8C0097E07B68012283F824207868FFF7A8FFA0
:100B9C000346FB757868FFF749FF0346FB75FB7D41
:100BAC00002B40F081807B689B6A23F4885323F0F0
:100BBC00020343F002027B689A62404B1C680220DD
:100BCC0001F0F6FA0346B4FBF3F35B00FB6002E0C2
:100BDC00FB68013BFB60FB68002BF9D17B681B6851
:100BEC009A687B681B6842F008029A60FFF718FE4F
:100BFC0038611BE0FFF714FE02463B69D31A0A2B3F
:100C0C0014D97B681B689B6803F00803002B0DD07C
:100C1C007B689B6A23F0120343F010027B689A6294
:100C2C007B68002283F82420012342E07B681B6848
:100C3C009B6803F00803002BDCD17B681B689A6867
:100C4C007B681B6842F004029A60FFF7E9FD38618B
:100C5C001BE0FFF7E5FD02463B69D31A0A2B14D9BA
:100C6C007B681B689B6803F00403002B0DD07B682A
:100C7C009B6A23F0120343F010027B689A627B6834
:100C8C00002283F82420012313E07B681B689B68F7
:100C9C0003F00403002BDCD17B689B6A23F0030375
:100CAC0043F001027B689A627B68002283F824205F
:100CBC00FB7D18461C37BD4690BD00BF00000020D0
:100CCC0080B584B000AF78600023FB737B6893F829
:100CDC002430012B01D1022370E07B68012283F8C0
:100CEC0024207868FFF7A2FE0346FB73FB7B002BE6
:100CFC005FD17B689B6A23F4405323F0010343F4D8
:100D0C0080527B689A627B681B682E4A934205D19D
:100D1C002D4B5B6803F47023002B06D17B689B6A18
:100D2C0023F480127B689A6205E07B689B6A43F42B
:100D3C0080127B689A627B689B6A03F48073002B39
:100D4C0002D17B680022DA627B68002283F82420BF
:100D5C007B681B686FF004021A607B681B685B6819
:100D6C0003F48063002B28D17B681B689B6803F419
:100D7C00E043B3F5E04F13D17B681B68114A9342F3
:100D8C0005D1114B5B6803F47023002B08D17B68F1
:100D9C001B689A687B681B6842F402129A600CE02C
:100DAC007B681B689A687B681B6842F400429A60F7
:100DBC0003E07B68002283F82420FB7B1846103765
:100DCC00BD4680BD002801400024014090B587B08D
:100DDC0000AF786039600023FB6000237B61FFF774
:100DEC001FFD38617B681B689B6B03F44013002B61
:100DFC002AD121E03B68B3F1FF3F1DD03B68002BAB
:100E0C0007D0FFF70DFD02463B69D31A3A689A42A8
:100E1C0012D27B681B681B6803F00403002B0BD1F8
:100E2C007B689B6A43F004027B689A627B680022B1
:100E3C0083F824200323B1E07B681B681B6803F054
:100E4C000403002BD6D070E0564B1C68022001F036
:100E5C00AFF90346B4FBF3F27B681B681969524B7C
:100E6C000B40002B18D17B681B68D9684F4B0B408B
:100E7C00002B11D17B681B6819694D4B0B40002B63
:100E8C0008D17B681B68D9684A4B0B40002B01D1F9
:100E9C00142320E029231EE07B681B681969444B4E
:100EAC000B40002B06D17B681B68D968414B0B406B
:100EBC00002B0DD07B681B6819693F4B0B40002B36
:100ECC0008D17B681B68D9683B4B0B40002B01D1C8
:100EDC00542300E0FC2302FB03F37B6121E03B681D
:100EEC00B3F1FF3F1AD03B68002B07D0FFF798FCFB
:100EFC0002463B69D31A3A689A420FD2FB687A6968
:100F0C009A420BD97B689B6A43F004027B689A6215
:100F1C007B68002283F8242003233FE0FB68013325
:100F2C00FB60FB687A699A42D9D87B681B686FF0C2
:100F3C000E021A607B689B6A43F400527B689A62CB
:100F4C007B681B689B6803F4E043B3F5E04F12D059
:100F5C007B681B685B6803F48063002B1DD17B6886
:100F6C001B689B6803F46023B3F5602F15D17B6875
:100F7C001B7B002B11D17B689B6A23F480527B680E
:100F8C009A627B689B6A03F48073002B05D17B68A3
:100F9C009B6A43F001027B689A62002318461C3757
:100FAC00BD4690BD000000202449922424499200A3
:100FBC0092244912922449004992240080B485B0AD
:100FCC0000AF786039600023FB603B68042B09D0CC
:100FDC003B68042B15D83B68022B0DD03B68032BC8
:100FEC0005D00EE07B681B689B6CFB600EE07B6899
:100FFC001B685B6CFB6009E07B681B681B6CFB600F
:10100C0004E07B681B68DB6BFB6000BFFB68184669
:10101C001437BD4680BC704790B484B000AF786084
:10102C0039600023FB730023BB607B6893F824308A
:10103C00012B01D102237DE17B68012283F824205E
:10104C007B689B68002B19D13B685B68012B0CD12A
:10105C007B681B689B6B9B0D9B053A681268D103E0
:10106C007A6812680B4393634FE07B689B6A43F08A
:10107C0020027B689A620123FB7346E03B685A6846
:10108C003B681B699A422AD87B681B68996B3B6842
:10109C005A683B681B69D21A13469B0013440F33E2
:1010AC001F2202FA03F343F44013DB4319403B685D
:1010BC001B69013B18053B681C683B685A683B6818
:1010CC001B69D21A13469B0013440F3304FA03F323
:1010DC0040EA03027B681B680A439A6315E07B684D
:1010EC001B68996B3B685A683B681B69D21A13469C
:1010FC009B0013440F331F2202FA03F343F44013F3
:10110C00DA437B681B680A409A637B681B689B68A0
:10111C0003F00103012B0CD07B681B689B6823F444
:10112C00E04323F001033A6891697A6812680B4333
:10113C0093603B685B7D012B15D13B689B69B3F5D4
:10114C00E04F08D17B681B685A687B681B6842F4C7
:10115C0080625A6007E07B689B6A43F020027B68E0
:10116C009A620123FB733B681B7D012B14D13B68F6
:10117C005B7D002B08D17B681B685A687B681B68F9
:10118C0042F480525A6007E07B689B6A43F020026D
:10119C007B689A620123FB733B681B68092B1CD983
:1011AC007B681B68D9683B681A6813465B0013445C
:1011BC001E3B072202FA03F3DB4319403B68986895
:1011CC003B681A6813465B0013441E3B00FA03F29B
:1011DC007B681B680A43DA6019E07B681B68196935
:1011EC003B681A6813465B001344072202FA03F3A8
:1011FC00DB4319403B6898683B681A6813465B00F0
:10120C00134400FA03F27B681B680A431A613B68BB
:10121C001B68102B03D03B681B68112B07D17B6814
:10122C001B689A687B681B6842F400029A603B68F2
:10123C005B68032B22D0032B2ED8012B02D0022B60
:10124C000ED029E07B681B685B6923F47F6323F075
:10125C000F033A68D1687A6812680B43536129E02E
:10126C007B681B689B6923F47F6323F00F033A6848
:10127C00D1687A6812680B4393611BE07B681B682A
:10128C00DB6923F47F6323F00F033A68D1687A6833
:10129C0012680B43D3610DE07B681B681B6A23F457
:1012AC007F6323F00F033A68D1687A6812680B43A6
:1012BC00136200BF3B681B68102B03D03B681B6894
:1012CC00112B32D17B681B681D4A934225D17B6858
:1012DC001B689B6803F40003002B26D17B681B68FA
:1012EC009A687B681B6842F400029A603B681B6832
:1012FC00102B1AD1134B1B68134AA2FB03239A0C15
:10130C0013469B0013445B00BB6002E0BB68013BCF
:10131C00BB60BB68002BF9D107E07B689B6A43F08C
:10132C0020027B689A620123FB737B68002283F89E
:10133C002420FB7B18461037BD4690BC704700BF7D
:10134C00002401400000002083DE1B4380B485B0E4
:10135C0000AF78607B6803F00703FB600C4BDB6825
:10136C00BB60BA684FF6FF031340BB60FB681A0200
:10137C00BB68134343F0BF6343F40033BB60044AC0
:10138C00BB68D36000BF1437BD4680BC704700BF3C
:10139C0000ED00E080B400AF044BDB681B0A03F0E7
:1013AC0007031846BD4680BC704700BF00ED00E047
:1013BC0080B483B000AF03463960FB7197F90730F6
:1013CC00002B0ADB3B68DAB20C4997F907301201A3
:1013DC00D2B20B4483F800230AE03B68DAB2084926
:1013EC00FB7903F00F03043B1201D2B20B441A76C3
:1013FC0000BF0C37BD4680BC704700BF00E100E069
:10140C0000ED00E080B489B000AFF860B9607A609C
:10141C00FB6803F00703FB61FB69C3F10703042BB3
:10142C0028BF0423BB61FB690433062B02D9FB697B
:10143C00033B00E000237B614FF0FF32BB6902FAF3
:10144C0003F3DA43BB681A407B699A404FF0FF31D3
:10145C007B6901FA03F3D9437B680B4013431846AD
:10146C002437BD4680BC704780B582B000AF786031
:10147C007B68013BB3F1807F01D301230FE00A4A63
:10148C007B68013B53600F214FF0FF30FFF790FF5B
:10149C00054B00229A60044B07221A600023184661
:1014AC000837BD4680BD00BF10E000E080B582B0BB
:1014BC0000AF78607868FFF749FF00BF0837BD467A
:1014CC0080BD80B586B000AF0346B9607A60FB730F
:1014DC0000237B61FFF75EFF78617A68B9687869F1
:1014EC00FFF790FF024697F90F3011461846FFF7A9
:1014FC005FFF00BF1837BD4680BD80B582B000AF1E
:10150C0078607868FFF7B0FF034618460837BD4689
:10151C0080BD000080B48BB000AF786039600023D0
:10152C007B6200233B6269E101227B6A02FA03F3CE
:10153C00FB613B681B68FA691340BB61BA69FB69C4
:10154C009A4240F058813B685B689A4A93425ED05D
:10155C00984A934275D8984A934258D0964A9342E7
:10156C006FD8964A934252D0944A934269D8944A7F
:10157C0093424CD0924A934263D8924A934246D0BB
:10158C00904A93425DD8122B2AD8122B59D801A21B
:10159C0052F823F01B160008F51500080716000872
:1015AC00491600084F1600084F1600084F16000881
:1015BC004F1600084F1600084F1600084F1600086B
:1015CC004F1600084F1600084F1600084F1600085B
:1015DC004F1600084F160008FD15000811160008DC
:1015EC00794A934213D02CE03B68DB683B6229E0DC
:1015FC003B68DB6804333B6224E03B68DB68083300
:10160C003B621FE03B68DB680C333B621AE03B68D3
:10161C009B68002B02D104233B6213E03B689B6860
:10162C00012B05D108233B627B68FA691A6109E03A
:10163C0008233B627B68FA695A6103E000233B6232
:10164C0000E000BFBB69FF2B01D87B6801E07B6821
:10165C0004337B61BB69FF2B02D87B6A9B0002E0E1
:10166C007B6A083B9B003B617B691A680F213B69D5
:10167C0001FA03F3DB431A40396A3B6901FA03F3BD
:10168C001A437B691A603B685B6803F08053002B3C
:10169C0000F0B1804D4B9B694C4A43F001039361C0
:1016AC004A4B9B6903F00103BB60BB68484A7B6AE9
:1016BC009B08023352F82330FB607B6A03F0030370
:1016CC009B000F2202FA03F3DB43FA681340FB6022
:1016DC007B68404A934213D07B683F4A93420DD0BB
:1016EC007B683E4A934207D07B683D4A934201D1C6
:1016FC00032306E0042304E0022302E0012300E0BC
:10170C0000237A6A02F0030292009340FA681343B2
:10171C00FB602F497B6A9B080233FA6841F823204F
:10172C003B685B6803F48013002B06D02D4B9A6842
:10173C002C49BB6913438B6006E02A4B9A68BB6942
:10174C00DB43284913408B603B685B6803F4001350
:10175C00002B06D0234BDA682249BB691343CB60BC
:10176C0006E0204BDA68BB69DB431E491340CB60B3
:10177C003B685B6803F40033002B06D0194B5A68A6
:10178C001849BB6913434B6006E0164B5A68BB699A
:10179C00DB43144913404B603B685B6803F48033B4
:1017AC00002B21D00F4B1A680E49BB6913430B60F9
:1017BC0021E000BF000032100000311000002210A8
:1017CC000000211000001210000011100010024047
:1017DC000000014000080140000C014000100140D5
:1017EC0000140140000401400B4B1A68BB69DB4339
:1017FC00094913400B607B6A01337B623B681A68B2
:10180C007B6A22FA03F3002B7FF48EAE00BF00BF7D
:10181C002C37BD4680BC70470004014080B485B0B5
:10182C0000AF78600B467B807B689A687B8813409E
:10183C00002B02D00123FB7301E00023FB73FB7B25
:10184C0018461437BD4680BC7047000080B586B082
:10185C0000AF78607B68002B01D1012372E27B68BA
:10186C001B6803F00103002B00F08780924B5B6830
:10187C0003F00C03042B0CD08F4B5B6803F00C03B0
:10188C00082B12D18C4B5B6803F48033B3F5803F8B
:10189C000BD1894B1B6803F40033002B6CD07B6895
:1018AC005B68002B68D101234CE27B685B68B3F565
:1018BC00803F06D1804B1B687F4A43F48033136012
:1018CC002EE07B685B68002B0CD17B4B1B687A4A43
:1018DC0023F480331360784B1B68774A23F48023FE
:1018EC0013601DE07B685B68B3F5A02F0CD1724BC5
:1018FC001B68714A43F4802313606F4B1B686E4A5C
:10190C0043F4803313600BE06B4B1B686A4A23F47F
:10191C0080331360684B1B68674A23F48023136081
:10192C007B685B68002B13D0FEF77AFF386108E008
:10193C00FEF776FF02463B69D31A642B01D90323C9
:10194C0000E25D4B1B6803F40033002BF0D014E075
:10195C00FEF766FF386108E0FEF762FF02463B695E
:10196C00D31A642B01D90323ECE1534B1B6803F40A
:10197C000033002BF0D100E000BF7B681B6803F044
:10198C000203002B63D04C4B5B6803F00C03002B61
:10199C000BD0494B5B6803F00C03082B1CD1464B56
:1019AC005B6803F48033002B16D1434B1B6803F0A8
:1019BC000203002B05D07B681B69012B01D001238E
:1019CC00C0E13D4B1B6823F0F8027B685B69DB00D0
:1019DC00394913430B603AE07B681B69002B20D01C
:1019EC00364B01221A60FEF71BFF386108E0FEF748
:1019FC0017FF02463B69D31A022B01D90323A1E13D
:101A0C002D4B1B6803F00203002BF0D02A4B1B68F4
:101A1C0023F0F8027B685B69DB00274913430B60FA
:101A2C0015E0264B00221A60FEF7FAFE386108E03A
:101A3C00FEF7F6FE02463B69D31A022B01D90323AB
:101A4C0080E11D4B1B6803F00203002BF0D17B6877
:101A5C001B6803F00803002B3AD07B689B69002BB2
:101A6C0019D0174B01221A60FEF7DAFE386108E034
:101A7C00FEF7D6FE02463B69D31A022B01D903238B
:101A8C0060E10D4B5B6A03F00203002BF0D00120E8
:101A9C0000F0BAFA1CE00A4B00221A60FEF7C0FEF6
:101AAC0038610FE0FEF7BCFE02463B69D31A022BED
:101ABC0008D9032346E100BF001002400000424257
:101ACC0080044242924B5B6A03F00203002BE9D183
:101ADC007B681B6803F00403002B00F0A680002336
:101AEC00FB758B4BDB6903F08053002B0DD1884BBE
:101AFC00DB69874A43F08053D361854BDB6903F084
:101B0C008053BB60BB680123FB75824B1B6803F4DD
:101B1C008073002B18D17F4B1B687E4A43F4807373
:101B2C001360FEF77DFE386108E0FEF779FE024691
:101B3C003B69D31A642B01D9032303E1754B1B6852
:101B4C0003F48073002BF0D07B68DB68012B06D18B
:101B5C006F4B1B6A6E4A43F0010313622DE07B68E6
:101B6C00DB68002B0CD16A4B1B6A694A23F001031A
:101B7C001362674B1B6A664A23F0040313621CE072
:101B8C007B68DB68052B0CD1614B1B6A604A43F008
:101B9C00040313625E4B1B6A5D4A43F0010313623C
:101BAC000BE05B4B1B6A5A4A23F001031362584B40
:101BBC001B6A574A23F0040313627B68DB68002B13
:101BCC0015D0FEF72DFE38610AE0FEF729FE02461D
:101BDC003B69D31A41F28832934201D90323B1E015
:101BEC004B4B1B6A03F00203002BEED014E0FEF704
:101BFC0017FE38610AE0FEF713FE02463B69D31A62
:101C0C0041F28832934201D903239BE0404B1B6A7B
:101C1C0003F00203002BEED1FB7D012B05D13C4BD5
:101C2C00DB693B4A23F08053D3617B68DB69002B73
:101C3C0000F08780364B5B6803F00C03082B61D0F7
:101C4C007B68DB69022B46D1334B00221A60FEF70E
:101C5C00E7FD386108E0FEF7E3FD02463B69D31A65
:101C6C00022B01D903236DE0294B1B6803F0007391
:101C7C00002BF0D17B681B6AB3F5803F08D1244B55
:101C8C005B6823F400327B689B68214913434B60EB
:101C9C001F4B5B6823F474127B68196A7B685B6A60
:101CAC000B431B4913434B601B4B01221A60FEF77D
:101CBC00B7FD386108E0FEF7B3FD02463B69D31A65
:101CCC00022B01D903233DE0114B1B6803F0007379
:101CDC00002BF0D035E0104B00221A60FEF7A0FD6F
:101CEC00386108E0FEF79CFD02463B69D31A022BD3
:101CFC0001D9032326E0064B1B6803F00073002B6D
:101D0C00F0D11EE07B68DB69012B07D1012319E0C0
:101D1C000010024000700040600042420B4B5B68B8
:101D2C00FB60FB6803F480327B681B6A9A4206D125
:101D3C00FB6803F470127B685B6A9A4201D0012342
:101D4C0000E0002318461837BD4680BD0010024045
:101D5C0080B584B000AF786039607B68002B01D10E
:101D6C000123D0E06A4B1B6803F007033A689A42E0
:101D7C0010D9674B1B6823F0070265493B68134376
:101D8C000B60634B1B6803F007033A689A4201D05F
:101D9C000123B8E07B681B6803F00203002B20D002
:101DAC007B681B6803F00403002B05D0594B5B6860
:101DBC00584A43F4E06353607B681B6803F00803E4
:101DCC00002B05D0534B5B68524A43F4605353606D
:101DDC00504B5B6823F0F0027B689B684D491343C2
:101DEC004B607B681B6803F00103002B40D07B68C1
:101DFC005B68012B07D1474B1B6803F40033002BA6
:101E0C0015D101237FE07B685B68022B07D1414B26
:101E1C001B6803F00073002B09D1012373E03D4BC9
:101E2C001B6803F00203002B01D101236BE0394B3B
:101E3C005B6823F003027B685B68364913434B6095
:101E4C00FEF7EEFCF8600AE0FEF7EAFC0246FB68DF
:101E5C00D31A41F28832934201D9032353E02D4B1C
:101E6C005B6803F00C027B685B689B009A42EBD1C9
:101E7C00274B1B6803F007033A689A4210D2244B95
:101E8C001B6823F0070222493B6813430B60204B6D
:101E9C001B6803F007033A689A4201D0012332E031
:101EAC007B681B6803F00403002B08D0194B5B689C
:101EBC0023F4E0627B68DB68164913434B607B6854
:101ECC001B6803F00803002B09D0124B5B6823F44A
:101EDC0060527B681B69DB000E4913434B6000F0BA
:101EEC0021F802460B4B5B681B0903F00F030A49F0
:101EFC00CB5C22FA03F3094A1360094B1B681846A2
:101F0C00FEF74CFC002318461037BD4680BD00BFC1
:101F1C000020024000100240143200080000002093
:101F2C000400002080B487B000AF0023FB600023C6
:101F3C00BB6000237B6100237B6000233B611E4B55
:101F4C005B68FB60FB6803F00C03042B02D0082BCE
:101F5C0003D027E0194B3B6127E0FB689B0C03F097
:101F6C000F03174AD35C7B60FB6803F48033002BB0
:101F7C0010D0114B5B685B0C03F00103114AD35C6E
:101F8C00BB607B680D4A03FB02F2BB68B2FBF3F348
:101F9C007B6104E07B680C4A02FB03F37B617B6989
:101FAC003B6102E0054B3B6100BF3B6918461C37A7
:101FBC00BD4680BC704700BF0010024000127A0082
:101FCC002C3200083C32000800093D0080B400AF00
:101FDC00024B1B681846BD4680BC704700000020B1
:101FEC0080B500AFFFF7F2FF0246054B5B68DB0ADA
:101FFC0003F007030349CB5C22FA03F3184680BDB8
:10200C00001002402432000880B485B000AF786024
:10201C000A4B1B680A4AA2FB03235B0A7A6802FB81
:10202C0003F3FB6000BFFB685A1EFA60002BF9D16A
:10203C0000BF00BF1437BD4680BC704700000020B5
:10204C00D34D621080B586B000AF786000233B6141
:10205C000023FB607B681B6803F00103002B7DD021
:10206C000023FB754F4BDB6903F08053002B0DD124
:10207C004C4BDB694B4A43F08053D361494BDB69D2
:10208C0003F08053BB60BB680123FB75464B1B6898
:10209C0003F48073002B18D1434B1B68424A43F462
:1020AC0080731360FEF7BCFB386108E0FEF7B8FBE9
:1020BC0002463B69D31A642B01D903236DE03A4BDA
:1020CC001B6803F48073002BF0D0364B1B6A03F4AF
:1020DC004073FB60FB68002B2ED07B685B6803F4BD
:1020EC004073FA689A4227D02E4B1B6A23F4407334
:1020FC00FB602E4B01221A602C4B00221A60294ADD
:10210C00FB681362FB6803F00103002B14D0FEF78D
:10211C0087FB38610AE0FEF783FB02463B69D31A62
:10212C0041F28832934201D9032336E01D4B1B6ADE
:10213C0003F00203002BEED01A4B1B6A23F44072FF
:10214C007B685B68174913430B62FB7D012B05D140
:10215C00144BDB69134A23F08053D3617B681B68F3
:10216C0003F00203002B08D00E4B5B6823F44042B3
:10217C007B689B680B4913434B607B681B6803F0BF
:10218C001003002B08D0074B5B6823F480027B689C
:10219C00DB68044913434B60002318461837BD46CF
:1021AC0080BD00BF0010024000700040400442425D
:1021BC0080B588B000AF786000237B610023FB61A1
:1021CC0000233B610023FB600023BB617B68102B69
:1021DC000AD07B68102B00F28A807B68012B45D0DB
:1021EC007B68022B75D082E0464B5B68FB60454BED
:1021FC001B6803F08073002B7BD0FB689B0C03F0F7
:10220C000F03414AD35C3B61FB6803F48033002B22
:10221C0015D03C4B5B685B0C03F001033B4AD35C71
:10222C007B61FB6803F48033002B0DD0384A7B694B
:10223C00B2FBF3F23B6902FB03F3FB6104E03B6985
:10224C00344A02FB03F3FB612E4B5B6803F48003FF
:10225C00B3F5800F02D1FB69BB614AE0FB695B00FF
:10226C002D4AA2FB03235B08BB6142E0254B1B6A92
:10227C00FB60FB6803F44073B3F5807F08D1FB6807
:10228C0003F00203002B03D04FF40043BB611FE0AB
:10229C00FB6803F44073B3F5007F09D1194B5B6AFB
:1022AC0003F00203002B03D049F64043BB610FE05F
:1022BC00FB6803F44073B3F5407F1CD1114B1B68D2
:1022CC0003F40033002B16D04FF22443BB6112E011
:1022DC0011E0FFF785FE02460A4B5B689B0B03F08F
:1022EC00030301335B00B2FBF3F3BB6104E000BFFB
:1022FC0002E000BF00E000BFBB6918462037BD46B6
:10230C0080BD00BF0010024040320008503200086F
:10231C0000127A0000093D00ABAAAAAA002310B54E
:10232C000446C0E90033C0E904338360818143660D
:10233C00C2818361194608225C3000F006F90D4B0E
:10234C00246263620C4BA3620C4BE3620C4B236361
:10235C000C4B9C4206D003F16802944202D0D0335D
:10236C009C4205D104F15800BDE8104000F066B95C
:10237C0010BD00BFD1240008F32400082B25000851
:10238C004F250008BC000020024A0349034800F016
:10239C0069B800BF0C000020DD2E00081C000020D6
:1023AC0041680C4B10B59942044601D000F090FDE9
:1023BC00A168094B994202D0204600F089FDE168E2
:1023CC00064B994204D02046BDE8104000F080BD79
:1023DC0010BD00BFBC000020240100208C01002097
:1023EC0010B50B4B0B4C0C4A20461A6004210022F2
:1023FC00FFF794FF04F1680001220921FFF78EFF1B
:10240C0004F1D0000222BDE810401221FFF786BF74
:10241C00F4010020BC00002095230008014800F0C6
:10242C000EB900BFFD010020014800F009B900BF42
:10243C00FD01002010B50446FFF7F0FF236A1BB125
:10244C00BDE81040FFF7F0BF044B2362044B1B6840
:10245C00002BF5D1FFF7C4FFF2E700BFAD23000856
:10246C00F40100202DE9F84307468846144600265F
:10247C00D4E90195B9F1010905D52468002CF7D1EF
:10248C003046BDE8F883AB89012B07D9B5F90E307E
:10249C00013303D029463846C04706436835E9E77F
:1024AC000FB407B5064904AB086853F8042B8168D0
:1024BC00019300F0E5F903B05DF804EB04B070474C
:1024CC001800002010B50C46B1F90E1000F068F899
:1024DC000028ABBF636DA3891B1823F48053ACBFDA
:1024EC006365A38110BD2DE9F0411F468B8905461C
:1024FC00DB050C46164605D502230022B1F90E1059
:10250C0000F03CF8A389324623F48053A38128467B
:10251C003B46B4F90E10BDE8F04100F053B810B5CD
:10252C000C46B1F90E1000F029F8431CA38915BF15
:10253C00606523F4805343F48053A38118BFA381B7
:10254C0010BDB1F90E1000F009B8034602449342D5
:10255C0000D1704703F8011BF9E7000038B50023E0
:10256C00054D044608462B60FEF76FF8431C02D15C
:10257C002B6803B1236038BDF801002038B5044640
:10258C00084611460022054D2A601A46FEF781F8CE
:10259C00431C02D12B6803B1236038BDF801002025
:1025AC0038B50446084611460022054D2A601A46E5
:1025BC00FEF712F8431C02D12B6803B1236038BD1F
:1025CC00F801002038B50446084611460022054D96
:1025DC002A601A46FEF71DF8431C02D12B6803B182
:1025EC00236038BDF8010020014B1868704700BF0C
:1025FC001800002070B500260C4D0D4C641BA41067
:10260C00A64209D100F0C2FD00260A4D0A4C641BFB
:10261C00A410A64205D170BD55F8043B984701366D
:10262C00EEE755F8043B98470136F2E7883200088C
:10263C0088320008883200088C32000870477047D6
:10264C007047000038B50546002940D051F8043CCD
:10265C000C1F002BB8BFE41800F0DEF81C4A1368FE
:10266C0033B9636014602846BDE8384000F0DAB82E
:10267C00A34208D9206821188B4201BF19685B68F6
:10268C0009182160EDE71A465B680BB1A342FAD931
:10269C0011685018A0420BD1206801445018834295
:1026AC001160E0D118685B68084410605360DAE789
:1026BC0002D90C232B60D6E7206821188B4201BF6E
:1026CC0019685B680918216063605460CBE738BDFA
:1026DC000402002070B50F4E0C463168054611B946
:1026EC0000F0B2FC30602146284600F0ADFC431CE3
:1026FC0003D14FF0FF34204670BDC41C24F00304FA
:10270C00A042F8D0211A284600F09EFC0130F2D1EC
:10271C00EFE700BF000200202DE9F843CD1C25F0A7
:10272C00030508350C2D38BF0C25002D064601DBA2
:10273C00A94204D90C2333600020BDE8F883DFF8EC
:10274C00D48000F069F8D8F800301C4644BB294608
:10275C003046FFF7BFFF431C044658D1D8F8004061
:10276C002746002F43D1002C4BD0236839463046E6
:10277C0004EB030900F068FC814542D12168304626
:10278C006D1A2946FFF7A6FF01303AD023682B4477
:10279C002360D8F800305A6862BBC8F800700FE0AC
:1027AC002268521B20D40B2A17D96119A342256029
:1027BC0018BF5960636808BFC8F8001062514B60BD
:1027CC00304600F02FF804F10B00231D20F0070019
:1027DC00C21A1CBF1B1AA350AFE76268A3420CBFFE
:1027EC00C8F800205A60EBE723466468AEE73C4625
:1027FC007F68B6E71A465B68A342FBD1002353609F
:10280C00DEE70C233046336000F00CF894E70560EB
:10281C00D6E700BF040200200148FFF710BF00BF3D
:10282C00FC0100200148FFF70BBF00BFFC0100209A
:10283C00936810B4013B002B936007DA9469A342B0
:10284C0001DB0A2902D110BC00F06ABB1368581CCA
:10285C0010601970084610BC7047F8B506460F4654
:10286C001446D518AC4201D1002007E03A46304658
:10287C0014F8011BFFF7DCFF431CF3D1F8BD00007B
:10288C002DE9F04F0D461446984606469DB018B1FA
:10289C00036A0BB9FFF7CEFD6B6ED90705D4AB8974
:1028AC009A0502D4A86DFFF7CAFEAB891B0701D5A8
:1028BC002B699BB92946304600F070FB70B16B6EEA
:1028CC00DC0704D54FF0FF301DB0BDE8F08FAB89AD
:1028DC009805F7D4A86DFFF7B3FEF3E7002309932F
:1028EC0020238DF8293030234FF00109CDF80C80CE
:1028FC00DFF8A8818DF82A3023469A4613F8012B6D
:10290C000AB1252AF9D1BAEB040B0BD05B4622464F
:10291C0029463046FFF7A1FF013000F0A780099A45
:10292C005A4409929AF80030002B00F09F80002343
:10293C004FF0FF32CDE905230AF1010A0493079306
:10294C008DF853301A935446052214F8011B534842
:10295C0000F08AFB049AD8B9D10644BF20238DF825
:10296C005330130744BF2B238DF853309AF80030A3
:10297C002A2B15D0544600204FF00A0C079A2146FA
:10298C0011F8013B303B092B4BD9B0B1079214E045
:10299C00A0EB080309FA03F31343A2460493D2E70E
:1029AC00039B191D1B680391002BBBBF5B4242F0BC
:1029BC00020207930793B8BF049223782E2B0AD1F7
:1029CC0063782A2B32D1039B02341A1D1B680392A5
:1029DC0043EAE3730593DFF8C8A00322504621783D
:1029EC0000F042FB38B14022049BA0EB0A0082406D
:1029FC0013430134049314F8011B062229488DF863
:102A0C00281000F031FB00283FD0274B1BBB039B49
:102A1C00073323F0070308330393099B3B440993C3
:102A2C006AE70C4601200CFB0232A8E700234FF0AA
:102A3C000A0C194601340593204610F8012B303A44
:102A4C00092A03D9002BC6D00591C4E704460123FB
:102A5C000CFB0121F0E703AB00932A463046134BE5
:102A6C0004A9AFF300800746781CD6D16B6ED9074A
:102A7C0005D4AB899A0502D4A86DFFF7E1FDAB89AB
:102A8C005B063FF51FAF09981EE703AB00932A4680
:102A9C003046064B04A900F07DF8E4E752320008FA
:102AAC00583200085C32000800000000672800085B
:102ABC002DE9F047164698468A680B6907469342FB
:102ACC00B8BF1346336091F843200C46DDF82090D4
:102ADC000AB1013333602368990642BF336802336D
:102AEC003360256815F0060506D104F1190AE36870
:102AFC0032689B1AAB422BDC94F843302268003BC3
:102B0C0018BF0123920630D44146384604F14302E3
:102B1C00C847013023D02368226903F00603042B35
:102B2C0014BF002533684FF0000608BFE56804F1B8
:102B3C001A0408BFED1A54F8123C08BF25EAE575D3
:102B4C009342C4BF9B1AED18B5421AD1002008E07D
:102B5C000123524641463846C847013003D14FF055
:102B6C00FF30BDE8F0870135C1E73020E11881F86E
:102B7C0043005A1C94F845102244023382F8431047
:102B8C00C2E70123224641463846C8470130E6D009
:102B9C000136D9E72DE9FF470F7E9146782F804605
:102BAC000C469A460C9E01F1430207D8622F0AD8B4
:102BBC00002F00F0D180582F00F0B88004F14206AD
:102BCC0084F842703AE0A7F16303152BF6D801A103
:102BDC0051F823F0392C00084D2C0008C92B0008A3
:102BEC00C92B0008C92B0008C92B00084D2C000864
:102BFC00C92B0008C92B0008C92B0008C92B0008D9
:102C0C004B2D0008772C0008052D0008C92B000857
:102C1C00C92B00086D2D0008C92B0008772C000863
:102C2C00C92B0008C92B00080D2D000833681A1D8C
:102C3C001B68326004F1420684F8423001239CE0A8
:102C4C0033682068191D3160060601D51D6803E044
:102C5C004506FBD5B3F90050002D03DA2D236D4248
:102C6C0084F843300A23584811E021683368080679
:102C7C0053F8045B02D4490648BFADB26F2F3360E2
:102C8C0014BF0A2308235048002184F843106668B7
:102C9C00002EA66005DB21682E4321F00401216083
:102CAC004BD01646B5FBF3F103FB1157C75D06F885
:102CBC00017D2F46BB420D46F4D9082B0BD123685E
:102CCC00DF0708D5236961689942DEBF302306F817
:102CDC00013C06F1FF36921B22614B4621464046D1
:102CEC00CDF800A003AAFFF7E3FE01304AD14FF064
:102CFC00FF3004B0BDE8F087236843F02003236065
:102D0C007827324884F84570236831681F0651F8DB
:102D1C00045B02D45F0648BFADB23160D90744BF33
:102D2C0043F0200323601DB11023ADE72648E9E7EB
:102D3C00236823F020032360F6E71646BDE73368CB
:102D4C002568181D616930602E061B6801D5196055
:102D5C0002E06806FBD51980002316462361BCE708
:102D6C00336800211A1D32601E686268304600F01C
:102D7C007BF908B1801B606063682361002384F8D1
:102D8C004330AAE73246494640462369D0470130D2
:102D9C00ADD023689B0713D4E068039B9842B8BF5F
:102DAC001846A6E70123324649464046D047013033
:102DBC009DD00135E36803995B1AAB42F2DCEBE77B
:102DCC00002504F11906F5E7633200087432000897
:102DDC00B1F90C20F8B5160705460C4654D44B68CF
:102DEC00002B02DC0B6C002B48DDE66A002E45D074
:102DFC00002312F480522F68216A2B6030D0626D50
:102E0C00A389590705D56368D21A636B0BB1236C80
:102E1C00D21A00232846E66A216AB047431CA389CC
:102E2C0006D129681D292BD8284ACA40D60727D590
:102E3C00002262602269D904226004D5421C01D1AF
:102E4C002B6803B96065616B2F60B9B104F1440361
:102E5C00994202D02846FFF7F5FB002363630DE08F
:102E6C0001232846B0470246501CC9D12B68002BC1
:102E7C00C6D01D2B01D0162B1DD12F60002021E0B8
:102E8C0043F040031BB21AE00F69002FF6D09307F2
:102E9C0018BF00230E6808BF4B69F61B0F608B60D0
:102EAC00002EEBDD33463A462846216AD4F828C07A
:102EBC00E047002807DCB4F90C3043F040034FF036
:102ECC00FF30A381F8BD0744361AE9E70100402022
:102EDC0038B50B6905460C4613B90025284638BD94
:102EEC0018B1036A0BB9FFF7A5FAB4F90C30002B33
:102EFC00F3D0626ED00704D4990502D4A06DFFF70D
:102F0C009EFB28462146FFF763FF636E0546DA07F2
:102F1C00E4D4A3899B05E1D4A06DFFF791FBDDE719
:102F2C00F8B50E461446054618B1036A0BB9FFF7FF
:102F3C0081FAA369A360A3891A0701D5236943B950
:102F4C002146284600F02AF818B14FF0FF373846D2
:102F5C00F8BD23682269F6B2981A63693746834232
:102F6C0005DC21462846FFF7B3FF0028EDD1A36806
:102F7C00013BA36023685A1C22601E706269431CCB
:102F8C009A4204D0A389DB07E1D50A2EDFD1214672
:102F9C002846FFF79DFF0028D9D0D6E738B5294B36
:102FAC00054618680C4618B1036A0BB9FFF742FACC
:102FBC00B4F90C30190722D4DA0607D409222A6096
:102FCC0043F040034FF0FF30A38133E0580712D594
:102FDC00616B41B104F14403994202D02846FFF7DA
:102FEC0031FB00236363A38923F02403A381002313
:102FFC00636023692360A38943F00803A3812369D9
:10300C004BB9A38903F42073B3F5007F03D0214699
:10301C00284600F05CF8B4F90C3013F001020AD029
:10302C000022A26062695242A261226942B913F085
:10303C008000C5D138BD990758BF6269A260F4E71A
:10304C000020F7E71800002038B50023054D044692
:10305C0008462B60FDF72AFB431C02D12B6803B1F9
:10306C00236038BDF8010020034610B5C9B20244F4
:10307C009342184601D1002003E0047801338C42BE
:10308C00F6D110BD70B50C46B1F90E1015460029DD
:10309C001E4696B00CDAA389002113F0800F14BFE2
:1030AC0040234FF48063002031602B6016B070BD5C
:1030BC006A4600F049F80028EDDB019901F47041F3
:1030CC00A1F50053594259414FF48063EBE78B89CA
:1030DC00F7B59D0706460C4607D504F14703236058
:1030EC0023610123636103B0F0BD6A4601ABFFF7B6
:1030FC00C9FF009F054639463046FFF70DFB48B91E
:10310C00B4F90C309A05EED423F0030343F0020318
:10311C00A381E2E7A389C4E9040743F08003A381F8
:10312C00019B20605BB13046B4F90E1000F01EF824
:10313C0028B1A38923F0030343F00103A381A389DE
:10314C001D43A581CFE7000038B50023064D04468A
:10315C00084611462B60FDF783FA431C02D12B68FD
:10316C0003B1236038BD00BFF801002038B500233F
:10317C00054D044608462B60FDF781FA431C02D12D
:10318C002B6803B1236038BDF8010020F8B500BFEF
:10319C00F8BC08BC9E467047F8B500BFF8BC08BC2C
:0431AC009E46704784
:1031B00053574F20546573742C2062746E313A203B
:1031C00025692C2062746E323A2025692C206274A5
:1031D0006E333A2025692C204A6F79737469636BCA
:1031E00020416C70686120313A20256C752C204A92
:1031F0006F79737469636B204265746120313A2082
:10320000256C752C20764261743A20256C75200A55
:1032100000000000000000000000000001020304A4
:103220000607080900000000010203040203040568
:10323000060708090A0B0C0D0E0F10100102000002
:1032400002030405060708090A0B0C0D0E0F1010E7
:103250000102232D302B2000686C4C006566674509
:1032600046470030313233343536373839414243FE
:1032700044454600303132333435363738396162AF
:083280006364656600000000B4
:043288003101000808
:04328C000D01000828
:103290000024F40010000000010000000000000005
:1032A00003000000BC0000201C0000200000000003
:1032B000BC000020240100208C0100200000000040
:1032C00000000000000000000000000000000000FE
:1032D00000000000000000000000000000000000EE
:1032E00000000000000000000000000000000000DE
:0832F0000000000000000000D6
:0400000508000731B7
:00000001FF
