:020000040800F2
:10000000008000209D2F0008412D0008492D000888
:10001000512D0008592D0008612D00080000000036
:10002000000000000000000000000000692D000832
:10003000772D000800000000852D0008932D000892
:10004000ED2F0008ED2F0008ED2F0008ED2F000820
:10005000ED2F0008ED2F0008ED2F0008ED2F000810
:10006000ED2F0008ED2F0008ED2F0008A12D00084E
:10007000ED2F0008ED2F0008ED2F0008ED2F0008F0
:10008000ED2F000800000000B52D0008ED2F00083E
:10009000ED2F0008ED2F0008ED2F0008C92D0008F6
:1000A000ED2F0008ED2F0008ED2F0008ED2F0008C0
:1000B000ED2F0008D92D0008ED2F0008ED2F0008C6
:1000C000ED2F0008ED2F0008ED2F0008ED2F0008A0
:1000D000ED2F0008ED2F0008ED2F0008ED2F000890
:1000E000ED2F0008ED2F0008ED2F0008ED2F000880
:1000F000ED2F0008ED2F0008ED2F00080000000094
:1001000000000000ED2F000800000000ED2F0008A7
:10011000ED2F000800000000ED2F0008ED2F000873
:10012000ED2F0008ED2F0008ED2F0008ED2F00083F
:10013000ED2F00080000000000000000ED2F000877
:10014000ED2F0008ED2F0008000000000000000067
:10015000000000000000000000000000000000009F
:10016000000000000000000000000000ED2F00086B
:10017000ED2F00080000000000000000000000005B
:1001800000000000ED2F000800000000000000004B
:10019000000000000000000000000000000000005F
:1001A0000000000000000000ED2F0008ED2F000807
:1001B000ED2F0008ED2F0008ED2F000800000000D3
:1001C00000000000ED2F000800000000000000000B
:0801D000ED2F0008ED2F0008DF
:1001E00010B5054C237833B9044B13B10448AFF371
:1001F00000800123237010BDD40100200000000006
:1002000020BB000808B5034B1BB103490348AFF3FB
:10021000008008BD00000000D801002020BB0008BD
:1002200001F0FF01102A2BDB10F0070F08D010F8A7
:10023000013B013A8B422DD010F0070F42B3F6D1AB
:10024000F0B441EA012141EA014122F007047FF0C4
:1002500000070023F0E80256083C85EA010586EA1B
:10026000010685FA47F5A3FA87F586FA47F6A5FA57
:1002700087F68EB9EED1F0BC01F0FF0102F0070263
:1002800032B110F8013B013A83EA010313B1F8D10E
:100290000020704701387047002D06BF35460338EF
:1002A000073815F0010F07D1013015F4807F02BF28
:1002B000013015F4C03F0130F0BC0138704700BF79
:1002C000034613F8012B002AFBD1181A0138704796
:1002D00081F0004102E000BF83F0004330B54FEAF7
:1002E00041044FEA430594EA050F08BF90EA020F64
:1002F0001FBF54EA000C55EA020C7FEA645C7FEAF7
:10030000655C00F0E2804FEA5454D4EB5555B8BF19
:100310006D420CDD2C4480EA020281EA030382EA8A
:10032000000083EA010180EA020281EA0303362D1C
:1003300088BF30BD11F0004F4FEA01314FF4801CEF
:100340004CEA113102D0404261EB410113F0004F01
:100350004FEA03334CEA133302D0524263EB4303B8
:1003600094EA050F00F0A780A4F10104D5F1200E56
:100370000DDB02FA0EFC22FA05F2801841F10001B1
:1003800003FA0EF2801843FA05F359410EE0A5F185
:1003900020050EF1200E012A03FA0EFC28BF4CF0B6
:1003A000020C43FA05F3C01851EBE37101F000456C
:1003B00007D54FF0000EDCF1000C7EEB00006EEB79
:1003C0000101B1F5801F1BD3B1F5001F0CD3490803
:1003D0005FEA30004FEA3C0C04F101044FEA44525A
:1003E00012F5800F80F09A80BCF1004F08BF5FEAE1
:1003F000500C50F1000041EB045141EA050130BDC1
:100400005FEA4C0C404141EB0101013C28BFB1F5D2
:10041000801FE9D291F0000F04BF01460020B1FA1D
:1004200081F308BF2033A3F10B03B3F120020CDAF0
:100430000C3208DD02F1140CC2F10C0201FA0CF0CE
:1004400021FA02F10CE002F11402D8BFC2F1200C33
:1004500001FA02F120FA0CFCDCBF41EA0C019040E9
:10046000E41AA2BF01EB0451294330BD6FEA040432
:100470001F3C1CDA0C340EDC04F11404C4F120021D
:1004800020FA04F001FA02F340EA030021FA04F32F
:1004900045EA030130BDC4F10C04C4F1200220FA86
:1004A00002F001FA04F340EA0300294630BD21FAC4
:1004B00004F0294630BD94F0000F83F4801306BF8A
:1004C00081F480110134013D4EE77FEA645C18BF7E
:1004D0007FEA655C29D094EA050F08BF90EA020F15
:1004E00005D054EA000C04BF1946104630BD91EA0D
:1004F000030F1EBF0021002030BD5FEA545C05D110
:100500004000494128BF41F0004130BD14F580044E
:100510003CBF01F5801130BD01F0004545F0FE41C2
:1005200041F470014FF0000030BD7FEA645C1ABFF7
:10053000194610467FEA655C1CBF0B46024650EA2E
:10054000013406BF52EA033591EA030F41F400215A
:1005500030BD00BF90F0000F04BF0021704730B5E0
:100560004FF4806404F132044FF000054FF00001B5
:1005700050E700BF90F0000F04BF0021704730B576
:100580004FF4806404F1320410F0004548BF40424B
:100590004FF000013EE700BF42004FEAE2014FEAA0
:1005A00031014FEA02701FBF12F07F4393F07F4F7B
:1005B00081F06051704732F07F4208BF704793F07E
:1005C0007F4F04BF41F40021704730B54FF4607491
:1005D00001F0004521F000411CE700BF50EA010294
:1005E00008BF704730B54FF000050AE050EA01023D
:1005F00008BF704730B511F0004502D5404261EBAD
:1006000041014FF4806404F132045FEA915C3FF4ED
:10061000D8AE4FF003025FEADC0C18BF03325FEA8A
:10062000DC0C18BF033202EBDC02C2F1200300FA3B
:1006300003FC20FA02F001FA03FE40EA0E0021FA60
:1006400002F11444BDE600BF70B54FF0FF0C4CF44E
:10065000E06C1CEA11541DBF1CEA135594EA0C0F00
:1006600095EA0C0F00F0DEF82C4481EA030621EA3B
:100670004C5123EA4C5350EA013518BF52EA033576
:1006800041F4801143F4801338D0A0FB02CE4FF028
:100690000005E1FB02E506F00042E0FB03E54FF058
:1006A0000006E1FB03569CF0000F18BF4EF0010E50
:1006B000A4F1FF04B6F5007F64F5407404D25FEA4C
:1006C0004E0E6D4146EB060642EAC62141EA5551FF
:1006D0004FEAC52040EA5E504FEACE2EB4F1FD0C41
:1006E00088BFBCF5E06F1ED8BEF1004F08BF5FEABF
:1006F000500E50F1000041EB045170BD06F0004671
:1007000046EA010140EA020081EA0301B4EB5C041D
:10071000C2BFD4EB0C0541EA045170BD41F4801115
:100720004FF0000E013C00F3AB8014F1360FDEBF3A
:10073000002001F0004170BDC4F10004203C35DA16
:100740000C341BDC04F11404C4F1200500FA05F399
:1007500020FA04F001FA05F240EA020001F000423A
:1007600021F0004110EBD37021FA04F642EB0601B0
:100770005EEA430E08BF20EAD37070BDC4F10C04DA
:10078000C4F1200500FA04F320FA05F001FA04F29E
:1007900040EA020001F0004110EBD37041F100018A
:1007A0005EEA430E08BF20EAD37070BDC4F1200595
:1007B00000FA05F24EEA020E20FA04F301FA05F2FD
:1007C00043EA020321FA04F001F0004121FA04F2A5
:1007D00020EA020000EBD3705EEA430E08BF20EA75
:1007E000D37070BD94F0000F0FD101F000464000AF
:1007F00041EB010111F4801F08BF013CF7D041EA31
:10080000060195F0000F18BF704703F00046520034
:1008100043EB030313F4801F08BF013DF7D043EA05
:100820000603704794EA0C0F0CEA135518BF95EABB
:100830000C0F0CD050EA410618BF52EA4306D1D142
:1008400081EA030101F000414FF0000070BD50EA61
:10085000410606BF1046194652EA430619D094EAEB
:100860000C0F02D150EA013613D195EA0C0F05D1D5
:1008700052EA03361CBF104619460AD181EA030129
:1008800001F0004141F0FE4141F470014FF00000E1
:1008900070BD41F0FE4141F4780170BD70B54FF07C
:1008A000FF0C4CF4E06C1CEA11541DBF1CEA1355FC
:1008B00094EA0C0F95EA0C0F00F0A7F8A4EB0504DE
:1008C00081EA030E52EA03354FEA013100F08880D5
:1008D0004FEA03334FF0805545EA131343EA12639E
:1008E0004FEA022245EA111545EA10654FEA002653
:1008F0000EF000419D4208BF964244F1FD0404F50C
:10090000407402D25B084FEA3202B61A65EB030567
:100910005B084FEA32024FF480104FF4002CB6EB24
:10092000020E75EB030E22BFB61A754640EA0C00A4
:100930005B084FEA3202B6EB020E75EB030E22BFE4
:10094000B61A754640EA5C005B084FEA3202B6EB25
:10095000020E75EB030E22BFB61A754640EA9C00E4
:100960005B084FEA3202B6EB020E75EB030E22BFB4
:10097000B61A754640EADC0055EA060E18D04FEA72
:10098000051545EA16754FEA06164FEAC30343EA12
:1009900052734FEAC2025FEA1C1CC0D111F4801FDF
:1009A0000BD141EA00014FF000004FF0004CB6E7D8
:1009B00011F4801F04BF01430020B4F1FD0C88BF77
:1009C000BCF5E06F3FF6AFAEB5EB030C04BFB6EB82
:1009D000020C5FEA500C50F1000041EB045170BD75
:1009E0000EF0004E4EEA113114EB5C04C2BFD4EBA2
:1009F0000C0541EA045170BD41F480114FF0000E26
:100A0000013C90E645EA060E8DE60CEA135594EAA1
:100A10000C0F08BF95EA0C0F3FF43BAF94EA0C0FA4
:100A20000AD150EA01347FF434AF95EA0C0F7FF419
:100A300025AF104619462CE795EA0C0F06D152EA6D
:100A400003353FF4FDAE1046194622E750EA410651
:100A500018BF52EA43067FF4C5AE50EA41047FF462
:100A60000DAF52EA43057FF4EBAE12E74FF0FF3CC7
:100A700006E000BF4FF0010C02E000BF4FF0010C98
:100A80004DF804CD4FEA410C7FEA6C5C4FEA430C11
:100A900018BF7FEA6C5C1BD001B050EA410C0CBF60
:100AA00052EA430C91EA030F02BF90EA020F0020C2
:100AB000704710F1000F91EA030F58BF994208BF29
:100AC00090422CBFD8176FEAE37040F001007047E6
:100AD0004FEA410C7FEA6C5C02D150EA013C07D13D
:100AE0004FEA430C7FEA6C5CD6D152EA033CD3D088
:100AF0005DF8040B704700BF8446104662468C4682
:100B00001946634600E000BF01B5FFF7B7FF0028B4
:100B100048BF10F1000F01BD4DF808EDFFF7F4FFDD
:100B20000CBF012000205DF808FB00BF4DF808ED68
:100B3000FFF7EAFF34BF012000205DF808FB00BF8B
:100B40004DF808EDFFF7E0FF94BF012000205DF8AD
:100B500008FB00BF4DF808EDFFF7CEFF94BF012062
:100B600000205DF808FB00BF4DF808EDFFF7C4FF5B
:100B700034BF012000205DF808FB00BF4FEA410CA4
:100B80007FEA6C5C02D150EA013C0AD14FEA430C87
:100B90007FEA6C5C02D152EA033C02D14FF00000C4
:100BA00070474FF0010070474FEA410212F5001202
:100BB00015D211D56FF47873B3EB625212D94FEAA4
:100BC000C12343F0004343EA505311F0004F23FA8E
:100BD00002F018BF404270474FF00000704750EAE3
:100BE000013005D111F0004008BF6FF000407047A0
:100BF0004FF00000704700BF53B94AB9002908BF41
:100C000000281CBF4FF0FF314FF0FF3000F088B9D3
:100C1000ADF1080C6DE904CE00F006F8DDF804E053
:100C2000DDE9022304B070472DE9F047089D8E46A8
:100C300004468846002B4AD18A42174662D9B2FA46
:100C400082F64EB1C6F1200301FA06F820FA03F34A
:100C5000B74043EA0808B4404FEA174E1FFA87FC32
:100C6000B8FBFEF1230C0EFB118843EA084301FB9D
:100C70000CF29A4209D9FB1801F1FF3080F0EA80AA
:100C80009A4240F2E78002393B449A1AA3B2B2FB7F
:100C9000FEF00EFB102243EA024300FB0CFC9C45D5
:100CA00009D9FB1800F1FF3280F0D6809C4540F254
:100CB000D3803B44023840EA0140A3EB0C030021FF
:100CC0001DB1F3400022C5E90032BDE8F0878B4238
:100CD00005D90DB1C5E9000100210846F5E7B3FAD1
:100CE00083F1002946D1734502D3824200F2058187
:100CF000841A6EEB030201209046002DE5D0C5E971
:100D00000048E2E7002A00F09080B2FA82F6002E56
:100D100040F0A4808A1A030C4FEA174E80B2BCB28E
:100D20000121B2FBFEFC0EFB1C2243EA024304FB42
:100D30000CF29A4207D9FB180CF1FF3802D29A4202
:100D400000F2E080C4469B1AB3FBFEF20EFB1233A6
:100D500040EA034302FB04F49C4207D9FB1802F16A
:100D6000FF3002D29C4200F2CA8002461B1B42EABC
:100D70000C40A5E7C1F120068B4022FA06F71F437D
:100D80000EFA01F420FA06F32EFA06FE4FEA17498E
:100D9000234300FA01F81FFA87FCBEFBF9F01C0C94
:100DA00009FB10EE44EA0E4400FB0CFEA64502FAD5
:100DB00001F209D93C1900F1FF3A80F09C80A64568
:100DC00040F2998002383C44A4EB0E041FFA83FEE3
:100DD000B4FBF9F309FB13444EEA044403FB0CFC97
:100DE000A44508D93C1903F1FF3E80F08280A44558
:100DF0007FD9023B3C4443EA0040A4EB0C04A0FB37
:100E000002EC64457346E14662D35FD05DB1B8EB56
:100E1000030264EB090404FA06F622FA01F31E4306
:100E2000CC40C5E9006400214FE7B1FBF2FC010CA6
:100E300041EA0E4180B240EA01423B4638463C4618
:100E4000B846BE462026B1FBF7F1A2EB080241EA04
:100E50000C4166E7014618E710462CE7C6F1200270
:100E60002EFA02F3B740B14020FA02F24FEA174ED1
:100E70000A43B3FBFEF8BCB20EFB1833110C41EA77
:100E8000034108FB04F9B04089454FEA104380B2A2
:100E90003ED9791808F1FF3C01D289451FD8A1EB52
:100EA0000901B1FBFEF909FB04F80EFB191192B21E
:100EB00042EA0142424529D2BA1809F1FF31C4D2AF
:100EC0004245C2D2A9F102013A44BEE7F0459DD2A3
:100ED000BEEB02036CEB070C0138E14696E7A7EB8B
:100EE00009094944A8F1020CB1FBFEF909FB04F819
:100EF000DBE773467FE7504666E70846FDE63B447E
:100F0000023A33E7ACF1020C3B441CE749469CE74C
:100F1000A1EB0901C446B1FBFEF909FB04F8C4E7E3
:100F2000704700BF80B485B000AF78607B68FB601D
:100F30000B4B1B680B4AA2FB03239A0CFB6802FBBA
:100F400003F3FB6000BFFB685A1EFA60002BFAD166
:100F500000BF00BF1437BD465DF8047B704700BF7B
:100F6000000000202FCE792780B582B000AF7860D6
:100F70007B68002B05D001220121064804F0A2FB6A
:100F800004E000220121034804F09CFB00BF083765
:100F9000BD4680BD0004004880B582B000AF7860D7
:100FA0007B68002B06D0012210214FF0904004F006
:100FB00089FB05E0002210214FF0904004F082FBF5
:100FC00000BF0837BD4680BD80B584B000AF034682
:100FD000FB710020FFF7C8FFFB7903F01F03DBB2B2
:100FE0003B7307F10C01642301220A4805F0AEFCB3
:100FF00007F10C03591C64230122064805F01BFE6F
:101000007B7BFB730120FFF7AFFFFB7B184610379C
:10101000BD4680BDF801002080B584B000AF034616
:101020003960FB711346BB710020FFF79DFFFB7910
:1010300003F01F03DBB23B7307F10C0164230122B1
:10104000084805F083FCBB799AB2642339680548E7
:1010500005F0F1FD0120FFF787FF00BF1037BD4607
:1010600080BD00BFF801002080B584B000AF03460A
:101070000A46FB711346BB710020FFF775FFFB7931
:1010800043F02003DBB23B73BB797B7307F10C01A8
:1010900064230222044805F059FC0120FFF764FF95
:1010A00000BF1037BD4680BDF801002080B584B078
:1010B00000AF03463960FB711346BB710020FFF798
:1010C00053FFFB7943F02003DBB23B7307F10C01C4
:1010D00064230122084805F039FCBB799AB26423E5
:1010E0003968054805F032FC0120FFF73DFF00BFDD
:1010F0001037BD4680BD00BFF801002080B584B028
:1011000000AF78600B46FB700020FFF72DFFA02397
:10111000FB7307F10F0164230122084805F016FC58
:10112000FB789AB264237968044805F00FFC01202B
:10113000FFF71AFF00BF1037BD4680BDF801002041
:1011400080B500AFFF21E120FFF78EFF00BF80BD1B
:1011500080B500AFFF21E220FFF786FF00BF80BD12
:1011600080B582B000AF0720FFF72EFF0346FB716A
:10117000FB7918460837BD4680BD000084B080B5B5
:1011800082B000AF07F1100C8CE80F00604B1846DE
:1011900007F110036422194608F071FC0120FFF7E3
:1011A000E3FE0020FFF7F8FE052001F091FF082183
:1011B0000020FFF759FF3F210120FFF755FF0321D2
:1011C0000220FFF751FF03210320FFF74DFF03210A
:1011D0000420FFF749FF02210520FFF745FF0F21FB
:1011E0000620FFF741FF0E210720FFF73DFF0021FA
:1011F0000820FFF739FF00210920FFF735FFE7231B
:101200003B71E723FB70E723BB70E7237B70E72389
:101210003B703B46052219460A20FFF747FFC223D1
:101220003B71C223FB70C223BB70C2237B70C223FD
:101230003B703B46052219460B20FFF737FFC321C1
:101240000C20FFF711FFC4210D20FFF70DFFC52172
:101250000E20FFF709FFC6210F20FFF705FFE72348
:101260003B71E723FB70E723BB70E7237B70E72329
:101270003B703B46052219461020FFF717FF00215F
:101280001120FFF7F1FE00211220FFF7EDFE0021F3
:101290001320FFF7E9FE00211420FFF7E5FE0021EF
:1012A0001520FFF7E1FE00211620FFF7DDFE00F01C
:1012B00093FA00211C20FFF7D7FE00211D20FFF725
:1012C000D3FE00F0A3FA0F210F2000F0A7F80320AF
:1012D00000F023F9012000F059F9022000F09CF9F8
:1012E00000F0EEF8202000F0CBF800F06DFA4C2072
:1012F00000F0B0F8FFF724FFFFF72AFF00F0C3F972
:1013000000BF0837BD46BDE8804004B0704700BF4D
:10131000F801002080B500AF0020FFF73DFEFFF789
:101320000FFFFFF715FF00BF80BD000080B586B03E
:1013300000AF78600B46FB7000F046FAFB78194668
:10134000786800F0DFF901F0B7FE78610A233B61AD
:1013500007F10D03012219460820FFF75DFEFFF794
:10136000FFFE0346FB73FB7B03F03003002B07D12A
:1013700001F0A2FE02467B69D31A3A699A42E7D885
:1013800007F10B0107F10C030C4A184600F0E9F9CC
:101390003B7BBB73094B1B78002B05D000F088F812
:1013A00003461A46064B1A7000F00CF8FFF7C8FE09
:1013B000BB7B18461837BD4680BD00BFF00100203A
:1013C000F101002080B500AF002000F06BF903466A
:1013D000184680BD80B584B000AFC7E900013B4628
:1013E000052219460A20FFF761FE3B4605221946F1
:1013F0001020FFF75BFE2023FB73074B1B78FA7B63
:10140000934228BF1346DBB219461120FFF72CFE8A
:1014100000BF1037BD4680BDF201002080B582B00C
:1014200000AF03460A46FB711346BB7197F90730BC
:101430001B015AB297F9063003F00F035BB2134356
:101440005BB2DBB219460420FFF70EFE00BF08377F
:10145000BD4680BD80B584B000AF0346FB717F23DD
:10146000FB73FA7BFB79934228BF1346DBB2194624
:101470000520FFF7F9FD00BF1037BD4680BD000015
:1014800080B485B000AF0346FB712023FB73FA7B69
:10149000FB79934228BF1346DAB2044B1A7000BF9F
:1014A0001437BD465DF8047B704700BFF201002091
:1014B00080B500AF6020FFF787FD0346184680BD6A
:1014C00080B500AF1D20FFF77FFD034623F0040326
:1014D000DBB219461D20FFF7C7FD00211C20FFF7D6
:1014E000C3FD024B00221A7000BF80BDF301002033
:1014F00080B582B000AF0346FB71FB79002B04D0AE
:101500003F210120FFF7B0FD03E000210120FFF79C
:10151000ABFD00BF0837BD4680BD80B584B000AFCD
:101520000346FB710620FFF74FFD0346FB73FB7B71
:1015300023F00603FB73FB79032B04D1FB7B43F001
:101540000603FB7319E0FB79022B04D1FB7B43F00C
:101550000403FB7311E0FB79012B04D1FB7B43F007
:101560000203FB7309E0FB79002B06D0FB79042B07
:1015700003D1FB7B43F00603FB73FB7B194606207C
:10158000FFF772FD00BF1037BD4680BD80B584B047
:1015900000AF0346FB710023FB730620FFF714FD29
:1015A0000346BB731B4B00221A70BB7B23F028033E
:1015B000BB73FB79022B07D1164B00221A70BB7B41
:1015C00043F02003BB730DE0FB79012B07D1114BD6
:1015D00001221A70BB7B43F00803BB7302E00D4B82
:1015E00000221A70BB7B19460620FFF73DFD06203E
:1015F000FFF7EAFC03461A46BB7B934202D1012364
:10160000FB7302E0034B00221A70FB7B1846103775
:10161000BD4680BDF401002080B584B000AF034614
:10162000FB710020FFF7D0FC034623F00C03FB7393
:10163000FB79002B0FD0FB79012B04D1FB7B43F00E
:101640000803FB7307E0FB7B43F00803FB73FB7BA2
:1016500043F00403FB73FB7B19460020FFF704FDF6
:1016600000BF1037BD4680BD80B500AF0020FFF73A
:10167000ABFC034643F00203DBB219460020FFF740
:10168000F3FC00BF80BD80B500AF0020FFF79CFCDD
:10169000034623F00203DBB219460020FFF7E4FC07
:1016A00000BF80BD80B584B000AF7860FFF758FD03
:1016B0000346FB73FB7B03F04003002B14BF0123A5
:1016C0000023BB73BB7B002B17D07B68002B07D09C
:1016D000FB7B5B08DBB203F00703DAB27B681A70AE
:1016E00040210720FFF7C0FCFB7B03F02003002B09
:1016F00003D020210720FFF7B7FCBB7B184610372B
:10170000BD4680BD80B582B000AF78600B46FB70EF
:101710000020FFF741FC0020FFF756FC034643F092
:101720000203DBB223F00103DBB219460020FFF70E
:101730009BFC0120FFF730FCC820FFF7F3FBFB7890
:1017400019467868FFF7DAFC0120FFF725FCC8206E
:10175000FFF7E8FB0020FFF71FFC00BF0837BD467E
:1017600080BD80B586B000AFF860B9607A60FFF7E1
:10177000F7FC0346FB75FB6800221A7070210720F6
:10178000FFF772FCFB7D03F02003002B14BF012345
:101790000023DAB2FB681A70FB7D03F01003002B04
:1017A00014BF01230023DAB2BB681A70FB7D03F07B
:1017B0004003002B14BF01230023DAB27B681A70A8
:1017C00000BF1837BD4680BD80B500AF702107202F
:1017D000FFF74AFC00BF80BD80B582B000AF00209B
:1017E000FFF7C2FB50233B7173237B71391D6423C8
:1017F0000222054805F0AAF80120FFF7B5FB00BF5B
:101800000837BD4680BD00BFF8010020F0B5A1B08B
:1018100004AF07F10803C349184608F04BF807F175
:1018200008031846FEF74CFD03469AB207F108017B
:101830000A23BD4806F098FC0020FFF7C5FB0346CD
:1018400087F86F3097F86F3003F00803002B13D040
:1018500097F86F3003F00403002B06D007F108035C
:10186000B249184608F026F80CE007F10803B04921
:10187000184608F01FF805E007F10803AD491846BF
:1018800008F018F807F108031846FEF719FD03469B
:101890009AB207F108010A23A34806F065FC01206B
:1018A000FFF792FB034687F86F3097F86F3003F02D
:1018B0000103002BCCBF01230023DBB21D4697F8A8
:1018C0006F3003F00203002BCCBF01230023DBB2F7
:1018D0001E4697F86F3003F00403002BCCBF0123A2
:1018E0000023DBB21A4697F86F3003F00803002B91
:1018F000CCBF01230023DBB2194697F86F3003F009
:101900001003002BCCBF01230023DBB21C4697F849
:101910006F3003F02003002BCCBF01230023DBB288
:1019200007F10800039302940191009233462A467E
:10193000814907F0BFFF07F108031846FEF7C0FC16
:1019400003469AB207F108010A23774806F00CFC17
:101950000220FFF739FB034687F86F3097F86F30A6
:1019600003F00103002BCCBF01230023DBB21D4693
:1019700097F86F3003F00203002BCCBF0123002344
:10198000DBB21E4697F86F3003F00403002BCCBF88
:1019900001230023DBB21A4697F86F3003F00803E7
:1019A000002BCCBF01230023DBB2194697F86F3020
:1019B00003F01003002BCCBF01230023DBB21C4635
:1019C00097F86F3003F02003002BCCBF01230023D6
:1019D000DBB207F1080003930294019100923346B1
:1019E0002A46564907F066FF07F108031846FEF736
:1019F00067FC03469AB207F108010A234A4806F039
:101A0000B3FB0320FFF7E0FA034603F0030387F874
:101A10006F3097F86F30023387F86F3097F86F2088
:101A200007F108034649184607F044FF07F1080389
:101A30001846FEF745FC03469AB207F108010A234F
:101A4000394806F091FB0520FFF7BEFA034687F8F8
:101A50006F3097F86F3003F07F0207F108033949C0
:101A6000184607F027FF07F108031846FEF728FC81
:101A700003469AB207F108010A232B4806F074FBCB
:101A80000620FFF7A1FA034687F86F3097F86F300A
:101A900003F00803002B06D007F108032A49184673
:101AA00007F008FF05E007F108032849184607F08A
:101AB00001FF07F108031846FEF702FC03469AB23D
:101AC00007F108010A23184806F04EFB97F86F301B
:101AD00003F0060387F86F3097F86F305B0887F8DC
:101AE0006F3097F86F30002B06D107F108031849C3
:101AF000184607F0DFFE3BE097F86F30012B06D168
:101B000007F108031349184607F0D4FE30E097F8B0
:101B10006F30022B22D107F108030F49184607F056
:101B2000C9FE25E038BB00085C0200206CBB000841
:101B300088BB0008A4BB0008B8BB0008FCBB0008B9
:101B400048BC000864BC000878BC000890BC0008D1
:101B5000A8BC0008BCBC0008D0BC000897F86F30D7
:101B6000032B05D107F10803D749184607F0A2FE59
:101B700007F108031846FEF7A3FB03469AB207F1E4
:101B800008010A23D14806F0EFFA3B460522194620
:101B90000A20FFF741FA3B791C46FB781D46BB78CB
:101BA0007A78397807F108000291019200932B4668
:101BB0002246C74907F07EFE07F108031846FEF7E4
:101BC0007FFB03469AB207F108010A23BF4806F0DB
:101BD000CBFA3B46052219460B20FFF71DFA3B794D
:101BE0001C46FB781D46BB787A78397807F10800E7
:101BF0000291019200932B462246B64907F05AFE05
:101C000007F108031846FEF75BFB03469AB207F19B
:101C100008010A23AD4806F0A7FA3B4601221946FF
:101C20000C20FFF7F9F93B781A4607F10803AA4997
:101C3000184607F03FFE07F108031846FEF740FB81
:101C400003469AB207F108010A23A04806F08CFA6D
:101C50003B46012219460D20FFF7DEF93B781A4674
:101C600007F108039D49184607F024FE07F1080311
:101C70001846FEF725FB03469AB207F108010A232E
:101C8000924806F071FA3B46012219460E20FFF7F2
:101C9000C3F93B781A4607F108039149184607F043
:101CA00009FE07F108031846FEF70AFB03469AB23D
:101CB00007F108010A23854806F056FA3B4601223F
:101CC00019460F20FFF7A8F93B781A4607F10803D9
:101CD0008449184607F0EEFD07F108031846FEF7A1
:101CE000EFFA03469AB207F108010A23774806F093
:101CF0003BFA3B46052219461020FFF78DF93B7948
:101D00001C46FB781D46BB787A78397807F10800C5
:101D10000291019200932B462246734907F0CAFDB7
:101D200007F108031846FEF7CBFA03469AB207F10B
:101D300008010A23654806F017FA1120FFF744F955
:101D4000034687F86F3097F86F3003F03F0207F1D2
:101D500008036649184607F0ADFD07F10803184669
:101D6000FEF7AEFA03469AB207F108010A23574874
:101D700006F0FAF91220FFF727F9034687F86F30CB
:101D800097F86F3003F03F0207F1080358491846EF
:101D900007F090FD07F108031846FEF791FA034695
:101DA0009AB207F108010A23484806F0DDF913202A
:101DB000FFF70AF9034687F86F3097F86F3003F0A2
:101DC0003F0207F108034B49184607F073FD07F17E
:101DD00008031846FEF774FA03469AB207F10801A1
:101DE0000A233A4806F0C0F91420FFF7EDF803463D
:101DF00087F86F3097F86F3003F03F0207F1080360
:101E00003D49184607F056FD07F108031846FEF74E
:101E100057FA03469AB207F108010A232B4806F045
:101E2000A3F91520FFF7D0F8034687F86F3097F82D
:101E30006F3003F03F0207F108033049184607F0FE
:101E400039FD07F108031846FEF73AFA03469AB23D
:101E500007F108010A231D4806F086F91620FFF74E
:101E6000B3F8034687F86F3097F86F3003F03F02FE
:101E700007F108032249184607F01CFD07F1080383
:101E80001846FEF71DFA03469AB207F108010A2325
:101E90000E4806F069F91C20FFF796F8034687F80C
:101EA0006F3097F86F3003F00103002BCCBF012394
:101EB0000023DBB21D4697F86F3003F00203002BBE
:101EC000CCBF012300231DE0E4BC00085C0200201D
:101ED000F8BC000828BD000858BD000880BD0008F7
:101EE000A8BD0008D0BD0008F8BD000824BE000849
:101EF00040BE00085CBE000878BE000894BE000822
:101F0000B0BE0008DBB21E4697F86F3003F0040342
:101F1000002BCCBF01230023DBB21A4697F86F30A9
:101F200003F00803002BCCBF01230023DBB21946CA
:101F300097F86F3003F01003002BCCBF0123002370
:101F4000DBB21C4697F86F3003F02003002BCCBFA8
:101F500001230023DBB207F10800039302940191EF
:101F6000009233462A46364907F0A4FC07F10803DD
:101F70001846FEF7A5F903469AB207F108010A23AD
:101F8000304806F0F1F81D20FFF71EF8034687F8E9
:101F90006F3097F86F3003F00403002B06D007F181
:101FA00008032949184607F085FC05E007F10803F6
:101FB0002649184607F07EFC07F108031846FEF78D
:101FC0007FF903469AB207F108010A231D4806F07B
:101FD000CBF897F86F3003F00203002B06D007F11F
:101FE00008031B49184607F065FC05E007F10803E4
:101FF0001849184607F05EFC07F108031846FEF77B
:102000005FF903469AB207F108010A230D4806F06A
:10201000ABF807F108031049184607F04BFC07F12D
:1020200008031846FEF74CF903469AB207F1080177
:102030000A23044806F098F800BF7437BD46F0BD87
:10204000CCBE00085C02002018BF000830BF0008AA
:1020500048BF000864BF000838BB0008B0B59EB098
:1020600004AF3B463649184607F024FC3B46184669
:10207000FEF726F903469AB239460A23314806F09C
:1020800073F80720FEF7A0FF034687F8673097F83C
:10209000673003F04003002BCCBF01230023DBB2E9
:1020A0001C4697F8673003F02003002BCCBF0123B8
:1020B0000023DBB21D4697F8673003F01003002BB6
:1020C000CCBF01230023DBB21A4697F8673003F038
:1020D0000603002BCCBF01230023DBB2194697F87F
:1020E000673003F00103002BCCBF01230023DBB2D8
:1020F00038460293019100922B462246124907F07E
:10210000D9FB3B461846FEF7DBF803469AB2394640
:102110000A230C4806F028F83B460949184607F000
:10212000C9FB3B461846FEF7CBF803469AB2394640
:102130000A23044806F018F800BF6837BD46B0BD52
:1021400080BF00085C020020A0BF000880B59AB0E4
:1021500000AF3B462549184607F0ACFB3B46184606
:10216000FEF7AEF803469AB239460A23204805F036
:10217000FBFF0020FEF728FF034687F8673097F83B
:10218000673003F00203002BCCBF01230023DBB236
:102190001A4697F8673003F00103002BCCBF0123E8
:1021A0000023DBB23846134907F084FB3B46184650
:1021B000FEF786F803469AB239460A230C4805F022
:1021C000D3FF3B460949184607F074FB3B461846C7
:1021D000FEF776F803469AB239460A23044805F01A
:1021E000C3FF00BF6837BD4680BD00BF80BF000889
:1021F0005C020020F8BF000884B080B500AF07F192
:10220000080C8CE80F00074B184607F108039422CE
:10221000194607F034FC00BFBD46BDE8804004B05D
:10222000704700BF5C02002090B59DB002AF3B46F6
:102230003149184607F03EFB3B461846FEF740F88A
:1022400003469AB239460A232C4805F08DFF172021
:10225000FEF7BAFE034687F8673097F8673003F059
:102260002003002BCCBF01230023DBB2194697F8D3
:10227000673003F01003002BCCBF01230023DBB237
:102280001C4697F8673003F00203002BCCBF0123F4
:102290000023DBB21A4697F8673003F00103002BE6
:1022A000CCBF01230023DBB23846019300922346C2
:1022B0000A46134907F0FEFA3B461846FEF700F8B7
:1022C00003469AB239460A230C4805F04DFF3B46B7
:1022D0000949184607F0EEFA3B461846FDF7F0FFAD
:1022E00003469AB239460A23044805F03DFF00BF71
:1022F0006C37BD4690BD00BF80BF00085C02002067
:1023000024C0000880B582B000AF78607B681B688D
:10231000094A93420BD1094B5B68094A9360074B0A
:102320001B68074A53600C210548FEF7FFFF00BFFA
:102330000837BD4680BD00BF0004004014050020E2
:102340001C0500202DE99043A3B022AF224C684623
:1023500004F110035422194607F091FB94E80F0092
:10236000FEF70CFF1D4C684604F110038422194649
:1023700007F085FB94E80F00FFF73EFF0220FFF710
:1023800005F90120FFF748F90320FFF7C6F86F2091
:10239000FFF760F80C20FFF773F8FFF791F80020C3
:1023A000FFF7A6F8FFF760F9FEF7B4FF4FF480627D
:1023B00000239046994640464946FFF70BF8FFF741
:1023C00025FAFFF74BFEFFF7C1FEFFF72DFF00BF19
:1023D0000437BD46BDE89083D00300208004002070
:1023E00080B582B000AF7860391D4FF6FF730122CF
:1023F000034805F0B9FE00BF18460837BD4680BD4A
:102400008004002080B582B000AF00F0F0FD00F045
:1024100061F800F057FA00F02BFA00F0A9F800F08C
:10242000DBF900F043F900F02BF900F085F97F218A
:102430001E4802F00BFB052000F04AFE1C4807F086
:1024400027FAFFF77FFF41F2883000F041FE19497B
:10245000194804F07AF90346FB71FB79002B06D189
:10246000144B1B681946154807F012FA01E000F0FA
:10247000BBFA134805F04CF9022212490B4801F04F
:1024800033FA0C4B1B6819460F4807F001FA094B49
:102490009B6819460D4807F0FBF9064B5B68194627
:1024A0000B4807F0F5F900BFEBE700BFF002002092
:1024B0007CC000081C050020BC0300208CC0000864
:1024C0003404002014050020A8C00008B8C000088B
:1024D000C4C0000880B594B000AF07F118033822DB
:1024E0000021184607F04BFA3B1D00221A605A6083
:1024F0009A60DA601A614FF4007003F01FF922232A
:10250000BB614FF480737B624023BB6201233B635A
:1025100002237B630223BB630423FB6355233B64D9
:1025200002237B640223BB640223FB6407F11803CC
:10253000184603F0B7F90346002B01D000F054FA17
:102540000F237B600323BB608023FB6000233B6180
:1025500000237B613B1D0221184603F0B5FC0346B6
:10256000002B01D000F040FA00BF5037BD4680BDBF
:1025700080B58CB000AF07F1240300221A605A60C6
:102580009A603B1D20220021184607F0F8F9394BCC
:102590004FF0A0421A60374B4FF4E0125A60354BAF
:1025A00000229A60334B0022DA60324B00221A611B
:1025B000304B01225A612F4B04229A612D4B00228D
:1025C0001A772C4B01225A772A4B02221A62294B86
:1025D000002283F82420274B0022DA62254B0022B8
:1025E0001A63244B012283F83820224B0022DA633D
:1025F000204B002283F840201E4800F0F1FF0346E4
:10260000002B01D000F0F0F900237B6207F12403D6
:102610001946184802F0AEFA0346002B01D000F02C
:10262000E3F9154B7B600623BB600423FB607F232B
:102630003B6104237B610023BB613B1D19460D48B0
:1026400001F048FC0346002B01D000F0CDF90B4B04
:102650007B600C23BB603B1D1946064801F03AFC29
:102660000346002B01D000F0BFF900BF3037BD4654
:1026700080BD00BFF00200200200300404006008AA
:1026800080B500AF074B084A1A60064B00225A601B
:10269000044804F025F80346002B01D000F0A4F90B
:1026A00000BF80BDBC0300200008065080B500AF0D
:1026B0001F4B204A1A601E4B4FF482725A601C4B0B
:1026C00000229A601A4B4FF4E062DA60184B002245
:1026D0001A61174B00225A61154B4FF400729A6130
:1026E000134B1822DA61124B00221A62104B00229F
:1026F0005A620F4B00229A620D4B0722DA620C4B92
:1027000000221A630A4B00225A63094804F073F846
:102710000346002B01D000F067F9054B1B681A68CF
:10272000034B1B6842F040021A6000BF80BD00BF2F
:10273000D00300200030014080B588B000AF07F121
:10274000100300221A605A609A60DA603B1D002272
:102750001A605A609A601E4B1E4A1A601C4B40F267
:102760008A225A601A4B00229A60194B40F28B223F
:10277000DA60174B00221A61154B00229A61144847
:1027800004F06EFF0346002B01D000F02DF94FF44A
:1027900080533B6107F1100319460D4805F072F9AB
:1027A0000346002B01D000F01FF900237B600023BB
:1027B000FB603B1D1946064805F0BEFB0346002B97
:1027C00001D000F011F900BF2037BD4680BD00BF29
:1027D000340400200004004080B500AF224B234A9F
:1027E0001A60214B4FF4E1325A601F4B00229A606D
:1027F0001D4B0022DA601C4B00221A611A4B0C227E
:102800005A61194B00229A61174B0022DA61164B6C
:1028100000221A62144B00225A62134B00229A6261
:10282000114805F051FC0346002B01D000F0DCF804
:1028300000210D4806F04AFA0346002B01D000F0B3
:10284000D3F80021084806F07FFA0346002B01D098
:1028500000F0CAF8044806F000FA0346002B01D045
:1028600000F0C2F800BF80BD80040020004400409A
:1028700080B582B000AF124B9B6C114A43F0040349
:1028800093640F4B9B6C03F004037B607B680C4BE1
:102890009B6C0B4A43F001039364094B9B6C03F060
:1028A00001033B603B68002201210B2002F0E1FAAA
:1028B0000B2002F0F8FA00BF0837BD4680BD00BF0C
:1028C0000010024080B588B000AF07F10C03002271
:1028D0001A605A609A60DA601A61414BDB6C404AB8
:1028E00043F02003D3643E4BDB6C03F02003BB605A
:1028F000BB683B4BDB6C3A4A43F00103D364384B73
:10290000DB6C03F001037B607B68354BDB6C344A86
:1029100043F00203D364324BDB6C03F002033B60F1
:102920003B68002210214FF0904002F0CBFE0022C5
:1029300040F201112B4802F0C5FE0223FB60032385
:102940003B6100237B6107F10C0319464FF0904077
:1029500002F036FD1023FB6001233B6100237B6105
:102960000023BB6107F10C0319464FF0904002F0C1
:1029700027FD0123FB6001233B6101237B610023D1
:10298000BB6107F10C031946164802F019FD4023FC
:10299000FB604FF404133B6100237B6107F10C03E0
:1029A0001946104802F00CFD4FF48073FB600123C0
:1029B0003B6100237B610023BB6107F10C031946D7
:1029C000084802F0FDFC00220121172002F051FA14
:1029D000172002F068FA00BF2037BD4680BD00BF57
:1029E000001002400004004880B500AF72B600BF7E
:1029F000014806F04DFFFBE7D0C0000880B582B06B
:102A000000AF0F4B1B6E0E4A43F0010313660C4BD5
:102A10001B6E03F001037B607B68094B9B6D084ACA
:102A200043F080539365064B9B6D03F080533B60EE
:102A30003B6802F027FF00BF0837BD4680BD00BFDE
:102A40000010024080B59AB000AF786007F15403DF
:102A500000221A605A609A60DA601A6107F1100366
:102A600044220021184606F08AFF7B681B68B3F1F8
:102A7000A04F67D14FF400433B614FF00053FB641C
:102A800007F11003184603F03BFC0346002B01D06E
:102A9000FFF7AAFF2D4BDB6C2C4A43F40053D364A1
:102AA0002A4BDB6C03F40053FB60FB68274BDB6CA9
:102AB000264A43F00103D364244BDB6C03F001038B
:102AC000BB60BB6803237B650323BB650023FB65F9
:102AD00007F1540319464FF0904002F071FC1C4B73
:102AE0001C4A1A601A4B05225A60194B00229A6040
:102AF000174B0022DA60164B80221A61144B4FF4F8
:102B000000725A61124B4FF400629A61104B2022FE
:102B1000DA610F4B00221A620D4802F0DFF903461A
:102B2000002B01D0FFF760FF7B68094A5A65084A0D
:102B30007B68936200220121122002F09AF9122090
:102B400002F0B1F900BF6837BD4680BD00100240F9
:102B50005C0300200800024080B594B000AF7860AC
:102B600007F10C0344220021184606F008FF7B6899
:102B70001B68114A93421AD14FF48043FB60002333
:102B80007B6407F10C03184603F0BAFB0346002BE5
:102B900001D0FFF729FF094BDB6C084A43F0806343
:102BA000D364064BDB6C03F08063BB60BB6800BF83
:102BB0005037BD4680BD00BF0008065000100240DF
:102BC00080B58AB000AF786007F1140300221A6064
:102BD0005A609A60DA601A617B681B68174A9342F0
:102BE00028D1174B1B6E164A43F480531366144BBF
:102BF0001B6E03F480533B613B69114BDB6C104A45
:102C000043F00103D3640E4BDB6C03F00103FB6064
:102C1000FB68E0237B610223BB610023FB6100238F
:102C20003B6205237B6207F1140319464FF0904085
:102C300002F0C6FB00BF2837BD4680BD0030014012
:102C40000010024080B584B000AF78607B681B68DC
:102C50000D4A934213D10D4B9B6D0C4A43F0020376
:102C600093650A4B9B6D03F00203FB60FB68002237
:102C700001211D2002F0FDF81D2002F014F900BF13
:102C80001037BD4680BD00BF000400400010024068
:102C900080B59AB000AF786007F1540300221A6043
:102CA0005A609A60DA601A6107F110034422002129
:102CB000184606F064FE7B681B681F4A934236D1B3
:102CC00002233B610023BB6107F11003184603F0A8
:102CD00017FB0346002B01D0FFF786FE174B9B6DB9
:102CE000164A43F400339365144B9B6D03F4003391
:102CF000FB60FB68114BDB6C104A43F00103D364AB
:102D00000E4BDB6C03F00103BB60BB680C237B65DF
:102D10000223BB650023FB6500233B6607237B661C
:102D200007F1540319464FF0904002F049FB00BFF1
:102D30006837BD4680BD00BF00440040001002401F
:102D400080B400AF00BFFDE780B400AF00BFFDE777
:102D500080B400AF00BFFDE780B400AF00BFFDE767
:102D600080B400AF00BFFDE780B400AF00BFBD4638
:102D70005DF8047B704780B400AF00BFBD465DF8CE
:102D8000047B704780B400AF00BFBD465DF8047B94
:102D9000704780B500AF00F07DF900BF80BD000036
:102DA00080B500AF024802F0BCF900BF80BD00BF93
:102DB0005C03002080B500AF024800F049FE00BF70
:102DC00080BD00BFF002002080B500AF402002F0BF
:102DD00091FC00BF80BD000080B500AF024804F048
:102DE00001FD00BF80BD00BF3404002080B400AFEF
:102DF00001231846BD465DF8047B704780B582B05C
:102E000000AF7860396006F00DFE034616221A60A6
:102E10004FF0FF3318460837BD4680BD80B582B0FD
:102E200000AF78604FF0FF317868FFF7E7FF00BF31
:102E3000FDE780B586B000AFF860B9607A60002326
:102E40007B610AE0AFF300800146BB685A1CBA60A0
:102E5000CAB21A707B6901337B617A697B689A42D6
:102E6000F0DB7B6818461837BD4680BD80B586B05C
:102E700000AFF860B9607A6000237B6109E0BB684D
:102E80005A1CBA601B781846FFF7AAFA7B6901330F
:102E90007B617A697B689A42F1DB7B681846183758
:102EA000BD4680BD80B483B000AF78604FF0FF3383
:102EB00018460C37BD465DF8047B704780B483B07C
:102EC00000AF786039603B684FF400525A600023CD
:102ED00018460C37BD465DF8047B704780B483B05C
:102EE00000AF7860012318460C37BD465DF8047BBF
:102EF000704780B485B000AFF860B9607A60002395
:102F000018461437BD465DF8047B704780B586B01F
:102F100000AF7860144A154BD31A7B617B693B6123
:102F2000134B1B68002B02D1114B124A1A60104B35
:102F30001A687B6813443A699A4207D206F072FD18
:102F400003460C221A604FF0FF3309E0084B1B6860
:102F5000FB60074B1A687B681344054A1360FB68E3
:102F600018461837BD4680BD0080002000040000D0
:102F7000280500208006002080B400AF064BD3F85F
:102F80008830054A43F47003C2F8883000BFBD465C
:102F90005DF8047B704700BF00ED00E00D488546FA
:102FA000FFF7EAFF0C480D490D4A002302E0D45810
:102FB000C4500433C4188C42F9D30A4A0A4C002383
:102FC00001E013600432A242FBD306F031FDFFF7AB
:102FD00019FAFEE70080002000000020D401002044
:102FE000ACC40008D40100207C060020FEE780B5B8
:102FF00082B000AF0023FB71032001F02FFF0020FF
:1030000000F00EF80346002B02D00123FB7101E013
:10301000FFF7F4FCFB7918460837BD4680BD000079
:1030200080B584B000AF78600023FB73164B1B683B
:10303000002B22D0154B1A68134B1B684FF47A7182
:10304000B1FBF3F3B2FBF3F3184601F03AFF03468A
:10305000002B0FD17B680F2B09D8002279684FF025
:10306000FF3001F006FF0A4A7B68136007E0012386
:10307000FB7304E00123FB7301E00123FB73FB7B83
:1030800018461037BD4680BD080000200000002013
:103090000400002080B400AF054B1A68054B1B6884
:1030A0001344034A136000BFBD465DF8047B7047BC
:1030B0002C0500200800002080B400AF034B1B68E3
:1030C0001846BD465DF8047B704700BF2C05002004
:1030D00080B584B000AF7860FFF7EEFFB8607B6822
:1030E000FB60FB68B3F1FF3F04D0094B1B68FA6833
:1030F0001344FB6000BFFFF7DFFF0246BB68D31A33
:10310000FA689A42F7D800BF00BF1037BD4680BDAD
:103110000800002080B483B000AF786039607B681D
:103120009B6823F47C123B681A437B689A6000BF5B
:103130000C37BD465DF8047B704780B483B000AFA8
:10314000786039607B689B6823F0E0723B681A43C3
:103150007B689A6000BF0C37BD465DF8047B704702
:1031600080B483B000AF78607B689B6803F0E07345
:1031700018460C37BD465DF8047B704780B487B0B5
:1031800000AFF860B9607A603B60FB6860331A4654
:10319000BB689B0013447B617B691A68084B134032
:1031A0007A6802F0F8413A680A43134343F0004258
:1031B0007B691A6000BF1C37BD465DF8047B704711
:1031C00000F0FF0380B485B000AF786039607B68A1
:1031D00060331A463B689B001344FB60FB681B6826
:1031E00003F0F84318461437BD465DF8047B70477A
:1031F00080B487B000AFF860B9607A60FB68603374
:103200001A46BB689B0013447B617B691B6823F0F3
:1032100000427B681A437B691A6000BF1C37BD46B9
:103220005DF8047B704780B487B000AFF860B96088
:103230007A60FB6860331A46BB689B0013447B616D
:103240007B691B6823F080727B681A437B691A6074
:1032500000BF1C37BD465DF8047B704780B487B063
:1032600000AFF860B9607A60FB6860331A46BB68EB
:103270009B0013447B617B691B6823F000727B68B1
:103280001A437B691A6000BF1C37BD465DF8047B9A
:10329000704780B483B000AF786039607B685B6949
:1032A00023F000423B681A437B685A6100BF0C3729
:1032B000BD465DF8047B704780B483B000AF786092
:1032C0007B68DB6803F44063002B01D1012300E03D
:1032D000002318460C37BD465DF8047B704780B468
:1032E00087B000AFF860B9607A60FB6830331A4687
:1032F000BB681B0A9B0003F00C0313447B617B69D2
:103300001A68BB6803F01F031F2101FA03F3DB43B4
:103310001A407B689B0E03F01F01BB6803F01F037C
:1033200001FA03F31A437B691A6000BF1C37BD46DC
:103330005DF8047B704780B483B000AF78607B6831
:10334000DB6C03F4C073002B01D1012300E00023E8
:1033500018460C37BD465DF8047B704780B487B0D3
:1033600000AFF860B9607A60FB6814331A46BB6836
:103370005B0E9B0003F0040313447B617B691A68B6
:10338000BB681B0D03F01F03072101FA03F3DB43A6
:103390001A40BB681B0D03F01F03796801FA03F3A1
:1033A0001A437B691A6000BF1C37BD465DF8047B79
:1033B0007047000080B485B000AFF860B9607A60F3
:1033C000FB68D3F8B020BB68C3F31203DB431A4099
:1033D0007B6803F018030849D940BB680B40C3F36E
:1033E00012031A43FB68C3F8B02000BF1437BD4670
:1033F0005DF8047B704700BFFFFF070080B483B017
:1034000000AF78607B689B6803F01F0318460C3799
:10341000BD465DF8047B704780B483B000AF786030
:103420007B689B6803F4604318460C37BD465DF823
:10343000047B704780B483B000AF78607B689B6882
:1034400023F0204323F03F037A68936000BF0C37DA
:10345000BD465DF8047B704780B483B000AF7860F0
:103460007B689B6803F00053B3F1005F01D1012337
:1034700000E0002318460C37BD465DF8047B70471A
:1034800080B483B000AF78607B689B6823F0104302
:1034900023F03F0343F080527B689A6000BF0C37F3
:1034A000BD465DF8047B704780B483B000AF7860A0
:1034B0007B689B6803F08053B3F1805F01D10123E7
:1034C00000E0002318460C37BD465DF8047B7047CA
:1034D00080B483B000AF78607B689B6823F00043C2
:1034E00023F03F0343F001027B689A6000BF0C3772
:1034F000BD465DF8047B704780B483B000AF786050
:103500007B689B6823F0004323F03F0343F00202F3
:103510007B689A6000BF0C37BD465DF8047B70473E
:1035200080B483B000AF78607B689B6803F00103D0
:10353000012B01D1012300E0002318460C37BD46C2
:103540005DF8047B704780B483B000AF78607B681F
:103550009B6803F00203022B01D1012300E000234A
:1035600018460C37BD465DF8047B704780B483B0C5
:1035700000AF78607B689B6823F0004323F03F0333
:1035800043F004027B689A6000BF0C37BD465DF8CB
:10359000047B704780B483B000AF78607B689B6821
:1035A00003F00403042B01D1012300E0002318469B
:1035B0000C37BD465DF8047B704780B483B000AF24
:1035C00078607B689B6803F00803082B01D1012316
:1035D00000E0002318460C37BD465DF8047B7047B9
:1035E00090B589B000AF78600023FB770023FB60C3
:1035F0007B68002B01D1012367E17B685B69002BAD
:103600007B68DB6D002B09D17868FFF71BFA7B68BC
:1036100000221A667B68002283F858207B681B68AA
:103620001846FFF719FF0346002B04D07B681B6880
:103630001846FFF7FFFE7B681B681846FFF734FF4C
:103640000346002B15D17B681B681846FFF718FF4F
:10365000A04B1B689B09A04AA2FB03239B090133D3
:103660005B00FB6002E0FB68013BFB60FB68002B3A
:10367000F9D17B681B681846FFF716FF0346002B3D
:103680000DD17B68DB6D43F010027B68DA657B68E7
:103690001B6E43F001027B681A660123FB777B688F
:1036A0001B681846FFF776FF78617B68DB6D03F0D7
:1036B0001003002B40F000817B69002B40F0FC8060
:1036C0007B68DB6D23F4817343F002027B68DA656B
:1036D0007B681B681846FFF723FF0346002B11D1B8
:1036E0004FF0A040FFF71CFF04467C48FFF718FF8F
:1036F00003462343002B05D17B685B681946784855
:10370000FFF708FD7B685B7F5A037B68DB6B1A431E
:103710007B68DB681A437B689B681A437B6893F875
:1037200024301B041343BB617B6893F82430012BC6
:1037300006D17B689B6A013B5B04BA691343BB619A
:103740007B68DB6A002B09D07B68DB6A03F4787244
:103750007B681B6B1343BA691343BB617B681B68AF
:10376000DA68604B13407A681268B9690B43D3601A
:103770007B681B681B6923F040617B685A6B7B6820
:103780001B680A431A617B681B681846FFF715FF20
:1037900038617B69002B6DD13B69002B6AD17B6856
:1037A0001B7F9A037B6893F838305B001343BB613F
:1037B0007B681B68DB6823F4804323F002037A688C
:1037C0001268B9690B43D3607B681B69002B17D063
:1037D0007B681B681A697B681B6842F480321A6137
:1037E0007B681B68D3F8C03023F47F5323F03F037A
:1037F0007A6811697A6812680B43C2F8C03013E026
:103800007B681B681A697B681B6822F480321A6126
:103810007B681B68D3F8C0307A68126823F47F5342
:1038200023F03F03C2F8C0307B6893F84030012B8F
:1038300018D17B681B681B6923F4FF6323F0040322
:103840007A68516C7A68926C11437A68D26C114331
:103850007A68126D0A431A437B681B6842F00102C2
:103860001A6107E07B681B681A697B681B6822F095
:1038700001021A617B685B69012B0CD17B681B68B4
:103880001B6B23F00F017B681B6A5A1E7B681B6849
:103890000A431A6307E07B681B681A6B7B681B6826
:1038A00022F00F021A637B68DB6D23F0030343F001
:1038B00001027B68DA6507E07B68DB6D43F010028C
:1038C0007B68DA650123FB77FB7F18462437BD460A
:1038D00090BD00BF00000020632D3E050001005098
:1038E000000300500740F0FF80B586B000AFF860DD
:1038F000B9607A605148FFF781FD3861FB681B6849
:103900001846FFF747FE0346002B40F08F80FB6808
:1039100093F85830012B01D102238AE0FB68012281
:1039200083F858203B69002B05D03B69052B02D05A
:103930003B69092B73D1F86800F0BCFE0346FB75A8
:10394000FB7D002B66D1FB68DB6D23F4706323F0F5
:10395000010343F48072FB68DA65FB681B68384A30
:10396000934202D0FB681B6801E04FF0A043FA6865
:103970001268934202D03B69002B05D1FB68DB6DD6
:1039800023F48012FB68DA65FB68DB6D03F4805377
:10399000002B06D0FB681B6E23F00602FB681A663C
:1039A00002E0FB6800221A66FB685B6D254ADA625A
:1039B000FB685B6D244A1A63FB685B6D234A5A639C
:1039C000FB681B681C221A60FB68002283F85820E1
:1039D000FB681B685A68FB681B6842F010025A605B
:1039E000FB681B68DA68FB681B6842F00102DA605A
:1039F000FB68586DFB681B6840331946BA687B68E2
:103A000001F014FB0346FB75FB681B681846FFF7C3
:103A1000ADFD0DE0FB68002283F8582008E001238B
:103A2000FB75FB68002283F8582001E00223FB7538
:103A3000FB7D18461837BD4680BD00BF000300500F
:103A4000000100507F4800085749000873490008EA
:103A500080B58AB000AF786000237B627B681B680A
:103A60001B68FB617B681B685B68BB618348FFF771
:103A7000C5FC7861FB6903F00203002B17D0BB691A
:103A800003F00203002B12D07B68DB6D03F0100300
:103A9000002B05D17B68DB6D43F400627B68DA653F
:103AA000786801F05DF87B681B6802221A60FB6988
:103AB00003F00403002B04D0BB6903F00403002BC4
:103AC0000AD1FB6903F00803002B00F08580BB6975
:103AD00003F00803002B7FD07B68DB6D03F010033D
:103AE000002B05D17B68DB6D43F400727B68DA65DF
:103AF0007B681B681846FFF7DFFB0346002B64D08A
:103B00007B681B685E4A934202D07B681B6801E0B9
:103B10004FF0A0437A681268934208D07B69002B6B
:103B200005D07B69052B02D07B69092B04D17B680A
:103B30001B68DB683B620DE07B681B68504A934260
:103B400002D07B681B6801E04FF0A0433B613B69FA
:103B5000DB683B623B6A03F40053002B35D17B6882
:103B60001B681B6803F00803082B2ED17B681B68B9
:103B70001846FFF70FFD0346002B1AD17B681B6820
:103B80005A687B681B6822F00C025A607B68DB6D08
:103B900023F480727B68DA657B68DB6D03F4805305
:103BA000002B12D17B68DB6D43F001027B68DA6584
:103BB0000BE07B68DB6D43F010027B68DA657B68A5
:103BC0001B6E43F001027B681A66786800F05AF9B0
:103BD0007B681B680C221A60FB6903F02003002B32
:103BE00004D0BB6903F02003002B0BD1FB6903F069
:103BF0004003002B00F09E80BB6903F04003002BC4
:103C000000F098807B68DB6D03F01003002B05D17A
:103C10007B68DB6D43F400527B68DA657B681B6868
:103C20001846FFF788FBF8607B681B681846FFF7AB
:103C300043FBB8607B681B68114A934202D07B68E3
:103C40001B6801E04FF0A0437A681268934208D0E5
:103C50007B69002B05D07B69062B02D07B69072B83
:103C600004D17B681B68DB683B6211E07B681B68E2
:103C7000034A934206D07B681B6805E000030050AE
:103C8000000100504FF0A0433B613B69DB683B62A1
:103C9000FB68002B47D03B6A03F00073002B07D072
:103CA000BB68002B3FD03B6A03F40053002B3AD192
:103CB0007B681B681B6803F04003402B33D13B6AD1
:103CC00003F40013002B2ED17B681B681846FFF706
:103CD00074FC0346002B1AD17B681B685A687B680A
:103CE0001B6822F060025A607B68DB6D23F480520F
:103CF0007B68DA657B68DB6D03F48073002B12D17F
:103D00007B68DB6D43F001027B68DA650BE07B6862
:103D1000DB6D43F010027B68DA657B681B6E43F055
:103D200001027B681A66786800F0F2FE7B681B6807
:103D300060221A60FB6903F08003002B11D0BB697D
:103D400003F08003002B0CD07B68DB6D43F48032E2
:103D50007B68DA65786800F0A9F87B681B688022C8
:103D60001A60FB6903F48073002B12D0BB6903F463
:103D70008073002B0DD07B68DB6D43F400327B68D1
:103D8000DA65786800F0D8FE7B681B684FF48072B3
:103D90001A60FB6903F40073002B12D0BB6903F4B3
:103DA0000073002B0DD07B68DB6D43F480227B68B1
:103DB000DA65786800F0CAFE7B681B684FF4007211
:103DC0001A60FB6903F01003002B36D0BB6903F0C7
:103DD0001003002B31D07B68DB6B002B02D1012359
:103DE0007B6214E07B69002B08D02548FFF714FBA9
:103DF0000346002B0BD001237B6208E07B681B6825
:103E0000DB6803F00103002B01D001237B627B6A96
:103E1000012B0ED17B68DB6D43F480627B68DA6531
:103E20007B681B6E43F002027B681A66786800F0BC
:103E300047F87B681B6810221A60FB6903F48063F3
:103E4000002B18D0BB6903F48063002B13D07B6870
:103E5000DB6D43F480427B68DA657B681B6E43F060
:103E600008027B681A667B681B684FF480621A60E0
:103E7000786800F057FE00BF2837BD4680BD00BF00
:103E80000003005080B483B000AF786000BF0C37EF
:103E9000BD465DF8047B704780B483B000AF7860A6
:103EA00000BF0C37BD465DF8047B704780B483B01B
:103EB00000AF786000BF0C37BD465DF8047B7047EB
:103EC00080B483B000AF786000BF0C37BD465DF8AA
:103ED000047B704780B5B6B000AF786039600023CE
:103EE00087F8D7300023FB607B6893F85830012BAC
:103EF00001D10223C8E37B68012283F858207B6844
:103F00001B681846FFF746FB0346002B40F0AD83C5
:103F10007B6818683B6859683B681B681A46FFF75E
:103F2000DEF97B681B681846FFF734FBC7F8D00042
:103F30007B681B681846FFF740FBC7F8CC00D7F832
:103F4000D030002B40F0D981D7F8CC30002B40F096
:103F5000D4813B689B68B3F1004F0FD17B68186830
:103F60003B681B6800221946FFF7F8F97B681B685D
:103F70004FF000411846FFF78CF90EE07B68186897
:103F80003B6819683B689B681A46FFF7E7F97B684E
:103F90001B6800211846FFF77CF93B685A697B686B
:103FA0001B68DB68DB0803F003035B0002FA03F322
:103FB000C7F8C8303B681B69042B22D07B6818689F
:103FC0003B6819693B681A68D7F8C830FFF7D6F81C
:103FD0007B6818683B6819693B689B691A46FFF75C
:103FE00022F97B6818683B6819693B681B7F012BC5
:103FF00002D14FF0007300E000231A46FFF72EF9BC
:104000007BE17B681B6800211846FFF7DBF803465D
:10401000C3F31203002B0AD17B681B6800211846EA
:10402000FFF7D0F803469B0E03F01F021EE07B68EB
:104030001B6800211846FFF7C5F80346C7F8BC30D7
:10404000D7F8BC3093FAA3F3C7F8C030D7F8C03024
:10405000C7F8B830D7F8B830002B01D1202304E0DE
:10406000D7F8B830B3FA83F3DBB21A463B681B6863
:10407000C3F31203002B05D13B681B689B0E03F0B2
:104080001F0318E03B681B68C7F8B030D7F8B030A2
:1040900093FAA3F3C7F8AC30D7F8AC30C7F8B43014
:1040A000D7F8B430002B01D1202304E0D7F8B43086
:1040B000B3FA83F3DBB29A4206D17B681B68002215
:1040C00000211846FFF794F87B681B680121184609
:1040D000FFF778F80346C3F31203002B0AD17B687D
:1040E0001B6801211846FFF76DF803469B0E03F08D
:1040F0001F021EE07B681B6801211846FFF762F86B
:104100000346C7F8A430D7F8A43093FAA3F3C7F84E
:10411000A030D7F8A030C7F8A830D7F8A830002BC7
:1041200001D1202304E0D7F8A830B3FA83F3DBB23F
:104130001A463B681B68C3F31203002B05D13B688A
:104140001B689B0E03F01F0318E03B681B68C7F851
:104150009830D7F8983093FAA3F3C7F89430D7F88B
:104160009430C7F89C30D7F89C30002B01D1202325
:1041700004E0D7F89C30B3FA83F3DBB29A4206D15D
:104180007B681B68002201211846FFF731F87B6825
:104190001B6802211846FFF715F80346C3F3120304
:1041A000002B0AD17B681B6802211846FFF70AF82A
:1041B00003469B0E03F01F021EE07B681B68022172
:1041C0001846FEF7FFFF0346C7F88C30D7F88C304F
:1041D00093FAA3F3C7F88830D7F88830C7F890303F
:1041E000D7F89030002B01D1202304E0D7F890308D
:1041F000B3FA83F3DBB21A463B681B68C3F31203BE
:10420000002B05D13B681B689B0E03F01F0316E0D3
:104210003B681B68C7F88030D7F8803093FAA3F367
:10422000FB67FB6FC7F88430D7F88430002B01D1CF
:10423000202304E0D7F88430B3FA83F3DBB29A4248
:1042400006D17B681B68002202211846FEF7D0FFCA
:104250007B681B6803211846FEF7B4FF0346C3F3CF
:104260001203002B0AD17B681B6803211846FEF756
:10427000A9FF03469B0E03F01F0217E07B681B6833
:1042800003211846FEF79EFF03467B677B6F93FA78
:10429000A3F33B673B6FBB67BB6F002B01D12023B0
:1042A00003E0BB6FB3FA83F3DBB21A463B681B68CB
:1042B000C3F31203002B05D13B681B689B0E03F070
:1042C0001F0311E03B681B68BB66BB6E93FAA3F348
:1042D0007B667B6EFB66FB6E002B01D1202303E027
:1042E000FB6EB3FA83F3DBB29A4206D17B681B689C
:1042F000002203211846FEF77BFF7B681B681846E7
:10430000FFF70EF90346002B40F040817B681868E8
:104310003B6819683B68DB681A46FFF74BF83B6857
:10432000DB688F4A934240F031817B6818683B68B4
:104330001B68C3F31203002B0BD13B681B689B0E59
:10434000013303F01F03092B94BF01230023DBB2C9
:1043500019E03B681B68FB65FB6D93FAA3F3BB6533
:10436000BB6D3B663B6E002B01D1202303E03B6E0F
:10437000B3FA83F3DBB2013303F01F03092B94BFBD
:1043800001230023DBB2002B79D03B681B68C3F309
:104390001203002B07D13B681B689B0E01339B0661
:1043A00003F0F84215E03B681B683B653B6D93FAF0
:1043B000A3F3FB64FB6C7B657B6D002B01D1202399
:1043C00003E07B6DB3FA83F3DBB201339B0603F0AA
:1043D000F8423B681B68C3F31203002B09D13B680A
:1043E0001B689B0E013303F01F03012101FA03F345
:1043F00017E03B681B687B647B6C93FAA3F33B6418
:104400003B6CBB64BB6C002B01D1202303E0BB6C75
:10441000B3FA83F3DBB2013303F01F03012101FA86
:1044200003F342EA03013B681B68C3F31203002B4A
:104430000AD13B681B689B0E013303F01F02134631
:104440005B0013441B0518E03B681B68BB63BB6B38
:1044500093FAA3F37B637B6BFB63FB6B002B01D1B4
:10446000202303E0FB6BB3FA83F3DBB2013303F0E9
:104470001F0213465B0013441B050B4381E03B689E
:104480001B68C3F31203002B07D13B681B689B0E0C
:1044900001339B0603F0F84215E03B681B68FB62A2
:1044A000FB6A93FAA3F3BB62BB6A3B633B6B002BD3
:1044B00001D1202303E03B6BB3FA83F3DBB201337A
:1044C0009B0603F0F8423B681B68C3F31203002B02
:1044D00009D13B681B689B0E013303F01F030121C8
:1044E00001FA03F317E03B681B683B623B6A93FAEF
:1044F000A3F3FB61FB697B627B6A002B01D1202364
:1045000003E07B6AB3FA83F3DBB2013303F01F03EA
:10451000012101FA03F342EA03013B681B68C3F37C
:104520001203002B0DD13B681B689B0E013303F077
:104530001F0213465B0013441E3B1B0543F0007330
:104540001EE03B681B687B617B6993FAA3F33B61C8
:104550003B69BB61BB69002B04D1202306E000BF8F
:1045600000007F40BB69B3FA83F3DBB2013303F091
:104570001F0213465B0013441E3B1B0543F00073F0
:104580000B433A6892681946FEF7E8FE3B681A68E2
:104590003F4B1340002B71D03E48FEF7E1FDC7F8BA
:1045A000C4003B681B683C4A934204D03B681B68CC
:1045B0003A4A934227D1D7F8C43003F40003002BC2
:1045C00021D17B681B68B3F1A04F57D1D7F8C43015
:1045D00043F4000319462F48FEF7AFFD304B1B682C
:1045E0009B09304AA2FB03239B095A1C13465B001C
:1045F00013449B00FB6002E0FB68013BFB60FB682F
:10460000002BF9D13AE03B681B68274A934213D14B
:10461000D7F8C43003F08073002B0DD17B681B6882
:10462000224A93422AD0D7F8C43043F08073194607
:104630001848FEF782FD21E03B681B681C4A934244
:104640001CD1D7F8C43003F48003002B16D17B684B
:104650001B68164A934211D0D7F8C43043F4800344
:1046600019460C48FEF769FD08E07B68DB6D43F0F6
:1046700020027B68DA65012387F8D7307B68002247
:1046800083F8582097F8D7301846D837BD4680BDF4
:104690000000088000030050000021C31000C090FB
:1046A00000000020632D3E05000052C700010050AD
:1046B000000084CB80B584B000AF78600023BB607D
:1046C0007B681B681846FEF72BFF0346002B69D159
:1046D0007B681B689A68364B1340002B0DD07B68B3
:1046E000DB6D43F010027B68DA657B681B6E43F07C
:1046F00001027B681A66012355E07B681B68184637
:10470000FEF7E6FE2B48FEF72BFD034603F40003FD
:10471000002B13D0284B1B689B09284AA2FB0323BC
:104720009B095A1C13465B0013449B00BB6002E0CC
:10473000BB68013BBB60BB68002BF9D1FEF7BCFC3A
:10474000F86028E07B681B681846FEF7E9FE034620
:10475000002B04D17B681B681846FEF7B9FEFEF7F4
:10476000ABFC0246FB68D31A022B14D97B681B688A
:104770001B6803F00103012B0DD07B68DB6D43F058
:1047800010027B68DA657B681B6E43F001027B6870
:104790001A66012307E07B681B681B6803F00103AE
:1047A000012BCFD1002318461037BD4680BD00BF76
:1047B0003F0000800003005000000020632D3E05F4
:1047C00080B584B000AF78607B681B681846FEF740
:1047D000BAFEF8607B681B681846FEF7A1FE034628
:1047E000002B47D0FB68002B44D17B681B689B687B
:1047F00003F00D03012B0CD17B681B681846FEF7F4
:104800007BFE7B681B6803221A60FEF755FCB860CC
:1048100029E07B68DB6D43F010027B68DA657B681A
:104820001B6E43F001027B681A66012323E0FEF74A
:1048300043FC0246BB68D31A022B14D97B681B6861
:104840009B6803F00103002B0DD07B68DB6D43F008
:1048500010027B68DA657B681B6E43F001027B689F
:104860001A66012307E07B681B689B6803F001035D
:10487000002BDCD1002318461037BD4680BD80B523
:1048800084B000AF78607B689B6AFB60FB68DB6D7F
:1048900003F05003002B4BD1FB68DB6D43F4007237
:1048A000FB68DA65FB681B681B6803F00803002BD4
:1048B00021D0FB681B681846FEF7FEFC0346002B60
:1048C00032D0FB681B68DB6803F40053002B2BD14C
:1048D000FB68DB6D23F48072FB68DA65FB68DB6DD7
:1048E00003F48053002B1FD1FB68DB6D43F0010202
:1048F000FB68DA6518E0FB681B68DB6803F00203FD
:10490000002B11D1FB68DB6D23F48072FB68DA6544
:10491000FB68DB6D03F48053002B05D1FB68DB6D76
:1049200043F00102FB68DA65F868FFF7ABFA0EE0C6
:10493000FB68DB6D03F01003002B03D0F868FFF772
:10494000BFFA04E0FB685B6D5B6B7868984700BF5B
:104950001037BD4680BD80B584B000AF78607B68FD
:104960009B6AFB60F868FFF797FA00BF1037BD46F7
:1049700080BD80B584B000AF78607B689B6AFB60C7
:10498000FB68DB6D43F04002FB68DA65FB681B6E79
:1049900043F00402FB681A66F868FFF791FA00BF5B
:1049A0001037BD4680BD80B483B000AF78607B68AF
:1049B0009B6803F00103012B01D1012300E00023D8
:1049C00018460C37BD465DF8047B704780B483B051
:1049D00000AF786039607B689B6823F0404323F028
:1049E0003F033A6802F08042134343F000427B6881
:1049F0009A6000BF0C37BD465DF8047B704780B4F9
:104A000083B000AF78607B689B6803F00043B3F12C
:104A1000004F01D1012300E0002318460C37BD46AA
:104A20005DF8047B704780B483B000AF78607B682A
:104A30009B6803F00403042B01D1012300E0002351
:104A400018460C37BD465DF8047B704780B584B0CE
:104A500000AF786039600023BB607B6893F8583002
:104A6000012B01D102234DE07B68012283F85820FD
:104A70007868FFF7A5FE0346FB73FB7B002B36D15E
:104A80007B68DB6D23F4885323F0020343F00202BA
:104A90007B68DA657B681B6839681846FFF796FF04
:104AA00014E0BB680133BB60BB68184A93420DD960
:104AB0007B68DB6D23F0120343F010027B68DA653C
:104AC0007B68002283F8582001231BE07B681B6869
:104AD0001846FFF794FF0346002BE2D17B68DB6D9D
:104AE00023F0030343F001027B68DA6505E07B688D
:104AF000DB6D43F010027B68DA657B68002283F887
:104B00005820FB7B18461037BD4680BD01DE0400EF
:104B100080B483B000AF786000BF0C37BD465DF84D
:104B2000047B704780B483B000AF786000BF0C375F
:104B3000BD465DF8047B704780B483B000AF7860F9
:104B400000BF0C37BD465DF8047B704780B483B06E
:104B500000AF786000BF0C37BD465DF8047B70473E
:104B600080B483B000AF786000BF0C37BD465DF8FD
:104B7000047B704790B5A1B000AF78603960002326
:104B800087F87F307B6893F85830012B01D10223DE
:104B90008BE07B68012283F8582000237B6600238A
:104BA000BB667B681B68B3F1A04F02D1414BBB6071
:104BB00001E00023BB60BB68002B0BD17B68DB6D81
:104BC00043F020027B68DA657B68002283F8582076
:104BD00001236AE0BB681846FFF725FFB8677B68CA
:104BE0001B681846FFF71FFF0346002B4CD1BB6F15
:104BF000002B49D1304B7B673B681B68002B28D0CA
:104C00007B6F9B6823F460423B6859687B6893F82C
:104C100038305B030B431A437B6F9A604FF0A04020
:104C2000FFF7C1FE04462348FFF7BDFE03462343BA
:104C3000002B33D17B6F9B6823F4716323F00F0348
:104C40003A6811683A6892680A431A437B6F9A601F
:104C500024E07B6F9B6823F460427B6F9A604FF087
:104C6000A040FFF7A0FE04461248FFF79CFE034653
:104C70002343002B12D17B6F9B6823F4716323F0D5
:104C80000F037A6F936009E07B68DB6D43F02002CD
:104C90007B68DA65012387F87F3000E000BF7B681E
:104CA000002283F8582097F87F3018468437BD4695
:104CB00090BD00BF000100500003005080B485B0DB
:104CC00000AF78607B6803F00703FB600C4BDB6888
:104CD000BB60BA684FF6FF031340BB60FB681A0263
:104CE000BB68134343F0BF6343F40033BB60044A23
:104CF000BB68D36000BF1437BD465DF8047B7047C6
:104D000000ED00E080B400AF044BDB681B0A03F049
:104D100007031846BD465DF8047B704700ED00E0D0
:104D200080B483B000AF0346FB7197F90730002BC6
:104D30000BDBFB7903F01F02074997F907305B098A
:104D4000012000FA02F241F8232000BF0C37BD46D3
:104D50005DF8047B704700BF00E100E080B483B0E1
:104D600000AF03463960FB7197F90730002B0ADB6F
:104D70003B68DAB20C4997F907301201D2B20B4402
:104D800083F800230AE03B68DAB20849FB7903F0B4
:104D90000F03043B1201D2B20B441A7600BF0C374A
:104DA000BD465DF8047B704700E100E000ED00E0E7
:104DB00080B489B000AFF860B9607A60FB6803F036
:104DC0000703FB61FB69C3F10703042B28BF04231E
:104DD000BB61FB690433062B02D9FB69033B00E08E
:104DE00000237B614FF0FF32BB6902FA03F3DA4321
:104DF000BB681A407B699A404FF0FF317B6901FA2A
:104E000003F3D9437B680B40134318462437BD4650
:104E10005DF8047B7047000080B582B000AF786019
:104E20007B68013BB3F1807F01D301230FE00A4A85
:104E30007B68013B53600F214FF0FF30FFF78EFF7F
:104E4000054B00229A60044B07221A600023184683
:104E50000837BD4680BD00BF10E000E080B582B0DD
:104E600000AF78607868FFF729FF00BF0837BD46BC
:104E700080BD80B586B000AF0346B9607A60FB7331
:104E8000FFF740FF78617A68B9687869FFF790FFAB
:104E9000024697F90F3011461846FFF75FFF00BF33
:104EA0001837BD4680BD80B582B000AF0346FB71A8
:104EB00097F907301846FFF733FF00BF0837BD46A4
:104EC00080BD80B582B000AF78607868FFF7A4FF3E
:104ED000034618460837BD4680BD000080B584B043
:104EE00000AF78607B68002B01D101238DE07B68E7
:104EF0001B681A46474B9A420FD87B681B681A46B4
:104F0000454B1344454AA2FB03231B099A007B68C7
:104F10005A647B68424A1A640EE07B681B681A4632
:104F2000404B13443D4AA2FB03231B099A007B68B4
:104F30005A647B683C4A1A647B68022283F8252005
:104F40007B681B681B68FB60FB6823F4FF4323F04E
:104F50007003FB607B689A687B68DB681A437B6838
:104F60001B691A437B685B691A437B689B691A4318
:104F70007B68DB691A437B681B6A1343FA68134337
:104F8000FB607B681B68FA681A60786800F0B6F905
:104F90007B689B68B3F5804F02D17B6800225A6022
:104FA0007B685A687B689B6CD2B21A607B68DB6C4A
:104FB0007A68126D5A607B685B68002B10D07B6842
:104FC0005B68042B0CD8786800F0D6F97B685B6DC1
:104FD00000221A607B689B6D7A68D26D5A6008E087
:104FE0007B6800225A657B6800229A657B680022F4
:104FF000DA657B680022DA637B68012283F825206A
:105000007B68002283F82420002318461037BD4611
:1050100080BD00BF07040240F8FFFDBFCDCCCCCC63
:1050200000000240F8FBFDBF0004024080B586B0DE
:1050300000AFF860B9607A603B600023FB75FB68E5
:1050400093F82430012B01D1022366E0FB68012292
:1050500083F82420FB6893F82530DBB2012B55D16F
:10506000FB68022283F82520FB680022DA63FB68D4
:105070001B681A68FB681B6822F001021A603B6813
:105080007A68B968F86800F0FBF8FB681B6B002BC6
:1050900008D0FB681B681A68FB681B6842F00E02A8
:1050A0001A600FE0FB681B681A68FB681B6822F037
:1050B00004021A60FB681B681A68FB681B6842F0F0
:1050C0000A021A60FB689B6C1B6803F48033002B98
:1050D00007D0FB689B6C1A68FB689B6C42F480727B
:1050E0001A60FB685B6D002B07D0FB685B6D1A686C
:1050F000FB685B6D42F480721A60FB681B681A687B
:10510000FB681B6842F001021A6005E0FB680022A0
:1051100083F824200223FB75FB7D18461837BD4613
:1051200080BD80B584B000AF78607B681B6C1B6865
:10513000FB607B681B681B68BB607B685B6C03F073
:105140001F0304229A40FB681340002B26D0BB6843
:1051500003F00403002B21D07B681B681B6803F05D
:105160002003002B07D17B681B681A687B681B68CB
:1051700022F004021A607B685B6C03F01F027B68FC
:105180001B6C042101FA02F25A607B681B6B002B36
:1051900071D07B681B6B786898476CE07B685B6CB0
:1051A00003F01F0302229A40FB681340002B2ED00D
:1051B000BB6803F00203002B29D07B681B681B68C7
:1051C00003F02003002B0BD17B681B681A687B68F7
:1051D0001B6822F00A021A607B68012283F82520EE
:1051E0007B685B6C03F01F027B681B6C022101FA79
:1051F00002F25A607B68002283F824207B68DB6A15
:10520000002B38D07B68DB6A7868984733E07B688E
:105210005B6C03F01F0308229A40FB681340002BCD
:105220002AD0BB6803F00803002B25D07B681B68DD
:105230001A687B681B6822F00E021A607B685B6C40
:1052400003F01F027B681B6C012101FA02F25A6015
:105250007B680122DA637B68012283F825207B6862
:10526000002283F824207B685B6B002B04D07B68D2
:105270005B6B7868984700BF00BF1037BD4680BDA4
:1052800080B485B000AFF860B9607A603B60FB68BD
:10529000DB6CFA68126D5A60FB685B6D002B04D002
:1052A000FB689B6DFA68D26D5A60FB685B6C03F01B
:1052B0001F02FB681B6C012101FA02F25A60FB68B5
:1052C0001B683A685A60FB689B68102B08D1FB6822
:1052D0001B687A689A60FB681B68BA68DA6007E046
:1052E000FB681B68BA689A60FB681B687A68DA60BA
:1052F00000BF1437BD465DF8047B704780B487B0AB
:1053000000AF78607B681B681A46164B9A4202D839
:10531000154B7B6101E0154B7B617B693B617B68D1
:105320001B68DBB2083B124AA2FB03231B09FB608C
:105330007B685B6C9B089A003B6913441A467B6848
:105340009A647B680B4ADA64FB6803F01F0301224E
:105350009A407B681A6500BF1C37BD465DF8047B28
:10536000704700BF070402400008024020080240C6
:10537000CDCCCCCC8008024080B485B000AF786042
:105380007B685B68DBB2FB60FA680B4B13449B00E5
:105390001A467B685A657B68084A9A65FB68013B38
:1053A00003F01F0301229A407B68DA6500BF1437BF
:1053B000BD465DF8047B70473F8200104009024003
:1053C00080B487B000AF7860396000237B615AE118
:1053D0003B681A6801217B6901FA03F31340FB6003
:1053E000FB68002B00F04C813B685B6803F0030313
:1053F000012B05D03B685B6803F00303022B30D11F
:105400007B689B683B617B695B00032202FA03F3C4
:10541000DB433A6913403B613B68DA687B695B00B8
:1054200002FA03F33A6913433B617B683A699A6075
:105430007B685B683B6101227B6902FA03F3DB4313
:105440003A6913403B613B685B681B0903F001024A
:105450007B6902FA03F33A6913433B617B683A695B
:105460005A603B685B6803F00303032B17D07B682B
:10547000DB683B617B695B00032202FA03F3DB43D9
:105480003A6913403B613B689A687B695B0002FAAA
:1054900003F33A6913433B617B683A69DA603B681E
:1054A0005B6803F00303022B23D17B69DA087B6876
:1054B000083253F822303B617B6903F007039B00FD
:1054C0000F2202FA03F3DB433A6913403B613B6866
:1054D0001A697B6903F007039B0002FA03F33A6938
:1054E00013433B617B69DA087B680832396943F80A
:1054F00022107B681B683B617B695B00032202FA18
:1055000003F3DB433A6913403B613B685B6803F09C
:1055100003027B695B0002FA03F33A6913433B61C0
:105520007B683A691A603B685B6803F44033002B80
:1055300000F0A6805B4B1B6E5A4A43F001031366D2
:10554000584B1B6E03F00103BB60BB68564A7B6976
:105550009B08023352F823303B617B6903F003035D
:105560009B000F2202FA03F3DB433A6913403B61CD
:105570007B68B3F1904F1FD07B684C4A934219D09F
:105580007B684B4A934213D07B684A4A93420DD0C2
:105590007B68494A934207D07B68484A934201D1CD
:1055A00005230AE0062308E0042306E0032304E0C1
:1055B000022302E0012300E000237A6902F00302E3
:1055C000920093403A6913433B6137497B699B08DA
:1055D00002333A6941F82320394B9B683B61FB68F1
:1055E000DB433A6913403B613B685B6803F480131B
:1055F000002B03D03A69FB6813433B61304A3B6997
:1056000093602F4BDB683B61FB68DB433A691340D7
:105610003B613B685B6803F40013002B03D03A69DD
:10562000FB6813433B61264A3B69D360244B5B68AC
:105630003B61FB68DB433A6913403B613B685B6855
:1056400003F40033002B03D03A69FB6813433B613A
:105650001B4A3B6953601A4B1B683B61FB68DB4389
:105660003A6913403B613B685B6803F48033002B6D
:1056700003D03A69FB6813433B61114A3B691360ED
:105680007B6901337B613B681A687B6922FA03F30B
:10569000002B7FF49DAE00BF00BF1C37BD465DF8F8
:1056A000047B7047001002400000014000040048E5
:1056B00000080048000C0048001000480014004892
:1056C0000004014080B483B000AF78600B467B805B
:1056D00013467B707B78002B03D07A887B689A61B5
:1056E00002E07A887B689A6200BF0C37BD465DF89D
:1056F000047B704780B582B000AF0346FB80084B47
:105700005A69FB881340002B06D0054AFB88536179
:10571000FB88184600F006F800BF0837BD4680BD7C
:105720000004014080B483B000AF0346FB8000BF9B
:105730000C37BD465DF8047B7047000080B485B02F
:1057400000AF78607B68002B41D14B4B1B6803F4A2
:10575000C063B3F5806F31D1474BD3F88030464AF0
:1057600023F48073C2F88030434B1B6823F4C0637A
:10577000414A43F400731360404B1B68322202FB22
:1057800003F33F4AA2FB03239B0C0133FB6002E0BF
:10579000FB68013BFB60384B5B6903F48063B3F546
:1057A000806F02D1FB68002BF2D1334B5B6903F4AD
:1057B0008063B3F5806F58D1032357E02E4BD3F8A5
:1057C00080302D4A23F48073C2F880304DE07B682E
:1057D000B3F5007F41D1284B1B6803F4C063B3F5D8
:1057E000806F31D1244BD3F88030234A43F4807347
:1057F000C2F88030204B1B6823F4C0631E4A43F478
:10580000007313601D4B1B68322202FB03F31C4A1A
:10581000A2FB03239B0C0133FB6002E0FB68013B0E
:10582000FB60154B5B6903F48063B3F5806F02D1B5
:10583000FB68002BF2D1104B5B6903F48063B3F576
:10584000806F12D1032311E00B4BD3F880300A4A4A
:1058500043F48073C2F8803007E0074B1B6823F4E1
:10586000C063054A43F4806313600023184614376D
:10587000BD465DF8047B70470070004000000020CA
:1058800083DE1B4380B400AF054B9B68044A43F49E
:105890008043936000BFBD465DF8047B704700BF46
:1058A0000070004080B588B000AF78607B68002B46
:1058B00001D10123FEE27B681B6803F00103002B8A
:1058C00075D0974B9B6803F00C03BB61944BDB686E
:1058D00003F003037B61BB690C2B02D17B69032BB3
:1058E00002D0BB69082B0BD18D4B1B6803F400332E
:1058F000002B5BD07B685B68002B57D10123D9E27A
:105900007B685B68B3F5803F06D1854B1B68844A92
:1059100043F4803313601DE07B685B68B3F5A02F10
:105920000CD17F4B1B687E4A43F4802313607C4B71
:105930001B687B4A43F4803313600BE0784B1B6891
:10594000774A23F480331360754B1B68744A23F441
:10595000802313607B685B68002B13D0FDF7ACFBE2
:10596000386108E0FDF7A8FB02463B69D31A642BB7
:1059700001D903239EE26A4B1B6803F40033002B1A
:10598000F0D014E0FDF798FB386108E0FDF794FBD8
:1059900002463B69D31A642B01D903238AE2604B88
:1059A0001B6803F40033002BF0D100E000BF7B68DC
:1059B0001B6803F00203002B75D0594B9B6803F062
:1059C0000C03BB61564BDB6803F003037B61BB69CF
:1059D0000C2B02D17B69022B02D0BB69042B1FD197
:1059E0004F4B1B6803F48063002B05D07B68DB689A
:1059F000002B01D101235DE2494B5B6823F0FE429D
:105A00007B681B691B06464913434B60454B1B686B
:105A10001846FDF705FB0346002B43D0012349E25E
:105A20007B68DB68002B23D03D4B1B683C4A43F46A
:105A300080731360FDF740FB386108E0FDF73CFB25
:105A400002463B69D31A022B01D9032332E2344BBD
:105A50001B6803F48063002BF0D0314B5B6823F0AC
:105A6000FE427B681B691B062D4913434B601AE0FD
:105A70002B4B1B682A4A23F480731360FDF71CFB31
:105A8000386108E0FDF718FB02463B69D31A022B88
:105A900001D903230EE2224B1B6803F48063002B21
:105AA000F0D100E000BF7B681B6803F00803002B07
:105AB00041D07B685B69002B1CD0194BD3F8943024
:105AC000174A43F00103C2F89430FDF7F5FA386144
:105AD00008E0FDF7F1FA02463B69D31A022B01D91F
