:020000040800F2
:1000000000500020C90500080D0600080D06000874
:100010000D0600080D0600080D060008000000008F
:100020000000000000000000000000000D060008B5
:100030000D060008000000000D060008C5010008BC
:100040000D0600080D0600080D0600080D06000844
:100050000D0600080D0600080D0600080D06000834
:100060000D0600080D0600080D0600080D06000824
:100070000D0600080D0600080D0600080D06000814
:100080000D0600080D0600080D0600080D06000804
:100090000D0600080D0600080D0600080D060008F4
:1000A0000D0600080D0600080D0600080D060008E4
:1000B0000D0600080D0600080D0600080D060008D4
:1000C0000D0600080D0600080D0600080D060008C4
:1000D0000D0600080D0600080D0600080D060008B4
:1000E0000D0600080D0600080D06000800000000BF
:1000F0000000000000000000000000000000000000
:0C01000000000000000000005FF808F1A3
:10010C0010B5054C237833B9044B13B10448AFF345
:10011C0000800123237010BD0000002000000000AF
:10012C005806000808B5034B1BB103490348AFF34D
:10013C00008008BD000000000400002058060008E4
:10014C00B1FBF2F14FF08072134B0139C3F8FC2074
:10015C002722124B5A600223114AC2F8F0304FF09A
:10016C00604311610F49C3F8B01F0F49C3F8801EDB
:10017C004FF0FF31C3F8401EC3F8000E0B490C487A
:10018C0008604FF48071C2F804131B78012BDAB2AB
:10019C0004BF084B1A60704700ED00E0002004E03B
:1001AC00000004E055CEACC50D000100001000E0CD
:1001BC00FE0300401C000020034B1A6812B11A68A1
:1001CC00013A1A60704700BF200000204FF0E02376
:1001DC005A6902F07F425A61054A5A619A6902F0E3
:1001EC007F429A611A6942F007021A61704700BF98
:1001FC00881901000A4B9A6842F001029A609A68C9
:10020C0042F460229A609A6842F480129A609A686A
:10021C0022F002029A609A6822F001029A607047FA
:10022C00002401404FF0E0239A6902F07F429A616A
:10023C00034A9A61034B18601A68002AFCD1704774
:10024C008819010020000020104B1A6842F48032FB
:10025C001A601A6842F080721A605A6842F480324E
:10026C005A605A6822F400325A605A6842F4E0121A
:10027C005A605A6842F002025A605A6842F480622C
:10028C005A605A6842F440425A607047001002406B
:10029C0070B5054600260846084CAE4200D170BD2C
:1002AC00E368013643F40043E360FFF7BBFFE36808
:1002BC0023F40043E360FFF7B5FFEEE700080140CD
:1002CC00042819D8DFE800F00319222F4000294B2D
:1002DC00DA6842F00102DA60DA6822F00202DA60CF
:1002EC00DA6822F00402DA60DA6822F01002DA60CE
:1002FC00DA6822F02002DA6070471E4BDA6842F0AE
:10030C000102DA60DA6842F00202E8E7194BDA68B7
:10031C0042F00102DA60DA6842F00202DA60DA686E
:10032C0042F00402DFE7134BDA6842F00102DA60B4
:10033C00DA6842F00202DA60DA6842F00402DA604B
:10034C00DA6842F01002D2E70A4BDA6842F0010296
:10035C00DA60DA6842F00202DA60DA6842F004022B
:10036C00DA60DA6842F01002DA60DA6842F02002F1
:10037C00C1E700BF000C01400B4B9A6822F0010250
:10038C009A600022DA621A634FF480725A639A6898
:10039C0042F001029A609A6842F480029A601A68EC
:1003AC009207FCD5D86C7047002401400A4B9A6820
:1003BC0022F001029A600022DA621A635A639A6888
:1003CC0042F001029A609A6842F480029A601A68BC
:1003DC009207FCD5D86C7047002401400B4B9A68EF
:1003EC0022F001029A600022DA621A6301225A6337
:1003FC009A6842F001029A609A6842F480029A600C
:10040C001A689207FCD5D86C704700BF00240140D5
:10041C00B0F5FA7F264B14D2DA6842F04002DA606B
:10042C00DA6822F08002DA60DA6822F48072DA602C
:10043C00DA6822F40072DA60DA6822F48062DA6038
:10044C007047A0F5FA72B2F57A7F07D2DA6842F0FB
:10045C004002DA60DA6842F08002E4E7A0F2DC5293
:10046C00B2F5FA7F0BD2DA6842F04002DA60DA6851
:10047C0042F08002DA60DA6842F48072D7E7DA6818
:10048C00A0F5FA6042F04002DA60DA68B0F57A7FE3
:10049C0042F08002DA60DA6842F48072DA60DA687C
:1004AC0042F40072DA60DA68C7D342F48062C6E7BD
:1004BC00000C014070B5FFF7C7FE0120FFF786FE68
:1004CC003749384AFFF73CFE374A384C93690220CB
:1004DC0043F403739361364B364D1A6822F00F02C6
:1004EC001A601A6822F0F0021A601A6822F470225C
:1004FC001A60226802F470422260626822F47F6201
:10050C0022F00F02626021682B4A0A432260626863
:10051C004FF4FA7142F4887242F001026260626830
:10052C0022F4704262601A6822F07F421A6062689C
:10053C0042F4804262601A6842F088421A60FFF707
:10054C0059FEFFF7A5FEFFF731FFFFF747FFFFF757
:10055C0013FFA3680646190504D54FF47A710120E0
:10056C00FFF796FEA3685A0642BF2B6801332B6037
:10057C00A3681B0642BF2B6803F1FF332B602B686B
:10058C00042B86BF04232B602B682868FFF798FE8A
:10059C003046FFF73DFF6420FFF744FED3E700BF72
:1005AC0000A24A0480841E0000100240000C01408E
:1005BC000008014024000020110111110B480C49C6
:1005CC000C4A002302E0D458C4500433C4188C42A3
:1005DC00F9D3094A094C002301E013600432A2420A
:1005EC00FBD300F00FF8FFF765FF70470000002009
:1005FC0000000020780600080000002028000020E1
:10060C00FEE7000070B500260C4D0D4C641BA410C9
:10061C00A64209D100F01AF800260A4D0A4C641BB8
:10062C00A410A64205D170BD55F8043B984701367D
:10063C00EEE755F8043B98470136F2E770060008E0
:10064C00700600087006000874060008F8B500BFB4
:10065C00F8BC08BC9E467047F8B500BFF8BC08BC97
:04066C009E467047EF
:04067000310100084C
:040674000D0100086C
:04000005080005C921
:00000001FF
