:020000040800F2
:10000000005000201D030008610300086103000880
:10001000610300086103000861030008000000009C
:100020000000000000000000000000006103000864
:100030006103000800000000610300084D01000892
:100040006103000861030008610300086103000800
:1000500061030008610300086103000861030008F0
:1000600061030008610300086103000861030008E0
:1000700061030008610300086103000861030008D0
:1000800061030008610300086103000861030008C0
:1000900061030008610300086103000861030008B0
:1000A00061030008610300086103000861030008A0
:1000B0006103000861030008610300086103000890
:1000C0006103000861030008610300086103000880
:1000D0006103000861030008610300086103000870
:1000E00061030008610300086103000800000000CC
:1000F0000000000000000000000000000000000000
:0C01000000000000000000005FF808F1A3
:10010C0010B5054C237833B9044B13B10448AFF345
:10011C0000800123237010BD0000002000000000AF
:10012C00AC03000808B5034B1BB103490348AFF3FC
:10013C00008008BD0000000004000020AC03000893
:10014C00034B1A6812B11A68013A1A60704700BF63
:10015C001C0000204FF0E0235A6902F07F425A61E4
:10016C00054A5A619A6902F07F429A611A6942F013
:10017C0007021A61704700BF881901000A4B9A6880
:10018C0042F001029A609A6842F460229A609A687E
:10019C0042F480129A609A6822F002029A609A687D
:1001AC0022F001029A607047002401404FF0E023D6
:1001BC009A6902F07F429A61034A9A61034B186074
:1001CC001A68002AFCD17047881901001C00002015
:1001DC00054B1A6842F480321A605A6842F4806205
:1001EC005A605A685A6070470010024070B5054654
:1001FC0000260846084CAE4200D170BDE3680136BB
:10020C0043F40043E360FFF7D1FFE36823F40043BA
:10021C00E360FFF7CBFFEEE70008014008B5FFF7FE
:10022C00D7FFFFF797FF354A354C93694FF4FA70B7
:10023C0043F403739361334B334D1A6822F00F026E
:10024C001A601A6822F0F0021A601A6822F47022FE
:10025C001A60226802F470422260626822F47F62A3
:10026C0022F00F0262602168284A0A432260626809
:10027C0042F4887242F001026260626822F47042B9
:10028C0062601A6822F07F421A60626842F400428F
:10029C0062601A6842F008421A60FFF76FFFE36869
:1002AC0043F00203E360FFF781FFE36823F00203EE
:1002BC00E360FFF77BFFA368190504D54FF47A714F
:1002CC000120FFF793FFA3685A0606D5E36883F075
:1002DC000103E3602B6801332B60A3681B0606D572
:1002EC00E36883F02003E3602B68013B2B602B68F1
:1002FC00042B8ABF04232B682B60DCE70010024020
:10030C00000C0140000801402000002011011111D7
:10031C000B480C490C4A002302E0D458C450043357
:10032C00C4188C42F9D3094A094C002301E013602C
:10033C000432A242FBD300F00FF8FFF76FFF7047B7
:10034C000000002000000020CC030008000000206A
:10035C0024000020FEE7000070B500260C4D0D4C6B
:10036C00641BA410A64209D100F01AF800260A4D0D
:10037C000A4C641BA410A64205D170BD55F8043B71
:10038C0098470136EEE755F8043B98470136F2E7FB
:10039C00C4030008C4030008C4030008C803000811
:1003AC00F8B500BFF8BC08BC9E467047F8B500BF56
:0803BC00F8BC08BC9E46704726
:0403C40031010008FB
:0403C8000D0100081B
:040000050800031DCF
:00000001FF
