:020000040800F2
:1000000000500020E1040008390400083B04000807
:100010003D0400083F0400084104000800000000FF
:100020000000000000000000000000004304000881
:1000300045040008000000004704000849040008C7
:1000400029050008290500082905000829050008D8
:1000500029050008290500082905000829050008C8
:1000600029050008290500082905000829050008B8
:1000700029050008290500082905000829050008A8
:100080002905000829050008290500082905000898
:100090002905000829050008290500082905000888
:1000A0002905000829050008290500082905000878
:1000B0002905000829050008290500082905000868
:1000C0002905000829050008290500082905000858
:1000D0002905000829050008290500082905000848
:1000E000290500082905000829050008000000006E
:1000F0000000000000000000000000000000000000
:0C01000000000000000000005FF808F1A3
:10010C0010B5054C237833B9044B13B10448AFF345
:10011C0000800123237010BD70000020000000003F
:10012C000422000808B5034B1BB103490348AFF385
:10013C00008008BD000000007400002004220008AC
:10014C004FF06043D3F8802ED1070AD5D3F8002E98
:10015C00D20701D4704700BF1A68002AFBD0C2B284
:10016C001A7070470B4B9A6822F001029A600022B9
:10017C00DA621A634FF480725A639A6842F0010291
:10018C009A609A6842F480029A601A689207FCD5C9
:10019C00D86C7047002401400A4B9A6822F0010287
:1001AC009A600022DA621A635A639A6842F001027A
:1001BC009A609A6842F480029A601A689207FCD599
:1001CC00D86C7047002401400B4B9A6822F0010256
:1001DC009A600022DA621A6301225A639A6842F02A
:1001EC0001029A609A6842F480029A601A68920737
:1001FC00FCD5D86C704700BF0024014030B595B0D9
:10020C00242200210BA801F05BF8142210250021F8
:10021C000DEB020001F054F800212A4601A801F070
:10022C004FF8022401230AA8CDE90E350A9400F0F8
:10023C00D7FC014608B172B6FEE70F23CDE90700E3
:10024C00CDE90530099005A800F08CFE08B172B616
:10025C00FEE7039001A8019400F030FF08B172B6DC
:10026C00FEE715B030BD00002DE9F04F00248DB035
:10027C0000F07AF9FFF7C2FFCDE909443D4B0B942E
:10028C009A69022542F020029A619A693A4802F072
:10029C0020020592059A9A6908A942F004029A6113
:1002AC009A6902F004020692069A9A6942F00802D0
:1002BC009A619B690A9503F008030793079BC02377
:1002CC00089300F0ADFB4FF400632C4808A9CDE96E
:1002DC0008340A9500F0A4FB294D2A4BCDE90844BB
:1002EC000A942B60AC604FF460232C732C756C60FB
:1002FC0001242846EB612C6100F04CFA08B172B66F
:10030C00FEE7CDE908040A9008A9284600F062F936
:10031C0008B172B6FEE7284600F0BAFADFF858804A
:10032C00DFF858A0DFF86090FFF736FF0746FFF7BD
:10033C004BFF8346FFF716FF40210646404600F070
:10034C0049FC80210446404600F044FC4FF4006117
:10035C000546504600F03EFC2A46034621464846D8
:10036C00CDE9017B009600F0B3FF4FF4FA7000F07A
:10037C001FF9D9E70010024000080140000C0140B1
:10038C008C000020002401401C2200080E4B82B07F
:10039C009A6942F001029A619A6902F00102009294
:1003AC00009ADA6942F08052DA61DB69074A03F09D
:1003BC0080530193019B536823F0E06343F0007377
:1003CC00536002B0704700BF0010024000000140B3
:1003DC0010B5044686B01022002102A800F070FF70
:1003EC002268104B9A421BD103F56C439A690E4854
:1003FC0042F400729A619A6902A902F400720092A6
:10040C00009A9A6942F004029A619B69132203F0E4
:10041C0004030193019B0323CDE9022300F000FBAD
:10042C0006B010BD0024014000080140FEE7FEE7C5
:10043C00FEE7FEE7FEE770477047704700F0A6B88E
:10044C0070B50D4614460E46731B9C4201DC2046CB
:10045C0070BDAFF3008006F8010BF5E770B50D46E3
:10046C0014460E46731B9C4201DC204670BD16F8E8
:10047C00010BFFF765FEF5E74FF0FF3070474FF4C7
:10048C00005300204B6070470120704700207047DC
:10049C000B4A0346116810B509B90A491160106876
:1004AC0009490A4C0344091B8B4206D900F0DEFEB5
:1004BC000C2303604FF0FF3010BD1360FCE700BF4E
:1004CC00BC000020D80000200050002000040000D8
:1004DC0070470000FFF7FCFF0B480C490C4A002347
:1004EC0002E0D458C4500433C4188C42F9D3094ADE
:1004FC00094C002301E013600432A242FBD300F04C
:10050C00BBFEFFF7B1FE704700000020700000201A
:10051C005C23000870000020D4000020FEE70000DF
:10052C0038B50E4B054618784FF47A73B3FBF0F3DD
:10053C000B4A1068B0FBF3F000F05EFA044658B9B1
:10054C000F2D09D8024629464FF0FF3000F022FA51
:10055C002046044B1D6038BD0120FCE70400002040
:10056C000000002008000020074A08B5136803208B
:10057C0043F01003136000F0FBF90F20FFF7D0FFDE
:10058C00FFF704FF002008BD00200240034A044B83
:10059C0011681B780B441360704700BFC00000202B
:1005AC0004000020014B1868704700BFC0000020F9
:1005BC0038B50446FFF7F6FF0546631C1EBF044B17
:1005CC001B78E418FFF7EEFF431BA342FAD338BDA8
:1005DC0004000020002373B5019390F824300446E6
:1005EC00012B6CD0012380F824304D680268062D55
:1005FC00086805EB850322D81F26556B053B9E40EA
:10060C0025EA060500FA03F32B43536309288B688C
:10061C0000EB40054FF0070129D9D6681E3DA940D3
:10062C0026EA0101AB400B43D360A0F11003012B70
:10063C0025D90020002384F8243002B070BD0C2D85
:10064C004FF01F0509D8166B233B9D4026EA050584
:10065C0000FA03F32B431363D8E7D66A413B9D4062
:10066C0026EA050500FA03F32B43D362CEE71069A3
:10067C00A94020EA0101AB400B431361D9E7114BB0
:10068C009A4216D193681B02D3D49368102843F472
:10069C0000039360CDD10C4B0C4A1B68B3FBF2F3F7
:1006AC000A2253430193019B002BC2D0019B013BB7
:1006BC00F8E7A36A012043F02003A362BAE7022003
:1006CC00BBE700BF002401400000002040420F00A7
:1006DC00002337B50193036804469A68D20702D504
:1006EC00002003B030BD9A6842F001029A60144BAE
:1006FC00144A1B68B3FBF2F30193019BE3B9FFF7B8
:10070C0051FF054623689B68DB07E9D4FFF74AFFD6
:10071C00401B0228F6D923689B6813F00103F1D122
:10072C00A26A012042F01002A262E26A84F824302C
:10073C0042F00102E262D4E7019B013BDCE700BF1F
:10074C000000002040420F0038B5036804469A6848
:10075C00D10701D4002038BD9A6822F001029A60BA
:10076C00FFF720FF054623689B68DB07F2D5FFF7F0
:10077C0019FF401B0228F6D923689B68DA07F2D5CB
:10078C00A36A012043F01003A362E36A43F0010360
:10079C00E362E0E7F8B5044600286ED0836A23B91B
:1007AC00C36280F82430FFF713FE2046FFF7CCFF1E
:1007BC00A36A13F0100362D1002860D1A26AE56924
:1007CC00616822F4885222F0020242F002022943AC
:1007DC00A568A262227BB5F5807F41EA420137D041
:1007EC00012D14BF00274FF48077267D012E06D1F2
:1007FC0082BBA269013A47EA423646F40067226896
:10080C00B5F5807F566826F4694646EA07065660B9
:10081C0097681D4E06EA070646EA0106966001D067
:10082C00012D02D12369013B1B05D56A25F4700506
:10083C002B43D3629268154B1340994213D100237A
:10084C00E362A36A23F0030343F00103A362F8BD40
:10085C002F46CAE7A26A42F02002A262E26A42F084
:10086C000102E262CBE7A36A23F0120343F0100308
:10087C00A362E36A43F00103E3620120E7E7A36AA2
:10088C0043F01003A362F8E7FDF7E1FFFE0E1FFF34
:10089C00002373B5019390F824300446012B62D0E9
:1008AC00012380F82430FFF74FFF2046FFF710FF9D
:1008BC00054600282FD1A36A022023F4885323F085
:1008CC00020343F00203A362284B1E6800F070FC85
:1008DC00B6FBF0F676000196019B03BB2268936889
:1008EC0043F008039360FFF75DFE064623689A68A1
:1008FC00110718D49A6842F004029A60FFF752FE6E
:10090C00064623689B685B0723D4A36A23F0030382
:10091C0043F00103A362002384F8243016E0019B0A
:10092C00013B0193D8E7FFF73DFE801B0A28DDD978
:10093C0023689B681807D9D5A36A012523F01203F5
:10094C0043F01003A362002384F82430284602B03D
:10095C0070BDFFF727FE801B0A28D2D923689B683D
:10096C005A07CED5E8E70225F0E700BF00000020CB
:10097C0007490302CA6803F4E06322F4E06212043C
:10098C00120C134343F0BF6343F40033CB60704746
:10099C0000ED00E0164B30B5DC68C4F30224C4F162
:1009AC000703251D042B28BF0423062D4FF0FF350C
:1009BC0098BF002405FA03F388BF033C21EA030324
:1009CC00A34005FA04F422EA0402002843EA0203D5
:1009DC00ACBF00F16040074A4FEA0313DBB2ABBF78
:1009EC0000F5614000F00F0080F80033135430BD67
:1009FC0000ED00E014ED00E00138B0F1807F0BD287
:100A0C004FF0E023F021054A586182F823100020B2
:100A1C00072298611A6170470120704700ED00E0D1
:100A2C002DE9F74F00221646644F654BDFF894C151
:100A3C00DFF894E10D6835FA06F402D103B0BDE895
:100A4C00F08F4FF0010808FA06F805EA080438EAB6
:100A5C0005057BD14D68032D07D8013D022D00F211
:100A6C008880DFE805F0969BA100122D00F099809C
:100A7C006ED8112D00F08F80FF2C98BF82464FF05E
:100A8C000F0988BF00F1040A4FEA8605DAF80080E6
:100A9C0088BF203D09FA05FB28EA0B0802FA05F588
:100AAC0048EA0505CAF80050D1F804A01AF0805F96
:100ABC004CD0BD6926F0030845F00105BD61BD6948
:100ACC0008F1804805F00105019508F5803806F01D
:100ADC00030B019D4FEA8B0BD8F8085009FA0BF960
:100AEC0025EA0909394DA84262D005F58065A8426E
:100AFC0060D005F58065A8425ED005F58065A842FA
:100B0C000CBF0325042505FA0BF545EA0905C8F8C1
:100B1C0008509D681AF4801F14BF2543A5439D609F
:100B2C00DD681AF4001F14BF2543A543DD605D6822
:100B3C001AF4003F14BF2543A5435D601D681AF4E9
:100B4C00803F14BF2C4325EA04041C60013671E776
:100B5C00DFF87C904D450CD017D8A9F580194D4580
:100B6C0007D009F570294D4503D0A9F580194D45DD
:100B7C0082D18A68D2B1012A08BFC0F810804FF028
:100B8C00080218BFC0F8148076E76545F1D07545AA
:100B9C00EEE7CA6870E7CA6804326DE7CA680832C3
:100BAC006AE7CA680C3267E7002265E7042263E74C
:100BBC000025A8E70125A6E70225A4E700100240BE
:100BCC000004014000003110000032100008014008
:100BDC00000022108368194214BF012000207047C6
:100BEC002DE9F341054638B30368DB0710D42B68B5
:100BFC009F075ED42B68190700F195802B685A0764
:100C0C0000F1C180E869002840F02C81002029E027
:100C1C00904C636803F00C03042B07D0636803F05B
:100C2C000C03082B0AD16368DE0307D523689C03E9
:100C3C00DDD56B68002BDAD1012013E06B68B3F5BE
:100C4C00803F12D1236843F480332360FFF7AAFC62
:100C5C00064623689803CAD4FFF7A4FC801B6428BB
:100C6C00F7D9032002B0BDE8F0819BB9236823F4C7
:100C7C0080332360236823F480232360FFF792FCE6
:100C8C00064623689903B2D5FFF78CFC801B6428B9
:100C9C00F7D9E6E7B3F5A02F236803D143F48023FB
:100CAC002360CFE723F480332360236823F480236D
:100CBC00CBE7684C636813F00C0F07D0636803F044
:100CCC000C03082B10D16368DA030DD423689B073F
:100CDC0002D52B69012BAFD123686A6923F0F80385
:100CEC0043EAC203236085E72A695B4B6AB10122A0
:100CFC001A60FFF757FC064623689F07ECD4FFF7F2
:100D0C0051FC801B0228F7D9ABE71A60FFF74AFCAD
:100D1C000646236898077FF56DAFFFF743FC801BF1
:100D2C000228F6D99DE7AA694A4E4B4BE2B1012243
:100D3C00C3F88024FFF736FC0446736A9B070DD575
:100D4C004FF4FA52454B1B68B3FBF2F3019300BF0F
:100D5C00019B5A1E0192002BF9D14FE7FFF722FCA1
:100D6C00001B0228E9D97CE7C3F88024FFF71AFCA2
:100D7C000446736A9F077FF541AFFFF713FC001B16
:100D8C000228F6D96DE7334CE369D80024D4012747
:100D9C00E36943F08053E361E36903F0805300930C
:100DAC00009B2F4E3368D90518D5EB68012B26D143
:100DBC00236A43F001032362FFF7F4FB41F2883806
:100DCC000646236A9B073FD5002F3FF41BAFE36910
:100DDC0023F08053E36115E70027E2E7336843F41F
:100DEC0080733360FFF7DEFB80463368DA05DCD4B2
:100DFC00FFF7D8FBA0EB08006428F6D931E7ABB9B4
:100E0C00236A41F2883823F001032362236A23F01A
:100E1C0004032362FFF7C6FB0646236A9807D3D563
:100E2C00FFF7C0FB801B4045F7D91AE7052B236A57
:100E3C0003D143F004032362BAE723F001032362D6
:100E4C00236A23F00403B6E7FFF7ACFB801B404595
:100E5C00B7D906E700100240000042420000002013
:100E6C00007000402A4C636803F00C03082B3ED042
:100E7C000022284B02281A662CD1FFF793FB06465A
:100E8C002368990120D42B6AB3F5803F05D16268A1
:100E9C00A96822F400320A436260696A62680B43F3
:100EAC0022F474121343012263601A4B1A66FFF783
:100EBC0079FB054623689A013FF5A8AEFFF772FB54
:100ECC00401B0228F6D9CCE6FFF76CFB801B0228EE
:100EDC00D6D9C6E6FFF766FB054623689B017FF56E
:100EEC0095AEFFF75FFB401B0228F6D9B9E6012847
:100EFC003FF4B8AE63682A6A03F4803191427FF400
:100F0C009BAE6A6A03F4701393423FF47FAE93E690
:100F1C0000100240000042420D4A536803F00C01DD
:100F2C00082912D10B48C3F38341DB03405C09D57C
:100F3C005368094AC3F340435043084AD35CB0FB9F
:100F4C00F3F07047064B584370470348704700BF97
:100F5C00001002409522000800127A00A522000819
:100F6C0000093D002DE9F0410D46044610B9012061
:100F7C00BDE8F081444A136803F007038B4228D381
:100F8C0021688E0730D4CA0743D43F4A136803F054
:100F9C000703AB4265D822683C4D12F0040F6CD1AC
:100FAC00130706D56B68226923F4605343EAC20326
:100FBC006B60FFF7B1FF6B68354AC3F30313D35C67
:100FCC00D840344B1860344B1868FFF7A9FA00204E
:100FDC00CEE7136823F007030B431360136803F089
:100FEC0007038B42C3D1CBE7284B11F0040F1EBF74
:100FFC005A6842F4E0625A60080742BF5A6842F4E9
:10100C0060525A605A68A06822F0F00202435A609B
:10101C00B9E762681D4E012A33681AD113F4003FF8
:10102C00A5D0736841F2883823F00303134373602F
:10103C00FFF7B8FA07467368626803F00C03B3EB6A
:10104C00820FA2D0FFF7AEFAC01B4045F3D90320A4
:10105C008EE7022A02D113F0007FE1E713F0020FB2
:10106C00DEE7136823F007032B431360136803F0C8
:10107C000703AB427FF47BAF8DE76B68E16823F429
:10108C00E0630B436B608BE70020024000100240D2
:10109C007D2200080000002008000020044B054AB7
:1010AC005B68C3F3C223D35C034A1068D840704713
:1010BC00001002408D2200080000002003682DE97A
:1010CC00F341D907054620D5364CE369DA0032D412
:1010DC000126E36943F08053E361E36903F0805335
:1010EC000193019B304F3B68DB0526D5236A13F433
:1010FC00407336D1236A6A6823F440731343236226
:10110C001EB1E36923F08053E3612868830706D599
:10111C002449AB684A6822F440421A434A6010F0F2
:10112C0010001BD01F4AE9685368002023F4800389
:10113C000B43536012E00026D4E73B6843F4807302
:10114C003B60FFF72FFA80463B68D805CED4FFF7FB
:10115C0029FAA0EB08006428F6D9032002B0BDE8F8
:10116C00F0816A6802F440729A42C3D001200F4A9F
:10117C00236AC2F84004002023F44071C2F84004F2
:10118C002162D907B6D5FFF70DFA41F28838074628
:10119C00236A9A07AED4FFF705FAC01B4045F7D96E
:1011AC00DBE700BF0010024000700040000042422C
:1011BC00022808B544D0102803D0012822D00020E2
:1011CC0034E0254B5A68186810F080702ED0C2F3AA
:1011DC0083412248D20348BF5A68405C41BF204932
:1011EC00C2F34042895C1F4A5B684CBFB2FBF1F210
:1011FC001D4A5B0202FB00F018D403234000B0FB35
:10120C00F3F013E040F20231134A136A1940B1F5BE
:10121C00817F1ED003F44073B3F5007F07D149F6EC
:10122C004043506A10F0020018BF184608BDB3F5D1
:10123C00407FC4D110684FF2244310F40030F3E720
:10124C00FFF72CFF044B5B68C3F3813301335B0066
:10125C00D5E74FF40040E9E700100240A722000850
:10126C00B722000800127A0000093D00014B1868F3
:10127C00704700BF0C00002070B500260C4D0D4CC3
:10128C00641BA410A64209D100F0B6FF00260A4D3B
:10129C000A4C641BA410A64205D170BD55F8043B42
:1012AC0098470136EEE755F8043B98470136F2E7CC
:1012BC005423000854230008542300085823000822
:1012CC0003460244934200D1704703F8011BF9E72F
:1012DC000FB40A4B13B51C6824B1A36913B920468B
:1012EC0000F066F805AB2046049AA168019300F063
:1012FC00BBF902B0BDE8104004B070470C000020F0
:10130C00002310B50446C0E90033C0E90433836000
:10131C0081814366C2818361194608225C30FFF7E4
:10132C00CFFF054B24626362044BA362044BE36260
:10133C00044B236310BD00BF211C0008431C000894
:10134C007B1C00089F1C0008014900F0AFB800BFCF
:10135C00711F0008682270B54D1E55430E4605F1ED
:10136C00740100F0E5F8044640B10021C0E9001614
:10137C000C30A06005F16802FFF7A2FF204670BD9B
:10138C00014800F0B3B800BFC5000020014800F0D0
:10139C00AEB800BFC5000020014800F0A7B800BFE0
:1013AC00C6000020014800F0A2B800BFC600002013
:1013BC0010B50446FFF7F0FFA3691BB1BDE8104060
:1013CC00FFF7F0BFC4E912332365134B134A1B68B4
:1013DC00A262A34208BF0123204608BFA36100F00C
:1013EC001FF86060204600F01BF8A060204600F05B
:1013FC0017F800220421E0606068FFF781FF0122EA
:10140C000921A068FFF77CFF02221221E068FFF798
:10141C0077FF0123A361D1E7BC2200085513000814
:10142C00F8B50746FFF7ACFF1E4B1E68B36913B93E
:10143C003046FFF7BDFF4836D6E90134013B03D5F2
:10144C0033680BB33668F7E7B4F90C50D5B9164BC3
:10145C0004F15800E360656600F047F8FFF796FF6B
:10146C0008222946C4E90155C4E904552560A56143
:10147C0004F15C00FFF724FFC4E90D55C4E91255D3
:10148C002046F8BD6834D9E704213846FFF762FFDF
:10149C00044630600028D5D1FFF778FF0C233B6061
:1014AC00EEE700BFBC2200080100FFFF2DE9F84366
:1014BC0006468846002700F14804D4E90195B9F1A5
:1014CC00010905D52468002CF7D13846BDE8F8830E
:1014DC00AB89012B07D9B5F90E30013303D029465E
:1014EC003046C04707436835E9E770477047704797
:1014FC0070B50E4E0C463168054611B900F07AFBFA
:10150C0030602146284600F075FB431C0AD0C41CF1
:10151C0024F00304A04207D0211A284600F06AFBED
:10152C00013001D14FF0FF34204670BDCC000020BB
:10153C002DE9F041CD1C25F0030508350C2D38BFE5
:10154C000C25002D074601DBA94205D90C230026EA
:10155C003B603046BDE8F0812E4E00F0C5FD33688F
:10156C001C4634BB29463846FFF7C2FF431C0446D1
:10157C004DD134682646002E40D12368314638467A
:10158C0004EB030800F036FB80453AD121680335A3
:10159C006D1A25F0030508350C2D38BF0C2538467F
:1015AC002946FFF7A5FF01302BD023682B4423607D
:1015BC000EE02268521B1ED40B2A16D96119A342C5
:1015CC00256018BF5960636808BF316062514B6079
:1015DC00384604F10B0600F08DFD26F00706231D9E
:1015EC00F21AB6D09B1BA350B3E76268A3420CBFA0
:1015FC0032605A60ECE723466468B2E7344676689A
:10160C00B9E70C2338463B6000F074FDA1E7256078
:10161C00DEE700BFC8000020936810B4013B002B2C
:10162C00936007DA9469A34201DB0A2902D110BC4A
:10163C0000F034BB1368581C10601970084610BCBD
:10164C007047F8B506460F461446D518AC4201D182
:10165C00002007E03A46304614F8011BFFF7DCFF88
:10166C00431CF3D1F8BD00002DE9F04F0D46144694
:10167C00984606469DB018B183690BB9FFF798FEE2
:10168C00894B9D421BD175686B6ED90705D4AB890C
:10169C009A0502D4A86DFFF729FFAB891B0701D56A
:1016AC002B69EBB92946304600F05CFBC0B16B6E80
:1016BC00DC070ED54FF0FF301DB0BDE8F08F7B4B33
:1016CC009D4201D1B568DFE7794B9D4208BFF568B3
:1016DC00DAE7AB899805EDD4A86DFFF708FFE9E7C9
:1016EC000023099320238DF8293030234FF0010972
:1016FC00CDF80C80DFF8BC818DF82A3023469A4651
:10170C0013F8012B0AB1252AF9D1BAEB040B0BD033
:10171C005B46224629463046FFF793FF013000F026
:10172C00AA80099A5A4409929AF80030002B00F0CA
:10173C00A28000234FF0FF32CDE905230AF1010A04
:10174C00049307938DF853301A935446052214F8DA
:10175C00011B584800F0BAFC049AD8B9D10644BF12
:10176C0020238DF85330130744BF2B238DF85330AF
:10177C009AF800302A2B15D0544600204FF00A0C52
:10178C00079A214611F8013B303B092B4ED9B0B1D9
:10179C00079214E0A0EB080309FA03F31343A246E3
:1017AC000493D2E7039B191D1B680391002BBBBF4D
:1017BC005B4242F0020207930793B8BF049223786E
:1017CC002E2B0CD163782A2B35D1039B02341A1D96
:1017DC001B680392002BB8BF4FF0FF330593DFF863
:1017EC00D8A003225046217800F070FC40B1402371
:1017FC00A0EB0A0003FA00F0049B013403430493AA
:10180C0014F8011B06222D488DF8281000F05EFC00
:10181C0000283FD02A4B1BBB039B073323F0070345
:10182C0008330393099B3B44099367E70C4601205B
:10183C000CFB0232A5E700234FF00A0C19460134C9
:10184C000593204610F8012B303A092A03D9002BB6
:10185C00C5D00591C3E7044601230CFB0121F0E739
:10186C0003AB00932A463046164B04A9AFF3008015
:10187C000746781CD6D16B6ED90705D4AB899A056F
:10188C0002D4A86DFFF733FEAB895B063FF512AFB0
:10189C00099811E703AB00932A463046094B04A97B
:1018AC0000F082F8E4E700BFE02200080023000803
:1018BC00C022000820230008262300082A23000841
:1018CC00000000004F1600082DE9F0471646994617
:1018DC008A680B6907469342B8BF1346336091F888
:1018EC0043200C46DDF820800AB1013333602368B5
:1018FC00990642BF336802333360256815F006053C
:10190C0006D104F1190AE36832689B1AAB4228DC51
:10191C0094F84320131E226818BF012392062DD47D
:10192C004946384604F14302C047013020D02368B1
:10193C00E56803F00603042B18BF002532684FF04E
:10194C000006A36808BFAD1A226908BF25EAE57531
:10195C009342C4BF9B1AED181A34B5421AD1002019
:10196C0008E00123524649463846C047013003D1AE
:10197C004FF0FF30BDE8F0870135C4E73020E118A7
:10198C0081F843005A1C94F845102244023382F823
:10199C004310C5E70123224649463846C04701306B
:1019AC00E6D00136D9E700002DE9FF470F7E9146BE
:1019BC00782F80460C469A460C9D01F1430207D8BD
:1019CC00622F0AD8002F00F0D980582F00F0A48085
:1019DC0004F1420584F842703AE0A7F16303152B39
:1019EC00F6D801A151F823F04D1A0008611A00082D
:1019FC00DD190008DD190008DD190008DD190008E3
:101A0C00611A0008DD190008DD190008DD1900084D
:101A1C00DD1900086F1B0008911A0008511B000803
:101A2C00DD190008DD190008911B0008DD190008FC
:101A3C00911A0008DD190008DD190008591B00086F
:101A4C002B681A1D1B682A6004F1420584F8423089
:101A5C000123A4E020682968060601F104030AD5D5
:101A6C000E682B60002E03DA2D23764284F8433067
:101A7C000A235E4819E00E6810F0400F2B6018BF67
:101A8C0036B2EFE72B682068191D2960010601D5D5
:101A9C001E6802E04606FBD51E886F2F0CBF08237C
:101AAC000A235248002184F843106568002DA8BF12
:101ABC002168A560A4BF21F0040121600EB9002D9E
:101ACC004DD01546B6FBF3F103FB1167C75D05F866
:101ADC00017D3746BB420E46F4D9082B0BD1236847
:101AEC00DE0708D5236961689942DEBF302305F80B
:101AFC00013C05F1FF35521B22614B462146404605
:101B0C00CDF800A003AAFFF7DFFE01304CD14FF057
:101B1C00FF3004B0BDE8F087344881F8457029687F
:101B2C00236851F8046B29601D0614D5DF0744BFE8
:101B3C0043F0200323601EB9236823F020032360A5
:101B4C001023AFE7236843F0200323607823284851
:101B5C0084F84530E3E7590648BFB6B2E6E71546C8
:101B6C00BBE72B682668181D6169286035061B6861
:101B7C0001D5196002E07006FBD5198000231546CB
:101B8C002361BAE72B6800211A1D2A601D68626860
:101B9C00284600F09BFA08B1401B60606368236123
:101BAC00002384F84330A8E72A4649464046236977
:101BBC00D0470130ABD023689B0713D4E068039B5C
:101BCC009842B8BF1846A4E701233246494640461E
:101BDC00D04701309BD00135E36803995B1AAB42C7
:101BEC00F2DCEBE7002504F11906F5E731230008D8
:101BFC004223000838B50023054D044608462B60E7
:101C0C00FEF746FC431C02D12B6803B1236038BDA0
:101C1C00D000002010B50C46B1F90E1000F0B8FA47
:101C2C000028ABBF636DA3891B1823F48053ACBF92
:101C3C006365A38110BD2DE9F0411F468B890546D4
:101C4C00DB050C46164605D502230022B1F90E1011
:101C5C0000F0C4F9A389324623F48053A3812846AB
:101C6C003B46B4F90E10BDE8F04100F069B810B570
:101C7C000C46B1F90E1000F0B1F9431CA38915BF45
:101C8C00606523F4805343F48053A38118BFA38170
:101C9C0010BDB1F90E1000F0D3B80000F8B50E4627
:101CAC001446054618B183690BB9FFF781FB214B2C
:101CBC009C422BD16C68A369A360A3891A072FD50A
:101CCC0023696BB323692068F6B2C01A636937467F
:101CDC00834204DC2146284600F044F930BBA3685B
:101CEC000130013BA36023685A1C22601E7063699B
:101CFC00834204D0A389DB0706D50A2E04D12146E2
:101D0C00284600F02FF988B93846F8BD0A4B9C429A
:101D1C0001D1AC68CFE7094B9C4208BFEC68CAE71D
:101D2C002146284600F01EF80028CBD04FF0FF3794
:101D3C00EAE700BFE022000800230008C0220008E8
:101D4C0038B50446084611460022054D2A601A464D
:101D5C00FEF784FB431C02D12B6803B1236038BD12
:101D6C00D0000020324B70B51D6806460C4625B1DC
:101D7C00AB6913B92846FFF71BFB2E4B9C420FD1C6
:101D8C006C68A389B4F90C2019072CD4DD0611D486
:101D9C000923336042F040034FF0FF30A3813EE053
:101DAC00254B9C4201D1AC68EBE7244B9C4208BF0D
:101DBC00EC68E6E7580712D5616B41B104F14403B6
:101DCC00994202D0304600F09BF900236363A3894B
:101DDC0023F02403A3810023636023692360A38978
:101DEC0043F00803A38123694BB9A38903F420733F
:101DFC00B3F5007F03D02146304600F027F9A089C7
:101E0C00B4F90C2010F001030AD00023A36063691D
:101E1C005B42A361236943B910F08000BAD170BD55
:101E2C00810758BF6369A360F4E70020F7E700BFA0
:101E3C000C000020E022000800230008C02200084B
:101E4C0038B50023054D044608462B60FEF714FBFD
:101E5C00431C02D12B6803B1236038BDD000002095
:101E6C008A89F8B5054610070C4657D44B68002BE9
:101E7C0004DC0B6C002B01DC0020F8BDE66A002EA4
:101E8C00FAD0002312F480522F682B6032D0606D90
:101E9C00A3895A0705D56368C01A636B0BB1236C11
:101EAC00C01A00230246E66A2846216AB047431C42
:101EBC00A38906D129681D292CD8294ACA40D607DE
:101ECC0028D5002262602269D904226004D5421C04
:101EDC0001D12B6803B96065616B2F600029CBD0F1
:101EEC0004F14403994202D0284600F009F900207D
:101EFC006063C2E7216A01232846B047411CC7D161
:101F0C002B68002BC4D01D2B01D0162B01D12F60B8
:101F1C00B2E7A38943F04003A381AEE70F69002F1A
:101F2C00AAD0930718BF00230E6808BF4B69F61B95
:101F3C000F608B60002E9FDD33463A462846216A9F
:101F4C00D4F828C0E047002806DCA3894FF0FF3006
:101F5C0043F04003A38190E70744361AEAE700BF39
:101F6C000100402038B50B6905460C4613B9002515
:101F7C00284638BD18B183690BB9FFF719FA144B11
:101F8C009C421BD16C68B4F90C30002BEFD0626E04
:101F9C00D00704D4990502D4A06DFFF7A7FA284600
:101FAC002146FFF75DFF636E0546DA07E0D4A3898F
:101FBC009B05DDD4A06DFFF79AFAD9E7054B9C423F
:101FCC0001D1AC68DFE7044B9C4208BFEC68DAE750
:101FDC00E022000800230008C022000838B504469F
:101FEC00084611460022054D2A601A46FEF74EFAA5
:101FFC00431C02D12B6803B1236038BDD0000020F4
:10200C0070B50E46B1F90E10144600291D4696B057
:10201C0008DA0022B6F90C302A601A0610D44FF4F4
:10202C0080630EE06A4600F0C5F80028F1DB019AE7
:10203C0002F47042A2F500535A425A412A60EEE76C
:10204C0040230020236016B070BD00008B8973B54F
:10205C009D0706460C4607D504F147032360236110
:10206C000123636102B070BD6A4601ABFFF7C8FF84
:10207C00009905463046FFF75BFA48B9B4F90C30C5
:10208C009A05EFD423F0030343F00203A381E3E7A3
:10209C000D4BB362A389206043F08003A381009BA6
:1020AC0020616361019B5BB13046B4F90E1000F006
:1020BC0093F828B1A38923F0030343F00103A38110
:1020CC00A0890543A581CDE755130008034610B53B
:1020DC00C9B202449342184601D1002003E00478AF
:1020EC0001338C42F6D110BD0148FFF7FFB900BF98
:1020FC00C40000200148FFF7FAB900BFC40000205B
:10210C0038B50546002940D051F8043C0C1F002B73
:10211C00B8BFE418FFF7E8FF1C4A136833B96360D3
:10212C0014602846BDE83840FFF7E4BFA34208D945
:10213C00206821188B4201BF19685B68091821605F
:10214C00EDE71A465B680BB1A342FAD91168501837
:10215C00A0420BD120680144501883421160E0D199
:10216C0018685B68014411605360DAE702D90C23EC
:10217C002B60D6E7206821188B4201BF19685B6879
:10218C000918216063605460CBE738BDC80000209B
:10219C0038B50446084611460022054D2A601A46F9
:1021AC00FEF74EF9431C02D12B6803B1236038BDF6
:1021BC00D000002038B50023064D044608461146D1
:1021CC002B60FEF75CF9431C02D12B6803B1236032
:1021DC0038BD00BFD000002038B50023054D0446A3
:1021EC0008462B60FEF750F9431C02D12B6803B153
:1021FC00236038BDD0000020F8B500BFF8BC08BC87
:10220C009E467047F8B500BFF8BC08BC9E467047A8
:10221C0053574F20546573742C2062746E313A20DE
:10222C0025692C2062746E323A2025692C20627448
:10223C006E333A2025692C20764261743A20256C45
:10224C00752C204A6F79737469636B20416C7068CC
:10225C006120313A20256C752C204A6F7973746992
:10226C00636B204265746120313A20256C75200A1D
:10227C000000000000000000000102030406070833
:10228C00090000000001020304020304050607080C
:10229C00090A0B0C0D0E0F101001020203040506A7
:1022AC000708090A0B0C0D0E0F101001020000009C
:1022BC0010000020000000000000000000000000E2
:1022CC000000000000000000000000000000000002
:1022DC0000000000000000000000000000000000F2
:1022EC0000000000000000000000000000000000E2
:1022FC0000000000000000000000000000000000D2
:10230C0000000000000000000000000000000000C1
:10231C0000000000232D302B2000686C4C006566FB
:10232C00674546470030313233343536373839411A
:10233C004243444546003031323334353637383930
:08234C00616263646566000034
:04235400310100084B
:042358000D0100086B
:10235C000024F40001000000100000001000002018
:10236C0000000000E022000800230008C022000842
:10237C000000000000000000000000000000000051
:10238C000000000000000000000000000000000041
:10239C000000000000000000000000000000000031
:1023AC000000000000000000000000000000000021
:1023BC000000000000000000000000000000000011
:04000005080004E10A
:00000001FF
