:020000040800F2
:1000000000000220511500088D1400088F1400080C
:1000100091140008931400089514000800000000D3
:10002000000000000000000000000000971400081D
:1000300099140008000000009B1400089D1400089B
:10004000A1150008A1150008A1150008A1150008B8
:10005000A1150008A1150008A1150008A1150008A8
:10006000A1140008A1150008A1150008A115000899
:10007000A1150008A1150008A1150008A115000888
:10008000A1150008A1150008A1150008A115000878
:10009000A1150008A1150008A1150008A115000868
:1000A000A1150008A1150008A1150008A115000858
:1000B000A1150008A1150008A1150008A115000848
:1000C000A1150008A1150008A1150008A115000838
:1000D000A1150008A1150008A1150008A115000828
:1000E000A7140008A1150008A1150008A115000813
:1000F000A1150008A1150008A1150008A115000808
:10010000A1150008A1150008A1150008A1150008F7
:10011000A1150008A1150008A1150008A1150008E7
:10012000A1150008A1150008A1150008A1150008D7
:10013000A1150008A1150008A1150008A1150008C7
:10014000A1150008A1150008A1150008A1150008B7
:10015000A1150008A1150008A1150008A1150008A7
:10016000A1150008A1150008A1150008A115000897
:10017000A1150008A1150008A1150008A115000887
:10018000A1150008A1150008A1150008A115000877
:10019000A115000800000000A1150008A115000825
:1001A000A1150008A1150008A1150008A115000857
:1001B000A1150008A1150008A1150008A115000847
:1001C000A1150008A1150008A1150008A115000837
:0801D000A1150008A1150008AB
:1001E00010B5054C237833B9044B13B10448AFF371
:1001F00000800123237010BD680000200000000073
:100200004C45000808B5034B1BB103490348AFF345
:10021000008008BD000000006C0000204C45000874
:10022000034613F8012B002AFBD1181A0138704736
:1002300001F0FF01102A2BDB10F0070F08D010F897
:10024000013B013A8B422DD010F0070F42B3F6D19B
:10025000F0B441EA012141EA014122F007047FF0B4
:1002600000070023F0E80256083C85EA010586EA0B
:10027000010685FA47F5A3FA87F586FA47F6A5FA47
:1002800087F68EB9EED1F0BC01F0FF0102F0070253
:1002900032B110F8013B013A83EA010313B1F8D1FE
:1002A0000020704701387047002D06BF35460338DF
:1002B000073815F0010F07D1013015F4807F02BF18
:1002C000013015F4C03F0130F0BC0138704700BF69
:1002D00053B94AB9002908BF00281CBF4FF0FF31AD
:1002E0004FF0FF3000F088B9ADF1080C6DE904CE95
:1002F00000F006F8DDF804E0DDE9022304B0704701
:100300002DE9F047089D8E4604468846002B4AD1C9
:100310008A42174662D9B2FA82F64EB1C6F120037C
:1003200001FA06F820FA03F3B74043EA0808B4409C
:100330004FEA174E1FFA87FCB8FBFEF1230C0EFBA9
:10034000118843EA084301FB0CF29A4209D9FB18D1
:1003500001F1FF3080F0EA809A4240F2E7800239F2
:100360003B449A1AA3B2B2FBFEF00EFB102243EA02
:10037000024300FB0CFC9C4509D9FB1800F1FF323D
:1003800080F0D6809C4540F2D3803B44023840EA5E
:100390000140A3EB0C0300211DB1F3400022C5E98D
:1003A0000032BDE8F0878B4205D90DB1C5E90001E7
:1003B00000210846F5E7B3FA83F1002946D17345D9
:1003C00002D3824200F20581841A6EEB03020120FF
:1003D0009046002DE5D0C5E90048E2E7002A00F08C
:1003E0009080B2FA82F6002E40F0A4808A1A030CA4
:1003F0004FEA174E80B2BCB20121B2FBFEFC0EFBED
:100400001C2243EA024304FB0CF29A4207D9FB1870
:100410000CF1FF3802D29A4200F2E080C4469B1AE7
:10042000B3FBFEF20EFB123340EA034302FB04F47B
:100430009C4207D9FB1802F1FF3002D29C4200F225
:10044000CA8002461B1B42EA0C40A5E7C1F1200608
:100450008B4022FA06F71F430EFA01F420FA06F346
:100460002EFA06FE4FEA1749234300FA01F81FFA55
:1004700087FCBEFBF9F01C0C09FB10EE44EA0E44AD
:1004800000FB0CFEA64502FA01F209D93C1900F165
:10049000FF3A80F09C80A64540F2998002383C44A7
:1004A000A4EB0E041FFA83FEB4FBF9F309FB13441B
:1004B0004EEA044403FB0CFCA44508D93C1903F1A3
:1004C000FF3E80F08280A4457FD9023B3C4443EA52
:1004D0000040A4EB0C04A0FB02EC64457346E1462B
:1004E00062D35FD05DB1B8EB030264EB090404FA98
:1004F00006F622FA01F31E43CC40C5E90064002150
:100500004FE7B1FBF2FC010C41EA0E4180B240EA38
:1005100001423B4638463C46B846BE462026B1FB23
:10052000F7F1A2EB080241EA0C4166E7014618E741
:1005300010462CE7C6F120022EFA02F3B740B14074
:1005400020FA02F24FEA174E0A43B3FBFEF8BCB2A0
:100550000EFB1833110C41EA034108FB04F9B040CB
:1005600089454FEA104380B23ED9791808F1FF3C23
:1005700001D289451FD8A1EB0901B1FBFEF909FBA6
:1005800004F80EFB191192B242EA0142424529D207
:10059000BA1809F1FF31C4D24245C2D2A9F1020111
:1005A0003A44BEE7F0459DD2BEEB02036CEB070C6C
:1005B0000138E14696E7A7EB09094944A8F1020C86
:1005C000B1FBFEF909FB04F8DBE773467FE7504611
:1005D00066E70846FDE63B44023A33E7ACF1020C1D
:1005E0003B441CE749469CE7A1EB0901C446B1FB2B
:1005F000FEF909FB04F8C4E7704700BF0248012276
:10060000102101F0D3B900BF0008004801221021D9
:100610004FF0904001F0CAB9024608B1FFF7EEBFB3
:100620000148102101F0C2B900080048024608B193
:10063000FFF7ECBF10214FF0904001F0B7B9000078
:1006400013B5044604F01F040020FFF7E5FF8DF802
:1006500004400A4C01A964230122204602F067F8F5
:10066000642301220DF10501204602F059FA9DF89C
:100670000540FFF7C3FF204602B010BD180100205F
:1006800073B5044604F01F0400200D461646FFF71C
:10069000C3FF8DF80440084C01A9642301222046C1
:1006A00002F045F8642332462946204602F038FA23
:1006B000FFF7A4FF02B070BD1801002037B5044653
:1006C00000200D4644F02004FFF7A6FF6423022219
:1006D00001A905488DF804408DF8055002F027F86F
:1006E000FFF78CFF03B030BD1801002073B504463E
:1006F00044F0200400200D461646FFF78DFF8DF8CC
:100700000440084C01A964230122204602F00FF89E
:10071000642332462946204602F009F8FFF76EFFAF
:1007200002B070BD18010020FF21E120FFF7C6BF15
:10073000FF21E220FFF7C2BF08B50020FFF780FFCE
:1007400040F00301C9B20020FFF7B8FF0849D1E922
:100750000032134303D005220A20FFF7C7FFFFF73B
:10076000E3FFFFF7E5FFBDE80840FFF74FBF00BF1D
:100770008001002008B50020FFF758FFFFF7D4FFE5
:10078000BDE80840FFF7D4BF7F28014628BF7F217E
:100790000520FFF793BF08B51D20FFF751FF00F0BC
:1007A000FB011D20FFF78AFFBDE8084000211C2047
:1007B000FFF784BF10B504460620FFF741FF042C65
:1007C00000F0F90107D8022C0DD8012C08D0022C1A
:1007D00001D141F00401BDE810400620FFF76EBFD3
:1007E00041F00201F7E741F00601F4E738B50546AC
:1007F0000620FFF725FF022D00F0D7040CD144F0AE
:10080000200421460620FFF759FF0620FFF718FFB6
:10081000031B5842584138BD012D08BF44F008045D
:10082000EFE710B504460020FFF70AFF00F0F301E0
:100830002CB1012C0CBF41F0080141F00C01BDE8C6
:1008400010400020FFF73ABF08B50020FFF7F8FE80
:10085000BDE8084000F0FD010020FFF72FBF08B5FC
:100860000920FFF7EDFE00F0010008BD7021072010
:10087000FFF724BF07B50020FFF7CEFE47F2503345
:10088000ADF804300222642301A9044801F04FFFAF
:10089000FFF7B4FE03B05DF804FB00BF18010020B1
:1008A00010B5A0B0BC4907A802F0F7FE07A8FFF7F3
:1008B000B7FC0A2382B207A9B84802F0DBFB00208C
:1008C000FFF7BEFE040740F1328240074CBFB44937
:1008D000B44907A802F0E1FE07A8FFF7A1FC0A232C
:1008E00082B207A9AD4802F0C5FB0120FFF7A8FEC0
:1008F000C0F340130393C0F300130293C0F3C0038B
:100900000193C0F3800300F00102A7490093C0F3F4
:10091000400307A802F0E0FD07A8FFF781FC0A23C7
:1009200082B207A99D4802F0A5FB0220FFF788FECE
:10093000C0F340130393C0F300130293C0F3C0034A
:100940000193C0F3800300F0010298490093C0F3C3
:10095000400307A802F0C0FD07A8FFF761FC0A23C7
:1009600082B207A98D4802F085FB0320FFF768FEDD
:1009700000F003028E49023207A802F0ADFD07A87D
:10098000FFF74EFC0A2382B207A9844802F072FBEB
:100990000520FFF755FE874900F07F0207A802F007
:1009A0009BFD07A8FFF73CFC07A982B20A237B48FE
:1009B00002F060FB0620FFF743FE01074CBF7E49B3
:1009C0007E49044607A802F068FE07A8FFF728FC46
:1009D0000A2382B207A9714802F04CFB14F0060FFB
:1009E000C4F3410340F0A581754907A802F055FE04
:1009F00007A8FFF715FC0A2382B207A9674802F08F
:100A000039FB05A905220A20FFF73AFE9DF81430AC
:100A100002939DF8153001939DF816309DF818202B
:100A20006849009307A89DF8173002F055FD07A804
:100A3000FFF7F6FB0A2382B207A9584802F01AFB17
:100A400005A905220B20FFF71BFE9DF81430029329
:100A50009DF8153001939DF816309DF818205A49DD
:100A6000009307A89DF8173002F036FD07A8FFF79E
:100A7000D7FB0A2382B207A9484802F0FBFA05A96E
:100A800001220C20FFF7FCFD9DF814204F4907A818
:100A900002F022FD07A8FFF7C3FB0A2382B207A9D1
:100AA0003E4802F0E7FA05A901220D20FFF7E8FD14
:100AB0009DF81420464907A802F00EFD07A8FFF78D
:100AC000AFFB0A2382B207A9344802F0D3FA05A982
:100AD00001220E20FFF7D4FD9DF814203D4907A800
:100AE00002F0FAFC07A8FFF79BFB0A2382B207A9D2
:100AF0002A4802F0BFFA05A901220F20FFF7C0FD26
:100B00009DF81420344907A802F0E6FC07A8FFF777
:100B100087FB0A2382B207A9204802F0ABFA05A995
:100B200005221020FFF7ACFD9DF8143002939DF8CC
:100B3000153001939DF816309DF818202749009331
:100B400007A89DF8173002F0C7FC07A8FFF768FB5D
:100B50000A2382B207A9114802F08CFA1120FFF78C
:100B60006FFD1F4900F03F0207A802F0B5FC07A87F
:100B7000FFF756FB0A2382B207A9084802F07AFA67
:100B80001220FFF75DFD174900F03F0207A802F0B1
:100B9000A3FC07A828E000BF6445000884000020EB
:100BA00097450008B3450008E245000826460008BE
:100BB0006F460008884600089B460008B2460008B9
:100BC000C94600081647000846470008764700084F
:100BD0009E470008C6470008EE4700081648000870
:100BE0004048000859480008FFF71AFB0A2382B260
:100BF00007A9544802F03EFA1320FFF721FD52499D
:100C000000F03F0207A802F067FC07A8FFF708FB07
:100C10000A2382B207A94B4802F02CFA1420FFF7EE
:100C20000FFD4A4900F03F0207A802F055FC07A853
:100C3000FFF7F6FA0A2382B207A9424802F01AFA2D
:100C40001520FFF7FDFC424900F03F0207A802F023
:100C500043FC07A8FFF7E4FA0A2382B207A9394840
:100C600002F008FA1620FFF7EBFC3A4900F03F02C9
:100C700007A802F031FC07A8FFF7D2FA07A982B251
:100C80000A23304802F0F6F91C20FFF7D9FCC0F324
:100C900040130393C0F300130293C0F3C003019306
:100CA000C0F3800300F001022B490093C0F340031E
:100CB00007A802F011FC07A8FFF7B2FA07A982B251
:100CC0000A23204802F0D6F91D20FFF7B9FC42079D
:100CD0004CBF22492249044607A802F0DEFC07A8BF
:100CE000FFF79EFA07A90A2382B2164802F0C2F95A
:100CF000A3074CBF1B491C4907A802F0CEFC07A85C
:100D0000FFF78EFA0A2382B207A90E4802F0B2F961
:100D1000164907A802F0C1FC07A8FFF781FA0A23C9
:100D200082B207A9074802F0A5F920B010BD10490A
:100D3000CFE5012B01D10F4957E6022B0CBF0E491D
:100D40000E4952E684000020724800088B480008D3
:100D5000A4480008BD480008D648000820490008FB
:100D6000364900084D4900086749000864450008F5
:100D7000CE450008DD460008F1460008044700089B
:100D800084B037B506AC84E80F006422214653488E
:100D900002F08BFCFFF732FC0020FFF747FC052038
:100DA00000F098FC08210020FFF788FC3F2101207B
:100DB000FFF784FC03210220FFF780FC0321084693
:100DC000FFF77CFC03210420FFF778FC02210520BB
:100DD000FFF774FC0F210620FFF770FC0E2107209F
:100DE000FFF76CFC00210820FFF768FC00210920B8
:100DF000FFF764FC4FF0E735E724694605220A2037
:100E000000958DF80440FFF771FC4FF0C2330522C6
:100E100000936946C2230B208DF80430FFF766FC6F
:100E2000C3210C20FFF74AFCC4210D20FFF746FC2C
:100E3000C5210E20FFF742FCC6210F20FFF73EFC24
:100E400005226946102000958DF80440FFF74EFCFE
:100E500000211120FFF732FC00211220FFF72EFCA9
:100E600000211320FFF72AFC00211420FFF726FCA5
:100E700000211520FFF722FC00211620FFF71EFCA1
:100E8000FFF7F8FC00211C20FFF718FC00211D20B3
:100E9000FFF714FCFFF704FDFF210420FFF70EFC11
:100EA0000320FFF787FC0120FFF7A0FC0220FFF7DB
:100EB000B8FCFFF770FC0A4B20221A70FFF7D6FC33
:100EC0004C20FFF761FCFFF72FFCFFF731FCFFF729
:100ED000BBFC03B0BDE8304004B0704718010020EF
:100EE0007C01002030B51F4D1F4C9FB0294605A83E
:100EF00002F0D3FB05A8FFF793F905A982B20A23F4
:100F0000204602F0B7F80720FFF79AFB10F0060F13
:100F100000F00103029314BF012300230193C0F3E7
:100F20000013C0F3801211490093C0F3401305A8C9
:100F300002F0D2FA05A8FFF773F90A2382B205A9D5
:100F4000204602F097F8294605A802F0A6FB05A85E
:100F5000FFF766F90A2382B205A9204602F08AF853
:100F60001FB030BD8249000884000020A04900085D
:100F700030B5194D194C9BB0294601A802F08DFBE4
:100F800001A8FFF74DF901A982B20A23204602F019
:100F900071F80020FFF754FB114900F00103C0F382
:100FA000400201A802F098FA01A8FFF739F90A23D4
:100FB00082B201A9204602F05DF8294601A802F09C
:100FC0006CFB01A8FFF72CF90A2382B201A9204685
:100FD00002F050F81BB030BD8249000884000020A8
:100FE000F749000884B008B50DF1080C8CE80F0033
:100FF00004489422614602F058FBBDE8084004B062
:10100000704700BF8400002030B51C4D1C4C9DB0C3
:10101000294603A802F041FB03A8FFF701F903A941
:1010200082B20A23204602F025F81720FFF708FBBA
:1010300000F001030193C0F34003C0F340121149D3
:101040000093C0F3001303A802F046FA03A8FFF7C9
:10105000E7F80A2382B203A9204602F00BF82946DA
:1010600003A802F01AFB03A8FFF7DAF80A2382B2FA
:1010700003A9204601F0FEFF1DB030BD82490008E3
:1010800084000020234A000807B54FF6FF73019043
:10109000012201A9024801F0EDFF03B05DF804FB55
:1010A0006C02002010B594B03822002106A802F08E
:1010B00078FA1422002101A802F073FA002000F04F
:1010C00087FC40224FF480710223CDE909120424E9
:1010D000552206A8CDE90D33CDE90F42CDE91133F4
:1010E0000693139300F0D4FC08B172B6FEE7CDE985
:1010F00003000F2203230590214601A8CDE9012317
:1011000000F008FF08B172B6FEE714B010BD000091
:101110002DE9F043ADB000F0BBFAFFF7C3FF142296
:10112000002127A802F03DFA864BDA6C42F0040257
:10113000DA64DA6C02F004022392239ADA6C42F049
:101140002002DA64DA6C02F020022492249ADA6C2B
:1011500042F00102DA64DA6C02F001022592259A6B
:10116000DA6C42F00202DA64DB6C03F002032693CD
:10117000002210214FF09040269B00F017FC002227
:1011800071481021002500F011FC0124102627A928
:101190004FF09040CDE92764CDE9295500F03CFBA4
:1011A000694827A9CDE92764CDE9295500F034FB2A
:1011B0004FF488130421CDE927136448299527A902
:1011C00000F02AFB21462A46082000F0A9FA082050
:1011D00000F0D8FA5E4C5F48A5604FF48273C4E912
:1011E00000034FF4E063C4E903354FF40076202395
:1011F000C4E906630723C4E90B3520460823C4E984
:1012000008556561A562636301F023FA08B172B6FF
:10121000FEE7514D514A28614FF4E133C5E90023FF
:101220000C23C5E90200C5E90530C5E90800A8623C
:10123000284601F0CFFF014608B172B6FEE7284606
:1012400002F035F8014608B172B6FEE7284602F012
:101250004EF808B172B6FEE7284602F00DF80646D1
:1012600008B172B6FEE73E4802F024F9542204F1B8
:101270001001684602F019FA94E80F00FFF780FDAC
:1012800005F110018422684602F00FFA95E80F007C
:10129000FFF7A8FEFFF704FBFFF724FEFFF768FE49
:1012A000FFF7B2FE2F4D31112846013602F002F948
:1012B000802EF8D12C482B4D02F0FCF8002404F0CD
:1012C0000F012846013402F0F5F8802CF7D12648AA
:1012D000DFF89C80DFF88C90234F02F0EBF80121BF
:1012E000002000F05FF980220021404602F059F909
:1012F00064241E4E7F25E8B2FFF746FAFFF71CFA7A
:10130000012000F0E7F9FFF735FAFFF7A8FA10B16E
:10131000337801333370013D6B1C06F1FF36EAD19F
:10132000013CE6D1124D15F8011B484601F00F01B2
:10133000013402F0BFF8802CF5D1384602F0BAF83B
:10134000D1E700BF00100240000800480004004838
:1013500008020020003001406C02002000800040A4
:10136000784A0008864A0008834A000807020020DD
:101370008801002072B6FEE70B4B1A6E42F00102A4
:1013800082B01A661A6E02F001020092009A9A6DFB
:1013900042F080529A659B6D03F080530193019B4C
:1013A00002B000F06DBB00BF0010024010B59CB051
:1013B00004461422002102A802F0F3F8542200216E
:1013C00007A802F0EEF82268164B9A4227D1202394
:1013D00007A8079300F0B6FE08B1FFF7CBFF124B4A
:1013E000DA6D42F00102DA65DA6D02F00102009274
:1013F000009ADA6C42F00102DA64DB6C03F001035C
:1014000001930222019B0C23CDE9023202A90022A2
:101410004FF09040CDE90422069300F0FDF91CB096
:1014200010BD00BF008000400010024010B504460F
:1014300088B01422002103A802F0B3F82268124BEE
:101440009A421ED103F5604303A91A6E42F48052FA
:101450001A661A6E02F480520192019ADA6C42F016
:101460000102DA64DB6C03F001030293029BE022C9
:101470000223CDE903234FF090400523079300F0AA
:10148000CBF908B010BD00BF00300140FEE7FEE719
:10149000FEE7FEE7FEE770477047704700F008B9C7
:1014A000042000F089BA002000F0BEB870B50D46E7
:1014B00014460E46731B9C4201DC204670BDAFF300
:1014C000008006F8010BF5E770B50D4614460E4690
:1014D000731B9C4201DC204670BD16F8010BFFF720
:1014E000D3FDF5E74FF0FF3070474FF400534B60EA
:1014F0000020704701207047002070470B4A116898
:1015000010B5034609B90A491160106809490A4C27
:101510000344091B8B4206D902F092F80C230360A6
:101520004FF0FF3010BD1360FCE700BF0003002048
:10153000600400200000022000040000034AD2F8EA
:10154000883043F47003C2F88830704700ED00E043
:101550000D488546FFF7F2FF0C480D490D4A002360
:1015600002E0D458C4500433C4188C42F9D30A4A58
:101570000A4C002301E013600432A242FBD302F0C4
:1015800065F8FFF7C5FDFEE700000220000000201F
:10159000680000200C4B0008680000205C0400205C
:1015A000FEE7000030B51B4BDA6C42F0040287B056
:1015B000DA64DB6C03F004030093009B4FF40053E8
:1015C00001930223CDE90333054639B9029112484C
:1015D00001A900F021F9002007B030BD0F4C0E48E2
:1015E0004FF4881301A904EBC504029300F014F929
:1015F0000B49204600F0F2F80A4A0021204600F08C
:10160000E3F800220F21282000F08AF8282000F0BB
:10161000B9F8E0E700100240000800480403002089
:101620000D0000063B160008024B03EBC00000F063
:10163000DBB800BF04030020704708B50020FFF7A7
:10164000FBFF08BD38B50F4B1A6805460AB90120E3
:1016500038BD4FF47A73B3FBF2F30B4A1068B0FB5A
:10166000F3F000F09DF804460028F0D10F2DEED8DD
:10167000024629464FF0FF3000F052F8034B204657
:101680001D60E5E7040000200000002008000020A5
:1016900010B5032000F032F80020FFF7D3FF044616
:1016A00018B9FFF769FE204610BD0124FBE70000D2
:1016B000034A0449136809680B441360704700BF6C
:1016C0000C03002004000020014B1868704700BF85
:1016D0000C03002038B50446FFF7F6FF631C1CBF5F
:1016E000054B1B68054618BFE418FFF7EDFF431BC9
:1016F000A342FAD338BD00BF040000200749CA68DE
:1017000022F4E0620302120403F4E063120C1343B8
:1017100043F0BF6343F40033CB60704700ED00E05B
:10172000164B30B5DC68C4F30224C4F10703251D51
:10173000042B28BF0423062D4FF0FF358CBF033C3C
:10174000002405FA03F321EA0303A54022EA050277
:10175000A340002843EA0203ACBF00F16040084AFE
:101760004FEA0313B8BF00F00F00DBB2AABF00F5C9
:101770006140135480F8003330BD00BF00ED00E03D
:1017800014ED00E0002807DB044A4109012300F0C2
:101790001F00834042F82130704700BF00E100E0A5
:1017A0000138B0F1807F0BD24FF0E023054A586139
:1017B000F02182F823100020072298611A617047F7
:1017C0000120704700ED00E00029034618BF002209
:1017D00008465A600CBF08460120704710B10160EE
:1017E00000207047012070470368012203F01F01A9
:1017F000C3F300438A405B01064910B45C581442AD
:1018000005D05A50436813B15DF8044B18475DF892
:10181000044B7047140401402DE9F74FDFF888911D
:101820005F4C00230A6832FA03F502D103B0BDE829
:10183000F08F012505FA03F818EA020200F0A480EF
:101840004E68032706F003054FEA430E07FA0EFC25
:101850006F1E012F6FEA0C0C34D8876807EA0C0A58
:10186000CF6807FA0EF747EA0A078760476827EA52
:101870000808C6F300179F4047EA08074760C76893
:1018800007EA0C088F6807FA0EF747EA0807022DE7
:10189000C76019D14FEAD30800EB880803F0070AA4
:1018A000D8F820704FEA8A0A4FF00F0B0BFA0AFBA8
:1018B00027EA0B0B0F6907FA0AF747EA0B07C8F884
:1018C000207001E0032DDAD1076805FA0EF507EA6A
:1018D0000C073D4316F4403F056055D0D9F86050E1
:1018E00045F00105C9F86050D9F8605023F00307AE
:1018F00007F1804705F0010507F58037019503F0F2
:10190000030C019DBD684FEA8C0C4FF00F0E0EFAD0
:101910000CFEB0F1904F25EA0E0E37D0214DA842B3
:1019200036D005F58065A84234D005F58065A8421B
:1019300032D005F58065A84230D005F58065A84213
:1019400014BF0625052505FA0CF545EA0E05BD6010
:10195000A568D74316F4801F0CBF3D401543A56012
:10196000E56816F4001F0CBF3D401543E56065684F
:1019700016F4003F0CBF3D40154365602568F60333
:1019800054BF3D401543256001334BE70025DAE79E
:101990000125D8E70225D6E70325D4E70425D2E7B9
:1019A0000004014000040048001002400AB18161B7
:1019B0007047816270477047044A5169014208B517
:1019C00002D05061FFF7F7FF08BD00BF00040140DF
:1019D000284B1A6818BB02F4C062B2F5806FD3F8C6
:1019E000802022F48072C3F8802040D11A6822F44B
:1019F000C06242F400721A601F4A126832214A43E0
:101A00001E49B2FBF1F201325969490500D522B9EC
:101A10005B6958052BD503207047013AF4E7B0F510
:101A2000007F1FD102F4C062B2F5806FD3F880202E
:101A300042F48072C3F8802019D11A6822F4C0627F
:101A400042F400721A600C4A126832214A430B4970
:101A5000B2FBF1F2013259694905D9D5002AD7D034
:101A6000013AF8E722F4C06242F480621A60002072
:101A7000704700BF007000400000002040420F008F
:101A8000024A936843F480439360704700700040BB
:101A90002DE9F341044618B9012002B0BDE8F081F8
:101AA0000368D90714D423689A0758D42368190700
:101AB00000F1A18023685A0700F1C88023689A06C4
:101AC00000F12F81E369002B40F05C810020E4E706
:101AD0009F4DAB68EA6803F00C030C2B0AD102F0AF
:101AE0000303032B08D12B689B03DCD56368002B11
:101AF000D9D1D1E7082BF5E76368B3F5803F10D162
:101B00002B6843F480332B60FFF7DEFD06462B681D
:101B10009F03C8D4FFF7D8FD801B6428F7D90320A2
:101B2000BBE7B3F5A02F04D12B6843F480232B60CF
:101B3000E6E72A6822F480322A602A6822F48022AA
:101B40002A60002BE0D1FFF7BFFD06462B68990302
:101B5000A9D5FFF7B9FD801B6428F7D9DFE77C4DD5
:101B6000AB68EA6803F00C030C2B17D102F00303F7
:101B7000022B15D12B685A0502D5E368002B8BD0B8
:101B80006B68226923F0FE4343EA02636B60714B8A
:101B90001868FFF757FD002888D07DE7042BE8E799
:101BA000E368BBB12B6843F480732B60FFF78CFDB7
:101BB00006462B685B0507D56B68226923F0FE4358
:101BC00043EA02636B6071E7FFF77EFD801B02282A
:101BD000EFD9A4E72B6823F480732B60FFF774FD23
:101BE00006462B685F057FF561AFFFF76DFD801B33
:101BF0000228F6D993E76369554D9BB1D5F8943027
:101C000043F00103C5F89430FFF75EFD0646D5F8B2
:101C100094309B073FF54EAFFFF756FD801B02281F
:101C2000F5D97CE7D5F8943023F00103C5F894305A
:101C3000FFF74AFD0646D5F894309F077FF53AAF87
:101C4000FFF742FD801B0228F5D968E7404DAB6DD8
:101C5000D80027D4AB6D43F08053AB65AB6D03F078
:101C600080530193019B01273B4E3368D9051BD557
:101C7000A368012B29D1D5F8903043F00103C5F8B2
:101C80009030FFF721FD41F288380646D5F89030B4
:101C90009B0740D5002F3FF411AFAB6D23F080536D
:101CA000AB650BE70027DFE7336843F480733360ED
:101CB000FFF70AFD80463368DA05D9D4FFF704FD43
:101CC000A0EB08000228F6D929E7052B06D1D5F8A4
:101CD000903043F00403C5F89030CCE7D5F890205D
:101CE00022F00102C5F89020D5F8902022F00402DD
:101CF000C5F89020002BC4D1FFF7E6FC41F28838EC
:101D00000646D5F890309907C4D5FFF7DDFC801B57
:101D10004045F6D903E7FFF7D7FC801B4045B5D90E
:101D2000FDE6A3690A4DCBB1D5F8983043F0010325
:101D3000C5F89830FFF7C8FC0646D5F898309B07E1
:101D40003FF5C0AEFFF7C0FC801B0228F5D9E6E6E0
:101D5000001002400800002000700040D5F89830C4
:101D600023F00103C5F89830FFF7AEFC0646D5F81E
:101D700098309F077FF5A6AEFFF7A6FC801B0228D0
:101D8000F5D9CCE6454DAA6802F00C020C2A51D0D8
:101D9000022B2B6823F080732B603AD1FFF794FC61
:101DA00006462B6899012ED4EA683D4B1340226AFF
:101DB0001343A26A43EA0223E26A43EAC263626A05
:101DC000013A43EA0213226B5208013A43EA4253B2
:101DD000626B5208013A43EA4263EB602B6843F0BE
:101DE00080732B60EB6843F08073EB60FFF76CFC53
:101DF00004462B689A013FF569AEFFF765FC001BAE
:101E00000228F6D98BE6FFF75FFC801B0228C8D9B1
:101E100085E6FFF759FC04462B689B0104D4EA6869
:101E2000204B1340EB6051E6FFF74EFC001B0228ED
:101E3000F2D974E6012B3FF42FAEEB68226A03F06F
:101E4000030191427FF428AE616A03F0F002013988
:101E5000B2EB011F7FF420AEA16A03F4FE42B2EBA5
:101E6000012F7FF419AEE16A03F07842B2EBC16F43
:101E70007FF412AE226B520803F4C001013AB1EBB9
:101E8000425F7FF409AE626B5208013A03F0C0630F
:101E9000B3EB426F14BF01200020FEE500100240AA
:101EA0000C809F01FCFFEEFE174B9A6802F00C02BB
:101EB000042A23D09A6802F00C02082A20D09A68DB
:101EC00002F00C020C2A1DD1D968DA68D868DB68E8
:101ED00001F00301C3F341630329C2F30312C0F30A
:101EE000062003F101030CBF084909495B000132D8
:101EF000B1FBF2F25043B0FBF3F070470448704777
:101F000002487047002070470010024000366E0102
:101F10000024F4002DE9F8430E46054610B90120CF
:101F2000BDE8F8836D4A136803F00F038B4245D375
:101F3000296811F001084CD12A68910740F1A78067
:101F4000674B12F0040F1EBF996841F4E06199607D
:101F5000120741BF9A6822F47C5242F4E0629A6010
:101F60009A68A96822F0F0020A439A605B4C2368E1
:101F700003F00F03B34200F293802A68584C12F02A
:101F8000040F40F0A380130706D5A3682A6923F441
:101F9000605343EAC203A360FFF786FFA368514A78
:101FA000C3F30313D35C03F01F03D8404E4B1860F8
:101FB0004E4B1868BDE8F843FFF744BB136823F0A5
:101FC0000F030B431360136803F00F038B42A6D17A
:101FD000AEE76F68424C032F236849D19B019ED521
:101FE000E368E26803F00303032BE3680CBF404897
:101FF0004048C2F30312C3F306230132B0FBF2F2EE
:102000005343E268C2F3416201325200B3FBF2F380
:10201000394A93421AD84FF00008A36823F003030B
:102020003B43A360FFF750FB41F288390746A368A2
:102030006A6803F00C03B3EB820F3FF47DAFFFF748
:1020400043FBC01B4845F2D9032069E7A36813F09E
:10205000F00F04D08807DED5AB68002BDBD1A36876
:1020600023F0F00343F08003A3604FF08008D4E72F
:10207000022F09D113F4003F3FF451AFFFF714FFD3
:102080001D4B9842C7D9EAE713F4806FF4E7B8F123
:10209000800F01BF124A936823F0F003936065E755
:1020A000236823F00F0333432360FFF70DFB41F256
:1020B00088380746236803F00F03B3423FF45DAF4F
:1020C000FFF702FBC01B4045F4D9BDE7A368E968F0
:1020D00023F4E0630B43A36055E700BF00200240F8
:1020E00000100240C44A0008000000200800002040
:1020F00000366E010024F40000B4C404054B064A07
:102100009B68C3F30223D35C044A106803F01F03E7
:10211000D840704700100240BC4A00080000002070
:10212000054B064A9B68C3F3C223D35C044A10687C
:1021300003F01F03D840704700100240BC4A00085B
:10214000000000202DE9F3410446006810F400204F
:102150005AD0254DAB6DD80044D4AB6D43F08053BD
:10216000AB65AB6D03F080530193019B01261F4FBC
:102170003B6843F480733B60FFF7A6FA80463B68F8
:10218000D90535D5D5F89030226D13F440731FD0A2
:102190009A421DD0D5F89020D5F8903043F4803382
:1021A000C5F89030D5F8903022F4407123F4803394
:1021B000D207C5F89030C5F8901009D5FFF784FA1A
:1021C00041F288380746D5F890309B0740F12981C5
:1021D000D5F89030226D23F440731343C5F8903046
:1021E00000200CE00026C2E7001002400070004012
:1021F000FFF76AFAA0EB08000228C0D903201EB13D
:10220000AB6D23F08053AB652368DD0708D58849A3
:102210006568D1F8882022F003022A43C1F888209B
:10222000990708D58249A568D1F8882022F00C02C8
:102230002A43C1F888205A0708D57D49E568D1F8B6
:10224000882022F030022A43C1F888201F0708D5D1
:1022500077492569D1F8882022F0C0022A43C1F8C5
:102260008820DE0608D572496569D1F8882022F4F5
:1022700040722A43C1F888209D0608D56C49A5699B
:10228000D1F8882022F440622A43C1F888205906F8
:1022900008D56749E569D1F8882022F440522A43DD
:1022A000C1F888201A0608D56149256AD1F8882026
:1022B00022F440422A43C1F88820DF0508D55C4952
:1022C000656AD1F8882022F440322A43C1F8882078
:1022D0009E0308D55649A56AD1F89C2022F0030236
:1022E0002A43C1F89C209D0508D55149E56AD1F8DB
:1022F000882022F440222A43C1F8882059050FD5AE
:102300004B49256BD1F8882022F440122A43C1F8AA
:102310008820B5F5801F02BFCA6842F48012CA60E7
:102320001A050FD54249656BD1F8882022F4400286
:102330002A43C1F88820B5F5800F02BFCA6842F46D
:102340008012CA60DF040FD53949A56BD1F8882007
:1023500022F040722A43C1F88820B5F1807F02BF85
:10236000CA6842F48012CA609E040FD53049E56BFA
:10237000D1F8882022F040622A43C1F88820B5F1C4
:10238000006F02BFCA6842F48012CA605D040FD5B4
:102390002749256CD1F8882022F040622A43C1F8F1
:1023A0008820B5F1006F02BFCA6842F48012CA608B
:1023B00019040FD51E49656CD1F8882022F04052CF
:1023C0002A43C1F88820B5F1805F02BFCA6842F491
:1023D0008032CA60DA030FD51549A56CD1F8882080
:1023E00022F040422A43C1F88820B5F1804F02BF55
:1023F000CA6842F48032CA605B030FD50C4AE16CB4
:10240000D2F89C3023F440130B43B1F5001FC2F8FF
:102410009C3003D1D36843F48013D36002B0BDE88D
:10242000F081FFF751F9C01B40457FF6CCAEE5E6E1
:1024300000100240F7B50E4614460546FFF744F972
:102440003444241AFFF740F9224B1B68C3F3CB3303
:102450006343074601932A68906810F080002DD0EE
:10246000731CF9D0FFF730F9C01BA04228D32B68AA
:102470005A6822F0E0025A606A68B2F5827F0AD197
:10248000AA68B2F5004F02D0B2F5806F03D11A6886
:1024900022F040021A60AA6AB2F5005F07D11A68FA
:1024A00022F400521A601A6842F400521A600123A2
:1024B00085F85D30002385F85C30032003B0F0BD63
:1024C000019A019B002A03F1FF33019308BF1446D0
:1024D000C1E700BF000000202DE9F7431C460023A0
:1024E00017468DF8033005460E46FFF7EDF83C44DD
:1024F000241AFFF7E9F8294BD5F800901B6823222E
:1025000053431B0D6343804601932A689068304013
:1025100038D0B6F5C06F01BF99F80C30DBB28DF83A
:1025200003309DF803307B1CF0D0FFF7CDF8A0EB13
:102530000800A04229D32B685A6822F0E0025A60B2
:102540006A68B2F5827F0AD1AA68B2F5004F02D05C
:10255000B2F5806F03D11A6822F040021A60AA6AAD
:10256000B2F5005F07D11A6822F400521A601A68A7
:1025700042F400521A60012385F85D30002385F88B
:102580005C30032003B0BDE8F083019A019B002A70
:1025900003F1FF33019308BF1446B6E700000020A3
:1025A000F8B54368B3F5827F04460E4617460BD153
:1025B0008368B3F5004F02D0B3F5806F04D1226871
:1025C000136823F0400313603A4631462046FFF774
:1025D00031FF054628B1236E43F02003236603250F
:1025E00013E06368B3F5827F0FD1A368B3F5004FA2
:1025F00002D0B3F5806F08D13B4632464FF4C0613C
:102600002046FFF769FF0028E5D12846F8BD70B5E0
:1026100013460D4616460A464FF4C0510446FFF7CE
:102620005BFF28B1236E43F020032366032070BDB7
:10263000324629462046FFF7FDFE0028F2D13346F8
:102640002A464FF4C0612046FFF746FF0028EED02F
:10265000E8E770B50446002867D0436A002B5DD1D7
:102660004268B2F5827F00D0C3610023A36294F870
:102670005D3003F0FF0223B984F85C202046FEF7AA
:10268000D5FE2268E068022384F85D301368B0F557
:10269000E06F23F0400313604FF0000342D91D4662
:1026A000B0F5706F18BFA362A6686368A16906F4ED
:1026B000044603F482733343266906F0020633436B
:1026C000666906F00106334301F400763343E66998
:1026D00006F038063343266A06F080063343A66ABE
:1026E00006F4005633431360666B636A06F008060F
:1026F00003F0100300F470603343090C034301F04E
:1027000004010B432B435360D36923F40063D3616B
:1027100000200123206684F85D3070BD0023C0E9ED
:102720000433A2E74FF48055BCE70120F5E72DE91B
:10273000F74304461F460D469046FEF7C5FF94F842
:102740005D30012B8146D8B240F0B580002D76D0A7
:10275000B8F1000F73D094F85C30012B00F0AB801F
:10276000032384F85D3000232366C4E91333A4F8FF
:102770003E802364A4F84430A4F84630A368266859
:1027800084F85C00B3F5004FA563A4F83C8007D142
:10279000336823F040033360336843F4804333608D
:1027A0003368E2685B065EBF336843F04003336022
:1027B000B2F5E06F636845D913B1B8F1010F07D1E5
:1027C00035F8023BF360A563E38F013B9BB2E387DF
:1027D000E38F9BB2D3B94A4639462046FFF717FF2D
:1027E000002865D1A36833B901932368DA680192A0
:1027F0009B680193019B012384F85D30206E0023C8
:10280000C01A84F85C3018BF012018E02268936871
:102810009D0705D5A36B33F8021BD160A363D3E7F3
:10282000FEF752FFA0EB0900B842D1D3781CCFD0FD
:10283000012384F85D30002384F85C30032003B06A
:10284000BDE8F08313B1B8F1010F13D1E38F9BB250
:10285000012B06D935F8023BF360A563E38F023BF9
:1028600006E02B783373A36B0133A363E38F013B43
:102870009BB2E387E38F9BB2002BACD022689368B6
:1028800099070CD5E18FA36B89B2012904D933F8DC
:10289000021BD160A363E1E71B781373E3E7FEF744
:1028A00013FFA0EB0900B842E4D37B1CE2D0BFE7E2
:1028B0002023236696E70220C1E72DE9F84304466A
:1028C0000D4691461E46089FFEF7FEFE94F85D20D9
:1028D0006368012A8046D1B20AD0B3F5827F40F006
:1028E0001D81A268002A40F01981042940F0168158
:1028F000002D55D0B9F1000F52D0002E50D094F8D1
:102900005C20012A00F00A81012284F85C2094F8FE
:102910005D20E0682168C4F84090042A1CBF0522AD
:1029200084F85D2000222266B0F5E06FA4F84660CE
:10293000E687C4E91322A4F844604A68A563A68721
:1029400001D8012E2ED022F480524A600A68520625
:102950005EBF0A6842F040020A60B0F5E06F5BD9E2
:102960000BB1012E07D135F8023BCB60E38FA56395
:10297000013B9BB2E3870125E38F9BB2ABB9B4F86F
:1029800046309BB28BB9424639462046FFF73FFEA0
:10299000002800F0B98020232366002384F85C30EF
:1029A000012037E042F48052CFE721688B689E0710
:1029B0000DD5E38F9BB253B145B1A36B33F8022B16
:1029C000CA60A363E38F013B9BB2E38700258A685B
:1029D00012F001020FD0B4F846309BB25BB1236C09
:1029E000C96823F8021B2364B4F84630013B9BB24C
:1029F000A4F846301546FEF767FEA0EB0800B84283
:102A0000BAD3781CB8D0012384F85D30002384F851
:102A10005C300320BDE8F8830BB1012E0BD1E38FAE
:102A20009BB2012B09D935F8023BCB60E38FA5633C
:102A3000023B9BB2E387012548E02B780B73A36B25
:102A40000133A363E38F013BF3E72268936899079F
:102A500011D5E38F9BB273B165B1E18FA36B89B2DE
:102A600001293DD933F8021BD160A363E38F023BF8
:102A70009BB2E38700252268916811F001011DD007
:102A8000B4F846309BB2CBB1B4F84600236C80B2A8
:102A900001282DD9D06823F8020B2364B4F84630FE
:102AA000023B9BB2A4F84630B4F846309BB2012BEF
:102AB0009EBF536843F4805353600D46FEF704FEF7
:102AC000A0EB0800B84201D37B1C9CD1E38F9BB2E2
:102AD000002BBAD1B4F846309BB2002BB5D152E7E7
:102AE0001B781373A36B0133A363E38F013BBFE731
:102AF000127B1A70236C01332364B4F84630013B17
:102B00009BB2A4F84630D8E7012384F85D3084F8FE
:102B10005C00206E003818BF01207BE7022079E7B7
:102B20002DE9F7431E4690F85D30012B0446894697
:102B30001746DDB204D00225284603B0BDE8F08375
:102B40000029F9D0002AF7D04368B3F5827F0BD172
:102B500083684BB9042380F85D30134600960A461B
:102B6000FFF7ABFE0546E7E7FEF7AEFD94F85C30F5
:102B7000012B8046DFD00123002584F85C3004233C
:102B800084F85D30C4E913552566A563A4F8467042
:102B9000A587E5872568E2686B68C4F84090B2F5C0
:102BA000E06F8CBF23F4805343F48053A4F8447047
:102BB0006B60A368B3F5004F07D12B6823F0400387
:102BC0002B602B6823F480432B602B685F065EBF6D
:102BD0002B6843F040032B60B2F5E06F23D9B4F8C3
:102BE00046309BB223B323689A68D20741D5DA688E
:102BF000236C23F8022B2364B4F84630013B9BB2CC
:102C0000A4F84630EBE723689A68D00721D5226CF8
:102C10001B7B1370236C01332364B4F84630013BF3
:102C20009BB2A4F84630B4F846309BB2002BEAD1F0
:102C3000424631462046FFF7B3FC18BB012384F817
:102C40005D30256E0023ED1A84F85C3018BF012535
:102C500072E7FEF739FDA0EB0800B042E3D3711C28
:102C6000E1D0012384F85D30002384F85C30032533
:102C700062E7FEF729FDA0EB0800B042AFD3731C5A
:102C8000ADD0EEE720232366D8E7000010B5026838
:102C900052E8003F23F4907342E8003102680029B3
:102CA000F5D10F4C02F1080353E8003F234002F135
:102CB000080C4CE800310029F4D1C36E012B07D178
:102CC00052E8003F23F0100342E800310029F7D119
:102CD0002023C0F88C300023C366436710BD00BFBB
:102CE000FEFFFFEF38B50446C0692169A26823687A
:102CF0000A4361691D680A438549024329400A4322
:102D00001A605A68E16822F440520A435A60814AC4
:102D1000A16993421CBF226A11439A6822F06E4255
:102D200022F430620A439A60DA6A616A22F00F0282
:102D30000A43DA62784A934230D1784BD3F888302C
:102D400003F00303022B00F0DA80032B00F0CA80AB
:102D5000012B00F0CE80B0F5004F40F0D580FFF79A
:102D6000DFF9002877D061686D4B626A33F8122072
:102D7000B0FBF2F24B0803EB42034FF6EF72B3FBEA
:102D8000F1F3A3F11001914220D823F00F02216842
:102D900092B2C3F342031343CB605CE0614A9342B7
:102DA00016D15E4BD3F8883003F00C03082B00F0EB
:102DB000A68008D8002B40F09C80B0F5004F7AD157
:102DC000FFF79CF9CDE70C2B00F08C80012043E04D
:102DD000554A93420AD1514BD3F8883003F030035F
:102DE000202B00F08C80E5D9302BEDE74F4A934241
:102DF00009D14A4BD3F8883003F0C003802B7ED032
:102E0000D8D9C02BE0E74A4A93420BD1434BD3F8C1
:102E1000883003F44073B3F5007F70D0CAD9B3F59E
:102E2000407FD1E73B4A9342D0D13C4BD3F8883026
:102E300003F44063B3F5006F15D003D843B9FFF72F
:102E40005DF907E0B3F5406FC0D14FF400400BE0EF
:102E5000FFF72AF840B900204FF00113A3660023C2
:102E6000C4E91D3338BD334865682D4B626A05EBF4
:102E7000450133F81220B0FBF2F39942A6D8B3EB28
:102E8000053FA3D800231946FDF722FA090241EABB
:102E900010616B080002C0182A464FF0000341F190
:102EA0000001FDF715FA244BA0F540729A428DD827
:102EB0002368D860CFE7FFF721F90028CBD06368FB
:102EC000616A174A32F81120B0FBF2F000EB5300B0
:102ED000B0FBF3F04FF6EF73A0F11002E6E7FEF758
:102EE000E3FFEAE7B0F5004F3FF43DAF4FF4004099
:102EF000E5E7B0F5004FF2D1FEF7D6FF31E7B0F5C8
:102F0000004F0C48DBD12EE7FFF70AF9D5E700BFE9
:102F1000F369FFCF008000400038014000100240FC
:102F2000D44A00080044004000480040004C0040E3
:102F3000005000400024F400FFFC0F00836A1A07D1
:102F400010B506D50168846B4A6822F4004222431A
:102F50004A60DC0706D50168C46A4A6822F4003278
:102F600022434A60990706D50168046B4A6822F437
:102F7000803222434A605A0706D50168446B4A688A
:102F800022F4802222434A60DC0606D50168C46B25
:102F90008A6822F4805222438A60990606D5016825
:102FA000046C8A6822F4005222438A605A060FD5C4
:102FB0000168446C4A6822F480122243B4F5801FF1
:102FC0004A6005D14A68846C22F4C00222434A60F8
:102FD0001B0606D50268C16C536823F400230B431B
:102FE000536010BD2DE9F843DDF8209004460D46EE
:102FF000174698462268D36935EA03030CBF0123BC
:103000000023BB4201D0002022E0B9F1FF3FF2D003
:10301000FEF75AFBA0EB0800484529D8B9F1000F8C
:1030200026D021680B685A07E4D5802DE2D0402DC8
:10303000E0D0CE6916F008060CD0082520460D62B7
:10304000FFF724FE0023C4F8905084F88430012058
:10305000BDE8F883CB691B05CCD54FF400630B6248
:103060002046FFF713FE2023C4F8903084F88460D4
:103070000320EDE72DE9F7439846D0F88830202B60
:1030800004460E46174646D1002946D0002A44D0B1
:1030900021230025C0F89050C0F88830FEF714FBBB
:1030A000A368A4F85470B3F5805F8146A4F8567005
:1030B00003D123690BB935461E46B4F85620CDF826
:1030C000008092B24B4642B940212046FFF78AFF6A
:1030D000202348B9C4F8883009E000228021204626
:1030E000FFF780FF30B12023C4F88830032003B0FD
:1030F000BDE8F08322685EB935F8023BC3F30803EC
:103100009362B4F85620013A92B2A4F85620D4E75C
:1031100016F8013BF4E70220E9E70120E7E773B581
:1031200004460026C0F89060FEF7CEFA23681B68BC
:103130001A0705461CD56FF07E43009332460346BE
:103140004FF400112046FFF74DFF88B1226852E886
:10315000003F23F0800342E800310029F6D120230C
:10316000C4F888300320002384F8843002B070BD96
:1031700023681B685B0724D56FF07E430093002211
:103180002B464FF480012046FFF72CFFC8B1226880
:1031900052E8003F23F4907342E80031226800298E
:1031A000F5D102F1080353E8003F23F0010302F1D7
:1031B000080040E800310029F3D12023C4F88C3006
:1031C000D0E720230020C4F88830C4F88C30E066B3
:1031D0002067C8E710B5044650B3D0F888301BB953
:1031E00080F88430FEF7E2F822682423C4F888309F
:1031F000136823F001031360A36A13B12046FFF79D
:103200009DFE2046FFF76EFD012811D023685A6805
:1032100022F490425A609A6822F02A029A601A6850
:1032200042F0010220461A60BDE81040FFF777BF68
:10323000012010BD436E30B52BB90123A0F86A30D0
:10324000A0F8683030BD0368094D9A689968094C48
:10325000490FC2F342626B5C615CDB00B3FBF1F3CC
:10326000A0F86A30AB5CA25CDB00B3FBF2F3E7E7EB
:10327000F44A0008EC4A000890F88430012B14D07E
:1032800002682423C0F888301168136823F0010312
:10329000136021F000510023436611602022C0F822
:1032A000882080F88430184670470220704770B537
:1032B00090F88430012B044617D005682423C0F809
:1032C00088302E682B6823F001032B60AB6823F055
:1032D00060431943A960FFF7ADFF20232E60C0F8BB
:1032E0008830002084F8840070BD0220FCE770B5AF
:1032F00090F88430012B044617D005682423C0F8C9
:1033000088302E682B6823F001032B60AB6823F014
:1033100060631943A960FFF78DFF20232E60C0F87A
:103320008830002084F8840070BD0220FCE7000093
:10333000002310B50446C0E90033C0E904338360BC
:1033400081814366C2818361194608225C3000F0A6
:1033500028F90D4B63620D4BA3620D4BE3620D4BDD
:1033600023630D4B24629C4206D003F16802944211
:1033700002D0D0339C4205D104F15800BDE8104082
:1033800000F088B910BD00BF1D3500083F350008AA
:10339000773500089B35000810030020024A0349D6
:1033A000034800F069B800BF0C0000200D4200087F
:1033B0001C00002041680C4B994210B5044601D016
:1033C00000F024FFA168094B994202D0204600F08A
:1033D0001DFFE168064B994204D02046BDE810402D
:1033E00000F014BF10BD00BF1003002078030020C0
:1033F000E003002010B50B4B0B4C0C4A1A60204622
:1034000000220421FFF794FF04F168000122092142
:10341000FFF78EFF04F1D0000222BDE81040122118
:10342000FFF786BF48040020100300209D330008EA
:10343000014800F030B900BF51040020014800F0FD
:103440002BB900BF5104002010B50446FFF7F0FF70
:10345000236A1BB1BDE81040FFF7F0BF044B2362A5
:10346000044B1B68002BF5D1FFF7C4FFF2E700BF48
:10347000B5330008480400202DE9F8430746884684
:1034800014460026D4E90195B9F1010905D524684F
:10349000002CF7D13046BDE8F883AB89012B07D962
:1034A000B5F90E30013303D029463846C0470643EC
:1034B0006835E9E70FB407B5064904AB086853F867
:1034C000042B8168019300F079FB03B05DF804EBF5
:1034D00004B07047180000200EB410B59DB01FABAB
:1034E000029006906FF000410A48079104910A4942
:1034F00053F8042B0591002402A9006801931B9442
:1035000000F036FA029B1C701DB0BDE8104003B0FD
:10351000704700BF180000200802FFFF10B50C46DE
:10352000B1F90E1000F068F80028ABBF636DA389F5
:103530001B1823F48053ACBF6365A38110BD2DE934
:10354000F0411F468B89DB0505460C46164605D51E
:10355000B1F90E100223002200F03CF8A389B4F95F
:103560000E1023F48053A38132463B462846BDE823
:10357000F04100F053B810B50C46B1F90E1000F050
:1035800029F8431CA38915BF606523F4805343F4D5
:103590008053A38118BFA38110BDB1F90E1000F0B4
:1035A00009B802440346934200D1704703F8011B57
:1035B000F9E7000038B5064D0023044608462B60A5
:1035C000FDF790FF431C02D12B6803B1236038BD87
:1035D0004C04002038B5074D044608461146002229
:1035E0002A601A46FDF788FF431C02D12B6803B1FD
:1035F000236038BD4C04002038B5074D044608460A
:10360000114600222A601A46FDF750FF431C02D1E2
:103610002B6803B1236038BD4C04002038B5074D3A
:1036200004460846114600222A601A46FDF74CFF60
:10363000431C02D12B6803B1236038BD4C04002029
:10364000014B1868704700BF1800002070B50D4D81
:103650000D4C641BA4100026A64209D10B4D0C4C46
:1036600000F074FF641BA4100026A64205D170BDB3
:1036700055F8043B98470136EEE755F8043B984768
:103680000136F2E7044B0008044B0008044B000825
:10369000084B0008704770477047034611F8012B2C
:1036A00003F8012B002AF9D170470A44914200F136
:1036B000FF3300D1704710B511F8014B03F8014FEB
:1036C0009142F9D110BD000038B50546002941D01E
:1036D00051F8043C0C1F002BB8BFE41800F0E0F8D0
:1036E0001D4A136833B9636014602846BDE838404A
:1036F00000F0DCB8A34208D9206821188B4201BF32
:1037000019685B6809182160EDE71A465B680BB120
:10371000A342FAD911685018A0420BD12068014485
:10372000501883421160E0D118685B685360084408
:103730001060DAE702D90C232B60D6E72068211845
:103740008B4204BF19685B68636004BF091821607D
:103750005460CAE738BD00BF5804002070B50F4E52
:103760000C463168054611B900F026FE306021464E
:10377000284600F021FE431C03D14FF0FF342046C1
:1037800070BDC41C24F00304A042F8D0211A2846BE
:1037900000F012FE0130F2D1EFE700BF5404002028
:1037A0002DE9F843CD1C25F0030508350C2D38BF55
:1037B0000C25002D064601DBA94204D90C233360F9
:1037C0000020BDE8F883DFF8D48000F069F8D8F86D
:1037D00000301C4644BB29463046FFF7BFFF431C60
:1037E000044658D1D8F800402746002F43D1002C7A
:1037F0004BD023683946304604EB030900F0DCFD6A
:10380000814542D121686D1A29463046FFF7A6FF4F
:1038100001303AD023682B442360D8F800305A682E
:1038200062BBC8F800700FE02268521B20D40B2A3C
:1038300017D96119A342256018BF5960636808BF92
:10384000C8F8001062514B60304600F02FF804F1C8
:103850000B00231D20F00700C21A1CBF1B1AA35027
:10386000AFE76268A3420CBFC8F800205A60EBE7DC
:1038700023466468AEE73C467F68B6E71A465B6855
:10388000A342FBD100235360DEE70C2333603046B4
:1038900000F00CF894E70560D6E700BF580400205C
:1038A0000148FFF7F8BE00BF500400200148FFF7B1
:1038B000F3BE00BF500400202DE9F0478E681F467C
:1038C000BE420B6882460C4690462DD8B1F90C20BA
:1038D00012F4906F26D06569096905EB4505A3EBE5
:1038E000010905EBD5757B1C4B446D109D4238BF1B
:1038F0001D46530527D52946FFF752FF064660B3FC
:1039000021694A46FFF7D1FEA38923F4906343F06F
:103910008003A381266165614E44A5EB09052660FD
:10392000A5603E46BE4200D93E462068324641462A
:1039300000F028FDA3689B1BA36023683344236029
:103940000020BDE8F0872A4600F046FD0646002824
:10395000E0D121695046FFF7B7FE0C23CAF80030CA
:10396000A38943F04003A3814FF0FF30E9E7000053
:103970002DE9F04F98468B891B069DB007460D46F2
:10398000144610D50B6973B94021FFF709FF286071
:10399000286130B90C233B604FF0FF301DB0BDE80B
:1039A000F08F40236B610023099320238DF8293089
:1039B000CDF80C803023DFF89C818DF82A304FF051
:1039C000010923469A4613F8012B0AB1252AF9D199
:1039D000BAEB040B0BD05B46224629463846FFF76C
:1039E0006BFF013000F0A780099A5A4409929AF8B7
:1039F0000030002B00F09F8000234FF0FF32CDE914
:103A000005230AF1010A049307938DF853301A93A2
:103A10005446052214F8011B4E48FCF709FC049A91
:103A2000D8B9D00644BF20238DF85330110744BFC6
:103A30002B238DF853309AF800302A2B15D0079A93
:103A4000544600204FF00A0C214611F8013B303B50
:103A5000092B4BD9B0B1079214E0A0EB080309FA87
:103A600003F313430493A246D2E7039B191D1B687B
:103A70000391002BBBBF5B4242F002020793079306
:103A8000B8BF049223782E2B0AD163782A2B32D127
:103A9000039B1A1D1B68039243EAE37302340593E8
:103AA000DFF8C0A0217803225046FCF7C1FB38B1F3
:103AB000049BA0EB0A00402282401343013404938C
:103AC00014F8011B24488DF828100622FCF7B0FBDF
:103AD000002836D0214B1BBB039B073323F0070381
:103AE00008330393099B334409936AE70CFB0232C2
:103AF0000C460120A8E700230134059319464FF036
:103B00000A0C204610F8012B303A092A03D9002B61
:103B1000C6D00591C4E70CFB012104460123F0E760
:103B200003AB00932A460E4B04A93846AFF300803E
:103B3000421C0646D6D1AB895B063FF52DAF0998EE
:103B40002CE703AB00932A46054B04A9384600F046
:103B5000BBF9EDE7894A0008934A0008000000001D
:103B6000B93800088F4A00089368013B002B10B455
:103B7000936008DA9469A34201DB0A2903D15DF856
:103B8000044B00F06BBB1368581C1060197008469A
:103B90005DF8044B7047F8B506460F461446D51835
:103BA000AC4201D1002007E014F8011B3A46304630
:103BB000FFF7DAFF431CF3D1F8BD00002DE9F04F09
:103BC0000D469DB014469846064618B1036A0BB9D7
:103BD000FFF73AFC6B6ED90705D4AB899A0502D47E
:103BE000A86DFFF758FDAB891B0701D52B699BB961
:103BF0002946304600F070FB70B16B6EDC0704D5CF
:103C00004FF0FF301DB0BDE8F08FAB899805F7D4B9
:103C1000A86DFFF741FDF3E70023099320238DF8FA
:103C20002930CDF80C803023DFF8AC818DF82A30B4
:103C30004FF0010923469A4613F8012B0AB1252AB1
:103C4000F9D1BAEB040B0BD05B462246294630462D
:103C5000FFF7A1FF013000F0A780099A5A440992AA
:103C60009AF80030002B00F09F8000234FF0FF32C5
:103C7000CDE905230AF1010A049307938DF8533027
:103C80001A935446052214F8011B5348FCF7D0FA46
:103C9000049AD8B9D10644BF20238DF853301307B6
:103CA00044BF2B238DF853309AF800302A2B15D0BF
:103CB000079A544600204FF00A0C214611F8013BA8
:103CC000303B092B4BD9B0B1079214E0A0EB0803AD
:103CD00009FA03F313430493A246D2E7039B191D89
:103CE0001B680391002BBBBF5B4242F002020793AB
:103CF0000793B8BF049223782E2B0AD163782A2B1E
:103D000032D1039B1A1D1B68039243EAE37302340A
:103D10000593DFF8D4A0217803225046FCF788FAF7
:103D200038B1049BA0EB0A004022824013430134C7
:103D3000049314F8011B29488DF828100622FCF77B
:103D400077FA00283FD0264B1BBB039B073323F099
:103D5000070308330393099B3B4409936AE70CFB71
:103D600002320C460120A8E70023013405931946CE
:103D70004FF00A0C204610F8012B303A092A03D9DB
:103D8000002BC6D00591C4E70CFB0121044601239A
:103D9000F0E703AB00932A46124B04A93046AFF379
:103DA00000800746781CD6D16B6ED90705D4AB8945
:103DB0009A0502D4A86DFFF76FFCAB895B063FF54F
:103DC0001FAF09981EE703AB00932A46054B04A9D1
:103DD000304600F079F8E4E7894A0008934A000881
:103DE00000000000973B00088F4A00082DE9F047CB
:103DF000164698468A680B69DDF820909342B8BF52
:103E00001346336091F8432007460C460AB101334C
:103E100033602368990642BF3368023333602568F4
:103E200015F0060506D104F1190AE36832689B1AF9
:103E3000AB4226DC94F843302268003B18BF0123D4
:103E400092062BD404F1430241463846C84701305C
:103E50001ED02368226903F00603042B02BFE56825
:103E60003368ED1AA3680CBF25EAE5750025934277
:103E7000C4BF9B1AED1800261A34B5421AD100208F
:103E800008E00123524641463846C847013003D175
:103E90004FF0FF30BDE8F0870135C6E7E1185A1C46
:103EA000302081F84300224494F8451082F84310F2
:103EB0000233C7E70123224641463846C84701304E
:103EC000E6D00136D9E700002DE9FF470F7E0C9EB2
:103ED000782F914680460C469A4601F1430207D856
:103EE000622F0AD8002F00F0D180582F00F0B88040
:103EF00004F1420684F842703AE0A7F16303152BFF
:103F0000F6D801A151F823F0613F0008753F000881
:103F1000F13E0008F13E0008F13E0008F13E0008C5
:103F2000753F0008F13E0008F13E0008F13E000830
:103F3000F13E0008734000089F3F00082D40000834
:103F4000F13E0008F13E000895400008F13E0008EF
:103F50009F3F0008F13E0008F13E00083540000890
:103F600033681A1D1B68326004F1420684F842303F
:103F700001239CE033682068191D3160060601D5D5
:103F80001D6803E04506FBD5B3F90050002D03DAA8
:103F90002D236D4284F8433058480A2311E02168EC
:103FA0003368080653F8045B02D4490648BFADB233
:103FB0006F2F5248336014BF0A230823002184F86E
:103FC00043106668A660002E05DB21682E4321F0B1
:103FD000040121604BD01646B5FBF3F103FB1157EA
:103FE000C75D06F8017D2F46BB420D46F4D9082B6C
:103FF0000BD12368DF0708D5236961689942DEBFCA
:10400000302306F8013C06F1FF36921B2261CDF801
:1040100000A04B4603AA21464046FFF7E7FE0130C9
:104020004AD14FF0FF3004B0BDE8F087236843F079
:10403000200323603248782784F84570236831686C
:104040001F0651F8045B02D45F0648BFADB2316071
:10405000D90744BF43F0200323601DB11023ADE70F
:104060002648E9E7236823F020032360F6E7164695
:10407000BDE7336825686169181D30602E061B682E
:1040800001D5196002E06806FBD519800023236181
:104090001646BCE733681A1D32601E68626800214C
:1040A0003046FCF7C5F808B1801B60606368236187
:1040B000002384F84330AAE7236932464946404644
:1040C000D0470130ADD023689B0713D4E068039B31
:1040D0009842B8BF1846A6E70123324649464046F3
:1040E000D04701309DD00135E36803995B1AAB429C
:1040F000F2DCEBE7002504F11906F5E79A4A00081F
:10410000AB4A0008B1F90C202DE9F041160705462D
:104110000C4654D44B68002B02DC0B6C002B48DDA2
:10412000E66A002E45D0002312F480522F68216ADF
:104130002B6030D0626DA389590705D56368D21A08
:10414000636B0BB1236CD21A0023E66A216A2846FE
:10415000B047431CA38906D129681D292BD82A4AB8
:10416000CA40D60727D500226260D904226922609E
:1041700004D5421C01D12B6803B96065616B2F60C7
:10418000B9B104F14403994202D02846FFF79CFAE2
:10419000002363630DE001232846B0470246501C0C
:1041A000C9D12B68002BC6D01D2B01D0162B1ED1D8
:1041B0002F60002022E043F040031BB21BE00F6998
:1041C000002FF6D093070E6808BF4B690F6018BF29
:1041D0000023A6EB07088B60B8F1000FE9DD216A28
:1041E000A66A43463A462846B047002808DCB4F998
:1041F0000C3043F04003A3814FF0FF30BDE8F08165
:104200000744A8EB0008E7E70100402038B50B6938
:1042100005460C4613B90025284638BD18B1036A77
:104220000BB9FFF711F9B4F90C30002BF3D0626E23
:10423000D00704D4990502D4A06DFFF72CFA2846C4
:104240002146FFF75FFF636EDA070546E4D4A389D2
:104250009B05E1D4A06DFFF71FFADDE7F8B50E4628
:104260001446054618B1036A0BB9FFF7EDF8A369C8
:10427000A360A3891A0701D5236943B921462846BB
:1042800000F02AF818B14FF0FF373846F8BD236820
:104290002269981A6369F6B28342374605DC2146E3
:1042A0002846FFF7B3FF0028EDD1A368013BA360C8
:1042B00023685A1C22601E706269431C9A4204D013
:1042C000A389DB07E1D50A2EDFD121462846FFF777
:1042D0009DFF0028D9D0D6E738B5294B0546186888
:1042E0000C4618B1036A0BB9FFF7AEF8B4F90C30FD
:1042F000190722D4DA0607D409222A6043F04003C2
:10430000A3814FF0FF3033E0580712D5616B41B104
:1043100004F14403994202D02846FFF7D5F900235F
:104320006363A38923F02403A381002363602369CB
:104330002360A38943F00803A38123694BB9A389B0
:1043400003F42073B3F5007F03D02146284600F024
:1043500097F8B4F90C3013F001020AD00022A260E1
:1043600062695242A261226942B913F08000C5D14C
:1043700038BD990758BF6269A260F4E70020F7E7EB
:1043800018000020884210B501EB020402D98442D3
:10439000234607D8431EA14208D011F8012B03F889
:1043A000012FF8E7024401468A4200D110BD13F8FC
:1043B000014D02F8014DF7E738B5064D00230446DC
:1043C00008462B60FDF79AF8431C02D12B6803B115
:1043D000236038BD4C0400202DE9F0410746144607
:1043E0000D4621B9BDE8F0411146FFF7D9B92AB908
:1043F000FFF76AF925462846BDE8F08100F09EF8EF
:104400008442064602D8B4EB500FF4D82146384611
:10441000FFF7C6F9804608B94546ECE7B4422246A4
:10442000294628BF3246FFF740F929463846FFF7AC
:104430004BF9F1E770B50C46B1F90E10002996B0B2
:1044400015461E460DDAA38913F0800F4FF00001C8
:1044500014BF40234FF48063002031602B6016B0FE
:1044600070BD6A4600F048F80028ECDB019901F4C1
:104470007041A1F50053594259414FF48063EBE775
:104480008B89F7B59D0706460C4607D504F147030F
:10449000236023610123636103B0F0BD01AB6A4671
:1044A000FFF7C8FF009F054639463046FFF778F909
:1044B00048B9B4F90C309A05EED423F0030343F065
:1044C0000203A381E2E7A389206043F08003A38174
:1044D000019BC4E904075BB1B4F90E10304600F04B
:1044E0001DF828B1A38923F0030343F00103A3813E
:1044F000A3891D43A581CFE738B5074D00230446A6
:10450000084611462B60FCF7F0FF431C02D12B68D4
:1045100003B1236038BD00BF4C04002038B5064D00
:104520000023044608462B60FCF7E4FF431C02D13D
:104530002B6803B1236038BD4C04002051F8043CC3
:10454000181F002BBCBF0B58C0187047F8B500BF30
:10455000F8BC08BC9E467047F8B500BFF8BC08BC64
:044560009E467047BC
:104564000D0A2A2A2A2A2A2A2A2A2A2A2A2A2A2AE4
:104574002A2A2A2A2A2A2A2A2A2A2A2A2A2A2A2A97
:104584002A2A2A2A2A2A2A2A2A2A2A2A2A2A2A2A87
:104594000D0A004352433A0D0A0909456E61626CE3
:1045A40065642C2032204279746573200D0A00431F
:1045B40052433A0D0A0909456E61626C65642C2008
:1045C400312042797465200D0A004352433A0D0AA2
:1045D400090944697361626C6564200D0A00454EE3
:1045E40041413A0D0A090950303A0925640D0A0976
:1045F4000950313A0925640D0A090950323A09254E
:10460400640D0A090950333A0925640D0A09095051
:10461400343A0925640D0A090950353A0925640D0F
:104624000A00454E5F5258414444523A0D0A090962
:1046340050303A0925640D0A090950313A092564B4
:104644000D0A090950323A0925640D0A0909503343
:104654003A0925640D0A090950343A0925640D0AFA
:10466400090950353A0925640D0A0053455455503B
:104674005F41573A0D0A090925642062797465730C
:10468400200D0A0052465F43483A0D0A0909256481
:10469400204348200D0A004461746120526174650E
:1046A4003A0D0A0909324D627073200D0A00446103
:1046B400746120526174653A0D0A0909314D6270C2
:1046C40073200D0A0052465F5057523A0D0A0909E9
:1046D4002D31386442200D0A0052465F5057523A39
:1046E4000D0A09092D31326442200D0A0052465F39
:1046F4005057523A0D0A09092D366442200D0A001A
:1047040052465F5057523A0D0A0909306442200D4F
:104714000A0052585F5069706530204164647273B6
:104724003A0D0A0909253032582C253032582C25E7
:104734003032582C253032582C2530325820200D58
:104744000A0052585F506970653120416464727385
:104754003A0D0A0909253032582C253032582C25B7
:104764003032582C253032582C2530325820200D28
:104774000A0052585F506970653220416464727354
:104784003A0D0A090978782C78782C78782C78787E
:104794002C2530325820200D0A0052585F50697081
:1047A40065332041646472733A0D0A090978782CE0
:1047B40078782C78782C78782C2530325820200D75
:1047C4000A0052585F506970653420416464727302
:1047D4003A0D0A090978782C78782C78782C78782E
:1047E4002C2530325820200D0A0052585F50697031
:1047F40065352041646472733A0D0A090978782C8E
:1048040078782C78782C78782C2530325820200D24
:104814000A0054582041646472733A0D0A09092548
:104824003032582C253032582C253032582C253033
:1048340032582C2530325820200D0A0052585F502F
:10484400575F50303A0D0A0909256420627974656E
:1048540073200D0A0052585F50575F50313A0D0AC9
:1048640009092564206279746573200D0A00525881
:104874005F50575F50323A0D0A0909256420627966
:10488400746573200D0A0052585F50575F50333AD5
:104894000D0A09092564206279746573200D0A00E4
:1048A40052585F50575F50343A0D0A090925642065
:1048B4006279746573200D0A0052585F50575F5037
:1048C400353A0D0A09092564206279746573200D4F
:1048D4000A0044594E50445F706970653A0D0A09E4
:1048E4000950303A0925640D0A090950313A09255D
:1048F400640D0A090950323A0925640D0A09095060
:10490400333A0925640D0A090950343A0925640D1E
:104914000A090950353A0925640D0A00454E5F44D9
:10492400504C3A0D0A0909456E61626C6564200DAC
:104934000A00454E5F44504C3A0D0A090944697314
:1049440061626C6564200D0A00454E5F41434B5F14
:104954005041593A0D0A0909456E61626C6564203B
:104964000D0A00454E5F41434B5F5041593A0D0AD1
:10497400090944697361626C6564200D0A000D0ABB
:104984002D2D2D2D2D2D2D2D2D2D2D2D2D2D2D2D53
:104994002D2D2D2D2D2D2D2D2D0D0A00535441542B
:1049A4005553207265673A0D0A090952585F4452FB
:1049B4003A090925640D0A090954585F44533A0910
:1049C4000925640D0A09094D41585F52543A0909F1
:1049D40025640D0A090952585F505F4E4F3A092564
:1049E400640D0A090954585F46554C4C3A0925642C
:1049F4000D0A00434F4E464947207265673A0D0A37
:104A040009095057525F55503A090925640D0A099E
:104A1400095052494D5F52583A0925640D0A00461F
:104A240049464F20537461747573207265673A0D5B
:104A34000A090954585F46554C4C3A090925640D36
:104A44000A090954585F454D5054593A09092564D7
:104A54000D0A090952585F46554C4C3A0909256418
:104A64000D0A090952585F454D5054593A09092510
:104A7400640D0A005363616E6E6572204F6E200AE6
:104A84000D00257800232D302B2000686C4C006528
:104A94006667454647003031323334353637383966
:104AA4004142434445460030313233343536373899
:104AB400396162636465660000000000010203045A
:104AC40000000000000000000102030406070809BA
:104AD400010002000400060008000A000C00100097
:104AE40020004000800000010804020408010101C4
:084AF4000101010307010000AC
:084AFC0024B7FF7F0100000058
:044B0400050200089E
:044B0800E1010008BF
:104B0C000024F40001000000100000000000000070
:104B1C0003000000100300201C0000200000000017
:104B2C001003002078030020E003002000000000A8
:104B3C000000000000000000000000000000000069
:104B4C000000000000000000000000000000000059
:104B5C000000000000000000000000000000000049
:084B6C00000000000000000041
:040000050800155189
:00000001FF
