:020000040800F2
:1000000000000220C53B00084D39000855390008A2
:100010005D390008653900086D39000800000000EE
:10002000000000000000000000000000753900081A
:100030008339000800000000913900089F3900084A
:10004000153C0008153C0008153C0008153C00084C
:10005000153C0008153C0008153C0008153C00083C
:10006000AB390008153C0008153C0008153C000899
:10007000153C0008153C0008153C0008153C00081C
:10008000153C0008153C0008153C0008153C00080C
:10009000153C0008153C0008153C0008153C0008FC
:1000A000153C0008153C0008153C0008153C0008EC
:1000B000153C0008153C0008153C0008153C0008DC
:1000C000153C0008153C0008153C0008153C0008CC
:1000D000153C0008153C0008153C0008153C0008BC
:1000E000B9390008153C0008153C0008153C00080B
:1000F000153C0008153C0008153C0008153C00089C
:10010000153C0008153C0008153C0008153C00088B
:10011000153C0008153C0008153C0008153C00087B
:10012000153C0008153C0008153C0008153C00086B
:10013000153C0008153C0008153C0008153C00085B
:10014000153C0008153C0008153C0008153C00084B
:10015000153C0008153C0008153C0008153C00083B
:10016000153C0008153C0008153C0008153C00082B
:10017000153C0008153C0008153C0008153C00081B
:10018000153C0008153C0008153C0008153C00080B
:10019000153C000800000000153C0008153C000854
:1001A000153C0008153C0008153C0008153C0008EB
:1001B000153C0008153C0008153C0008153C0008DB
:1001C000153C0008153C0008153C0008153C0008CB
:0801D000153C0008153C000875
:1001E00010B5054C237833B9044B13B10448AFF371
:1001F00000800123237010BDF001002000000000EA
:100200005CE4000808B5034B1BB103490348AFF396
:10021000008008BD00000000F40100205CE400083C
:1002200001F0FF01102A2BDB10F0070F08D010F8A7
:10023000013B013A8B422DD010F0070F42B3F6D1AB
:10024000F0B441EA012141EA014122F007047FF0C4
:1002500000070023F0E80256083C85EA010586EA1B
:10026000010685FA47F5A3FA87F586FA47F6A5FA57
:1002700087F68EB9EED1F0BC01F0FF0102F0070263
:1002800032B110F8013B013A83EA010313B1F8D10E
:100290000020704701387047002D06BF35460338EF
:1002A000073815F0010F07D1013015F4807F02BF28
:1002B000013015F4C03F0130F0BC0138704700BF79
:1002C000034613F8012B002AFBD1181A0138704796
:1002D00081F0004102E000BF83F0004330B54FEAF7
:1002E00041044FEA430594EA050F08BF90EA020F64
:1002F0001FBF54EA000C55EA020C7FEA645C7FEAF7
:10030000655C00F0E2804FEA5454D4EB5555B8BF19
:100310006D420CDD2C4480EA020281EA030382EA8A
:10032000000083EA010180EA020281EA0303362D1C
:1003300088BF30BD11F0004F4FEA01314FF4801CEF
:100340004CEA113102D0404261EB410113F0004F01
:100350004FEA03334CEA133302D0524263EB4303B8
:1003600094EA050F00F0A780A4F10104D5F1200E56
:100370000DDB02FA0EFC22FA05F2801841F10001B1
:1003800003FA0EF2801843FA05F359410EE0A5F185
:1003900020050EF1200E012A03FA0EFC28BF4CF0B6
:1003A000020C43FA05F3C01851EBE37101F000456C
:1003B00007D54FF0000EDCF1000C7EEB00006EEB79
:1003C0000101B1F5801F1BD3B1F5001F0CD3490803
:1003D0005FEA30004FEA3C0C04F101044FEA44525A
:1003E00012F5800F80F09A80BCF1004F08BF5FEAE1
:1003F000500C50F1000041EB045141EA050130BDC1
:100400005FEA4C0C404141EB0101013C28BFB1F5D2
:10041000801FE9D291F0000F04BF01460020B1FA1D
:1004200081F308BF2033A3F10B03B3F120020CDAF0
:100430000C3208DD02F1140CC2F10C0201FA0CF0CE
:1004400021FA02F10CE002F11402D8BFC2F1200C33
:1004500001FA02F120FA0CFCDCBF41EA0C019040E9
:10046000E41AA2BF01EB0451294330BD6FEA040432
:100470001F3C1CDA0C340EDC04F11404C4F120021D
:1004800020FA04F001FA02F340EA030021FA04F32F
:1004900045EA030130BDC4F10C04C4F1200220FA86
:1004A00002F001FA04F340EA0300294630BD21FAC4
:1004B00004F0294630BD94F0000F83F4801306BF8A
:1004C00081F480110134013D4EE77FEA645C18BF7E
:1004D0007FEA655C29D094EA050F08BF90EA020F15
:1004E00005D054EA000C04BF1946104630BD91EA0D
:1004F000030F1EBF0021002030BD5FEA545C05D110
:100500004000494128BF41F0004130BD14F580044E
:100510003CBF01F5801130BD01F0004545F0FE41C2
:1005200041F470014FF0000030BD7FEA645C1ABFF7
:10053000194610467FEA655C1CBF0B46024650EA2E
:10054000013406BF52EA033591EA030F41F400215A
:1005500030BD00BF90F0000F04BF0021704730B5E0
:100560004FF4806404F132044FF000054FF00001B5
:1005700050E700BF90F0000F04BF0021704730B576
:100580004FF4806404F1320410F0004548BF40424B
:100590004FF000013EE700BF42004FEAE2014FEAA0
:1005A00031014FEA02701FBF12F07F4393F07F4F7B
:1005B00081F06051704732F07F4208BF704793F07E
:1005C0007F4F04BF41F40021704730B54FF4607491
:1005D00001F0004521F000411CE700BF50EA010294
:1005E00008BF704730B54FF000050AE050EA01023D
:1005F00008BF704730B511F0004502D5404261EBAD
:1006000041014FF4806404F132045FEA915C3FF4ED
:10061000D8AE4FF003025FEADC0C18BF03325FEA8A
:10062000DC0C18BF033202EBDC02C2F1200300FA3B
:1006300003FC20FA02F001FA03FE40EA0E0021FA60
:1006400002F11444BDE600BF70B54FF0FF0C4CF44E
:10065000E06C1CEA11541DBF1CEA135594EA0C0F00
:1006600095EA0C0F00F0DEF82C4481EA030621EA3B
:100670004C5123EA4C5350EA013518BF52EA033576
:1006800041F4801143F4801338D0A0FB02CE4FF028
:100690000005E1FB02E506F00042E0FB03E54FF058
:1006A0000006E1FB03569CF0000F18BF4EF0010E50
:1006B000A4F1FF04B6F5007F64F5407404D25FEA4C
:1006C0004E0E6D4146EB060642EAC62141EA5551FF
:1006D0004FEAC52040EA5E504FEACE2EB4F1FD0C41
:1006E00088BFBCF5E06F1ED8BEF1004F08BF5FEABF
:1006F000500E50F1000041EB045170BD06F0004671
:1007000046EA010140EA020081EA0301B4EB5C041D
:10071000C2BFD4EB0C0541EA045170BD41F4801115
:100720004FF0000E013C00F3AB8014F1360FDEBF3A
:10073000002001F0004170BDC4F10004203C35DA16
:100740000C341BDC04F11404C4F1200500FA05F399
:1007500020FA04F001FA05F240EA020001F000423A
:1007600021F0004110EBD37021FA04F642EB0601B0
:100770005EEA430E08BF20EAD37070BDC4F10C04DA
:10078000C4F1200500FA04F320FA05F001FA04F29E
:1007900040EA020001F0004110EBD37041F100018A
:1007A0005EEA430E08BF20EAD37070BDC4F1200595
:1007B00000FA05F24EEA020E20FA04F301FA05F2FD
:1007C00043EA020321FA04F001F0004121FA04F2A5
:1007D00020EA020000EBD3705EEA430E08BF20EA75
:1007E000D37070BD94F0000F0FD101F000464000AF
:1007F00041EB010111F4801F08BF013CF7D041EA31
:10080000060195F0000F18BF704703F00046520034
:1008100043EB030313F4801F08BF013DF7D043EA05
:100820000603704794EA0C0F0CEA135518BF95EABB
:100830000C0F0CD050EA410618BF52EA4306D1D142
:1008400081EA030101F000414FF0000070BD50EA61
:10085000410606BF1046194652EA430619D094EAEB
:100860000C0F02D150EA013613D195EA0C0F05D1D5
:1008700052EA03361CBF104619460AD181EA030129
:1008800001F0004141F0FE4141F470014FF00000E1
:1008900070BD41F0FE4141F4780170BD70B54FF07C
:1008A000FF0C4CF4E06C1CEA11541DBF1CEA1355FC
:1008B00094EA0C0F95EA0C0F00F0A7F8A4EB0504DE
:1008C00081EA030E52EA03354FEA013100F08880D5
:1008D0004FEA03334FF0805545EA131343EA12639E
:1008E0004FEA022245EA111545EA10654FEA002653
:1008F0000EF000419D4208BF964244F1FD0404F50C
:10090000407402D25B084FEA3202B61A65EB030567
:100910005B084FEA32024FF480104FF4002CB6EB24
:10092000020E75EB030E22BFB61A754640EA0C00A4
:100930005B084FEA3202B6EB020E75EB030E22BFE4
:10094000B61A754640EA5C005B084FEA3202B6EB25
:10095000020E75EB030E22BFB61A754640EA9C00E4
:100960005B084FEA3202B6EB020E75EB030E22BFB4
:10097000B61A754640EADC0055EA060E18D04FEA72
:10098000051545EA16754FEA06164FEAC30343EA12
:1009900052734FEAC2025FEA1C1CC0D111F4801FDF
:1009A0000BD141EA00014FF000004FF0004CB6E7D8
:1009B00011F4801F04BF01430020B4F1FD0C88BF77
:1009C000BCF5E06F3FF6AFAEB5EB030C04BFB6EB82
:1009D000020C5FEA500C50F1000041EB045170BD75
:1009E0000EF0004E4EEA113114EB5C04C2BFD4EBA2
:1009F0000C0541EA045170BD41F480114FF0000E26
:100A0000013C90E645EA060E8DE60CEA135594EAA1
:100A10000C0F08BF95EA0C0F3FF43BAF94EA0C0FA4
:100A20000AD150EA01347FF434AF95EA0C0F7FF419
:100A300025AF104619462CE795EA0C0F06D152EA6D
:100A400003353FF4FDAE1046194622E750EA410651
:100A500018BF52EA43067FF4C5AE50EA41047FF462
:100A60000DAF52EA43057FF4EBAE12E74FF0FF3CC7
:100A700006E000BF4FF0010C02E000BF4FF0010C98
:100A80004DF804CD4FEA410C7FEA6C5C4FEA430C11
:100A900018BF7FEA6C5C1BD001B050EA410C0CBF60
:100AA00052EA430C91EA030F02BF90EA020F0020C2
:100AB000704710F1000F91EA030F58BF994208BF29
:100AC00090422CBFD8176FEAE37040F001007047E6
:100AD0004FEA410C7FEA6C5C02D150EA013C07D13D
:100AE0004FEA430C7FEA6C5CD6D152EA033CD3D088
:100AF0005DF8040B704700BF8446104662468C4682
:100B00001946634600E000BF01B5FFF7B7FF0028B4
:100B100048BF10F1000F01BD4DF808EDFFF7F4FFDD
:100B20000CBF012000205DF808FB00BF4DF808ED68
:100B3000FFF7EAFF34BF012000205DF808FB00BF8B
:100B40004DF808EDFFF7E0FF94BF012000205DF8AD
:100B500008FB00BF4DF808EDFFF7CEFF94BF012062
:100B600000205DF808FB00BF4DF808EDFFF7C4FF5B
:100B700034BF012000205DF808FB00BF4FEA410CA4
:100B80007FEA6C5C02D150EA013C0AD14FEA430C87
:100B90007FEA6C5C02D152EA033C02D14FF00000C4
:100BA00070474FF0010070474FEA410212F5001202
:100BB00015D211D56FF47873B3EB625212D94FEAA4
:100BC000C12343F0004343EA505311F0004F23FA8E
:100BD00002F018BF404270474FF00000704750EAE3
:100BE000013005D111F0004008BF6FF000407047A0
:100BF0004FF00000704700BF4A0011D212F50012FA
:100C000011D20DD56FF47873B3EB62520ED44FEA64
:100C1000C12343F0004343EA505323FA02F07047E4
:100C20004FF00000704750EA013002D14FF0FF3022
:100C300070474FF0000070474FEA4102B2F1E043C5
:100C400024BFB3F5001CDCF1FE5C0DD901F0004CB3
:100C50004FEAC0024CEA5070B2F1004F40EB830003
:100C600008BF20F00100704711F0804F21D113F12F
:100C70003872BCBF01F00040704741F480114FEA68
:100C80005252C2F11802C2F1200C10FA0CF320FAF1
:100C900002F018BF40F001004FEAC1234FEAD3230E
:100CA00003FA0CFC40EA0C0023FA02F34FEA430378
:100CB000CCE77FEA625307D150EA01331EBF4FF001
:100CC000FE4040F44000704701F0004040F0FE401C
:100CD00040F40000704700BF53B94AB9002908BF6B
:100CE00000281CBF4FF0FF314FF0FF3000F0BEB9BD
:100CF000ADF1080C6DE904CE00F03CF8DDF804E03D
:100D0000DDE9022304B0704738B500220023044611
:100D10000D46FFF70BFF28B920462946BDE83840AD
:100D200000F00AB8204605F1004100F005F8404205
:100D300061EB410138BD00BFD0B50C4B0022064627
:100D40000F46FFF781FCFFF757FF0446FFF702FC51
:100D5000074B0022FFF778FC02460B463046394627
:100D6000FFF7BAFAFFF748FF2146D0BD0000F03D7B
:100D70000000F0412DE9F047089D8E460446884664
:100D8000002B4AD18A42174662D9B2FA82F64EB196
:100D9000C6F1200301FA06F820FA03F3B74043EA4C
:100DA0000808B4404FEA174E1FFA87FCB8FBFEF163
:100DB000230C0EFB118843EA084301FB0CF29A4214
:100DC00009D9FB1801F1FF3080F0EA809A4240F225
:100DD000E78002393B449A1AA3B2B2FBFEF00EFB45
:100DE000102243EA024300FB0CFC9C4509D9FB1886
:100DF00000F1FF3280F0D6809C4540F2D3803B4426
:100E0000023840EA0140A3EB0C0300211DB1F3407E
:100E10000022C5E90032BDE8F0878B4205D90DB14B
:100E2000C5E9000100210846F5E7B3FA83F100297E
:100E300046D1734502D3824200F20581841A6EEBDB
:100E4000030201209046002DE5D0C5E90048E2E705
:100E5000002A00F09080B2FA82F6002E40F0A480C2
:100E60008A1A030C4FEA174E80B2BCB20121B2FBC2
:100E7000FEFC0EFB1C2243EA024304FB0CF29A42E6
:100E800007D9FB180CF1FF3802D29A4200F2E08039
:100E9000C4469B1AB3FBFEF20EFB123340EA034337
:100EA00002FB04F49C4207D9FB1802F1FF3002D286
:100EB0009C4200F2CA8002461B1B42EA0C40A5E796
:100EC000C1F120068B4022FA06F71F430EFA01F407
:100ED00020FA06F32EFA06FE4FEA1749234300FADA
:100EE00001F81FFA87FCBEFBF9F01C0C09FB10EEA1
:100EF00044EA0E4400FB0CFEA64502FA01F209D9B1
:100F00003C1900F1FF3A80F09C80A64540F29980A0
:100F100002383C44A4EB0E041FFA83FEB4FBF9F341
:100F200009FB13444EEA044403FB0CFCA44508D916
:100F30003C1903F1FF3E80F08280A4457FD9023B3B
:100F40003C4443EA0040A4EB0C04A0FB02EC6445E3
:100F50007346E14662D35FD05DB1B8EB030264EB48
:100F6000090404FA06F622FA01F31E43CC40C5E94F
:100F7000006400214FE7B1FBF2FC010C41EA0E4195
:100F800080B240EA01423B4638463C46B846BE463F
:100F90002026B1FBF7F1A2EB080241EA0C4166E71B
:100FA000014618E710462CE7C6F120022EFA02F39C
:100FB000B740B14020FA02F24FEA174E0A43B3FBA2
:100FC000FEF8BCB20EFB1833110C41EA034108FBDA
:100FD00004F9B04089454FEA104380B23ED97918F0
:100FE00008F1FF3C01D289451FD8A1EB0901B1FBF3
:100FF000FEF909FB04F80EFB191192B242EA014214
:10100000424529D2BA1809F1FF31C4D24245C2D2B1
:10101000A9F102013A44BEE7F0459DD2BEEB0203BE
:101020006CEB070C0138E14696E7A7EB0909494448
:10103000A8F1020CB1FBFEF909FB04F8DBE77346EB
:101040007FE7504666E70846FDE63B44023A33E751
:10105000ACF1020C3B441CE749469CE7A1EB0901BB
:10106000C446B1FBFEF909FB04F8C4E7704700BFB2
:1010700080B586B000AF786000237B614FF000033D
:10108000FB6000233B6109E0786800F02DF8024620
:101090007B6913447B613B6901333B613B691F2BD7
:1010A000F2DD7B695B117B617B69A3F50063184608
:1010B000FFF760FA0AA3D3E90023FFF7EFFB02462C
:1010C0000B4610461946FFF7B7FD0346FB60FB6869
:1010D00007EE903AB0EE670A1837BD4680BD00BFF4
:1010E000713D0AD7A3F0424080B584B000AF78606C
:1010F000786803F013FC0A21786803F0DFFC09210B
:10110000786803F0BFFDF860FB6818461037BD46ED
:1011100080BD80B584B000AF7860786803F0FEFBD6
:101120000A21786803F0CAFC40F20F11786803F0D6
:10113000A9FDF860FB6818461037BD4680BD80B435
:1011400083B000AF78600B46FB707B689B69FA78D0
:10115000012101FA02F21A437B689A6100BF0C3741
:10116000BD465DF8047B704780B483B000AF786003
:101170000B46FB707B689B69FA781032012101FAFB
:1011800002F21A437B689A6100BF0C37BD465DF8D6
:10119000047B704780B483B000AF78600B4B1B6852
:1011A0000B4AA2FB03239B0D7A6802FB03F37B60CF
:1011B00000BF7B685A1E7A60002BFAD100BF00BFC7
:1011C0000C37BD465DF8047B704700BF0800002067
:1011D0006BCA5F6B80B485B000AFF8600B467A6075
:1011E000FB727B68002B09D0FB681A69FB7A1340FD
:1011F000002B0CBF01230023DBB208E0FB681A6957
:10120000FB7A1340002B14BF01230023DBB21846E6
:101210001437BD465DF8047B704780B58AB000AFD7
:10122000F8600B467A60FB7200237B6213E0FB7A66
:101230007A681946F868FFF7CDFF02467B6A9B0083
:1012400028333B4443F8182C42F21070FFF7A2FFFA
:101250007B6A01337B627B6A022BE8DD00233B6201
:101260000023FB610BE0FB699B0028333B4453F8F0
:10127000183C3A6A13443B62FB690133FB61FB692A
:10128000022BF0DD3B6A022B01DC002300E001238E
:1012900018462837BD4680BD80B485B000AF786061
:1012A0007B68FB600B4B1B680B4AA2FB03239A0C69
:1012B000FB6802FB03F3FB6000BFFB685A1EFA6089
:1012C000002BFAD100BF00BF1437BD465DF8047B88
:1012D000704700BF080000202FCE792780B582B06C
:1012E00000AF78607B68002B05D0012210210648F2
:1012F00004F026FE04E000221021034804F020FE42
:1013000000BF0837BD4680BD0008004880B582B0E8
:1013100000AF78607B68002B06D0012210214FF0CF
:10132000904004F00DFE05E0002210214FF09040A7
:1013300004F006FE00BF0837BD4680BD80B584B00E
:1013400000AF0346FB710020FFF7C8FFFB7903F0F5
:101350001F03DBB23B7307F10C01642301220A482F
:1013600007F017F807F10C03591C64230122064803
:1013700007F084F97B7BFB730120FFF7AFFFFB7B5A
:1013800018461037BD4680BD1C02002080B584B0D1
:1013900000AF03463960FB711346BB710020FFF7B5
:1013A0009DFFFB7903F01F03DBB23B7307F10C01D8
:1013B00064230122084806F0ECFFBB799AB264234B
:1013C0003968054807F05AF90120FFF787FF00BF89
:1013D0001037BD4680BD00BF1C02002080B584B020
:1013E00000AF03460A46FB711346BB710020FFF7AE
:1013F00075FFFB7943F02003DBB23B73BB797B7352
:1014000007F10C0164230222044806F0C2FF012008
:10141000FFF764FF00BF1037BD4680BD1C020020EF
:1014200080B584B000AF03463960FB711346BB71D1
:101430000020FFF753FFFB7943F02003DBB23B733F
:1014400007F10C0164230122084806F0A2FFBB79D2
:101450009AB264233968054806F09BFF0120FFF724
:101460003DFF00BF1037BD4680BD00BF1C020020FD
:1014700080B584B000AF78600B46FB7000F0F8F9DF
:1014800003461A46FB78934203D300F0F1F9034672
:1014900000E0FB78FB730020FFF720FF6123BB73A4
:1014A00007F10E0164230122084806F072FFFB7B5E
:1014B0009AB264237968054807F0E0F80120FFF745
:1014C0000DFF00BF1037BD4680BD00BF1C020020CD
:1014D00080B500AFFF21E120FFF780FF00BF80BD96
:1014E00080B500AFFF21E220FFF778FF00BF80BD8D
:1014F00080B582B000AF0720FFF720FF0346FB71E5
:10150000FB7918460837BD4680BD000084B080B521
:1015100082B000AF07F1100C8CE80F00604B18464A
:1015200007F110036422194609F0CFFC0120FFF7F0
:10153000D5FE0020FFF7EAFE052002F01FFD08217E
:101540000020FFF74BFF3F210120FFF747FF03215A
:101550000220FFF743FF03210320FFF73FFF032192
:101560000420FFF73BFF02210520FFF737FF0F2183
:101570000620FFF733FF0E210720FFF72FFF002182
:101580000820FFF72BFF00210920FFF727FFE723A3
:101590003B71E723FB70E723BB70E7237B70E723F6
:1015A0003B703B46052219460A20FFF739FFC2234C
:1015B0003B71C223FB70C223BB70C2237B70C2236A
:1015C0003B703B46052219460B20FFF729FFC3213C
:1015D0000C20FFF703FFC4210D20FFF7FFFEC521FC
:1015E0000E20FFF7FBFEC6210F20FFF7F7FEE723D3
:1015F0003B71E723FB70E723BB70E7237B70E72396
:101600003B703B46052219461020FFF709FF0021D9
:101610001120FFF7E3FE00211220FFF7DFFE00217B
:101620001320FFF7DBFE00211420FFF7D7FE002177
:101630001520FFF7D3FE00211620FFF7CFFE00F0A4
:1016400061FA00211C20FFF7C9FE00211D20FFF7D1
:10165000C5FE00F071FA0F210F2000F0BFF8032043
:1016600000F053F9012000F089F9022000F0CCF9D4
:1016700000F012F9202000F0E3F800F03BFA4C20D3
:1016800000F0C8F8FFF724FFFFF72AFF00F0F3F996
:1016900000BF0837BD46BDE8804004B0704700BFBA
:1016A0001C02002080B500AF0020FFF747FE034674
:1016B00043F00303DBB219460020FFF78FFE0B4B0C
:1016C000D3E90023134304D0052208490A20FFF779
:1016D000A7FEFFF7FDFEFFF703FF0120FFF716FE51
:1016E0009620FFF7D9FD00BF80BD00BF100200208B
:1016F00080B500AF002000F0CDF90346184680BD4C
:1017000080B584B000AF78600B46FB70FB7819465B
:101710007868FFF7ADFE1720FFF710FE034603F0D1
:101720000103FB73FFF7DCFE00F0AEF8FB7B002B40
:1017300014BF01230023DBB218461037BD4680BD1D
:1017400080B584B000AF0146C7E900230B46FB73A8
:10175000FB7B002B04D1D7E900231C49C1E90023FE
:10176000FB7B062B2DD8FB7B012B08D8FB7B184A73
:10177000D35C394605221846FFF752FE07E0FB7B93
:10178000134AD35C394601221846FFF749FEFB7B1A
:10179000104AD35C104A127811461846FFF71EFE15
:1017A0000220FFF7CBFD03465AB2FB7B012101FA71
:1017B00003F35BB213435BB2DBB219460220FFF7BF
:1017C0000DFE00BF1037BD4680BD00BF10020020D7
:1017D000B0EA0008B8EA00081802002080B582B01C
:1017E00000AF03460A46FB711346BB7197F90730F9
:1017F0001B015AB297F9063003F00F035BB2134393
:101800005BB2DBB219460420FFF7E8FD00BF0837E2
:10181000BD4680BD80B584B000AF0346FB717F2319
:10182000FB73FA7BFB79934228BF1346DBB2194660
:101830000520FFF7D3FD00BF1037BD4680BD000077
:1018400080B485B000AF0346FB712023FB73FA7BA5
:10185000FB79934228BF1346DAB2044B1A7000BFDB
:101860001437BD465DF8047B704700BF18020020A6
:1018700080B400AF034B1B781846BD465DF8047B6F
:10188000704700BF1802002080B500AF6020FFF74E
:1018900055FD0346184680BD80B500AF1D20FFF7FB
:1018A0004DFD034623F00403DBB219461D20FFF76C
:1018B00095FD00211C20FFF791FD024B00221A70BC
:1018C00000BF80BD1902002080B400AF034B1B781D
:1018D0001846BD465DF8047B704700BF1A02002021
:1018E00080B582B000AF0346FB71FB79002B04D0BA
:1018F0003F210120FFF772FD03E000210120FFF7E7
:101900006DFD00BF0837BD4680BD80B584B000AF17
:101910000346FB710620FFF711FD0346FB73FB7BBB
:1019200023F00603FB73FB79032B04D1FB7B43F00D
:101930000603FB7319E0FB79022B04D1FB7B43F018
:101940000403FB7311E0FB79012B04D1FB7B43F013
:101950000203FB7309E0FB79002B06D0FB79042B13
:1019600003D1FB7B43F00603FB73FB7B1946062088
:10197000FFF734FD00BF1037BD4680BD80B584B091
:1019800000AF0346FB710023FB730620FFF7D6FC74
:101990000346BB731B4B00221A70BB7B23F028034A
:1019A000BB73FB79022B07D1164B00221A70BB7B4D
:1019B00043F02003BB730DE0FB79012B07D1114BE2
:1019C00001221A70BB7B43F00803BB7302E00D4B8E
:1019D00000221A70BB7B19460620FFF7FFFC062089
:1019E000FFF7ACFC03461A46BB7B934202D10123AE
:1019F000FB7302E0034B00221A70FB7B1846103782
:101A0000BD4680BD1B02002080B584B000AF0346F8
:101A1000FB710020FFF792FC034623F00C03FB73DD
:101A2000FB79002B0FD0FB79012B04D1FB7B43F01A
:101A30000803FB7307E0FB7B43F00803FB73FB7BAE
:101A400043F00403FB73FB7B19460020FFF7C6FC41
:101A500000BF1037BD4680BD80B500AF0020FFF746
:101A60006DFC034643F00203DBB219460020FFF78A
:101A7000B5FC00BF80BD80B500AF0020FFF75EFC65
:101A8000034623F00203DBB219460020FFF7A6FC51
:101A900000BF80BD80B584B000AF7860FFF728FD3F
:101AA0000346FB73FB7B03F04003002B14BF0123B1
:101AB0000023BB73BB7B002B17D07B68002B07D0A8
:101AC000FB7B5B08DBB203F00703DAB27B681A70BA
:101AD00040210720FFF782FCFB7B03F02003002B53
:101AE00003D020210720FFF779FCBB7B1846103775
:101AF000BD4680BD80B500AF70210720FFF76EFCAA
:101B000000BF80BD80B582B000AF0020FFF7E6FBCC
:101B100050233B7173237B71391D642302220548D6
:101B200006F037FC0120FFF7D9FB00BF0837BD46A0
:101B300080BD00BF1C020020F0B5A1B004AF07F1CA
:101B40000803C349184609F047F807F10803184687
:101B5000FEF7B6FB03469AB207F108010A23BD4817
:101B600007F0FCFA0020FFF7E9FB034687F86F3027
:101B700097F86F3003F00803002B13D097F86F30FD
:101B800003F00403002B06D007F10803B2491846FE
:101B900009F022F80CE007F10803B049184609F0F3
:101BA0001BF805E007F10803AD49184609F014F8E1
:101BB00007F108031846FEF783FB03469AB207F1C4
:101BC00008010A23A34807F0C9FA0120FFF7B6FB72
:101BD000034687F86F3097F86F3003F00103002B4E
:101BE000CCBF01230023DBB21D4697F86F3003F012
:101BF0000203002BCCBF01230023DBB21E4697F863
:101C00006F3003F00403002BCCBF01230023DBB2B1
:101C10001A4697F86F3003F00803002BCCBF01235E
:101C20000023DBB2194697F86F3003F01003002B46
:101C3000CCBF01230023DBB21C4697F86F3003F0C2
:101C40002003002BCCBF01230023DBB207F10800E7
:101C5000039302940191009233462A46814908F089
:101C6000BBFF07F108031846FEF72AFB03469AB2AA
:101C700007F108010A23774807F070FA0220FFF7FE
:101C80005DFB034687F86F3097F86F3003F0010370
:101C9000002BCCBF01230023DBB21D4697F86F3029
:101CA00003F00203002BCCBF01230023DBB21E464E
:101CB00097F86F3003F00403002BCCBF01230023FF
:101CC000DBB21A4697F86F3003F00803002BCCBF45
:101CD00001230023DBB2194697F86F3003F010039D
:101CE000002BCCBF01230023DBB21C4697F86F30DA
:101CF00003F02003002BCCBF01230023DBB207F14C
:101D00000800039302940191009233462A465649F3
:101D100008F062FF07F108031846FEF7D1FA034600
:101D20009AB207F108010A234A4807F017FA03207C
:101D3000FFF704FB034603F0030387F86F3097F8BF
:101D40006F30023387F86F3097F86F2007F1080380
:101D50004649184608F040FF07F108031846FEF709
:101D6000AFFA03469AB207F108010A23394807F08F
:101D7000F5F90520FFF7E2FA034687F86F3097F888
:101D80006F3003F07F0207F108033949184608F065
:101D900023FF07F108031846FEF792FA03469AB2AA
:101DA00007F108010A232B4807F0D8F90620FFF7AE
:101DB000C5FA034687F86F3097F86F3003F00803D1
:101DC000002B06D007F108032A49184608F004FF43
:101DD00005E007F108032849184608F0FDFE07F161
:101DE00008031846FEF76CFA03469AB207F1080199
:101DF0000A23184807F0B2F997F86F3003F006038A
:101E000087F86F3097F86F305B0887F86F3097F876
:101E10006F30002B06D107F108031849184608F067
:101E2000DBFE3BE097F86F30012B06D107F108038A
:101E30001349184608F0D0FE30E097F86F30022BB7
:101E400022D107F108030F49184608F0C5FE25E026
:101E500078E4000880020020ACE40008C8E4000830
:101E6000E4E40008F8E400083CE5000888E5000820
:101E7000A4E50008B8E50008D0E50008E8E500089A
:101E8000FCE5000810E6000897F86F30032B05D139
:101E900007F10803D749184608F09EFE07F108032A
:101EA0001846FEF70DFA03469AB207F108010A2315
:101EB000D14807F053F93B46052219460A20FFF79F
:101EC00065FA3B791C46FB781D46BB787A783978F1
:101ED00007F108000291019200932B462246C74960
:101EE00008F07AFE07F108031846FEF7E9F9034601
:101EF0009AB207F108010A23BF4807F02FF93B46C1
:101F0000052219460B20FFF741FA3B791C46FB7866
:101F10001D46BB787A78397807F108000291019262
:101F200000932B462246B64908F056FE07F10803F7
:101F30001846FEF7C5F903469AB207F108010A23CD
:101F4000AD4807F00BF93B46012219460C20FFF77C
:101F50001DFA3B781A4607F10803AA49184608F00B
:101F60003BFE07F108031846FEF7AAF903469AB2AA
:101F700007F108010A23A04807F0F0F83B460122C8
:101F800019460D20FFF702FA3B781A4607F10803BD
:101F90009D49184608F020FE07F108031846FEF791
:101FA0008FF903469AB207F108010A23924807F015
:101FB000D5F83B46012219460E20FFF7E7F93B789A
:101FC0001A4607F108039149184608F005FE07F183
:101FD00008031846FEF774F903469AB207F10801A0
:101FE0000A23854807F0BAF83B46012219460F201C
:101FF000FFF7CCF93B781A4607F1080384491846E5
:1020000008F0EAFD07F108031846FEF759F9034600
:102010009AB207F108010A23774807F09FF83B4678
:10202000052219461020FFF7B1F93B791C46FB78D1
:102030001D46BB787A78397807F108000291019241
:1020400000932B462246734908F0C6FD07F10803AA
:102050001846FEF735F903469AB207F108010A233C
:10206000654807F07BF81120FFF768F9034687F809
:102070006F3097F86F3003F03F0207F108036649AD
:10208000184608F0A9FD07F108031846FEF718F9ED
:1020900003469AB207F108010A23574807F05EF891
:1020A0001220FFF74BF9034687F86F3097F86F302F
:1020B00003F03F0207F108035849184608F08CFD69
:1020C00007F108031846FEF7FBF803469AB207F13A
:1020D00008010A23484807F041F81320FFF72EF9BA
:1020E000034687F86F3097F86F3003F03F0207F12F
:1020F00008034B49184608F06FFD07F1080318461E
:10210000FEF7DEF803469AB207F108010A233A48BF
:1021100007F024F81420FFF711F9034687F86F3011
:1021200097F86F3003F03F0207F108033D49184666
:1021300008F052FD07F108031846FEF7C1F8034600
:102140009AB207F108010A232B4807F007F8152077
:10215000FFF7F4F8034687F86F3097F86F3003F015
:102160003F0207F108033049184608F035FD07F132
:1021700008031846FEF7A4F803469AB207F10801CF
:102180000A231D4806F0EAFF1620FFF7D7F803469A
:1021900087F86F3097F86F3003F03F0207F10803BC
:1021A0002249184608F018FD07F108031846FEF703
:1021B00087F803469AB207F108010A230E4806F091
:1021C000CDFF1C20FFF7BAF8034687F86F3097F869
:1021D0006F3003F00103002BCCBF01230023DBB2DF
:1021E0001D4697F86F3003F00203002BCCBF01238C
:1021F00000231DE024E600088002002038E60008E5
:1022000068E6000898E60008C0E60008E8E600086E
:1022100010E7000838E7000864E7000880E70008D6
:102220009CE70008B8E70008D4E70008F0E70008DA
:10223000DBB21E4697F86F3003F00403002BCCBFCF
:1022400001230023DBB21A4697F86F3003F008032E
:10225000002BCCBF01230023DBB2194697F86F3067
:1022600003F01003002BCCBF01230023DBB21C467C
:1022700097F86F3003F02003002BCCBF012300231D
:10228000DBB207F1080003930294019100923346F8
:102290002A46364908F0A0FC07F108031846FEF765
:1022A0000FF803469AB207F108010A23304806F0F6
:1022B00055FF1D20FFF742F8034687F86F3097F867
:1022C0006F3003F00403002B06D007F108032949FF
:1022D000184608F081FC05E007F108032649184676
:1022E00008F07AFC07F108031846FDF7E9FF0346FA
:1022F0009AB207F108010A231D4806F02FFF97F84C
:102300006F3003F00203002B06D007F108031B49CE
:10231000184608F061FC05E007F108031849184663
:1023200008F05AFC07F108031846FDF7C9FF0346F9
:102330009AB207F108010A230D4806F00FFF07F1D2
:1023400008031049184608F047FC07F1080318462F
:10235000FDF7B6FF03469AB207F108010A230448C5
:1023600006F0FCFE00BF7437BD46F0BD0CE8000867
:102370008002002058E8000870E8000888E800089B
:10238000A4E8000878E40008B0B59EB004AF3B466E
:102390003649184608F020FC3B461846FDF790FFEA
:1023A00003469AB239460A23314806F0D7FE072081
:1023B000FEF7C4FF034687F8673097F8673003F0ED
:1023C0004003002BCCBF01230023DBB21C4697F84F
:1023D000673003F02003002BCCBF01230023DBB2C6
:1023E0001D4697F8673003F01003002BCCBF012384
:1023F0000023DBB21A4697F8673003F00603002B80
:10240000CCBF01230023DBB2194697F8673003F0F5
:102410000103002BCCBF01230023DBB2384602931B
:10242000019100922B462246124908F0D5FB3B460B
:102430001846FDF745FF03469AB239460A230C4871
:1024400006F08CFE3B460949184608F0C5FB3B46A2
:102450001846FDF735FF03469AB239460A23044869
:1024600006F07CFE00BF6837BD46B0BDC0E800087E
:1024700080020020E0E8000880B59AB000AF3B463B
:102480002549184608F0A8FB3B461846FDF718FFFB
:1024900003469AB239460A23204806F05FFE002020
:1024A000FEF74CFF034687F8673097F8673003F074
:1024B0000203002BCCBF01230023DBB21A4697F89E
:1024C000673003F00103002BCCBF01230023DBB2F4
:1024D0003846134908F080FB3B461846FDF7F0FEEE
:1024E00003469AB239460A230C4806F037FE3B46AB
:1024F0000949184608F070FB3B461846FDF7E0FE18
:1025000003469AB239460A23044806F027FE00BF64
:102510006837BD4680BD00BFC0E8000880020020CB
:1025200038E9000890B59DB002AF3B4631491846E6
:1025300008F052FB3B461846FDF7C2FE03469AB22E
:1025400039460A232C4806F009FE1720FEF7F6FE4E
:10255000034687F8673097F8673003F02003002BB5
:10256000CCBF01230023DBB2194697F8673003F094
:102570001003002BCCBF01230023DBB21C4697F8CD
:10258000673003F00203002BCCBF01230023DBB232
:102590001A4697F8673003F00103002BCCBF0123E4
:1025A0000023DBB238460193009223460A461349C2
:1025B00008F012FB3B461846FDF782FE03469AB22E
:1025C00039460A230C4806F0C9FD3B46094918461E
:1025D00008F002FB3B461846FDF772FE03469AB22E
:1025E00039460A23044806F0B9FD00BF6C37BD46E2
:1025F00090BD00BFC0E800088002002064E9000828
:1026000080B586B000AF78607868FEF782FD7861AB
:102610007B691B0B1846FDF79DFF13A3D3E900232D
:10262000FEF712F802460B4610461946FEF704FB69
:1026300003463B613869FDF7AFFF0DA3D3E90023E3
:10264000FEF72CF902460B4610461946FEF7F4FA3F
:102650000346FB60FB6807EE903AB0EE670A183756
:10266000BD4680BDAFF300806666666666660A405A
:1026700017D9CEF753E3B53F80B582B000AF002342
:102680007B602AE04E4A7B6852F82330C82B0DD974
:102690004B4A7B6852F823204A4B1B681344494A33
:1026A0001360494B1B680133474A1360474A7B68F4
:1026B00052F82330C82B0DD9444A7B6852F82320A6
:1026C000434B1B681344424A1360424B1B6801335F
:1026D000404A13607B6801337B607B68092BD1DD46
:1026E0003B4B1A683B4B1B68B2FBF3F31846FDF7F4
:1026F00031FF2DA3D3E90023FDF7A6FF02460B46C9
:10270000104619464FF00002334BFEF7C7F8024659
:102710000B461046194626A3D3E90023FDF794FF84
:1027200002460B4610461946FEF786FA03462B4A28
:102730001360274B1A68244B1B68B2FBF3F318464F
:10274000FDF708FF18A3D3E90023FDF77DFF02463C
:102750000B46104619464FF000021F4BFEF79EF83D
:1027600002460B461046194613A3D3E90023FDF792
:102770006BFF02460B4610461946FEF75DFA03460C
:10278000174A1360154B93ED007A154BD3ED007A81
:1027900067EE277A134BC3ED007A00BF0837BD46BA
:1027A00080BD00BFAFF300800000000000C8A9405A
:1027B0000000000054E3B53F000000A09999A93F34
:1027C0004405002094050020980500206C05002099
:1027D0009C050020A00500200000B040300500202E
:1027E000340500203805002080B582B000AF0346D4
:1027F000FB80FB88042B34D101211C48FEF780FFAD
:102800001A4B1B7819461A4808F076F9194B1B68C1
:10281000002B03D1184B1B68164A1360164B1A681D
:10282000144B1B689A421CD1144B1B680A2B13D8FB
:10283000124B1B68104A9268114941F823200F4B34
:102840001B680D4A52680F4941F823200B4B1B6847
:1028500001330A4A136004E0084B00221A60FFF7B4
:102860000BFF00BF0837BD4680BD00BFA805002094
:10287000BCE900082C05002020050020A40500204C
:10288000440500206C05002080B483B000AF0346EF
:102890003960FB71FB79012B11D13B68554A1A60F5
:1028A0003B684FF000025A603B68534A9A60534BB2
:1028B0001B68534A1360534B534A1A6013E0FB7969
:1028C000002B10D13B68514A1A603B684FF0000260
:1028D0005A603B684E4A9A604E4B1B68484A1360E8
:1028E000484B4D4A1A60474B93ED007A444BD3ED69
:1028F000007A77EE677A494BC3ED007A3B6893ED37
:10290000007A464BD3ED007A67EE277A444BC3ED4D
:10291000007A444B93ED007A404BD3ED007A77EE8A
:10292000277A404BC3ED007A3B6893ED017A3D4B2B
:10293000D3ED007A67EE277A3B4BC3ED007A3B6814
:1029400093ED027A354BD3ED006A384BD3ED007A24
:1029500076EEE77A67EE277A354BC3ED007A304B97
:1029600093ED007A304BD3ED007A37EE277A304B77
:10297000D3ED007A77EE277A2E4BC3ED007A274B02
:102980001B682A4A13602B4BD3ED007AFDEEE77AE1
:1029900017EE903A1BB29AB2274B1B8813449AB297
:1029A000254B1A80244B1B8843F2E022934204D922
:1029B000214B43F260221A8006E01F4B1B887F2BBD
:1029C00002D81D4B00221A801B4B1A881B4B1A8001
:1029D0001A4B1B88002B07D0184B1B88C3F54B5391
:1029E0002033174A1268D36100BF0C37BD465DF82B
:1029F000047B70470000A0400000A0413805002083
:102A0000F4040020040000200000254300003443AB
:102A10000000FA433405002000008C421805002015
:102A20000C050020080500201005002004050020EA
:102A3000140500201C050020F004002000000020E8
:102A4000900300202DE9904397B016AF154C6846CF
:102A500004F110035422194608F037FA94E80F00E5
:102A6000FEF754FD0020FEF789FF0220FEF7CCFFA1
:102A70006F20FEF7CFFE0120FEF7E2FE0020FEF7FA
:102A80002FFFFEF7E9FF4FF480620023904699463E
:102A900042464B460020FEF753FE00BF0437BD46BA
:102AA000BDE890838C04002080B582B000AF7860D0
:102AB000234B1B687A685A61214B1B687A68C3F8FC
:102AC00094201F4B1B687A68C3F814227B685A084D
:102AD0001B4B1B68803ADA61194B1B687A685208F5
:102AE0005A62174B1B687A685208C3F89C20144B33
:102AF0001B687A685208C3F81C224FF480311048D2
:102B000003F0F8FE40210E4803F0C7FE80210C4878
:102B100003F0C3FE4FF48011094803F0EBFE0121DE
:102B2000074803F0BAFE0221054803F0B6FE4FF451
:102B30000031034803F0DEFE00BF0837BD4680BD0C
:102B40009003002080B500AF174B1B6846F2C062AF
:102B50005A61154B1B6846F2C062C3F89420124BB1
:102B60001B6846F2C062C3F814220F4B1B6843F285
:102B700060325A620C4B1B6843F26032C3F89C20EF
:102B8000094B1B6843F26032C3F81C22074900203E
:102B9000FFF77AFE064B1B88C3F54B532033024ADE
:102BA0001268D36100BF80BD90030020F8040020AC
:102BB0000000002080B584B000AF01F06FF900F094
:102BC000D9F900F0D5FC00F095FC00F01FFA00F0F8
:102BD000B1FA00214348FEF7B2FA434807F08CFFF0
:102BE00041F28830FEF7D6FAFFF72CFFFEF770FCB3
:102BF000FFF742FCFFF7C8FBFFF794FCFEF764FE0B
:102C00000346FB704FF47A70FEF7C4FA374807F0BA
:102C1000DBFF46F2A060FFF747FF0121002000F034
:102C2000FBFF334B4FF4E1321A60314B00225A6004
:102C30002F4B00221A812E4B00225A812C4B00224E
:102C40009A812B49002001F073F80346002B01D034
:102C500000F040FD72B600BF2648FEF709FAF0EE1C
:102C6000407A254BC3ED007A2248FFF7C9FCF0EE0D
:102C7000407A224BC3ED007A1F4BD3ED007AB3EEBE
:102C8000037AF4EEC77AF1EE10FA09DC1A4BD3EDB1
:102C9000007AB1EE047AF4EEC77AF1EE10FA04D5B8
:102CA00000211048FEF74BFA03E000210D48FEF723
:102CB0005BFA124BD3ED007AB3EE047AF4EEC77AE6
:102CC000F1EE10FA09DC0D4BD3ED007AB2EE047A86
:102CD000F4EEC77AF1EE10FA12D500210148FEF7A2
:102CE0002EFA11E000040048D0E90008ECE90008E1
:102CF00014030020240300203C0500204005002090
:102D000000218D48FEF730FA002200218A48FEF7A4
:102D100084FAB860002200218748FEF77EFA7860C6
:102D200062B600BFFEF7BEFC4FF47A7001F026F9E0
:102D3000FEF7DEFC0346FB60FB68002B0ED0002391
:102D4000BB70BB1C01211846FEF7DAFCBB781946A4
:102D50007A4807F0D1FE322001F010F9BB68002B51
:102D600015D1774B1B681A68754B1B6842F0060239
:102D70001A60734B1A68724B1B6812681A60704BAA
:102D80001B681A686E4B1B6842F004021A607B686D
:102D9000002B00F0C8806B4807F0AEFE6A4BD3ED05
:102DA000007A9FED6A7AF4EEC77AF1EE10FACCBFA2
:102DB00001230023DAB2644BD3ED007AB7EE007A38
:102DC000F4EEC77AF1EE10FA4CBF01230023DBB218
:102DD0001343DBB2002B19D05D4807F08DFE0021B4
:102DE0005548FEF7ACF946F2A060FFF75DFE544B84
:102DF0001B6843F2D022DA6100214F48FEF7B4F994
:102E00005448FEF7C7F9544807F076FE534BD3ED0C
:102E1000007A9FED537AF4EEC77AF1EE10FACCBF48
:102E200001230023DAB24D4BD3ED007AB2EE0E7AD5
:102E3000F4EEC77AF1EE10FA4CBF01230023DBB2A7
:102E40001343DBB2002B10D0464807F055FE00219B
:102E50003948FEF774F900213748FEF785F93D48F7
:102E6000FEF798F93C4807F047FE374BD3ED007A60
:102E7000B7EE007AF4EEC77AF1EE10FACCBF012378
:102E80000023DAB2304BD3ED007A9FED307AF4EEC6
:102E9000C77AF1EE10FA4CBF01230023DBB21340D6
:102EA000DBB21A462D4BD3ED007AB2EE0E7AF4EE79
:102EB000C77AF1EE10FACCBF01230023DBB2134036
:102EC000264AD2ED007A9FED267AF4EEC77AF1EE2B
:102ED00010FA4CBF01220022D2B21340002B16D0B0
:102EE000214807F009FE46F2C060FFF7DDFD72B62B
:102EF00000BFFFF727FE62B600BF4FF400410E4847
:102F000003F036F84FF4FA7001F038F80EE0174885
:102F100007F0F2FD46F2A060FFF7C6FD002106486B
:102F2000FEF70DF902E0124B00221A604FF4FA701E
:102F300001F024F88EE600BF00040048F4E9000820
:102F40009003002000EA00083405002000009642AB
:102F500014EA0008008793034CEA000830050020BB
:102F600000000C4254EA00088CEA0008A0EA0008BD
:102F70002C05002080B594B000AF07F1180338226B
:102F80000021184607F022FF3B1D00221A605A60FC
:102F90009A60DA601A61002004F020F90223BB6114
:102FA0004FF480737B624023BB6202237B63022366
:102FB000BB630423FB6355233B6402237B6402232E
:102FC000BB640223FB6407F11803184604F0BAF946
:102FD0000346002B01D000F07DFB0F237B60032311
:102FE000BB600023FB6000233B6100237B613B1D32
:102FF0000421184604F0B8FC0346002B01D000F071
:1030000069FB00BF5037BD4680BD000080B592B05F
:1030100000AF07F13C0300221A605A609A603B46F9
:103020003C220021184607F0D1FE3F4B4FF0A04252
:103030001A603D4B4FF440325A603B4B00229A607D
:10304000394B0022DA60384B00221A61364B0122DC
:103050005A61354B04229A61334B00221A77324B66
:1030600000225A77304B01221A622F4B002283F83C
:1030700024202D4B002283F838202B4B0022DA63CA
:10308000294B002283F84020274801F055F80346D9
:10309000002B01D000F01EFB0023FB6307F13C0373
:1030A0001946214802F052FB0346002B01D000F0E4
:1030B00011FB1E4B3B6009237B600423BB607F2315
:1030C000FB6004233B6100237B6102233B620023FE
:1030D00087F82430002387F82530002387F826302E
:1030E0000023BB620023FB62002387F830303B469D
:1030F00019460D4801F0FEFD0346002B01D000F0FB
:10310000E9FA0B4B3B6040F20F137B603B461946DC
:10311000054801F0EFFD0346002B01D000F0DAFA7C
:1031200000BF4837BD4680BD2403002002003004A4
:103130000400600880B5B8B000AF07F1D0030022EA
:103140001A605A609A60DA6007F170036022002109
:10315000184607F03BFE07F1640300221A605A602C
:103160009A6007F1480300221A605A609A60DA6098
:103170001A615A619A6107F124032422002118463A
:1031800007F024FE3B1D20220021184607F01EFEFA
:10319000CB4BCC4A1A60CA4B20225A60C84B002243
:1031A0009A60C74802F016FF0346002B01D000F0DA
:1031B00091FA0C21C24802F0DDFF0346002B01D03A
:1031C00000F088FA0A21BE4803F02CF80346002BD1
:1031D00001D000F07FFA46F25F73C7F8D0300023C9
:1031E000C7F8D4300123C7F8D8300823C7F8DC303B
:1031F00007F1D0031A460621B14803F047F8034609
:10320000002B01D000F066FA00233B6700237B67A8
:103210000023BB670023FB670123C7F8803000232E
:10322000C7F884300023C7F888300023C7F88C30F3
:103230000023C7F890300023C7F894300023C7F864
:1032400098300023C7F89C300023C7F8A030002333
:10325000C7F8A4300023C7F8CC3007F170031A4632
:103260000621974803F03AF80346002B01D000F0FE
:1032700031FA80237B6607F164030122062190481E
:1032800003F06CF90346002B01D000F023FA4FF64F
:10329000EF737B6607F1640302220621884803F07E
:1032A0005DF90346002B01D000F014FA46F25F737B
:1032B000C7F8D0301023C7F8DC3007F1D0031A4626
:1032C00000217F4802F0E2FF0346002B01D000F00E
:1032D00001FA0023BB6400237B6500233B6607F1F2
:1032E00048031A460021764803F085F80346002B70
:1032F00001D000F0EFF900233B6700237B674FF01C
:103300008053C7F89C300023C7F8A8300023C7F8C3
:10331000AC300023C7F8B0304FF48073C7F8B43036
:103320000023C7F8B8304FF08073C7F8C0302023AF
:10333000C7F8C4300023C7F8C83007F170031A4635
:1033400000215F4802F0CAFF0346002B01D000F0C5
:10335000C1F90023C7F89C300023C7F8B8304023D8
:10336000C7F8C43007F170031A460421544802F02C
:10337000B5FF0346002B01D000F0ACF94FF47A53AF
:103380007B6607F16403012200214D4803F0E6F853
:103390000346002B01D000F09DF94FF440637B629F
:1033A0004F23BB620023FB6200233B6300237B634C
:1033B0004F23BB630023FB6300233B6400237B6438
:1033C00007F124031A4600213D4803F047F803465D
:1033D000002B01D000F07EF92F23BB622F23BB63AB
:1033E00007F124031A460421354803F037F8034651
:1033F000002B01D000F06EF900237B600423BB603A
:103400000423FB6000233B6100237B610023BB613D
:103410000023FB6100233B623B1D01220021284861
:1034200003F00AFA0346002B01D000F053F90823F9
:10343000FB603B1D4FF480720421214803F0FCF92E
:103440000346002B01D000F045F90023BB600023A8
:10345000FB603B1D02220021194803F0EDF90346F1
:10346000002B01D000F036F93B1D4FF4007204210F
:10347000134803F0E1F90346002B01D000F02AF9CC
:1034800047F6FF43C7F8D0300023C7F8DC3007F118
:10349000D0031A4604210A4802F0F8FE0346002B26
:1034A00001D000F017F907F148031A460421044837
:1034B00002F0A1FF0346002B06D000F00BF903E059
:1034C000900300200068014007F1640301220421F9
:1034D000074803F043F80346002B01D000F0FAF848
:1034E000034800F09BF900BFE037BD4680BD00BF38
:1034F0009003002080B500AF1B4B1C4A1A601A4B8A
:103500004FF482725A60184B00229A60164B4FF4A7
:103510004072DA60144B00221A61134B00225A6188
:10352000114B4FF400729A610F4B2022DA610E4B5F
:1035300000221A620C4B00225A620B4B00229A6244
:10354000094B0722DA62084B00221A63064B082255
:103550005A63054804F072FE0346002B01D000F0C8
:10356000B9F800BF80BD00BF8C04002000300140CE
:1035700080B58AB000AF07F1140300221A605A60C8
:103580009A60DA601A61504BDB6C4F4A43F00403D7
:10359000D3644D4BDB6C03F004033B613B694A4B46
:1035A000DB6C494A43F02003D364474BDB6C03F0E8
:1035B0002003FB60FB68444BDB6C434A43F0010390
:1035C000D364414BDB6C03F00103BB60BB683E4B33
:1035D000DB6C3D4A43F00203D3643B4BDB6C03F0EE
:1035E00002037B607B68002210214FF0904002F0C4
:1035F000A7FC00221021354802F0A2FC00224FF463
:103600006041334802F09CFC10237B610123BB61C5
:103610000023FB6100233B6207F1140319464FF0BE
:10362000904002F00BFB10237B610123BB61002360
:10363000FB6100233B6207F114031946234802F0A3
:10364000FDFA04237B614FF40413BB610023FB618B
:1036500007F1140319461E4802F0F0FA4FF4006314
:103660007B610023BB610123FB6107F11403194651
:10367000174802F0E3FA4FF480537B610023BB61EB
:103680000223FB6107F114031946114802F0D6FA30
:103690004FF460437B610123BB610023FB61002386
:1036A0003B6207F114031946094802F0C7FA0022E9
:1036B0000121082002F02DFA082002F044FA00BF90
:1036C0002837BD4680BD00BF0010024000080048FA
:1036D0000004004880B500AF72B600BF0021024868
:1036E000FDF72DFD00BFFDE70004004880B582B066
:1036F00000AF0F4B1B6E0E4A43F0010313660C4BD9
:103700001B6E03F001037B607B68094B9B6D084ACD
:1037100043F080539365064B9B6D03F080533B60F1
:103720003B6803F0FFFD00BF0837BD4680BD00BF0A
:103730000010024080B59EB000AF786007F16403CE
:1037400000221A605A609A60DA601A6107F1100369
:1037500054220021184607F039FB7B681B68B3F13F
:10376000A04F34D14FF400433B614FF000537B65D1
:1037700007F11003184604F013FB0346002B01D099
:10378000FFF7A8FF144BDB6C134A43F40053D364D8
:10379000114BDB6C03F40053FB60FB680E4BDB6CDE
:1037A0000D4A43F00103D3640B4BDB6C03F00103C0
:1037B000BB60BB6803237B660323BB660023FB66F9
:1037C00007F1640319464FF0904002F037FA00BF4A
:1037D0007837BD4680BD00BF0010024080B485B080
:1037E00000AF78607B681B680A4A93420BD10A4B92
:1037F0001B6E094A43F080631366074B1B6E03F090
:103800008063FB60FB6800BF1437BD465DF8047B36
:10381000704700BF006801400010024080B58AB0C8
:1038200000AF786007F1140300221A605A609A60B2
:10383000DA601A617B681B68204A93423AD1204BB8
:10384000DB6C1F4A43F00403D3641D4BDB6C03F0B5
:1038500004033B613B691A4BDB6C194A43F00103DB
:10386000D364174BDB6C03F00103FB60FB684FF480
:1038700040737B610223BB610023FB6103233B6236
:1038800003237B6207F1140319460E4802F0D6F9B0
:103890004FF440737B610223BB610023FB61032370
:1038A0003B620D237B6207F1140319464FF09040F1
:1038B00002F0C4F900BF2837BD4680BD0068014052
:1038C000001002400008004880B58AB000AF786060
:1038D00007F1140300221A605A609A60DA601A61D4
:1038E0007B681B68174A934228D1174B1B6E164AF8
:1038F00043F480531366144B1B6E03F480533B61F7
:103900003B69114BDB6C104A43F00103D3640E4B4F
:10391000DB6C03F00103FB60FB68E0237B610223A7
:10392000BB610023FB6100233B6205237B6207F13F
:10393000140319464FF0904002F080F900BF283779
:10394000BD4680BD003001400010024080B400AF91
:1039500000BFFDE780B400AF00BFFDE780B400AF5B
:1039600000BFFDE780B400AF00BFFDE780B400AF4B
:1039700000BFFDE780B400AF00BFBD465DF8047B2B
:10398000704780B400AF00BFBD465DF8047B704750
:1039900080B400AF00BFBD465DF8047B704780B5C2
:1039A00000AF00F0CDFA00BF80BD80B500AF0420AD
:1039B00002F0F8FA00BF80BD80B500AF002000F033
:1039C00099F900BF80BD80B483B000AF78604FF03C
:1039D0006043D3F8803E03F00103002B13D04FF077
:1039E0006043D3F8003E03F00103002B0BD000E04E
:1039F00000BF4FF060431B68002BF9D04FF06043CD
:103A00007A68D2B21A707B6818460C37BD465DF8EA
:103A1000047B704780B400AF01231846BD465DF8B3
:103A2000047B704780B582B000AF7860396007F0E2
:103A30001FFA034616221A604FF0FF331846083764
:103A4000BD4680BD80B582B000AF78604FF0FF31D9
:103A50007868FFF7E7FF00BFFDE780B586B000AFED
:103A6000F860B9607A6000237B610AE0AFF3008000
:103A70000146BB685A1CBA60CAB21A707B6901332E
:103A80007B617A697B689A42F0DB7B68184618375D
:103A9000BD4680BD80B586B000AFF860B9607A6081
:103AA00000237B6109E0BB685A1CBA601B7818468A
:103AB000FFF789FF7B6901337B617A697B689A42F2
:103AC000F1DB7B6818461837BD4680BD80B483B0F3
:103AD00000AF78604FF0FF3318460C37BD465DF8F5
:103AE000047B704780B483B000AF786039603B6876
:103AF0004FF400525A60002318460C37BD465DF85B
:103B0000047B704780B483B000AF7860012318460F
:103B10000C37BD465DF8047B704780B485B000AFBC
:103B2000F860B9607A60002318461437BD465DF826
:103B3000047B704780B586B000AF7860144A154B9F
:103B4000D31A7B617B693B61134B1B68002B02D14D
:103B5000114B124A1A60104B1A687B6813443A6979
:103B60009A4207D207F084F903460C221A604FF0FC
:103B7000FF3309E0084B1B68FB60074B1A687B6842
:103B80001344054A1360FB6818461837BD4680BDCC
:103B90000000022000040000AC050020A007002067
:103BA00080B400AF064BD3F88830054A43F4700365
:103BB000C2F8883000BFBD465DF8047B704700BF87
:103BC00000ED00E00D488546FFF7EAFF0C480D497F
:103BD0000D4A002302E0D458C4500433C4188C4268
:103BE000F9D30A4A0A4C002301E013600432A242CE
:103BF000FBD307F043F9FEF7DDFFFEE700000220EC
:103C000000000020EC0100202CEF0008F001002053
:103C10009C070020FEE7000080B588B000AF034697
:103C20000A46FB711346BB712C4BDB6C2B4A43F0ED
:103C30000403D364294BDB6C03F00403BB60BB6853
:103C40004FF40053FB6002237B610223BB61BB790D
:103C5000002B0CD100233B61FB79214A52F8233021
:103C600007F10C021146184601F0E8FF31E04FF46D
:103C700088133B61FB791A4A52F8233007F10C0292
:103C80001146184601F0DAFFFB79DB00154A1A44A9
:103C9000FB79154951F823301946104601F08AFF87
:103CA000FB79DB000F4A9818FB79104A52F8233051
:103CB0001A46002101F061FF2820FB790C4A52F8D6
:103CC00023300022194601F024FF2823184601F072
:103CD0003AFF002318462037BD4680BD0010024041
:103CE0000C000020B0050020D8EA000814000020D5
:103CF0001800002080B582B000AF0346FB71FB794D
:103D0000DB00044A1344184601F068FF00BF08377F
:103D1000BD4680BDB005002080B483B000AF03462F
:103D2000FB7100BF0C37BD465DF8047B7047000097
:103D300080B584B000AF03463960FB710023FB609F
:103D4000FB79012B03D96FF00103FB6018E0FB79CD
:103D5000942202FB03F30D4A1344184600F052F874
:103D6000FB79942202FB03F3084A1344396818468E
:103D700000F00EF80346002B02D06FF0030300E0C2
:103D8000FB6818461037BD4680BD00BFB80500204F
:103D900080B582B000AF78603960154B1A687B68D7
:103DA0001A603B681A687B685A607B680C225A610B
:103DB0003B685B891A467B681A613B685A687B6876
:103DC0009A603B681B891A467B68DA603B689B896E
:103DD0001A467B689A617B684FF40042DA61786822
:103DE00005F062F9034618460837BD4680BD00BF9E
:103DF0001000002080B500AF0020FFF78DFF00BF4E
:103E000080BD000080B58AB000AF7860224BDB6CCB
:103E1000214A43F00103D3641F4BDB6C03F0010321
:103E20003B613B691C4BDB6C1B4A43F00103D364D1
:103E3000194BDB6C03F00103FB60FB68164BDB6D79
:103E4000154A43F00103D365134BDB6D03F0010307
:103E5000BB60BB6804237B610223BB6102233B621E
:103E60000123FB610C237B6207F1140319464FF019
:103E7000904001F0E3FE08237B610223BB610C2329
:103E80007B6207F1140319464FF0904001F0D6FE13
:103E900000BF2837BD4680BD0010024080B582B00B
:103EA00000AF0023FB71032001F028FE002000F08A
:103EB0000DF80346002B02D00123FB7101E0FFF750
:103EC00015FCFB7918460837BD4680BD80B584B027
:103ED00000AF78600023FB73164B1B68002B22D0C9
:103EE000154B1A68134B1B684FF47A71B1FBF3F34F
:103EF000B2FBF3F3184601F034FE0346002B0FD15A
:103F00007B680F2B09D8002279684FF0FF3001F051
:103F100000FE0A4A7B68136007E00123FB7304E09C
:103F20000123FB7301E00123FB73FB7B1846103771
:103F3000BD4680BD20000020080000201C0000209D
:103F400080B400AF054B1A68054B1B681344034A45
:103F5000136000BFBD465DF8047B70474C0600202F
:103F60002000002080B400AF034B1B681846BD46FC
:103F70005DF8047B704700BF4C06002080B584B01C
:103F800000AF7860FFF7EEFFB8607B68FB60FB680E
:103F9000B3F1FF3F04D0094B1B68FA681344FB6080
:103FA00000BFFFF7DFFF0246BB68D31AFA689A42E8
:103FB000F7D800BF00BF1037BD4680BD20000020ED
:103FC00080B483B000AF786039607B689B6823F46D
:103FD0007C123B681A437B689A6000BF0C37BD4671
:103FE0005DF8047B704780B483B000AF78607B6875
:103FF0009B6803F0E07318460C37BD465DF8047B00
:10400000704780B483B000AF78607B689B6823F012
:10401000204323F03F037A68936000BF0C37BD460E
:104020005DF8047B704780B483B000AF78607B6834
:104030009B6803F00053B3F1005F01D1012300E05E
:10404000002318460C37BD465DF8047B704780B4EA
:1040500083B000AF78607B689B6823F0104323F047
:104060003F0343F080527B689A6000BF0C37BD4627
:104070005DF8047B704780B483B000AF78607B68E4
:104080009B6803F08053B3F1805F01D1012300E00E
:10409000002318460C37BD465DF8047B704780B49A
:1040A00083B000AF78607B689B6823F0004323F007
:1040B0003F0343F001027B689A6000BF0C37BD46A6
:1040C0005DF8047B704780B483B000AF78607B6894
:1040D0009B6803F00103012B01D1012300E00023C1
:1040E00018460C37BD465DF8047B704780B483B03A
:1040F00000AF78607B689B6803F00403042B01D158
:10410000012300E0002318460C37BD465DF8047B10
:10411000704780B483B000AF78607B689B6803F021
:104120000803082B01D1012300E0002318460C37B7
:10413000BD465DF8047B704790B589B000AF7860EC
:104140000023FB770023FB607B68002B01D1012358
:10415000A9E17B685B69002B7B68DB6D002B09D1D3
:104160007868FFF7E7FA7B6800221A667B6800220E
:1041700083F858207B681B681846FFF754FF0346F6
:10418000002B04D07B681B681846FFF73AFF7B685A
:104190001B681846FFF76FFF0346002B15D17B689D
:1041A0001B681846FFF753FF9C4B1B689B099C4AF2
:1041B000A2FB03239B0901335B00FB6002E0FB6869
:1041C000013BFB60FB68002BF9D17B681B6818463C
:1041D000FFF751FF0346002B0DD17B68DB6D43F0E9
:1041E00010027B68DA657B681B6E43F001027B6816
:1041F0001A660123FB777B681B681846FFF776FF7A
:1042000078617B68DB6D03F01003002B40F0428186
:104210007B69002B40F03E817B68DB6D23F481736A
:1042200043F002027B68DA657B681B681846FFF77B
:104230004AFF0346002B41D17B681B68B3F1A04FB6
:1042400004D07B681B68774A93420FD14FF0A0409F
:10425000FFF739FF04467348FFF735FF0346234352
:10426000002B0CBF01230023DBB212E06E48FFF7E6
:104270002AFF04466D48FFF726FF03461C436C489F
:10428000FFF721FF03462343002B0CBF012300232C
:10429000DBB2002B12D07B681B68B3F1A04F04D0B7
:1042A0007B681B685F4A934201D1624A00E0624A20
:1042B0007B685B6819461046FFF782FE7B685B7F70
:1042C0005A037B68DB6B1A437B68DB681A437B68A5
:1042D0009B681A437B6893F824301B041343BB612B
:1042E0007B6893F82430012B06D17B689B6A013BE5
:1042F0005B04BA691343BB617B68DB6A002B09D09E
:104300007B68DB6A03F478727B681B6B1343BA69C2
:104310001343BB617B681B68DA68484B13407A68BB
:104320001268B9690B43D3607B681B681B6923F073
:1043300040617B685A6B7B681B680A431A617B6823
:104340001B681846FFF7E5FE38617B69002B7FD1BB
:104350003B69002B7CD17B681B7F9A037B6893F8B9
:1043600038305B001343BB617B681B68DB6823F458
:10437000804323F002037A681268B9690B43D36063
:104380007B681B69002B17D07B681B681A697B68E8
:104390001B6842F480321A617B681B68D3F8C03016
:1043A00023F47F5323F03F037A6811697A68126817
:1043B0000B43C2F8C03013E07B681B681A697B6846
:1043C0001B6822F480321A617B681B68D3F8C03006
:1043D0007A68126823F47F5323F03F03C2F8C03099
:1043E0007B6893F84030012B2AD17B681B681B69DE
:1043F00023F4FF6323F004037A68516C7A68926CAB
:1044000011437A68D26C11437A68126D0A431A43D9
:104410007B681B6842F001021A6119E00800002065
:10442000632D3E05000100500004005000050050BF
:104430000006005000030050000700500740F0FF46
:104440007B681B681A697B681B6822F001021A618D
:104450007B685B69012B0CD17B681B681B6B23F0AD
:104460000F017B681B6A5A1E7B681B680A431A632C
:1044700007E07B681B681A6B7B681B6822F00F02E1
:104480001A637B68DB6D23F0030343F001027B6852
:10449000DA6507E07B68DB6D43F010027B68DA6564
:1044A0000123FB77FB7F18462437BD4690BD00BF34
:1044B00080B584B000AF78600023BB607B681B6868
:1044C0001846FFF700FE0346002B76D17B681B6879
:1044D0009A683C4B1340002B0DD07B68DB6D43F09A
:1044E00010027B68DA657B681B6E43F001027B6813
:1044F0001A66012362E07B681B681846FFF7CFFD50
:104500007B681B68B3F1A04F04D07B681B682E4A00
:10451000934201D12D4B00E02D4B1846FFF763FD70
:10452000034603F40003002B13D02A4B1B689B099E
:10453000294AA2FB03239B095A1C13465B00134420
:104540009B00BB6002E0BB68013BBB60BB68002B0B
:10455000F9D1FFF707FDF86028E07B681B68184673
:10456000FFF7B1FD0346002B04D17B681B6818469A
:10457000FFF795FDFFF7F6FC0246FB68D31A022B06
:1045800014D97B681B681B6803F00103012B0DD055
:104590007B68DB6D43F010027B68DA657B681B6E1D
:1045A00043F001027B681A66012307E07B681B6801
:1045B0001B6803F00103012BCFD1002318461037ED
:1045C000BD4680BD3F000080000100500003005048
:1045D0000007005008000020632D3E0580B483B022
:1045E00000AF786039607B689B6823F0E0723B68BD
:1045F0001A437B689A6000BF0C37BD465DF8047BA8
:10460000704780B483B000AF78607B689B6803F02C
:10461000E07318460C37BD465DF8047B7047000018
:1046200080B487B000AFF860B9607A603B60FB6827
:1046300060331A46BB689B0013447B617B691A6830
:10464000084B13407A6802F0F8413A680A43134372
:1046500043F000427B691A6000BF1C37BD465DF81D
:10466000047B704700F0FF0380B485B000AF786032
:1046700039607B6860331A463B689B001344FB60DB
:10468000FB681B6803F0F84318461437BD465DF815
:10469000047B704780B487B000AFF860B9607A607F
:1046A000FB6860331A46BB689B0013447B617B69DF
:1046B0001B6823F000427B681A437B691A6000BFC5
:1046C0001C37BD465DF8047B704780B487B000AFEF
:1046D000F860B9607A60FB6860331A46BB689B007B
:1046E00013447B617B691B6823F080727B681A43EB
:1046F0007B691A6000BF1C37BD465DF8047B7047BC
:1047000080B487B000AFF860B9607A60FB6860334E
:104710001A46BB689B0013447B617B691B6823F0CE
:1047200000727B681A437B691A6000BF1C37BD4664
:104730005DF8047B704780B483B000AF7860396067
:104740007B685B6923F000423B681A437B685A61CF
:1047500000BF0C37BD465DF8047B704780B483B062
:1047600000AF78607B68DB6803F44063002B01D105
:10477000012300E0002318460C37BD465DF8047B9A
:10478000704780B483B000AF78607B68DB6C03F463
:10479000C073002B01D1012300E0002318460C3721
:1047A000BD465DF8047B704780B483B000AF78608D
:1047B0007B68DB6803F0007318460C37BD465DF874
:1047C000047B704780B487B000AFF860B9607A604E
:1047D000FB6814331A46BB685B0E9B0003F00403AE
:1047E00013447B617B691A68BB681B0D03F01F03D0
:1047F000072101FA03F3DB431A40BB681B0D03F0EA
:104800001F03796801FA03F31A437B691A6000BF3A
:104810001C37BD465DF8047B7047000080B485B04E
:1048200000AFF860B9607A60FB68D3F8B020BB686D
:10483000C3F31203DB431A407B6803F018030849F3
:10484000D940BB680B40C3F312031A43FB68C3F89B
:10485000B02000BF1437BD465DF8047B704700BF31
:10486000FFFF070080B483B000AF78607B689B686F
:1048700003F01F0318460C37BD465DF8047B7047F4
:1048800080B483B000AF78607B689B6803F001035D
:10489000012B01D1012300E0002318460C37BD464F
:1048A0005DF8047B704780B483B000AF78607B68AC
:1048B0009B6803F00403042B01D1012300E00023D3
:1048C00018460C37BD465DF8047B704780B483B052
:1048D00000AF78607B689B6823F0004323F03F03C0
:1048E00043F008027B689A6000BF0C37BD465DF854
:1048F000047B704780B483B000AF78607B689B68AE
:1049000003F00803082B01D1012300E0002318461F
:104910000C37BD465DF8047B7047000080B586B05B
:1049200000AF78607B681B68B3F1A04F04D07B6850
:104930001B685D4A934201D15C4B00E05C4B18461A
:10494000FFF790FF78617B681B681846FFF7D2FF7E
:104950000346002B01D00223A2E07B681B68DB68C2
:1049600003F000433B617B681B68DB6C03F4C0739E
:10497000002B0AD13B69002B07D17B68DB6D43F02C
:1049800020027B68DA6501238AE07B6893F858305F
:10499000012B01D1022383E07B68012283F8582098
:1049A0007868FFF785FD0346FB73FB7B002B72D114
:1049B0007B68DB6D03F48073002B06D07B681B6E75
:1049C00023F008027B681A6602E07B6800221A6600
:1049D0007B68DB6D23F4405323F0010343F48052E2
:1049E0007B68DA657B681B682F4A934209D07B6835
:1049F0001B68304A934202D07B681B6803E02E4B51
:104A000001E04FF0A0437A681268934202D07B69BC
:104A1000002B05D17B68DB6D23F480127B68DA659F
:104A20007B681B6860221A607B68002283F858202C
:104A30007B681B681C4A934209D07B681B681D4A2F
:104A4000934202D07B681B6803E01B4B01E04FF0F0
:104A5000A0437A681268934208D07B69002B05D086
:104A60007B69062B02D07B69072B0DD17B681B6805
:104A70001846FFF799FE0346002B10D17B681B6890
:104A80001846FFF723FF0AE07B68DB6D43F48012D2
:104A90007B68DA6503E07B68002283F85820FB7BA3
:104AA00018461837BD4680BD000100500003005075
:104AB00000070050000500500004005080B58AB087
:104AC00000AF786039607B681B68B3F1A04F04D0F9
:104AD0007B681B68664A934201D1664B00E0664BD7
:104AE0001846FFF7BFFEF8617B689B69082B02D16F
:104AF00040237B6201E020237B62FFF733FAB86139
:104B000021E03B68B3F1FF3F1DD0FFF72BFA0246CF
:104B1000BB69D31A3A689A4202D33B68002B12D180
:104B20007B681B681A687B6A1340002B0BD17B687B
:104B3000DB6D43F004027B68DA657B68002283F852
:104B40005820032390E07B681B681A687B6A134037
:104B5000002BD6D07B681B681846FFF712FE7861E1
:104B60007B681B681846FFF7F9FD38617B681B6896
:104B70003F4A934209D07B681B68404A934202D067
:104B80007B681B6803E03E4B01E04FF0A0437A686E
:104B90001268934208D0FB69002B05D0FB69062BF5
:104BA00002D0FB69072B04D17B681B68DB683B6282
:104BB00014E07B681B682E4A934209D07B681B680F
:104BC0002E4A934202D07B681B6803E02C4B01E025
:104BD0004FF0A043FB60FB68DB683B627B68DB6DEA
:104BE00043F400527B68DA657B69002B0CD13B6A89
:104BF00003F00073002B25D13B69002B22D03B6AC8
:104C000003F40053002B1DD17B681B681B6803F065
:104C10004003402B16D13B6A03F40013002B11D143
:104C20007B68DB6D23F480527B68DA657B68DB6D23
:104C300003F48073002B05D17B68DB6D43F0010228
:104C40007B68DA657B6A402B09D13B6A03F48043B9
:104C5000002B08D17B681B6860221A6003E07B6828
:104C60001B6820221A60002318462837BD4680BDE5
:104C700000010050000300500007005000050050E4
:104C80000004005080B485B000AF786039603B68A4
:104C900040F21B3293420ED03B68B3F5477F1CD2E3
:104CA0003B6840F20F12934211D03B6840F215224C
:104CB000934206D011E07B681B68D3F88C30FB6010
:104CC00011E07B681B68D3F88830FB600BE07B68E1
:104CD0001B68D3F88430FB6005E07B681B68D3F861
:104CE0008030FB6000BFFB6818461437BD465DF896
:104CF000047B704780B5B6B000AF786039600023A0
:104D000087F8D7300023BB600023C7F8D0307B681A
:104D100093F85830012B02D1022300F0FDBC7B68D0
:104D2000012283F858207B685B69002B03D03B6825
:104D30001B6A012B30D13B685B68092B79D13B683A
:104D40009B6A002B10D03B681B689B0E5B0203F430
:104D500078523B689B6A03F07C031A433B68DB6A2A
:104D60001343C7F8D03007E03B681B689B0E5B021B
:104D700003F47853C7F8D0307B681B68DA6C844B37
:104D800013407A681268D7F8D0100B43D3647B685D
:104D9000D7F8D0205A664CE07B689B6E002B1DD163
:104DA0003B681A6A7B689A667B6800225A663B6891
:104DB0009B6A002B0DD03B681B6A5A1E3B689B6A9E
:104DC00003F07C031A433B68DB6A1343C7F8D03017
:104DD00004E03B681B6A013BC7F8D0303B681B68A6
:104DE0009B0E03F01F023B685B6803F01F0302FA8F
:104DF00003F3D7F8D0201343C7F8D0307B689B6EFD
:104E00005A1E7B689A667B685A6ED7F8D0301A4370
:104E10007B685A667B689B6E002B0AD17B681B6897
:104E2000DA6C5B4B13407A68516E7A6812680B43F8
:104E3000D3647B681B681846FFF75CFD0346002BB4
:104E400024D13B6893F82530002B12D17B681B6876
:104E5000DB6823F440113B6893F826305A053B6821
:104E600093F824301B051A437B681B680A43DA60F9
:104E70000CE07B681B68DB6823F440113B6893F807
:104E800026305A057B681B680A43DA607B681B681A
:104E90001846FFF708FDC7F8CC007B681B6818466A
:104EA000FFF728FDC7F8C800D7F8CC30002B40F03A
:104EB0002E82D7F8C830002B40F029823B689B6ACD
:104EC000002B03D03B68DB6A002B16D13B6893F8BC
:104ED0002530012B08D17B681B68DA687B681B686A
:104EE00042F00072DA601FE07B681B68DA687B685A
:104EF0001B6822F00072DA6016E03B6893F82530F8
:104F0000012B09D17B68DB6D43F020027B68DA65F9
:104F1000012387F8D73007E07B681B68DA687B6875
:104F20001B6822F00072DA603B6893F83030012B86
:104F300010D17B681B681B6923F4FF723B68596BB7
:104F40003B689B6B0B431A437B681B6842F0020271
:104F50001A6107E07B681B681A697B681B6822F08E
:104F600002021A613B689B68B3F1004F12D17B6863
:104F700018683B681B6800221946FFF723FC7B6812
:104F80001B684FF000411846FFF7D5FB11E000BF4A
:104F9000004010047B6818683B6819683B689B6890
:104FA0001A46FFF70FFC7B681B6800211846FFF7C5
:104FB000C2FB3B685A697B681B68DB68DB0803F04F
:104FC00003035B0002FA03F3C7F8C4303B681B69B4
:104FD000042B22D07B6818683B6819693B681A6803
:104FE000D7F8C430FFF71CFB7B6818683B68196969
:104FF0003B689B691A46FFF768FB7B6818683B684B
:1050000019693B681B7F012B02D14FF0007300E050
:1050100000231A46FFF774FB79E17B681B680021C7
:105020001846FFF721FB0346C3F31203002B0AD1F6
:105030007B681B6800211846FFF716FB03469B0E92
:1050400003F01F021EE07B681B6800211846FFF773
:105050000BFB0346C7F8B430D7F8B43093FAA3F388
:10506000C7F8B830D7F8B830C7F8B030D7F8B03094
:10507000002B01D1202304E0D7F8B030B3FA83F33A
:10508000DBB21A463B681B68C3F31203002B05D141
:105090003B681B689B0E03F01F0318E03B681B680E
:1050A000C7F8AC30D7F8AC3093FAA3F3C7F8A83000
:1050B000D7F8A830C7F8BC30D7F8BC30002B01D1E6
:1050C000202304E0D7F8BC30B3FA83F3DBB29A4272
:1050D00006D17B681B68002200211846FFF7DAFA28
:1050E0007B681B6801211846FFF7BEFA0346C3F32D
:1050F0001203002B0AD17B681B6801211846FFF7B9
:10510000B3FA03469B0E03F01F021EE07B681B6888
:1051100001211846FFF7A8FA0346C7F8A030D7F8D0
:10512000A03093FAA3F3C7F89C30D7F89C30C7F8A7
:10513000A430D7F8A430002B01D1202304E0D7F805
:10514000A430B3FA83F3DBB21A463B681B68C3F39F
:105150001203002B05D13B681B689B0E03F01F0355
:1051600018E03B681B68C7F89430D7F8943093FA7E
:10517000A3F3C7F89030D7F89030C7F89830D7F835
:105180009830002B01D1202304E0D7F89830B3FAEF
:1051900083F3DBB29A4206D17B681B6800220121AF
:1051A0001846FFF777FA7B681B6802211846FFF75D
:1051B0005BFA0346C3F31203002B0AD17B681B681A
:1051C00002211846FFF750FA03469B0E03F01F0218
:1051D0001EE07B681B6802211846FFF745FA03466C
:1051E000C7F88830D7F8883093FAA3F3C7F884302B
:1051F000D7F88430C7F88C30D7F88C30002B01D129
:10520000202304E0D7F88C30B3FA83F3DBB21A46DC
:105210003B681B68C3F31203002B05D13B681B6876
:105220009B0E03F01F0314E03B681B68FB67FB6FDA
:1052300093FAA3F3BB67BB6FC7F88030D7F8803011
:10524000002B01D1202304E0D7F88030B3FA83F398
:10525000DBB29A4206D17B681B6800220221184605
:10526000FFF718FA7B681B6803211846FFF7FCF963
:105270000346C3F31203002B0AD17B681B6803218A
:105280001846FFF7F1F903469B0E03F01F0217E0E3
:105290007B681B6803211846FFF7E6F903463B6766
:1052A0003B6F93FAA3F3FB66FB6E7B677B6F002B70
:1052B00001D1202303E07B6FB3FA83F3DBB21A46FC
:1052C0003B681B68C3F31203002B05D13B681B68C6
:1052D0009B0E03F01F0311E03B681B687B667B6E2F
:1052E00093FAA3F33B663B6EBB66BB6E002B01D10A
:1052F000202303E0BB6EB3FA83F3DBB29A4206D1FC
:105300007B681B68002203211846FFF7C3F97B68FE
:105310001B681846FFF7B4FA0346002B40F03D81A6
:105320007B6818683B6819683B68DB681A46FFF7BA
:1053300075FA3B68DB68A24A934240F02E817B6895
:1053400018683B681B68C3F31203002B0BD13B6842
:105350001B689B0E013303F01F03092B94BF01232D
:105360000023DBB219E03B681B68BB65BB6D93FA99
:10537000A3F37B657B6DFB65FB6D002B01D12023C7
:1053800003E0FB6DB3FA83F3DBB2013303F01F03D9
:10539000092B94BF01230023DBB2002B79D03B689B
:1053A0001B68C3F31203002B07D13B681B689B0EDD
:1053B00001339B0603F0F84215E03B681B68FB6471
:1053C000FB6C93FAA3F3BB64BB6C3B653B6D002B9A
:1053D00001D1202303E03B6DB3FA83F3DBB2013349
:1053E0009B0603F0F8423B681B68C3F31203002BD3
:1053F00009D13B681B689B0E013303F01F03012199
:1054000001FA03F317E03B681B683B643B6C93FABB
:10541000A3F3FB63FB6B7B647B6C002B01D120232C
:1054200003E07B6CB3FA83F3DBB2013303F01F03B9
:10543000012101FA03F342EA03013B681B68C3F34D
:105440001203002B0AD13B681B689B0E013303F04B
:105450001F0213465B0013441B0518E03B681B68E2
:105460007B637B6B93FAA3F33B633B6BBB63BB6BCD
:10547000002B01D1202303E0BB6BB3FA83F3DBB233
:10548000013303F01F0213465B0013441B050B435B
:105490007EE03B681B68C3F31203002B07D13B6817
:1054A0001B689B0E01339B0603F0F84215E03B6836
:1054B0001B68BB62BB6A93FAA3F37B627B6AFB62E5
:1054C000FB6A002B01D1202303E0FB6AB3FA83F3CC
:1054D000DBB201339B0603F0F8423B681B68C3F361
:1054E0001203002B09D13B681B689B0E013303F0AC
:1054F0001F03012101FA03F317E03B681B68FB61FE
:10550000FB6993FAA3F3BB61BB693B623B6A002B67
:1055100001D1202303E03B6AB3FA83F3DBB201330A
:1055200003F01F03012101FA03F342EA03013B6880
:105530001B68C3F31203002B0DD13B681B689B0E45
:10554000013303F01F0213465B0013441E3B1B058F
:1055500043F000731BE03B681B683B613B6993FAB7
:10556000A3F3FB60FB687B617B69002B01D12023E7
:1055700003E07B69B3FA83F3DBB2013303F01F026C
:1055800013465B0013441E3B1B0543F000730B43A3
:105590003A6892681946FFF715F93B681A68094B93
:1055A0001340002B00F0B2807B681B68B3F1A04F62
:1055B00004D07B681B68044A934209D1034B08E07E
:1055C00000007F40000008800001005000030050F0
:1055D000534B1846FFF715F8C7F8C0003B681B6827
:1055E000504A934204D03B681B684F4A934239D1DA
:1055F000D7F8C03003F40003002B33D17B681B685D
:10560000B3F1A04F04D07B681B68484A93427AD11B
:105610007B681B68B3F1A04F04D07B681B68444AC9
:10562000934201D1434A00E03D4AD7F8C03043F4E9
:10563000000319461046FEF7D1FF3F4B1B689B093C
:105640003E4AA2FB03239A0913465B0013449B00C6
:105650001833BB6002E0BB68013BBB60BB68002B3A
:10566000F9D150E03B681B68354A934225D1D7F801
:10567000C03003F08073002B1FD17B681B682C4A5D
:10568000934204D17B681B682E4A93423DD07B68CD
:105690001B68B3F1A04F04D07B681B68244A934277
:1056A00001D1244A00E01E4AD7F8C03043F080738D
:1056B00019461046FEF792FF27E03B681B68224A16
:1056C000934223D1D7F8C03003F48003002B1DD1BF
:1056D0007B681B68164A934218D07B681B68B3F13D
:1056E000A04F04D07B681B68114A934201D1114A34
:1056F00000E00B4AD7F8C03043F480031946104647
:10570000FEF76CFF02E000BF00E000BF7B680022F4
:1057100083F8582097F8D7301846D837BD4680BD53
:1057200000070050000021C31000C0900006005088
:10573000000100500003005008000020632D3E05CA
:10574000000052C700050050000084CB90B5A1B006
:1057500000AF78603960002387F87F307B6893F86A
:105760005830012B01D10223E7E07B68012283F846
:10577000582000237B660023BB667B681B68B3F15F
:10578000A04F02D16F4BBB6009E07B681B686E4A7B
:10579000934202D16D4BBB6001E00023BB60BB684C
:1057A000002B0BD17B68DB6D43F020027B68DA6550
:1057B0007B68002283F858200123BEE0BB681846AE
:1057C000FFF771F8B8677B681B681846FFF76BF83E
:1057D0000346002B40F0A080BB6F002B40F09C8064
:1057E0007B681B68B3F1A04F04D07B681B68554AE7
:1057F000934201D1564B00E0564B7B673B681B68D8
:10580000002B4BD07B6F9B6823F460423B68596848
:105810007B6893F838305B030B431A437B6F9A60C5
:105820007B681B68B3F1A04F04D07B681B68454AB6
:1058300093420FD14FF0A040FFF722F804464148B1
:10584000FFF71EF803462343002B0CBF0123002360
:10585000DBB212E03C48FFF713F804463B48FFF781
:105860000FF803461C433C48FFF70AF8034623435E
:10587000002B0CBF01230023DBB2002B56D07B6F23
:105880009B6823F4716323F00F033A6811683A6848
:1058900092680A431A437B6F9A6047E07B6F9B686C
:1058A00023F460427B6F9A607B681B68B3F1A04F62
:1058B00004D07B681B68234A93420FD14FF0A0406D
:1058C000FEF7DEFF04461F48FEF7DAFF03462343D8
:1058D000002B0CBF01230023DBB212E01A48FEF7B5
:1058E000CFFF04461948FEF7CBFF03461C431A4876
:1058F000FEF7C6FF03462343002B0CBF0123002302
:10590000DBB2002B12D07B6F9B6823F4716323F012
:105910000F037A6F936009E07B68DB6D43F0200230
:105920007B68DA65012387F87F3000E000BF7B6881
:10593000002283F8582097F87F3018468437BD46F8
:1059400090BD00BF00010050000400500005005051
:1059500000030050000700500006005080B485B0DE
:1059600000AF78607B6803F00703FB600C4BDB68DB
:10597000BB60BA684FF6FF031340BB60FB681A02B6
:10598000BB68134343F0BF6343F40033BB60044A76
:10599000BB68D36000BF1437BD465DF8047B704719
:1059A00000ED00E080B400AF044BDB681B0A03F09D
:1059B00007031846BD465DF8047B704700ED00E024
:1059C00080B483B000AF0346FB7197F90730002B1A
:1059D0000BDBFB7903F01F02074997F907305B09DE
:1059E000012000FA02F241F8232000BF0C37BD4627
:1059F0005DF8047B704700BF00E100E080B483B035
:105A000000AF03463960FB7197F90730002B0ADBC2
:105A10003B68DAB20C4997F907301201D2B20B4455
:105A200083F800230AE03B68DAB20849FB7903F007
:105A30000F03043B1201D2B20B441A7600BF0C379D
:105A4000BD465DF8047B704700E100E000ED00E03A
:105A500080B489B000AFF860B9607A60FB6803F089
:105A60000703FB61FB69C3F10703042B28BF042371
:105A7000BB61FB690433062B02D9FB69033B00E0E1
:105A800000237B614FF0FF32BB6902FA03F3DA4374
:105A9000BB681A407B699A404FF0FF317B6901FA7D
:105AA00003F3D9437B680B40134318462437BD46A4
:105AB0005DF8047B7047000080B582B000AF78606D
:105AC0007B68013BB3F1807F01D301230FE00A4AD9
:105AD0007B68013B53600F214FF0FF30FFF78EFFD3
