:020000040800F2
:10000000008000208D2400087D2300087F23000845
:1000100081230008832300088523000800000000D6
:10002000000000000000000000000000872300081E
:1000300089230008000000008B2300088D2300089E
:10004000DD240008DD240008DD240008DD2400088C
:10005000DD240008DD240008DD240008DD2400087C
:10006000DD240008DD240008DD24000891230008B9
:10007000DD240008DD240008DD240008DD2400085C
:10008000DD240008000000009D230008DD24000896
:10009000DD240008DD240008DD240008A923000871
:1000A000DD240008DD240008DD240008DD2400082C
:1000B000DD240008B1230008BD230008DD2400086A
:1000C000DD240008DD240008DD240008DD2400080C
:1000D000DD240008DD240008DD240008DD240008FC
:1000E000DD240008DD240008DD240008DD240008EC
:1000F000DD240008DD240008DD24000800000000E5
:1001000000000000DD24000800000000DD240008DD
:10011000DD24000800000000DD240008DD240008C4
:10012000DD240008DD240008DD240008DD240008AB
:10013000DD2400080000000000000000DD240008AD
:10014000DD240008DD24000800000000000000009D
:10015000000000000000000000000000000000009F
:10016000000000000000000000000000DD24000886
:10017000DD24000800000000000000000000000076
:1001800000000000DD240008000000000000000066
:10019000000000000000000000000000000000005F
:1001A0000000000000000000DD240008DD2400083D
:1001B000DD240008DD240008DD2400080000000024
:1001C00000000000DD240008000000000000000026
:0801D000DD240008DD24000815
:1001E00010B5054C237833B9044B13B10448AFF371
:1001F00000800123237010BDE401002000000000F6
:100200000882000808B5034B1BB103490348AFF34C
:10021000008008BD00000000E801002008820008FE
:1002200001F0FF01102A2BDB10F0070F08D010F8A7
:10023000013B013A8B422DD010F0070F42B3F6D1AB
:10024000F0B441EA012141EA014122F007047FF0C4
:1002500000070023F0E80256083C85EA010586EA1B
:10026000010685FA47F5A3FA87F586FA47F6A5FA57
:1002700087F68EB9EED1F0BC01F0FF0102F0070263
:1002800032B110F8013B013A83EA010313B1F8D10E
:100290000020704701387047002D06BF35460338EF
:1002A000073815F0010F07D1013015F4807F02BF28
:1002B000013015F4C03F0130F0BC0138704700BF79
:1002C000034613F8012B002AFBD1181A0138704796
:1002D00081F0004102E000BF83F0004330B54FEAF7
:1002E00041044FEA430594EA050F08BF90EA020F64
:1002F0001FBF54EA000C55EA020C7FEA645C7FEAF7
:10030000655C00F0E2804FEA5454D4EB5555B8BF19
:100310006D420CDD2C4480EA020281EA030382EA8A
:10032000000083EA010180EA020281EA0303362D1C
:1003300088BF30BD11F0004F4FEA01314FF4801CEF
:100340004CEA113102D0404261EB410113F0004F01
:100350004FEA03334CEA133302D0524263EB4303B8
:1003600094EA050F00F0A780A4F10104D5F1200E56
:100370000DDB02FA0EFC22FA05F2801841F10001B1
:1003800003FA0EF2801843FA05F359410EE0A5F185
:1003900020050EF1200E012A03FA0EFC28BF4CF0B6
:1003A000020C43FA05F3C01851EBE37101F000456C
:1003B00007D54FF0000EDCF1000C7EEB00006EEB79
:1003C0000101B1F5801F1BD3B1F5001F0CD3490803
:1003D0005FEA30004FEA3C0C04F101044FEA44525A
:1003E00012F5800F80F09A80BCF1004F08BF5FEAE1
:1003F000500C50F1000041EB045141EA050130BDC1
:100400005FEA4C0C404141EB0101013C28BFB1F5D2
:10041000801FE9D291F0000F04BF01460020B1FA1D
:1004200081F308BF2033A3F10B03B3F120020CDAF0
:100430000C3208DD02F1140CC2F10C0201FA0CF0CE
:1004400021FA02F10CE002F11402D8BFC2F1200C33
:1004500001FA02F120FA0CFCDCBF41EA0C019040E9
:10046000E41AA2BF01EB0451294330BD6FEA040432
:100470001F3C1CDA0C340EDC04F11404C4F120021D
:1004800020FA04F001FA02F340EA030021FA04F32F
:1004900045EA030130BDC4F10C04C4F1200220FA86
:1004A00002F001FA04F340EA0300294630BD21FAC4
:1004B00004F0294630BD94F0000F83F4801306BF8A
:1004C00081F480110134013D4EE77FEA645C18BF7E
:1004D0007FEA655C29D094EA050F08BF90EA020F15
:1004E00005D054EA000C04BF1946104630BD91EA0D
:1004F000030F1EBF0021002030BD5FEA545C05D110
:100500004000494128BF41F0004130BD14F580044E
:100510003CBF01F5801130BD01F0004545F0FE41C2
:1005200041F470014FF0000030BD7FEA645C1ABFF7
:10053000194610467FEA655C1CBF0B46024650EA2E
:10054000013406BF52EA033591EA030F41F400215A
:1005500030BD00BF90F0000F04BF0021704730B5E0
:100560004FF4806404F132044FF000054FF00001B5
:1005700050E700BF90F0000F04BF0021704730B576
:100580004FF4806404F1320410F0004548BF40424B
:100590004FF000013EE700BF42004FEAE2014FEAA0
:1005A00031014FEA02701FBF12F07F4393F07F4F7B
:1005B00081F06051704732F07F4208BF704793F07E
:1005C0007F4F04BF41F40021704730B54FF4607491
:1005D00001F0004521F000411CE700BF50EA010294
:1005E00008BF704730B54FF000050AE050EA01023D
:1005F00008BF704730B511F0004502D5404261EBAD
:1006000041014FF4806404F132045FEA915C3FF4ED
:10061000D8AE4FF003025FEADC0C18BF03325FEA8A
:10062000DC0C18BF033202EBDC02C2F1200300FA3B
:1006300003FC20FA02F001FA03FE40EA0E0021FA60
:1006400002F11444BDE600BF70B54FF0FF0C4CF44E
:10065000E06C1CEA11541DBF1CEA135594EA0C0F00
:1006600095EA0C0F00F0DEF82C4481EA030621EA3B
:100670004C5123EA4C5350EA013518BF52EA033576
:1006800041F4801143F4801338D0A0FB02CE4FF028
:100690000005E1FB02E506F00042E0FB03E54FF058
:1006A0000006E1FB03569CF0000F18BF4EF0010E50
:1006B000A4F1FF04B6F5007F64F5407404D25FEA4C
:1006C0004E0E6D4146EB060642EAC62141EA5551FF
:1006D0004FEAC52040EA5E504FEACE2EB4F1FD0C41
:1006E00088BFBCF5E06F1ED8BEF1004F08BF5FEABF
:1006F000500E50F1000041EB045170BD06F0004671
:1007000046EA010140EA020081EA0301B4EB5C041D
:10071000C2BFD4EB0C0541EA045170BD41F4801115
:100720004FF0000E013C00F3AB8014F1360FDEBF3A
:10073000002001F0004170BDC4F10004203C35DA16
:100740000C341BDC04F11404C4F1200500FA05F399
:1007500020FA04F001FA05F240EA020001F000423A
:1007600021F0004110EBD37021FA04F642EB0601B0
:100770005EEA430E08BF20EAD37070BDC4F10C04DA
:10078000C4F1200500FA04F320FA05F001FA04F29E
:1007900040EA020001F0004110EBD37041F100018A
:1007A0005EEA430E08BF20EAD37070BDC4F1200595
:1007B00000FA05F24EEA020E20FA04F301FA05F2FD
:1007C00043EA020321FA04F001F0004121FA04F2A5
:1007D00020EA020000EBD3705EEA430E08BF20EA75
:1007E000D37070BD94F0000F0FD101F000464000AF
:1007F00041EB010111F4801F08BF013CF7D041EA31
:10080000060195F0000F18BF704703F00046520034
:1008100043EB030313F4801F08BF013DF7D043EA05
:100820000603704794EA0C0F0CEA135518BF95EABB
:100830000C0F0CD050EA410618BF52EA4306D1D142
:1008400081EA030101F000414FF0000070BD50EA61
:10085000410606BF1046194652EA430619D094EAEB
:100860000C0F02D150EA013613D195EA0C0F05D1D5
:1008700052EA03361CBF104619460AD181EA030129
:1008800001F0004141F0FE4141F470014FF00000E1
:1008900070BD41F0FE4141F4780170BD70B54FF07C
:1008A000FF0C4CF4E06C1CEA11541DBF1CEA1355FC
:1008B00094EA0C0F95EA0C0F00F0A7F8A4EB0504DE
:1008C00081EA030E52EA03354FEA013100F08880D5
:1008D0004FEA03334FF0805545EA131343EA12639E
:1008E0004FEA022245EA111545EA10654FEA002653
:1008F0000EF000419D4208BF964244F1FD0404F50C
:10090000407402D25B084FEA3202B61A65EB030567
:100910005B084FEA32024FF480104FF4002CB6EB24
:10092000020E75EB030E22BFB61A754640EA0C00A4
:100930005B084FEA3202B6EB020E75EB030E22BFE4
:10094000B61A754640EA5C005B084FEA3202B6EB25
:10095000020E75EB030E22BFB61A754640EA9C00E4
:100960005B084FEA3202B6EB020E75EB030E22BFB4
:10097000B61A754640EADC0055EA060E18D04FEA72
:10098000051545EA16754FEA06164FEAC30343EA12
:1009900052734FEAC2025FEA1C1CC0D111F4801FDF
:1009A0000BD141EA00014FF000004FF0004CB6E7D8
:1009B00011F4801F04BF01430020B4F1FD0C88BF77
:1009C000BCF5E06F3FF6AFAEB5EB030C04BFB6EB82
:1009D000020C5FEA500C50F1000041EB045170BD75
:1009E0000EF0004E4EEA113114EB5C04C2BFD4EBA2
:1009F0000C0541EA045170BD41F480114FF0000E26
:100A0000013C90E645EA060E8DE60CEA135594EAA1
:100A10000C0F08BF95EA0C0F3FF43BAF94EA0C0FA4
:100A20000AD150EA01347FF434AF95EA0C0F7FF419
:100A300025AF104619462CE795EA0C0F06D152EA6D
:100A400003353FF4FDAE1046194622E750EA410651
:100A500018BF52EA43067FF4C5AE50EA41047FF462
:100A60000DAF52EA43057FF4EBAE12E74FF0FF3CC7
:100A700006E000BF4FF0010C02E000BF4FF0010C98
:100A80004DF804CD4FEA410C7FEA6C5C4FEA430C11
:100A900018BF7FEA6C5C1BD001B050EA410C0CBF60
:100AA00052EA430C91EA030F02BF90EA020F0020C2
:100AB000704710F1000F91EA030F58BF994208BF29
:100AC00090422CBFD8176FEAE37040F001007047E6
:100AD0004FEA410C7FEA6C5C02D150EA013C07D13D
:100AE0004FEA430C7FEA6C5CD6D152EA033CD3D088
:100AF0005DF8040B704700BF8446104662468C4682
:100B00001946634600E000BF01B5FFF7B7FF0028B4
:100B100048BF10F1000F01BD4DF808EDFFF7F4FFDD
:100B20000CBF012000205DF808FB00BF4DF808ED68
:100B3000FFF7EAFF34BF012000205DF808FB00BF8B
:100B40004DF808EDFFF7E0FF94BF012000205DF8AD
:100B500008FB00BF4DF808EDFFF7CEFF94BF012062
:100B600000205DF808FB00BF4DF808EDFFF7C4FF5B
:100B700034BF012000205DF808FB00BF4FEA410CA4
:100B80007FEA6C5C02D150EA013C0AD14FEA430C87
:100B90007FEA6C5C02D152EA033C02D14FF00000C4
:100BA00070474FF0010070474FEA410212F5001202
:100BB00015D211D56FF47873B3EB625212D94FEAA4
:100BC000C12343F0004343EA505311F0004F23FA8E
:100BD00002F018BF404270474FF00000704750EAE3
:100BE000013005D111F0004008BF6FF000407047A0
:100BF0004FF00000704700BF53B94AB9002908BF41
:100C000000281CBF4FF0FF314FF0FF3000F088B9D3
:100C1000ADF1080C6DE904CE00F006F8DDF804E053
:100C2000DDE9022304B070472DE9F047089D8E46A8
:100C300004468846002B4AD18A42174662D9B2FA46
:100C400082F64EB1C6F1200301FA06F820FA03F34A
:100C5000B74043EA0808B4404FEA174E1FFA87FC32
:100C6000B8FBFEF1230C0EFB118843EA084301FB9D
:100C70000CF29A4209D9FB1801F1FF3080F0EA80AA
:100C80009A4240F2E78002393B449A1AA3B2B2FB7F
:100C9000FEF00EFB102243EA024300FB0CFC9C45D5
:100CA00009D9FB1800F1FF3280F0D6809C4540F254
:100CB000D3803B44023840EA0140A3EB0C030021FF
:100CC0001DB1F3400022C5E90032BDE8F0878B4238
:100CD00005D90DB1C5E9000100210846F5E7B3FAD1
:100CE00083F1002946D1734502D3824200F2058187
:100CF000841A6EEB030201209046002DE5D0C5E971
:100D00000048E2E7002A00F09080B2FA82F6002E56
:100D100040F0A4808A1A030C4FEA174E80B2BCB28E
:100D20000121B2FBFEFC0EFB1C2243EA024304FB42
:100D30000CF29A4207D9FB180CF1FF3802D29A4202
:100D400000F2E080C4469B1AB3FBFEF20EFB1233A6
:100D500040EA034302FB04F49C4207D9FB1802F16A
:100D6000FF3002D29C4200F2CA8002461B1B42EABC
:100D70000C40A5E7C1F120068B4022FA06F71F437D
:100D80000EFA01F420FA06F32EFA06FE4FEA17498E
:100D9000234300FA01F81FFA87FCBEFBF9F01C0C94
:100DA00009FB10EE44EA0E4400FB0CFEA64502FAD5
:100DB00001F209D93C1900F1FF3A80F09C80A64568
:100DC00040F2998002383C44A4EB0E041FFA83FEE3
:100DD000B4FBF9F309FB13444EEA044403FB0CFC97
:100DE000A44508D93C1903F1FF3E80F08280A44558
:100DF0007FD9023B3C4443EA0040A4EB0C04A0FB37
:100E000002EC64457346E14662D35FD05DB1B8EB56
:100E1000030264EB090404FA06F622FA01F31E4306
:100E2000CC40C5E9006400214FE7B1FBF2FC010CA6
:100E300041EA0E4180B240EA01423B4638463C4618
:100E4000B846BE462026B1FBF7F1A2EB080241EA04
:100E50000C4166E7014618E710462CE7C6F1200270
:100E60002EFA02F3B740B14020FA02F24FEA174ED1
:100E70000A43B3FBFEF8BCB20EFB1833110C41EA77
:100E8000034108FB04F9B04089454FEA104380B2A2
:100E90003ED9791808F1FF3C01D289451FD8A1EB52
:100EA0000901B1FBFEF909FB04F80EFB191192B21E
:100EB00042EA0142424529D2BA1809F1FF31C4D2AF
:100EC0004245C2D2A9F102013A44BEE7F0459DD2A3
:100ED000BEEB02036CEB070C0138E14696E7A7EB8B
:100EE00009094944A8F1020CB1FBFEF909FB04F819
:100EF000DBE773467FE7504666E70846FDE63B447E
:100F0000023A33E7ACF1020C3B441CE749469CE74C
:100F1000A1EB0901C446B1FBFEF909FB04F8C4E7E3
:100F2000704700BF01220248114602F0A3BB00BF78
:100F300000040048012210214FF0904002F09ABBBB
:100F4000024608B1FFF7EEBF0148012102F092BB53
:100F500000040048024608B1FFF7ECBF10214FF033
:100F6000904002F087BB000013B5044604F01F0454
:100F70000020FFF7E5FF8DF804400A4C01A9642327
:100F80000122204603F04DFA642301220DF10501F0
:100F9000204603F03EFC9DF80540FFF7C3FF2046C6
:100FA00002B010BD9402002073B5044604F01F0483
:100FB00000200D461646FFF7C3FF8DF80440084C8D
:100FC00001A964230122204603F02BFA6423324650
:100FD0002946204603F01DFCFFF7A4FF02B070BDB8
:100FE0009402002037B5044600200D4644F020044A
:100FF000FFF7A6FF6423022201A905488DF80440EB
:101000008DF8055003F00DFAFFF78CFF03B030BDEB
:101010009402002073B5044644F0200400200D46DD
:101020001646FFF78DFF8DF80440084C01A9642394
:101030000122204603F0F5F9642332462946204672
:1010400003F0EFF9FFF76EFF02B070BD94020020CD
:1010500073B50D4E044600200D46FFF771FFA02327
:101060008DF807300DF1070164230122304603F0AB
:10107000D8F964232A462146304603F0D2F9FFF717
:1010800051FF02B070BD00BF94020020FF21E1209B
:10109000FFF7A8BFFF21E220FFF7A4BF0720FFF75B
:1010A00063BF08B50020FFF755FFFFF7EFFFBDE86E
:1010B0000840FFF7EFBF000007B50522CDE90001AA
:1010C00069460A20FFF7A6FF052269461020FFF7B0
:1010D000A1FF054B1978202928BF20211120FFF7F7
:1010E00081FF03B05DF804FBF80200207F28014671
:1010F00028BF7F210520FFF775BF0000024B202885
:1011000028BF202018707047F80200206020FFF7E9
:101110002BBF08B51D20FFF727FF00F0FB011D20A6
:10112000FFF760FFBDE8084000211C20FFF75ABF11
:10113000014600B13F210120FFF754BF10B504461E
:101140000620FFF711FF042C00F0F90107D8022C4C
:101150000DD8012C08D0022C01D141F00401BDE8CA
:1011600010400620FFF73EBF41F00201F7E741F0D3
:101170000601F4E738B505460620FFF7F5FE022D17
:1011800000F0D7040CD144F0200421460620FFF7DC
:1011900029FF0620FFF7E8FE031B5842584138BDDF
:1011A000012D08BF44F00804EFE710B50446002005
:1011B000FFF7DAFE00F0F3012CB1012C0CBF41F077
:1011C000080141F00C01BDE810400020FFF70ABF04
:1011D00008B50020FFF7C8FE40F00201BDE8084056
:1011E000C9B20020FFF7FEBE08B50020FFF7BCFE25
:1011F000BDE8084000F0FD010020FFF7F3BE70B528
:101200000546FFF74BFF00F04003002B044614BFD8
:10121000012600260DD015B1C0F342032B704021EA
:101220000720FFF7DFFEA30603D520210720FFF7E5
:10123000D9FE304670BD0020FFF7E1BF38B5044647
:1012400000200D46FFF786FE0020FFF78DFE00F020
:10125000FE0141F002010020FFF7C4FEFFF76AFE25
:1012600020462946FFF7F4FEFFF764FEBDE838404C
:101270000020FFF76FBEF8B505460F461646FFF78C
:101280000DFF002304462B7070210720FFF7AAFEF4
:10129000C4F340132B70C4F30013C4F380143B70E9
:1012A0003470F8BD70210720FFF79CBE37B50446A7
:1012B0000D46FFF7F7FF20462946FFF7BFFF01F075
:1012C00051F9044601220DF105010820FFF76CFEDB
:1012D000FFF7E4FE10F0300F04D101F043F9031BD7
:1012E000092BEFD90B4C0DF1070122460DF1060039
:1012F000FFF7C1FF23789DF806501BB1FFF706FFEB
:10130000054B1870FFF797FFFFF7C0FE284603B0A4
:1013100030BD00BFFA020020F902002007B500200E
:10132000FFF70EFE47F25033ADF80430022264237B
:1013300001A9044803F075F8FFF7F4FD03B05DF868
:1013400004FB00BF9402002010B5A0B0BC4907A860
:1013500004F095FF07A8FEF7B3FF0A2382B207A99E
:10136000B84803F08DFF0020FFF7FEFD040740F1B1
:10137000328240074CBFB449B44907A804F07FFF4C
:1013800007A8FEF79DFF0A2382B207A9AD4803F024
:1013900077FF0120FFF7E8FDC0F340130393C0F38C
:1013A00000130293C0F3C0030193C0F3800300F065
:1013B0000102A7490093C0F3400307A804F0E6FD2B
:1013C00007A8FEF77DFF0A2382B207A99D4803F014
:1013D00057FF0220FFF7C8FDC0F340130393C0F38B
:1013E00000130293C0F3C0030193C0F3800300F025
:1013F000010298490093C0F3400307A804F0C6FD1A
:1014000007A8FEF75DFF0A2382B207A98D4803F003
:1014100037FF0320FFF7A8FD00F003028E490232D8
:1014200007A804F0B3FD07A8FEF74AFF0A2382B21B
:1014300007A9844803F024FF0520FFF795FD87499D
:1014400000F07F0207A804F0A1FD07A8FEF738FF0F
:1014500007A982B20A237B4803F012FF0620FFF798
:1014600083FD01074CBF7E497E49044607A804F06E
:1014700006FF07A8FEF724FF0A2382B207A97148D6
:1014800003F0FEFE14F0060FC4F3410340F0A58103
:10149000754907A804F0F3FE07A8FEF711FF0A2319
:1014A00082B207A9674803F0EBFE05A905220A20CE
:1014B000FFF77AFD9DF8143002939DF815300193E3
:1014C0009DF816309DF818206849009307A89DF8EC
:1014D000173004F05BFD07A8FEF7F2FE0A2382B284
:1014E00007A9584803F0CCFE05A905220B20FFF7F9
:1014F0005BFD9DF8143002939DF8153001939DF823
:1015000016309DF818205A49009307A89DF8173007
:1015100004F03CFD07A8FEF7D3FE0A2382B207A918
:10152000484803F0ADFE05A901220C20FFF73CFD61
:101530009DF814204F4907A804F028FD07A8FEF7DE
:10154000BFFE0A2382B207A93E4803F099FE05A90F
:1015500001220D20FFF728FD9DF81420464907A819
:1015600004F014FD07A8FEF7ABFE0A2382B207A918
:10157000344803F085FE05A901220E20FFF714FD73
:101580009DF814203D4907A804F000FD07A8FEF7C8
:1015900097FE0A2382B207A92A4803F071FE05A923
:1015A00001220F20FFF700FD9DF81420344907A801
:1015B00004F0ECFC07A8FEF783FE0A2382B207A919
:1015C000204803F05DFE05A905221020FFF7ECFC82
:1015D0009DF8143002939DF8153001939DF8163054
:1015E0009DF818202749009307A89DF8173004F0AC
:1015F000CDFC07A8FEF764FE0A2382B207A91148B2
:1016000003F03EFE1120FFF7AFFC1F4900F03F0240
:1016100007A804F0BBFC07A8FEF752FE0A2382B21B
:1016200007A9084803F02CFE1220FFF79DFC17497C
:1016300000F03F0207A804F0A9FC07A828E000BFBB
:101640002082000800020020538200086F820008F8
:101650009E820008E28200082B8300084483000871
:10166000578300086E83000885830008D283000832
:1016700002840008328400085A840008828400082A
:10168000AA840008D2840008FC840008158500089C
:10169000FEF716FE0A2382B207A9544803F0F0FDB4
:1016A0001320FFF761FC524900F03F0207A804F045
:1016B0006DFC07A8FEF704FE0A2382B207A94B4877
:1016C00003F0DEFD1420FFF74FFC4A4900F03F0213
:1016D00007A804F05BFC07A8FEF7F2FD0A2382B21C
:1016E00007A9424803F0CCFD1520FFF73DFC424915
:1016F00000F03F0207A804F049FC07A8FEF7E0FD50
:101700000A2382B207A9394803F0BAFD1620FFF771
:101710002BFC3A4900F03F0207A804F037FC07A869
:10172000FEF7CEFD07A982B20A23304803F0A8FDD8
:101730001C20FFF719FCC0F340130393C0F3001300
:101740000293C0F3C0030193C0F3800300F00102D1
:101750002B490093C0F3400307A804F017FC07A827
:10176000FEF7AEFD07A982B20A23204803F088FDE8
:101770001D20FFF7F9FB42074CBF224922490446CE
:1017800007A804F07CFD07A8FEF79AFD07A90A2325
:1017900082B2164803F074FDA3074CBF1B491C49D5
:1017A00007A804F06CFD07A8FEF78AFD0A2382B2A1
:1017B00007A90E4803F064FD164907A804F05FFD71
:1017C00007A8FEF77DFD0A2382B207A9074803F0A8
:1017D00057FD20B010BD1049CFE5012B01D10F49B5
:1017E00057E6022B0CBF0E490E4952E600020020BC
:1017F0002E85000847850008608500087985000867
:1018000092850008DC850008F2850008098600083A
:1018100023860008208200088A8200089983000835
:10182000AD830008C083000884B037B506AC84E8F7
:101830000F0064222146534804F029FDFFF772FB94
:101840000020FFF787FB052000F092FE0821002012
:10185000FFF7C8FB3F210120FFF7C4FB0321022053
:10186000FFF7C0FB03210846FFF7BCFB0321042060
:10187000FFF7B8FB02210520FFF7B4FB0F2106207C
:10188000FFF7B0FB0E210720FFF7ACFB002108207B
:10189000FFF7A8FB00210920FFF7A4FB4FF0E73575
:1018A000E724694605220A2000958DF80440FFF7D9
:1018B000B1FB4FF0C233052200936946C2230B20CF
:1018C0008DF80430FFF7A6FBC3210C20FFF78AFB3D
:1018D000C4210D20FFF786FBC5210E20FFF782FBF8
:1018E000C6210F20FFF77EFB0522694610200095D8
:1018F0008DF80440FFF78EFB00211120FFF772FBEB
:1019000000211220FFF76EFB00211320FFF76AFB76
:1019100000211420FFF766FB00211520FFF762FB72
:1019200000211620FFF75EFBFFF7F8FC00211C20CA
:10193000FFF758FB00211D20FFF754FBFFF704FDC4
:10194000FF210420FFF74EFB0320FFF7F7FB0120E8
:10195000FFF710FC0220FFF728FCFFF7DAFB0A4B29
:1019600020221A70FFF79EFC4C20FFF7BFFBFFF709
:101970008DFBFFF78FFBFFF737FC03B0BDE830406E
:1019800004B0704794020020F802002030B51F4DCB
:101990001F4C9FB0294605A804F071FC05A8FEF76E
:1019A0008FFC05A982B20A23204603F069FC0720B8
:1019B000FFF7DAFA10F0060F00F00103029314BFEC
:1019C000012300230193C0F30013C0F380121149D7
:1019D0000093C0F3401305A804F0D8FA05A8FEF759
:1019E0006FFC0A2382B205A9204603F049FC294670
:1019F00005A804F044FC05A8FEF762FC0A2382B2A5
:101A000005A9204603F03CFC1FB030BD3E8600080F
:101A1000000200205C86000830B5194D194C9BB0BF
:101A2000294601A804F02BFC01A8FEF749FC01A9F6
:101A300082B20A23204603F023FC0020FFF794FA29
:101A4000114900F00103C0F3400201A804F09EFA1E
:101A500001A8FEF735FC0A2382B201A9204603F053
:101A60000FFC294601A804F00AFC01A8FEF728FC97
:101A70000A2382B201A9204603F002FC1BB030BD4C
:101A80003E86000800020020B386000884B008B536
:101A90000DF1080C8CE80F0004489422614604F014
:101AA000F6FBBDE8084004B0704700BF000200200C
:101AB00030B51C4D1C4C9DB0294603A804F0DFFB3B
:101AC00003A8FEF7FDFB03A982B20A23204603F018
:101AD000D7FB1720FFF748FA00F001030193C0F38A
:101AE0004003C0F3401211490093C0F3001303A850
:101AF00004F04CFA03A8FEF7E3FB0A2382B203A921
:101B0000204603F0BDFB294603A804F0B8FB03A858
:101B1000FEF7D6FB0A2382B203A9204603F0B0FBEE
:101B20001DB030BD3E86000800020020DF860008A0
:101B300038B52A4DD5E90023092A044623D8B3F540
:101B4000C87F40D226490120486020682549884244
:101B500008D12348416801293ED110218260C36029
:101B6000FFF7A4FB2268204B9A4235D11C484368FA
:101B7000012B31D02B6883606B68C3601021BDE8F6
:101B80003840FFF793BBA2F10A0040F6A15188420A
:101B900009D8B3F5C87FD8D340F6AB518B4212D8E1
:101BA0000F490020D0E740F6AC518A420BD08B425F
:101BB0000FD9B2F57A6F05D2B3F57A6F03D208491F
:101BC0000220C1E702D1B3F57A6FBED904490320E0
:101BD000BAE7B2F57A6FF8E738BD00BFFC02002023
:101BE00000000020000400400008004010B51F4C19
:101BF000A2B004F110015422684604F048FB94E8B6
:101C00000F001B4CFFF710FE04F110018422684600
:101C100004F03DFB94E80F00FFF738FF0220FFF7C8
:101C2000A9FA0220FFF7C1FA0020FFF787FA6F2018
:101C3000FFF75CFA1020FFF761FAFFF76AFA00205D
:101C4000FFF776FAFFF7C4FAFFF72BFA4FF480603C
:101C50000021FFF731FAFFF777FBFFF797FEFFF759
:101C6000DBFE22B0BDE81040FFF722BF30040020A9
:101C70000403002007B54FF6FF730190012201A96C
:101C8000024803F0FDFA03B05DF804FB04030020F2
:101C900008B572B6024C204604F066F9FBE700BFB7
:101CA0003487000810B594B03822002106A804F04B
:101CB00067FA1422002101A804F062FA4FF40070C0
:101CC00001F0EAFC22234FF48070069340230224A3
:101CD000CDE909030123CDE90C344FF0040C552361
:101CE00006A8CDE90FC3CDE911440E94139401F079
:101CF00033FD08B1FFF7CCFF03230F22CDE9012309
:101D00008023CDE903300590214601A801F066FF4C
:101D10000028EFD114B010BD2DE9F043564D9FB00F
:101D200000F004FCFFF7BEFF1422002116A804F007
:101D300027FAEB6C43F02003EB64EB6C03F0200319
:101D40000293029BEB6C43F00103EB64EB6C03F03A
:101D500001030393039BEB6C43F00203EB64EB6C16
:101D600003F002030493002210214FF09040049BE3
:101D700001F080FC0022414840F20111002401F0F2
:101D800079FC4FF00208032316A94FF0904001267A
:101D9000CDE91683189401F0A3FB102316A94FF088
:101DA0009040CDE91636CDE9184401F099FB33484F
:101DB00016A94FF04009CDE91666CDE9186401F087
:101DC0008FFB4FF404132D48189416A9CDE91693F0
:101DD00001F086FB4FF48079284816A9CDE91696C4
:101DE000CDE9184401F07CFB22463146172001F072
:101DF000EDF9172001F01CFAAB6C43F00403AB645F
:101E0000AB6C03F004030093009BAB6C3343AB64F7
:101E1000AB6C1B4D33402246314601930B20019B96
:101E200001F0D4F90B2001F003FA2022214616A874
:101E3000CDE90B440D94042704F0A2F94FF0A04221
:101E40004FF4E0132846C5E90023C5E90244C5E97B
:101E50000446C5E90B44AF61A5F81C90C5F8208085
:101E600085F8244085F83860EC6385F8404000F040
:101E7000ABFB38B1FFF70CFF001002400004004834
:101E8000080500200B900BA9284601F025F9002831
:101E9000F0D1DFF848E20623CDE916E3CDE91A7068
:101EA00007267F2316A92846CDE9186300F0E6FD32
:101EB0000028DFD1764B0C2716A92846CDE9163726
:101EC00000F0DCFD0028D5D1724CDFF814C2A0620E
:101ED000C4E90200C4E90407C4E90600C4E9080033
:101EE0004FF4E1332046C4E900C303F079FA014618
:101EF0000028BFD1204603F0E0FA01460028B9D1FE
:101F0000204603F0FAFA0028B4D1204603F0BAFACA
:101F10000028AFD1604C614DA0604FF48273C4E9DA
:101F200000534FF4E063C4E90330C4E90800182308
:101F3000C4E90A06C4E90C0060614FF4007720464A
:101F4000C4E9067302F0FFF90346002892D1216824
:101F500053480A6842F040020A60524AC0E900232E
:101F600002F090F8002885D14F4D1022002112A8D0
:101F700004F006F94D49002340F24F524FF2234737
:101F80002846CDE90833C5E90012C5E903730A9371
:101F9000AB60AB6102F052FE00287FF46BAF4FF4F0
:101FA000805812A92846CDF8488002F081FE00280A
:101FB0007FF460AF08900A9008A9284602F034FF29
:101FC000064600287FF456AF394C102201460EA871
:101FD00004F0D6F8374A0796A9232046CDE90566CE
:101FE000C4E90023C4E902672661A66102F026FE67
:101FF00000287FF43FAF0EA92046CDF8388002F0CC
:1020000057FE00287FF436AF0590079005A92046BB
:1020100002F00AFF00287FF42DAF7F212648274ECB
:1020200001F008F8052000F0A3FA254803F09CFF12
:10203000FFF7DCFD41F2883000F09AFA184831468B
:1020400002F03EF800287FF415AF31681D481E4F9E
:1020500003F08AFF284602F093FC204602F090FC31
:102060001A4915481A4D1B4C022200F033FF316803
:10207000384603F079FF7168284603F075FFB168B0
:10208000204603F071FFF168134803F06DFFEEE79F
:1020900004006008040300203004002000300140E8
:1020A0009404002000080650E403002000040040CF
:1020B00098030020000800400805002000000020D0
:1020C000478700085587000864870008FC02002045
:1020D00071870008828700088F870008020030049B
:1020E000004400400B4B1A6E42F0010282B01A66A7
:1020F0001A6E02F001020092009A9A6D42F080522C
:102100009A659B6D03F080530193019B02B001F02F
:102110001BBB00BF0010024070B598B005461422EA
:10212000002102A804F02CF84422002107A804F0A2
:1021300027F82B68B3F1A04F4AD14FF4004307931F
:1021400007A84FF00053169301F060FE08B1FFF7A7
:102150009FFD204B204CDA6C42F40052DA64DA6CBA
:1021600002F400520092009ADA6C42F00102DA6442
:10217000DB6C03F0010301930026019B049603230B
:1021800002A94FF09040CDE9023301F0A9F9134ABA
:1021900026620523C4E9002380214FF400734FF425
:1021A0000060C4E904132023C4E906032046C4E9FF
:1021B000026601F09DF808B1FFF76AFD12206C6518
:1021C00000220121A56201F001F8122001F030F88F
:1021D00018B070BD00100240A804002008000240A2
:1021E00010B5044692B04422002101A803F0C8FFB4
:1021F00022680C4B9A4212D14FF4804301A80193FC
:1022000001F004FE08B1FFF743FD074BDA6C42F022
:102210008062DA64DB6C03F080630093009B12B091
:1022200010BD00BF000806500010024010B5044663
:1022300088B01422002103A803F0A2FF2268124BE9
:102240009A421ED103F5604303A91A6E42F48052EC
:102250001A661A6E02F480520192019ADA6C42F008
:102260000102DA64DB6C03F001030293029BE022BB
:102270000223CDE903234FF090400523079301F09B
:102280002FF908B010BD00BF0030014007B503684A
:10229000174A934214D1174B9A6D42F002029A6585
:1022A0009B6D03F0020300931D2000220121009B7F
:1022B00000F08CFF1D2003B05DF804EB00F0B8BF08
:1022C0000D4A934210D10B4B9A6D42F004029A656D
:1022D0009B6D03F0040301931E2000220121019B4A
:1022E00000F074FF1E20E6E703B05DF804FB00BFBA
:1022F00000040040001002400008004010B598B0F3
:1023000004461422002102A803F03AFF44220021CF
:1023100007A803F035FF2268164B9A4228D1022302
:1023200007A8079301F072FD08B1FFF7B1FC124B4B
:102330009A6D42F400329A659A6D02F4003200926E
:10234000009ADA6C42F00102DA64DB6C03F00103FC
:102350000193019B0C220223CDE902230023CDE946
:10236000043302A907234FF09040069301F0B8F818
:1023700018B010BD0044004000100240FEE7FEE728
:10238000FEE7FEE7FEE770477047704700F0DEB8F3
:10239000014801F05BB800BFA8040020014800F02C
:1023A0000DBA00BF08050020402001F069B9000007
:1023B000014802F01FBB00BFE4030020014802F007
:1023C00019BB00BF980300200120704708B503F037
:1023D00029FF162303604FF0FF3008BD08B503F056
:1023E00021FF16230360FEE770B50D4614460E4626
:1023F000731B9C4201DC204670BDAFF3008006F8E1
:10240000010BF5E770B50D4614460E46731B9C4252
:1024100001DC204670BD16F8010BFFF72BFCF5E739
:102420004FF0FF3070474FF400534B60002070476F
:1024300001207047002070470B4A116810B5034611
:1024400009B90A491160106809490A4C0344091B7B
:102450008B4206D903F0E6FE0C2303604FF0FF30F9
:1024600010BD1360FCE700BF74050020C806002003
:102470000080002000040000034AD2F8883043F4B2
:102480007003C2F88830704700ED00E00D488546C3
:10249000FFF7F2FF0C480D490D4A002302E0D45823
:1024A000C4500433C4188C42F9D30A4A0A4C00239E
:1024B00001E013600432A242FBD303F0B9FEFFF740
:1024C0002BFCFEE70080002000000020E40100203B
:1024D000648B0008E4010020C8060020FEE700002D
:1024E00038B50F4B1A6805460AB9012038BD4FF4BC
:1024F0007A73B3FBF2F30B4A1068B0FBF3F000F011
:10250000A5FE04460028F0D10F2DEED8024629463C
:102510004FF0FF3000F05AFE034B20461D60E5E708
:1025200014000020100000201800002010B5032027
:1025300000F03AFE0020FFF7D3FF044618B9FFF77A
:10254000D1FD204610BD0124FBE70000034A0449E9
:10255000136809680B441360704700BF78050020BA
:1025600014000020014B1868704700BF7805002058
:1025700038B50446FFF7F6FF631C1CBF054B1B680C
:10258000054618BFE418FFF7EDFF431BA342FAD33B
:1025900038BD00BF1400002030B5CC0D04F0040499
:1025A0001430C1F30451035907258D4023EA050374
:1025B0008A401343035130BD806800F0010070472A
:1025C0008068C0F38000704737B50023019304464C
:1025D000002800F0DB80C56D25B9FFF79DFD25665D
:1025E00084F8585023689A68950041BF9A6822F091
:1025F000204222F03F029A609A68D00040F19E800B
:102600009A68D10000F1B180E26D42F01002E265FB
:10261000226E42F00102226601211846FFF7D0FF28
:10262000E26D02F01002024340F0AC80E26D22F451
:10263000817242F00202E2651846FFF7BDFF80B9E1
:102640004FF0A040FFF7B8FF02465148FFF7B4FF34
:10265000024306D14F486568826822F47C122A43FF
:102660008260E568E26B94F824002A43A5682A4357
:10267000657F012842EA453242EA004202BFA06A71
:1026800000F1FF3042EA4042E06A20B1256B00F4DD
:10269000787028430243DD683F4828401043D860E3
:1026A0001A69606B22F0406202431A619A6812074D
:1026B0002CD4D86894F83820257F520020F480402C
:1026C00042EA853220F0020002432569DA6033488D
:1026D0001A69002D4BD042F480321A61D3F8C02021
:1026E00002402A43C3F8C02094F84020012A45D173
:1026F000D4E9112518692A436FF38A000243E06C7C
:102700000243206D024342F001021A616269012A0C
:1027100005BF186B226A1A6B02F1FF3206BF20F068
:102720000F00024322F00F021A63E36D23F003034C
:1027300043F00103E365084603B030BD9A681849C9
:1027400022F0104222F03F0242F080529A60154A75
:102750001268B2FBF1F2013252000192019A002A92
:102760003FF44EAF019A013AF7E7002155E722F412
:1027700080321A61D3F8C0200240B3E71A6922F010
:102780000102C2E7E36D43F01003E3650121D2E7E4
:1027900000010050000300500740F0FF00C0FFFFA1
:1027A000400D0300100000207047704708B5806A94
:1027B000FFF7FBFF08BD704770470000F8B50368DE
:1027C0001E685D688A4B9F680446B00707F01F07C4
:1027D0000ED5A9070CD5E36DDA065EBFE36D43F4B1
:1027E0000063E365204600F075FC236802221A604E
:1027F000730701D5680703D4310737D52A0735D5C4
:10280000E36DDB065EBFE36D43F40073E3652368AD
:10281000DA6812F4406F23D1764A934205D140F230
:102820002122FA40D00740F1BF80DA68910417D422
:102830001A68120714D51846FFF7C2FE002840F0A8
:10284000B7805A6822F00C025A60E36D23F480735B
:10285000E365E36DD80403D4E36D43F00103E3655E
:102860002046FFF7A1FF23680C221A60B10601D5AC
:10287000AA0603D473063BD5680639D5E36D5D4AD5
:10288000D9065EBFE36D43F40053E3652368D96C5A
:10289000D868934201F4C07140F09380C122FA409D
:1028A000D20700F18E804FF0A042D268D1B99101D9
:1028B00005D502F4005100F44060014312D11968BB
:1028C00049060FD592020DD49A6810077BD45A6836
:1028D00022F060025A60E36D23F48053E365E36DF8
:1028E000D90579D5204600F0F1FB236860221A60F3
:1028F00032060BD52B0609D5E36D43F48033E3652F
:102900002046FFF758FF236880221A60F0050CD597
:10291000E9050AD5E36D43F40033E365204600F092
:10292000D7FB23684FF480721A60B2050CD5AB0553
:102930000AD5E36D43F48023E365204600F0C9FB2C
:1029400023684FF400721A60F00618D5E90616D510
:10295000E36B33B1002F44D0254B9B6813F4604FD9
:102960000AD0E36D43F48063E365236E43F0020312
:1029700023662046FFF720FF236810221A607205A5
:1029800034D56B0532D5E36D43F48043E365236EA4
:1029900043F00803236623684FF480621A602046E0
:1029A000BDE8F84000F093BB4FF0A042D2683DE78D
:1029B000E36D43F01003E365236E43F001032366E8
:1029C0004EE7DA6872E7E36D43F01003E365236EC8
:1029D00043F00103236685E7E36D43F00103E365FC
:1029E00080E72368DB6813F0010FB9E7F8BD00BF8B
:1029F0000003005000010050836ADA6D12F0500F9E
:102A000010B5DA6D21D142F40072DA651A681168E6
:102A1000080716D5D16811F4406F0ED1D26812F4B0
:102A2000005F0AD1DA6D22F48072DA65DA6DD104C2
:102A30005EBFDA6D42F00102DA651846FFF7B4FEB8
:102A400010BDD26812F0020FEBE7D20603D518468C
:102A5000FFF7B2FEF4E75B6DBDE810405B6B184713
:102A6000806A08B5C36D43F04003C365036E43F04D
:102A700004030366FFF7A0FE08BD0000F7B50023BE
:102A8000019390F85830012B05460E4600F0AD81B9
:102A90000468012380F858302046FFF791FD002894
:102AA00040F09D814A683368910901F00C0104F1FE
:102AB000300702F01F0278584FF01F0CC3F38463F5
:102AC00093400CFA02F220EA020213437B502046A4
:102AD000FFF776FDA26802F0080202433BD1B3681B
:102AE0003168B3F1004F74D12046FFF755FD63699B
:102AF00043F00043636137697169E0683268042F0D
:102B000004F160036DD0C0F3C100400053F827C04A
:102B10008140B74802F0F8420CEA0000104341EA55
:102B2000000242F0004243F827203169B06953F8AF
:102B3000212022F08072024343F82120317F306946
:102B40004F1E53F820207942794122F0007242EA68
:102B5000416243F820202046FFF72EFD70BBF76846
:102B60003368A44AD4F8B01007F0180CC3F312006D
:102B700022FA0CF21A4021EA00010A43C4F8B020FC
:102B80009D4A97421AD1002840F08A809A0E01325D
:102B900002F01F01012009294FEA826201FA00F3C5
:102BA00000F2A48002F0F842884002430B441B0567
:102BB00043EA02012046B268FFF7EEFC33688F4A11
:102BC000134240F0BF800020002385F8583003B046
:102BD000F0BD1A462046FFF7DFFC636923F000438F
:102BE00088E7216E216EC2F31200C1F384610028D0
:102BF00039D1C2F38462914202BF226E22F00042B8
:102C00002266626E3268616EC2F31200C1F38461A3
:102C100000282FD1C2F38462914202BF626E22F07B
:102C2000004262669A6832689968C2F31200C1F382
:102C3000846130BBC2F38462914202BF9A6822F081
:102C400000429A60DA683268D968C2F31200C1F3B0
:102C50008461E8B9C2F38462914202BFDA6822F06B
:102C60000042DA6077E792FAA2F2002AC9D0B2FAFB
:102C700082F2C0E792FAA2F2002AD3D0B2FA82F22C
:102C8000CAE792FAA2F2002ADCD0B2FA82F2D3E7C3
:102C900092FAA2F2002A3FF45EAFB2FA82F2DBE7C8
:102CA00093FAA3F232B1B2FA82F2013202F01F02B9
:102CB000092A25D893FAA3F1B1FA81F101318906E5
:102CC00001F0F84193FAA3F0B0FA80F0013000F07F
:102CD0001F00012282400A4393FAA3F3B3FA83F35D
:102CE000013303F01F0303EB430360E788401944FB
:102CF0001E3902F0F8420905024341F0007357E71C
:102D000093FAA3F1B1FA81F10131890601F0F8419A
:102D100093FAA3F0B0FA80F0013000F01F00012216
:102D200082400A4393FAA3F1B1FA81F1013101F033
:102D30001F0103236FF01D0013FB01031B0543F06C
:102D4000007335E72E4A2F4E9168B34201F0E070D0
:102D500002D02D4EB3421ED10E023FF534AFB4F176
:102D6000A04F7FF430AF264A936823F0E07303430B
:102D700043F400039360254B1A68254BB2FBF3F232
:102D80000C2302FB03330193019B002B3FF41BAF89
:102D9000019B013BF7E71F4EB3420ED1C9013FF53E
:102DA00012AF1D4B9C423FF40EAF936823F0E073CB
:102DB000034343F08073936005E7184EB3427FF4FA
:102DC00002AF4B023FF5FFAE134B9C423FF4FBAE0C
:102DD000936823F0E073034343F48003EBE7EA6D69
:102DE00042F02002EA651846EEE60220EFE600BF58
:102DF00000F0FF03FFFF070000007F400000088095
:102E000000030050000021C31000C09010000020FB
:102E1000400D0300000052C700010050000084CBA9
:102E200073B502680446002310460193FFF7C4FB04
:102E300010B1002002B070BD9168214B194209D039
:102E4000E36D43F01003E365236E43F00103236653
:102E50000120EFE7936823F0004323F03F0343F0A2
:102E600001039360174B9B6819021AD4FFF77AFB92
:102E7000154E054622681368DB07DAD41046FFF7C3
:102E80009BFB20B99368334043F001039360FFF745
:102E900069FB401B0228EDD923681B68DA07E9D4D7
:102EA000CEE70A4B1A680A4BB2FBF3F20C2302FB83
:102EB00003330193019B002BD8D0019B013BF8E722
:102EC0003F00008000030050C0FFFF7F1000002083
:102ED000400D0300334B2DE9F041044600689B6828
:102EE000FFF76EFB0E4617460546002858D194F8AA
:102EF0005820012A54D003F01F0840F2212301205A
:102F000023FA08F3034084F8580046D02046FFF720
:102F100087FF00283ED1E06D2168234B20F47060CC
:102F200020F0010040F480709942E06502D1B8F1D0
:102F3000000F03D1E36D23F48013E365E36D606D4F
:102F400013F480531CBF236E23F006032366174B34
:102F5000C362174B0363174B43631C230B600023AF
:102F600084F858304B6843F010034B60CB6843F053
:102F70000103CB6032463B46403100F027FA22681D
:102F8000936823F0004323F03F0343F0040393606E
:102F9000BDE8F08184F85850FAE784F85830F7E734
:102FA0000220F5E70003005000010050F929000855
:102FB000AD270008612A0008026838B504461046AB
:102FC0009368FFF7F9FA08B9002038BD9907FBD4D8
:102FD000936803F00D03012B19D1936823F000438C
:102FE00023F03F0343F00203936003231360FFF7D2
:102FF000B9FA054623689B68DB07E5D5FFF7B2FA07
:10300000401B0228F6D923689B68DA07F2D5E36DE6
:1030100043F01003E365236E43F0010323660120B0
:10302000D3E7806800F0010070478068C0F380003B
:103030007047000037B50023019390F85830012BFA
:1030400004460D463DD0012380F85830FFF7B4FF09
:10305000E36D002832D123F4885323F00203226861
:1030600043F00203E365936823F0404323F03F03FA
:1030700005F080452B4343F0004393609368002B99
:1030800012DA019B0133019301990F4B9942F5D953
:10309000E36D23F0120343F01003E365002384F88B
:1030A0005830012003B030BDE36D23F0030343F03B
:1030B0000103E365002384F85830F3E743F010037D
:1030C000F7E70220EEE700BF01DE0400704770471B
:1030D000704770477047000070B590F85820012A7B
:1030E0009CB0034659D0012280F858201D6800206A
:1030F000B5F1A04F189019900ED12948FFF795FF10
:1031000004462846FFF791FF20430ED0D96D41F0C9
:103110002001D965104628E0D96D83F8580041F0A8
:103120002001D96510461CB070BD0C681D4A04B35F
:1031300090684E6820F46040304393F8386040EA6D
:10314000463090602846FFF76CFF05461448FFF7AD
:1031500068FF054308D1896890680C4320F47161C9
:1031600021F00F010C4394600020002283F85820C6
:10317000D9E7916821F4604191602846FFF751FF3B
:1031800001460748FFF74DFF0143EDD1916821F457
:10319000716121F00F019160E6E70220C3E700BFF3
:1031A00000010050000300500749CA6822F4E062A1
:1031B0000302120403F4E063120C134343F0BF63F1
:1031C00043F40033CB60704700ED00E0164B30B5A0
:1031D000DC68C4F30224C4F10703251D042B28BFB7
:1031E0000423062D4FF0FF358CBF033C002405FA65
:1031F00003F321EA0303A54022EA0502A3400028C5
:1032000043EA0203ACBF00F16040084A4FEA0313EF
:10321000B8BF00F00F00DBB2AABF00F56140135445
:1032200080F8003330BD00BF00ED00E014ED00E099
:10323000002807DB044A4109012300F01F008340F6
:1032400042F82130704700BF00E100E00138B0F1E2
:10325000807F0BD24FF0E023054A5861F02182F8BD
:1032600023100020072298611A61704701207047DF
:1032700000ED00E070B5D0E913456560446D14B110
:10328000D0E916456560D0E9105404F01F0601240A
:10329000B4406C60046863608368102B0BBFA2604D
:1032A000A160E160E26070BD10B503680C490D4C8F
:1032B0000D4AA34298BF0A46416C21F003010A441B
:1032C0008264DBB2094AC264083B1422B3FBF2F306
:1032D000012203F01F0302FA03F3036510BD00BFD0
:1032E0000008024007040240200802408008024013
:1032F00038B5002857D002682C4B9A424FF0140181
:1033000045D82B4B1344B3FBF1F32A499B00C0E98A
:103310001013022380F82530D0E9024305691168B3
:1033200023432B4345692B4385692B43C5692B43B5
:10333000056A6FF30E112B430B431360FFF7B4FFC5
:10334000B4F5804F04BF002343604368816CDAB258
:103350000A60D0E91314013B032B4C601ED8164BB6
:103360001649816513449B000121013A01FA02F2DA
:1033700000214365C2651960114B5A640023012284
:10338000C36380F8243080F82520184638BD0D4BE3
:103390001344B3FBF1F30C499B00B8E70023C0E9E9
:1033A0001533C365EAE70120F0E700BF07040240D8
:1033B000F8FFFDBF000002403F82001040090240BC
:1033C00000090240F8FBFDBF0004024070B590F810
:1033D0002450012D044637D0012580F8245090F860
:1033E0002550012D4FF000052CD1022680F82560D4
:1033F000C56305682E6826F001062E60FFF73AFFC8
:10340000036BBBB12B6843F00E032B60A36C1A68EF
:10341000D20342BF1A6842F480721A60636D1BB116
:103420001A6842F480721A602B6843F001032B6023
:10343000002070BD2B6823F004032B602B6843F041
:103440000A03E2E780F824500220F2E7016C426CA4
:10345000036870B402F01F020E681D6804249440D3
:1034600034420ED015F0040F0BD01A6892065EBFDE
:103470001A6822F004021A60036B4C6073B370BCCC
:10348000184702249440344212D015F0020F0FD096
:103490001A68950606D41A6822F00A021A600123F7
:1034A00080F8253000234C6080F82430C36AE5E7BB
:1034B00008249440344211D02C070FD51C6824F006
:1034C0000E041C60012303FA02F24A60C36380F811
:1034D0002530002380F82430436BCFE770BC704761
:1034E0002DE9F74FDFF888915F4C00230A6832FA24
:1034F00003F502D103B0BDE8F08F012505FA03F80A
:1035000018EA020200F0A4804E68032706F00305C3
:103510004FEA430E07FA0EFC6F1E012F6FEA0C0CE8
:1035200034D8876807EA0C0ACF6807FA0EF747EA2B
:103530000A078760476827EA0808C6F300179F4014
:1035400047EA08074760C76807EA0C088F6807FA68
:103550000EF747EA0807022DC76019D14FEAD308D2
:1035600000EB880803F0070AD8F820704FEA8A0AAF
:103570004FF00F0B0BFA0AFB27EA0B0B0F6907FA48
:103580000AF747EA0B07C8F8207001E0032DDAD1EB
:10359000076805FA0EF507EA0C073D4316F4403FAD
:1035A000056055D0D9F8605045F00105C9F8605064
:1035B000D9F8605023F0030707F1804705F00105B3
:1035C00007F58037019503F0030C019DBD684FEAB4
:1035D0008C0C4FF00F0E0EFA0CFEB0F1904F25EA56
:1035E0000E0E37D0214DA84236D005F58065A84291
:1035F00034D005F58065A84232D005F58065A84233
:1036000030D005F58065A84214BF0625052505FACA
:103610000CF545EA0E05BD60A568D74316F4801F7A
:103620000CBF3D401543A560E56816F4001F0CBFB4
:103630003D401543E560656816F4003F0CBF3D4012
:10364000154365602568F60354BF3D40154325606A
:1036500001334BE70025DAE70125D8E70225D6E755
:103660000325D4E70425D2E7000401400004004804
:10367000001002400AB18161704781627047704753
:10368000044A5169014208B502D05061FFF7F7FFC3
:1036900008BD00BF00040140284B1A6818BB02F4A3
:1036A000C062B2F5806FD3F8802022F48072C3F834
:1036B000802040D11A6822F4C06242F400721A607D
:1036C0001F4A126832214A431E49B2FBF1F201320D
:1036D0005969490500D522B95B6958052BD50320E6
:1036E0007047013AF4E7B0F5007F1FD102F4C062E1
:1036F000B2F5806FD3F8802042F48072C3F8802046
:1037000019D11A6822F4C06242F400721A600C4A9D
:10371000126832214A430B49B2FBF1F20132596976
:103720004905D9D5002AD7D0013AF8E722F4C0627A
:1037300042F480621A600020704700BF00700040B1
:103740001000002040420F00024A936843F4804377
:1037500093607047007000402DE9F341044618B9AA
:10376000012002B0BDE8F0810368D90714D42368B2
:103770009A0758D42368190700F1A18023685A07D3
:1037800000F1C88023689A0600F12F81E369002BBD
:1037900040F05C810020E4E79F4DAB68EA6803F0ED
:1037A0000C030C2B0AD102F00303032B08D12B6866
:1037B0009B03DCD56368002BD9D1D1E7082BF5E753
:1037C0006368B3F5803F10D12B6843F480332B60DE
:1037D000FEF7C8FE06462B689F03C8D4FEF7C2FE5C
:1037E000801B6428F7D90320BBE7B3F5A02F04D1D1
:1037F0002B6843F480232B60E6E72A6822F48032AA
:103800002A602A6822F480222A60002BE0D1FEF789
:10381000A9FE06462B689903A9D5FEF7A3FE801BD7
:103820006428F7D9DFE77C4DAB68EA6803F00C0346
:103830000C2B17D102F00303022B15D12B685A056C
:1038400002D5E368002B8BD06B68226923F0FE431E
:1038500043EA02636B60714B1868FEF741FE002873
:1038600088D07DE7042BE8E7E368BBB12B6843F41D
:1038700080732B60FEF776FE06462B685B0507D546
:103880006B68226923F0FE4343EA02636B6071E7D1
:10389000FEF768FE801B0228EFD9A4E72B6823F40B
:1038A00080732B60FEF75EFE06462B685F057FF592
:1038B00061AFFEF757FE801B0228F6D993E76369D4
:1038C000554D9BB1D5F8943043F00103C5F89430C1
:1038D000FEF748FE0646D5F894309B073FF54EAFFD
:1038E000FEF740FE801B0228F5D97CE7D5F894301E
:1038F00023F00103C5F89430FEF734FE0646D5F8F0
:1039000094309F077FF53AAFFEF72CFE801B02280C
:10391000F5D968E7404DAB6DD80027D4AB6D43F0C7
:103920008053AB65AB6D03F080530193019B01277E
:103930003B4E3368D9051BD5A368012B29D1D5F897
:10394000903043F00103C5F89030FEF70BFE41F2D2
:1039500088380646D5F890309B0740D5002F3FF4B5
:1039600011AFAB6D23F08053AB650BE70027DFE7AA
:10397000336843F480733360FEF7F4FD80463368A8
:10398000DA05D9D4FEF7EEFDA0EB08000228F6D93F
:1039900029E7052B06D1D5F8903043F00403C5F88C
:1039A0009030CCE7D5F8902022F00102C5F89020A5
:1039B000D5F8902022F00402C5F89020002BC4D145
:1039C000FEF7D0FD41F288380646D5F890309907C9
:1039D000C4D5FEF7C7FD801B4045F6D903E7FEF7C7
:1039E000C1FD801B4045B5D9FDE6A3690A4DCBB1A9
:1039F000D5F8983043F00103C5F89830FEF7B2FDD2
:103A00000646D5F898309B073FF5C0AEFEF7AAFDF5
:103A1000801B0228F5D9E6E60010024018000020BD
:103A200000700040D5F8983023F00103C5F89830B5
:103A3000FEF798FD0646D5F898309F077FF5A6AEAD
:103A4000FEF790FD801B0228F5D9CCE6454DAA680B
:103A500002F00C020C2A51D0022B2B6823F0807349
:103A60002B603AD1FEF77EFD06462B6899012ED4D5
:103A7000EA683D4B1340226A1343A26A43EA0223D9
:103A8000E26A43EAC263626A013A43EA0213226BC2
:103A90005208013A43EA4253626B5208013A43EA40
:103AA0004263EB602B6843F080732B60EB6843F05C
:103AB0008073EB60FEF756FD04462B689A013FF5D4
:103AC00069AEFEF74FFD001B0228F6D98BE6FEF724
:103AD00049FD801B0228C8D985E6FEF743FD044650
:103AE0002B689B0104D4EA68204B1340EB6051E63D
:103AF000FEF738FD001B0228F2D974E6012B3FF4D3
:103B00002FAEEB68226A03F0030191427FF428AEE6
:103B1000616A03F0F0020139B2EB011F7FF420AEBD
:103B2000A16A03F4FE42B2EB012F7FF419AEE16A01
:103B300003F07842B2EBC16F7FF412AE226B5208F1
:103B400003F4C001013AB1EB425F7FF409AE626B4E
:103B50005208013A03F0C063B3EB426F14BF012077
:103B60000020FEE5001002400C809F01FCFFEEFEED
:103B7000174B9A6802F00C02042A23D09A6802F0CC
:103B80000C02082A20D09A6802F00C020C2A1DD1DF
:103B9000D968DA68D868DB6801F00301C3F34163D0
:103BA0000329C2F30312C0F3062003F101030CBF83
:103BB000084909495B000132B1FBF2F25043B0FB06
:103BC000F3F0704704487047024870470020704780
:103BD0000010024000127A000024F4002DE9F8439E
:103BE0000E46054610B90120BDE8F8836D4A1368FA
:103BF00003F00F038B4245D3296811F001084CD123
:103C00002A68910740F1A780674B12F0040F1EBF8E
:103C1000996841F4E0619960120741BF9A6822F403
:103C20007C5242F4E0629A609A68A96822F0F0023D
:103C30000A439A605B4C236803F00F03B34200F21F
:103C400093802A68584C12F0040F40F0A3801307A9
:103C500006D5A3682A6923F4605343EAC203A3602C
:103C6000FFF786FFA368514AC3F30313D35C03F045
:103C70001F03D8404E4B18604E4B1868BDE8F84300
:103C8000FEF72EBC136823F00F030B431360136879
:103C900003F00F038B42A6D1AEE76F68424C032FAF
:103CA000236849D19B019ED5E368E26803F00303D2
:103CB000032BE3680CBF40484048C2F30312C3F330
:103CC00006230132B0FBF2F25343E268C2F34162D1
:103CD00001325200B3FBF2F3394A93421AD84FF043
:103CE0000008A36823F003033B43A360FEF73AFCFC
:103CF00041F288390746A3686A6803F00C03B3EB06
:103D0000820F3FF47DAFFEF72DFCC01B4845F2D972
:103D1000032069E7A36813F0F00F04D08807DED50D
:103D2000AB68002BDBD1A36823F0F00343F08003E2
:103D3000A3604FF08008D4E7022F09D113F4003FAD
:103D40003FF451AFFFF714FF1D4B9842C7D9EAE784
:103D500013F4806FF4E7B8F1800F01BF124A936843
:103D600023F0F003936065E7236823F00F033343E8
:103D70002360FEF7F7FB41F288380746236803F01B
:103D80000F03B3423FF45DAFFEF7ECFBC01B4045B1
:103D9000F4D9BDE7A368E96823F4E0630B43A360AB
:103DA00055E700BF002002400010024015890008BE
:103DB000100000201800002000127A000024F400F7
:103DC00000B4C404054B064A9B68C3F30223D35CCA
:103DD000044A106803F01F03D840704700100240E7
:103DE0000D89000810000020054B064A9B68C3F3AC
:103DF000C223D35C044A106803F01F03D840704705
:103E0000001002400D890008100000202DE9F34148
:103E10000446006810F4002056D0984DAB6DD800D1
:103E200044D4AB6D43F08053AB65AB6D03F080536E
:103E30000193019B0126924F3B6843F480733B60E2
:103E4000FEF790FB80463B68D90531D5D5F8903018
:103E5000226C13F440731FD09A421DD0D5F89020E5
:103E6000D5F8903043F48033C5F89030D5F89030D1
:103E700022F4407123F48033D207C5F89030C5F89E
:103E8000901009D5FEF76EFB41F288380746D5F849
:103E900090309B0740F1EB80D5F89030226C23F4F2
:103EA00040731343C5F89030002008E00026C2E7B5
:103EB000FEF758FBA0EB08000228C4D903201EB16E
:103EC000AB6D23F08053AB652368DE0708D56B49E3
:103ED0006568D1F8882022F003022A43C1F88820BF
:103EE0009D0708D56549A568D1F8882022F00C0205
:103EF0002A43C1F88820590708D56049E568D1F8F8
:103F0000882022F030022A43C1F888201A0708D5F9
:103F10005A492569D1F8882022F0C0022A43C1F805
:103F200088209F0608D555496569D1F8882022F474
:103F300040622A43C1F888205E0608D54F49A5692A
:103F4000D1F8882022F440522A43C1F888201D0667
:103F500008D54A49E569D1F8882022F440422A432D
:103F6000C1F88820D90508D54449256AD1F88820A8
:103F700022F440322A43C1F888209A0508D53F49E7
:103F8000656AD1F8882022F440222A43C1F88820AB
:103F90005F050FD53949A56AD1F8882022F440126F
:103FA0002A43C1F88820B5F5801F02BFCA6842F4D1
:103FB0008012CA601E050FD53049E56AD1F8882005
:103FC00022F440022A43C1F88820B5F5800F02BFD1
:103FD000CA6842F48012CA60DD040FD52749256BF8
:103FE000D1F8882022F040722A43C1F88820B5F128
:103FF000807F02BFCA6842F48012CA6099040FD55C
:104000001E49656BD1F8882022F040622A43C1F82E
:104010008820B5F1006F02BFCA6842F48012CA60FE
:104020005A040FD51549A56BD1F8882022F04062BB
:104030002A43C1F88820B5F1006F02BFCA6842F474
:104040008012CA601B040FD50C4AE16BD2F888308D
:1040500023F040530B43B1F1805FC2F8883003D1A5
:10406000D36843F48033D36002B0BDE8F081FEF73B
:1040700079FAC01B40457FF60AAF1FE700100240E7
:104080000070004010B50446C0B1437A03F0FF024F
:1040900013B90272FEF7A4F8226861680223637202
:1040A000136823F008030B431360136843F0040301
:1040B0001360002001236372E06010BD0120FCE763
:1040C000F8B5037A012B04460E462BD0427A012321
:1040D0009A420372D5B221D102234372FEF742FA0B
:1040E000074623685A68D20707D59B682361336067
:1040F00001236372002500230DE0FEF733FAC01B95
:104100000228EED923685B6813F00103E9D101228C
:1041100062720222E26023722846F8BD0422C26065
:104120001D46E8E70225F7E7F7B50E4614460546B3
:10413000FEF718FA3444241AFEF714FA224B1B68CF
:10414000C3F3CB336343074601932A68906810F0AA
:1041500080002DD0731CF9D0FEF704FAC01BA042DA
:1041600028D32B685A6822F0E0025A606A68B2F5D8
:10417000827F0AD1AA68B2F5004F02D0B2F5806FF3
:1041800003D11A6822F040021A60AA6AB2F5005FF1
:1041900007D11A6822F400521A601A6842F40052D9
:1041A0001A60012385F85D30002385F85C30032018
:1041B00003B0F0BD019A019B002A03F1FF33019384
:1041C00008BF1446C1E700BF100000202DE9F743E7
:1041D0001C46002317468DF8033005460E46FEF7B1
:1041E000C1F93C44241AFEF7BDF9294BD5F80090DB
:1041F0001B68232253431B0D6343804601932A68A7
:104200009068304038D0B6F5C06F01BF99F80C30D7
:10421000DBB28DF803309DF803307B1CF0D0FEF745
:10422000A1F9A0EB0800A04229D32B685A6822F01C
:10423000E0025A606A68B2F5827F0AD1AA68B2F5D4
:10424000004F02D0B2F5806F03D11A6822F040020D
:104250001A60AA6AB2F5005F07D11A6822F4005208
:104260001A601A6842F400521A60012385F85D3022
:10427000002385F85C30032003B0BDE8F083019A89
:10428000019B002A03F1FF33019308BF1446B6E7F0
:1042900010000020F8B54368B3F5827F04460E464F
:1042A00017460BD18368B3F5004F02D0B3F5806F8A
:1042B00004D12268136823F0400313603A46314664
:1042C0002046FFF731FF054628B1236E43F0200357
:1042D0002366032513E06368B3F5827F0FD1A368DB
:1042E000B3F5004F02D0B3F5806F08D13B4632469C
:1042F0004FF4C0612046FFF769FF0028E5D128464A
:10430000F8BD70B513460D4616460A464FF4C05127
:104310000446FFF75BFF28B1236E43F020032366BA
:10432000032070BD324629462046FFF7FDFE0028D7
:10433000F2D133462A464FF4C0612046FFF746FFCC
:104340000028EED0E8E770B50446002867D0436A3D
:10435000002B5DD14268B2F5827F00D0C36100239B
:10436000A36294F85D3003F0FF0223B984F85C2067
:104370002046FDF75BFF2268E068022384F85D3089
:104380001368B0F5E06F23F0400313604FF00003B3
:1043900042D91D46B0F5706F18BFA362A668636866
:1043A000A16906F4044603F482733343266906F0D8
:1043B00002063343666906F00106334301F40076D2
:1043C0003343E66906F038063343266A06F0800672
:1043D0003343A66A06F4005633431360666B636A80
:1043E00006F0080603F0100300F470603343090C74
:1043F000034301F004010B432B435360D36923F4BF
:104400000063D36100200123206684F85D3070BD15
:104410000023C0E90433A2E74FF48055BCE7012034
:10442000F5E72DE9F3471F4690F85C30012B044671
:104430000D46904600F0BC80012380F85C30FEF70A
:1044400091F894F85D30012B82465FFA83F940F0D1
:10445000AC80002D69D0B8F1000F66D0032384F83A
:104460005D3000232366C4E91333A4F83E8023643F
:10447000A4F84430A4F84630A3682668A563B3F5D1
:10448000004FA4F83C8007D1336823F04003336029
:10449000336843F480433360336862685B065EBF11
:1044A000336843F040033360E368B3F5E06F43D90A
:1044B00012B1B8F1010F07D135F8023BF360A563E3
:1044C000E38F013B9BB2E387E38F9BB2B3B95246C4
:1044D00039462046FFF715FF002863D1A36833B99A
:1044E00001932368DA6801929B680193019B236E14
:1044F000DBB9012284F85D20994616E022689368B2
:104500009D0705D5A36B33F8021BD160A363D7E7E2
:10451000FEF728F8A0EB0A00B842D5D3781CD3D018
:10452000012384F85D304FF00309002384F85C30E8
:10453000484602B0BDE8F08712B1B8F1010F13D1BF
:10454000E38F9BB2012B06D935F8023BF360A563DC
:10455000E38F023B06E02B783373A36B0133A36335
:10456000E38F013B9BB2E387E38F9BB2002BAED07E
:104570002268936899070CD5E18FA36B89B2012952
:1045800004D933F8021BD160A363E1E71B781373EE
:10459000E3E7FDF7E7FFA0EB0A00B842E4D37B1C9A
:1045A000E2D0BDE72023236698E74FF00209BCE77D
:1045B0004FF00209BCE72DE9F8431E4690F85C3045
:1045C000089F012B04460D46914600F020810123EF
:1045D00080F85C30FDF7C6FF94F85D206368012A1F
:1045E0008046D1B20AD0B3F5827F40F00E81A26836
:1045F000002A40F00A81042940F007812DB90120EA
:10460000002384F85C30BDE8F883B9F1000FF6D0E0
:10461000002EF4D094F85D20E0682168C4F8409042
:10462000042A1CBF052284F85D2000222266B0F512
:10463000E06FA4F84660E687C4E91322A4F844605A
:104640004A68A563A68701D8012E2ED022F4805295
:104650004A600A6852065EBF0A6842F040020A6079
:10466000B0F5E06F57D90BB1012E07D135F8023BF9
:10467000CB60E38FA563013B9BB2E3870125E38F0A
:104680009BB2ABB9B4F846309BB28BB942463946BF
:104690002046FFF736FE002840F0B380236E002B43
:1046A000ADD1012384F85D30AAE742F48052CFE710
:1046B00021688B689E070DD5E38F9BB253B145B13E
:1046C000A36B33F8022BCA60A363E38F013B9BB259
:1046D000E38700258A6812F001020FD0B4F8463053
:1046E0009BB25BB1236CC96823F8021B2364B4F846
:1046F0004630013B9BB2A4F846301546FDF732FF29
:10470000A0EB0800B842BAD3781CB8D0012384F8D3
:104710005D30032074E70BB1012E0BD1E38F9BB208
:10472000012B52D935F8023BCB60E38FA563023BE6
:104730009BB2E3870125E38F9BB223B9B4F84630DF
:104740009BB2002BA2D022689368990711D5E38F02
:104750009BB273B165B1E18FA36B89B201293CD9DA
:1047600033F8021BD160A363E38F023B9BB2E38764
:1047700000252268916811F001011DD0B4F846307F
:104780009BB2CBB1B4F84600236C80B201282CD97F
:10479000D06823F8020B2364B4F84630023B9BB286
:1047A000A4F84630B4F846309BB2012B9EBF536844
:1047B00043F4805353600D46FDF7D4FEA0EB080090
:1047C000B842B8D37B1CB6D0A0E72B780B73A36B91
:1047D0000133A363E38F013BAAE71B781373A36B39
:1047E0000133A363E38F013BC0E7127B1A70236C94
:1047F00001332364B4F84630013B9BB2A4F8463041
:10480000D9E720232366012048E70220F8E60220AA
:10481000F9E62DE9F3471F4690F85D30012B044679
:104820008A469046DEB240F0A7804368B3F5827FA7
:104830000ED1836863B9042380F85D301346009776
:104840000A46FFF7B8FE0646304602B0BDE8F087DC
:1048500094F85C30012B00F09180012384F85C30E7
:10486000FDF780FE8146BAF1000F75D0B8F1000F58
:1048700072D00025042384F85D30C4E91355256601
:10488000A563A4F84680A587E5872568E2686B687C
:10489000C4F840A0B2F5E06F8CBF23F4805343F41A
:1048A0008053A4F844806B60A368B3F5004F07D130
:1048B0002B6823F040032B602B6823F480432B608C
:1048C0002B685B065EBF2B6843F040032B60B2F59C
:1048D000E06F23D9B4F846309BB223B323689A68BB
:1048E000D2073DD5DA68236C23F8022B2364B4F891
:1048F0004630013B9BB2A4F84630EBE723689A6848
:10490000D0071DD5226C1B7B1370236C01332364ED
:10491000B4F84630013B9BB2A4F84630B4F84630B8
:104920009BB2002BEAD14A4639462046FFF7B2FC3B
:10493000F8B9236E83B9012284F85D201E460BE08E
:10494000FDF710FEA0EB0900B842E7D3791CE5D0D3
:10495000012384F85D300326002384F85C3073E77C
:10496000FDF700FEA0EB0900B842B3D37B1CB1D029
:10497000EEE720232366DCE70226EDE7022663E765
:1049800090F83D30012B2BD1022380F83D30036895
:10499000DA6842F00102DA60124A934212D0B3F1AF
:1049A000804F0FD0A2F5943293420BD002F5806273
:1049B000934207D002F59632934203D002F540624B
:1049C000934207D19968084A0A40062A06D0B2F5F0
:1049D000803F03D01A6842F001021A60002070473D
:1049E00001207047002C014007000100704770470C
:1049F00070477047036870B5DD681E69B2070446EA
:104A00000ED5A9070CD56FF002021A6101220277B8
:104A10009B699A0700F0A480FFF7E9FF0023237742
:104A2000730711D568070FD523686FF004021A6168
:104A3000022222779B6913F4407F204600F0968083
:104A4000FFF7D5FF00232377310710D52A070ED5AE
:104A500023686FF008021A6104222277DB699B0742
:104A6000204600F08980FFF7C2FF00232377F1067C
:104A700010D5EA060ED523686FF010021A610822DD
:104A80002277DB6913F4407F20467BD0FFF7AFFF2E
:104A900000232377F30708D5E80706D523686FF0CE
:104AA00001021A612046FDF743F816F4025F08D0B0
:104AB000290606D523686FF402521A61204600F0D9
:104AC000F8F9F20508D52B0606D523686FF4807235
:104AD0001A61204600F0EEF9700608D5690606D581
:104AE00023686FF040021A612046FFF782FFB2068A
:104AF00008D5AB0606D523686FF020021A61204660
:104B000000F0D6F9F00208D5E90206D523686FF463
:104B100080121A61204600F0CEF9B20208D5AB022D
:104B200006D523686FF400121A61204600F0C4F91C
:104B3000700208D5690206D523686FF480021A61F5
:104B4000204600F0BAF9320222D52B0220D5236884
:104B50006FF4000220461A61BDE8704000F0AEB963
:104B6000FFF744FF2046FFF743FF57E7FFF73EFFFD
:104B70002046FFF73DFF65E7FFF738FF2046FFF7C8
:104B800037FF72E7FFF732FF2046FFF731FF7FE77D
:104B900070BD0000274A036890420ED0B0F1804FEC
:104BA0000BD0A2F59432904207D002F58062904279
:104BB00003D002F59632904208D14A6823F0700380
:104BC0001343CA6823F4407313430AE01A4A90421D
:104BD000F7D002F580629042F3D002F580629042F5
:104BE000EFD04A6923F08003134303608B68C362EC
:104BF0000B6883620F4B98420FD003F50063984215
:104C00000BD003F54063984207D003F580639842C8
:104C100003D003F58063984201D10B69036301233C
:104C200043610369DB0742BF036923F001030361AA
:104C3000704700BF002C01400040014010B5044601
:104C400050B390F83D3003F0FF021BB980F83C20D0
:104C5000FDF71CFB0223206884F83D30211DFFF77F
:104C600099FF012384F84830002084F83E3084F80E
:104C70003F3084F8403084F8413084F8423084F882
:104C8000433084F8443084F8453084F8463084F862
:104C9000473084F83D3010BD0120FCE710B5846832
:104CA0000A4324F47F4442EA03222243826010BD77
:104CB00038B590F83C30012B04464FF0020300F069
:104CC000AA80012280F83D3080F83C200068534BD8
:104CD00085682B4083600B68702B56D03CD8502BD6
:104CE00067D01DD8402B7DD006D8202B0ED00BD8F6
:104CF00033F010020AD00122012384F83D30002352
:104D000084F83C30104638BD302BF4D1826822F450
:104D1000401222F070021A4342F0070282603DE026
:104D2000602BE9D1036A026A4D68C96822F010025B
:104D30000262826923F0A00322F4704243EA051361
:104D400042EA013282610362836823F4401323F054
:104D5000700343F0670320E0B3F5005F20D004D870
:104D6000B3F5805218BF0122C6E72D498B42CDD042
:104D700006D8B3F1101FC9D010398B42BCD1C5E79A
:104D800028498B42C2D03031F7E7CB68D1E9012105
:104D9000FFF784FF836843F0770383600022ABE76B
:104DA000CB68D1E90121FFF779FF836843F48043A1
:104DB000F3E74A68CD68016A036A23F001030362DE
:104DC000836921F00A0123F0F00343EA05130A4343
:104DD00083610262836823F4401323F0700343F07D
:104DE0005703DAE74A68CD68016A036A23F00103D2
:104DF0000362836921F00A0123F0F00343EA0513FB
:104E00000A4383610262836823F4401323F0700332
:104E100043F04703C1E71A4674E700BF8800CEFF9E
:104E2000300010004000100030B590F83C30012BED
:104E300004464FF0020037D023681C4D84F83D0033
:104E4000AB425A68986803D005F50065AB4203D1C0
:104E50004D6822F470022A430D6822F0007222F09D
:104E600070022A435A60114A934212D0B3F1804F24
:104E70000FD0A2F5943293420BD002F58062934298
:104E800007D002F59632934203D002F54062934276
:104E900004D1896820F080020A439A60012300202F
:104EA00084F83D3084F83C0030BD00BF002C014048
:104EB00070477047704770477047704770470000F1
:104EC00010B5026852E8003F23F4907342E80031C5
:104ED00002680029F5D10F4C02F1080353E8003FA6
:104EE000234002F1080C4CE800310029F4D1C36ED4
:104EF000012B07D152E8003F23F0100342E80031B4
:104F00000029F7D12023C0F88C300023C366436703
:104F100010BD00BFFEFFFFEF38B50446C069216930
:104F2000A26823680A4361691D680A437C490243F9
:104F300029400A431A605A68E16822F440520A4341
:104F40005A60784AA16993421CBF226A11439A6849
:104F500022F06E4222F430620A439A60DA6A616A91
:104F600022F00F020A43DA626F4A934230D16F4B4C
:104F7000D3F8883003F00303022B00F0CC80032B1E
:104F800000F0B980012B00F0BD80B0F5004F40F07B
:104F9000BF80FEF729FF002866D06168644B626A13
:104FA00033F81220B0FBF2F24B0803EB42034FF64A
:104FB000EF72B3FBF1F3A3F1100191421FD823F07C
:104FC0000F02216892B2C3F342031343CB604BE05C
:104FD000584A934215D1554BD3F8883003F00C034F
:104FE000082B00F0988008D8002B40F08B80B0F59B
:104FF000004F69D1FEF7E6FECDE70C2B7BD00120F8
:1050000033E04D4A934209D1484BD3F8883003F03E
:105010003003202B7FD0E7D9302BEFE7474A93426C
:1050200009D1424BD3F8883003F0C003802B72D0F3
:10503000DAD9C02BE2E73B4A9342E0D13B4BD3F8AD
:10504000883003F44063B3F5006F15D003D843B93B
:10505000FEF7B8FE07E0B3F5406FD0D14FF4004043
:105060000BE0FEF785FD40B900204FF00113A36669
:105070000023C4E91D3338BD314865682C4B626A92
:1050800005EB450133F81220B0FBF2F39942B6D894
:10509000B3EB053FB3D800231946FBF7ADFD09027A
:1050A00041EA10616B080002C0182A464FF0000365
:1050B00041F10001FBF7A0FD224BA0F540729A429E
:1050C0009DD82368D860CFE7FEF77CFE0028CBD0C0
:1050D0006368616A164A32F81120B0FBF2F000EB07
:1050E0005300B0FBF3F04FF6EF73A0F11002E6E7C8
:1050F000FEF73EFDEAE7B0F5004F3FF44EAF4FF448
:105100000040E5E7B0F5004FF2D1FEF731FD42E790
:10511000FEF76AFEDAE7B0F5004F0948D8D13CE760
:10512000F369FFCF008000400038014000100240CA
:10513000268900080044004000480040004C004020
:105140000024F400FFFC0F00836A1A0710B506D58F
:105150000168846B4A6822F4004222434A60DC07FB
:1051600006D50168C46A4A6822F4003222434A60C4
:10517000990706D50168046B4A6822F480322243FD
:105180004A605A0706D50168446B4A6822F48022B7
:1051900022434A60DC0606D50168C46B8A6822F4A3
:1051A000805222438A60990606D50168046C8A6899
:1051B00022F4005222438A605A060FD50168446CDB
:1051C0004A6822F480122243B4F5801F4A6005D158
:1051D0004A68846C22F4C00222434A601B0606D54A
:1051E0000268C16C536823F400230B43536010BD65
:1051F0002DE9F843DDF8209004460D461746984601
:105200002268D36935EA03030CBF01230023BB42A4
:1052100001D0002022E0B9F1FF3FF2D0FDF7A2F962
:10522000A0EB0800484529D8B9F1000F26D0216825
:105230000B685A07E4D5802DE2D0402DE0D0CE692E
:1052400016F008060CD0082520460D62FFF738FE40
:105250000023C4F8905084F884300120BDE8F8831E
:10526000CB691B05CCD54FF400630B622046FFF7DA
:1052700027FE2023C4F8903084F884600320EDE7F3
:105280002DE9F7439846D0F88830202B04460E4687
:10529000174646D1002946D0002A44D021230025B4
:1052A000C0F89050C0F88830FDF75CF9A368A4F806
:1052B0005470B3F5805F8146A4F8567003D123691A
:1052C0000BB935461E46B4F85620CDF8008092B290
:1052D0004B4642B940212046FFF78AFF202348B9B8
:1052E000C4F8883009E0002280212046FFF780FFC3
:1052F00030B12023C4F88830032003B0BDE8F08328
:1053000022685EB935F8023BC3F308039362B4F830
:105310005620013A92B2A4F85620D4E716F8013B81
:10532000F4E70220E9E70120E7E773B50446002629
:10533000C0F89060FDF716F923681B681A07054648
:105340001CD56FF07E430093324603464FF40011A4
:105350002046FFF74DFF88B1226852E8003F23F056
:10536000800342E800310029F6D12023C4F88830B8
:105370000320002384F8843002B070BD23681B68CA
:105380005B0724D56FF07E43009300222B464FF439
:1053900080012046FFF72CFFC8B1226852E8003F89
:1053A00023F4907342E8003122680029F5D102F11C
:1053B000080353E8003F23F0010302F1080040E82E
:1053C00000310029F3D12023C4F88C30D0E720230A
:1053D0000020C4F88830C4F88C30E0662067C8E745
:1053E00010B5044650B3D0F888301BB980F884302B
:1053F000FCF784FF22682423C4F88830136823F064
:1054000001031360A36A13B12046FFF79DFE2046F7
:10541000FFF782FD012811D023685A6822F49042D8
:105420005A609A6822F02A029A601A6842F00102D1
:1054300020461A60BDE81040FFF777BF012010BD7D
:10544000436E30B52BB90123A0F86A30A0F868305C
:1054500030BD0368094D9A689968094C490FC2F339
:1054600042626B5C615CDB00B3FBF1F3A0F86A3075
:10547000AB5CA25CDB00B3FBF2F3E7E74689000814
:105480003E89000890F88430012B14D00268242350
:10549000C0F888301168136823F00103136021F00D
:1054A00000510023436611602022C0F8882080F854
:1054B0008430184670470220704770B590F88430E9
:1054C000012B044617D005682423C0F888302E68C5
:1054D0002B6823F001032B60AB6823F06043194372
:1054E000A960FFF7ADFF20232E60C0F888300020B0
:1054F00084F8840070BD0220FCE770B590F8843019
:10550000012B044617D005682423C0F888302E6884
:105510002B6823F001032B60AB6823F06063194311
:10552000A960FFF78DFF20232E60C0F8883000208F
:1055300084F8840070BD0220FCE72DE9FF4757EC9A
:10554000106B002F0C4619463B46BBBF07F10043CA
:105550001F4600232D230B700D9BDDF830A09146D4
:1055600023F02008BCBF32461646B8F1460F05D0DE
:10557000B8F1450F00D10134022100E0032103AB53
:10558000019302AB009347EC106B5346224600F0A8
:1055900017FFB8F1470F054619D119F0010F0ED0CA
:1055A00000EB04090022002330463946FBF7B4FA29
:1055B00008B1CDF80C903022039B4B451ED3039BC2
:1055C0000E9A5B1B2846136004B0BDE8F087B8F163
:1055D000460F00EB0409E5D10378302B0AD10022F5
:1055E000002330463946FBF797FA18B9C4F1010495
:1055F000CAF80040DAF800309944D3E7591C039107
:105600001A70D9E7F7B50029BABF49422D232B23D9
:1056100009290270437029DD0DF107031D460A2791
:105620001A46B1FBF7F607FB1614303402F8014CAA
:105630000C46632C03F1FF333146F1DC3031941E0C
:1056400003F8011C411C2346AB420AD30DF10903A8
:105650009B1AAC4288BF002302330344181A03B0DC
:10566000F0BD13F8016B01F8016FEDE73023303125
:105670008370C170031DF1E72DE9F04F8DB00C462A
:10568000DDF8588016461F46054600F081FD036888
:1056900004931846FAF714FE00230A93D8F8003052
:1056A0000590073323F0070303F1080294F818A0CC
:1056B000D4F800B0C8F80020D3E9008929F00043ED
:1056C0000793CDF81880C4E91289DDE906019C4BE7
:1056D0004FF0FF32FBF752FA70BBDDE90601984B41
:1056E0004FF0FF32FBF72CFA30BB0022002340467C
:1056F0004946FBF71BFA10B12D2384F84330914A39
:10570000914BBAF1470F8CBF904698460323236113
:105710002BF0040323604FF00009009733460BAAD7
:105720002146284600F0D2F9013040F08D804FF03C
:10573000FF300DB0BDE8F08F42464B46404649462B
:10574000FBF71CFA40B14B46002BBCBF2D2384F85D
:1057500043307E4A7E4BD4E763680AF0DF0206924C
:105760005A1C3BD1062363604BF480620023226005
:1057700003930AABCDE901A309AB0093616849EC3F
:10578000108B0DF123032846FFF7D7FE069B0999DE
:10579000472B804629D1C81C02DB6368994241DD52
:1057A000AAF1020A5FFA8AFA0139524604F150005E
:1057B0000991FFF727FF0A9A1318012A81462361EE
:1057C00002DC2268D20701D5013323619DF8233022
:1057D000002BA2D02D2384F843309EE7069A472A57
:1057E000C2D1002BC0D10123BDE7BAF1650FDBD9CF
:1057F000BAF1660F18D1002963680BDD216113B976
:105800002268D00702D501330B442361A1654FF014
:105810000009DBE713B92268D20701D50233F4E7A8
:105820000123F2E74FF0670A0A9B994205DB2368E0
:105830002161D807EAD54B1CE7E70029D4BFC1F1A5
:10584000020201221344E0E723685A0507D42369C2
:10585000424631462846B84701302BD167E7BAF1B6
:10586000650F40F2DD80D4E9120100220023FBF72E
:1058700053F9002833D0374A012331462846B84728
:1058800001303FF454AFDDE90938434502DB2368BA
:10589000D8070FD5DDE9042331462846B847013043
:1058A0003FF445AF4FF0000908F1FF3804F11A0A40
:1058B000C84509DC23689B0700F10381E0680B9B66
:1058C0009842B8BF184634E701235246314628466D
:1058D000B84701303FF42BAF09F10109E8E7099B14
:1058E000002B39DC1B4A012331462846B8470130DA
:1058F0003FF41DAFDDE9093959EA030302D12368FA
:10590000D907D7D5DDE9042331462846B847013009
:105910003FF40DAF4FF0000A04F11A0B099B5B42F4
:10592000534501DC4B4693E701235A46314628464E
:10593000B84701303FF4FBAE0AF1010AEEE700BFC1
:10594000FFFFEF7FA08700089C870008A88700085A
:10595000A4870008AC870008A36DDDF828A0534594
:10596000A8BF5346002B994636DC4FF0000B29EABE
:10597000E97904F11A02A36D0693A3EB09035B45D1
:1059800031DC099B9A453ADC2368DA0737D4099B56
:10599000AAEB0309069BAAEB03039945A8BF994606
:1059A000B9F1000F33DC4FF0000829EAE97904F17E
:1059B0001A0B099BAAEB0303A3EB090343457FF7EB
:1059C00079AF01235A4631462846B84701303FF4A3
:1059D000AEAE08F10108ECE7424631462846B8472A
:1059E0000130C2D1A3E60123314628460692B847CA
:1059F00001303FF49CAE069A0BF1010BBBE7DDE9E9
:105A0000042331462846B8470130C0D18FE6069AB4
:105A10004B46424431462846B8470130C3D186E65A
:105A2000DDF828A0BAF1010F01DCDB0736D5012330
:105A3000424631462846B84701303FF478AEDDE9AA
:105A4000042331462846B84701303FF470AED4E90C
:105A50001201002200230AF1FF3AFBF75DF8C0B9FA
:105A6000534608F1010231462846B84701300CD1AF
:105A70005DE601235A4631462846B84701303FF4D7
:105A800056AE08F10108D045F3DB4B4604F1500255
:105A9000DFE64FF0000804F11A0BF4E70123424659
:105AA000E1E701234A4631462846B84701303FF432
:105AB0003EAE08F10108E3680B995B1A4345F0DC40
:105AC000FCE64FF0000804F11909F4E72DE9F0476E
:105AD000164698468A680B69DDF820909342B8BF55
